:100000000C942A000C9447000C9447000C94E900CF
:100010000C9447000C9447000C9447000C94470044
:100020000C9447000C9447000C9447000C94AE00CD
:100030000C9447000C9447000C9447000C94470024
:100040000C9447000C94E7010C9447000C94470073
:100050000C94470011241FBECFE5D4E0DEBFCDBF16
:1000600010E0A0E6B0E0E0EFF7E002C005900D92EE
:10007000A636B107D9F711E0A6E6B0E001C01D929F
:10008000AF32B107E1F70E9452000C94F6030C94D2
:10009000000080912E018F7B80932E0180912D0195
:1000A0008CB908950E94D1010E949A0389E490E0DE
:1000B0000E94A5030E940D010E94DD0180ED97E0E2
:1000C0000197F1F7A8950E948E01FCCF80912E0137
:1000D0008F7B80932E01817131F084E790E064E1A1
:1000E00070E00E944B01089580912E0186FF06C0AA
:1000F00084E790E064E670E00E944B0110922101D9
:1001000082E080932B0180EB8093250110922201E5
:100110008FEF8093230186E690E0909361008093B7
:100120006000909365008093640085EA86BF84E454
:1001300080932E01089580912E018F7B80932E0154
:10014000817139F087ED90E064E170E00E944B012D
:10015000089584E790E00E94260108951F920F926F
:100160000FB60F9211242F933F934F935F936F938A
:100170007F938F939F93AF93BF93EF93FF938CB134
:100180008093200187ED90E00E942601FF91EF917E
:10019000BF91AF919F918F917F916F915F914F919F
:1001A0003F912F910F900FBE0F901F90189580EAEE
:1001B0006FEF70E0409120012BE930E00E94AE0328
:1001C000882331F487ED90E062E370E00E944B01F8
:1001D00008951F920F920FB60F9211242F933F9301
:1001E0004F935F936F937F938F939F93AF93BF933F
:1001F000EF93FF930E94AB01FF91EF91BF91AF91FD
:100200009F918F917F916F915F914F913F912F912E
:100210000F900FBE0F901F901895E6E6F0E085E274
:1002200091E08193919320E0E43AF207D1F7E4EA78
:10023000F0E0282F892F2083818313821282349645
:1002400091E0E032F907B9F708950895AC010FB6CF
:1002500007FE0CC0F89421E00AC031961296EF31E7
:10026000F10549F42223B1F07894089520E0A6E640
:10027000B0E0E0E0F0E08D919C91119785529140C3
:1002800061F7EE0FFF1FEA59FF4F5183408322238E
:1002900009F078940895CF93DF93AC010FB607FC73
:1002A00002C020E002C0F89421E0C4EAD0E0DE0100
:1002B000E0E0F0E08D919C9111978417950761F42F
:1002C000EE0FFF1FEE0FFF1FEC55FF4F738362838E
:1002D000222309F178941FC031961496EF31F1056D
:1002E00049F7E0E0F0E0888199818552914071F40E
:1002F000EE0FFF1FEE0FFF1FEC55FF4F51834083A2
:1003000073836283222339F0789405C03196249652
:10031000EF31F10541F7DF91CF910895F8942091E5
:1003200066003091670081E02532380711F4789437
:100330000895E6E6F0E0828193818193919380E0D5
:10034000E23AF807C1F785E291E0918380837894DF
:10035000F901099508950F931F93CF93DF93C4EA92
:10036000D0E005E211E08881998121E08532920791
:1003700071F02A813B812130310529F02150304034
:100380003B832A8304C00E94260119830883249694
:1003900081E0C032D80739F7DF91CF911F910F91DB
:1003A000089589E189B910BC1BB888E98AB986E843
:1003B00080BD18BA81E087BB08958CE085BD14BC70
:1003C0008DE783BD89B7806889BF789408951F92AF
:1003D0000F920FB60F9211242F933F934F935F9379
:1003E0006F937F938F939F93AF93BF93EF93FF93FD
:1003F00081B190E0887F90708036910509F434C116
:1004000081369105CCF58832910509F4ACC089326A
:100410009105B4F48031910509F47AC081319105D8
:100420003CF4009709F468C0089709F071C168C0EE
:100430008831910509F47DC0809709F069C1DBC05E
:100440008034910509F4D4C08134910544F480339B
:10045000910509F4BCC0C89709F05AC1BEC08035E7
:10046000910509F4D4C08835910509F4E6C08834B3
:10047000910509F04DC1BFC08839910509F40BC140
:1004800089399105ECF48837910509F4E4C089377E
:1004900091054CF48836910509F4DDC0803791054B
:1004A00009F036C1E1C08838910509F4F4C08039FB
:1004B000910509F4E1C08038910509F029C1DCC03B
:1004C000803B910509F4F3C0813B910544F4803AE7
:1004D000910569F1883A910509F01AC1F1C0803C93
:1004E000910509F405C1883C910509F401C1883BD7
:1004F000910509F00DC1EAC080912E0181607EC096
:1005000080912E018C7090912501882351F407C0B1
:1005100080912E018C7090912501883011F49160AA
:1005200001C09E7F909325018091250183B985ECC0
:10053000DDC080912E0190E08C7090708430910528
:1005400061F490912101E92FF0E0EE5DFE4F808192
:1005500083B99F5F90932101EACF089709F0D8C033
:1005600090912A012AC080912E018C708430C9F4A8
:100570009091210180912B01981741F485ED86BF60
:10058000E0916000F091610009950BC0E92FF0E067
:10059000EE5DFE4F808183B99F5F9093210185ECD2
:1005A00086BF80912E018C70883009F0B1C0909187
:1005B0002A01809127019817C9F0E92FF0E0E85D42
:1005C000FE4F808183B99F5F90932A01B0CF8091C5
:1005D0002E01826080932E0137C080912E018062AF
:1005E00080932E011092210110922A0185EE7EC087
:1005F0002091210117C080912E01806180932E01EE
:1006000085ED86BFE0916400F091650080C0209187
:10061000210183B1E22FF0E0EE5DFE4F80832F5F7A
:100620002093210130E02F5F3F4F80912B0190E01C
:100630002817390709F07BCF56C083B1E09121011B
:10064000F0E0EE5DFE4F808385ED86BFE0916000B7
:10065000F09161005CC080912E01806A80932E0130
:100660001092210110922A0180912E0180648093C2
:100670002E0110922C0137C080912C0193B1E82FEC
:10068000F0E0E35DFE4F90838F5F80932C01882321
:1006900009F04DCF28C083B1E0912C01F0E0E35D7B
:1006A000FE4F808380912E0187FF2BC028C0809150
:1006B0002E01806A80932E011092210110922A014E
:1006C00010922C018091260183B90DC080912C01DC
:1006D0008F5F80932C01E82FF0E0EA5DFE4F908160
:1006E00093B9882311F485E801C081EC86BF10C05E
:1006F00080912E0187FF05C08F7780932E0185EEB4
:1007000001C085EC86BFE0916200F091630009951D
:10071000FF91EF91BF91AF919F918F917F916F91D9
:100720005F914F913F912F910F900FBE0F901F90AF
:100730001895089585B3836085BB84B38C7F84BB93
:100740008FEF80B983E081B9089522E322B99093B5
:1007500063008093620085E486BF0895982F80919E
:100760002E0186FF02C080E008951092210183E0EF
:1007700080932B01909325017093220160932301B4
:100780004093240130936100209360003093650012
:100790002093640085EA86BF84E480932E0181E083
:1007A0000895982F80912E0186FF02C080E0089561
:1007B0001092210140932B01909325017093280101
:1007C0006093290110922A0182E0809327013093DF
:1007D000610020936000309365002093640085EAF7
:1007E00086BF88E480932E0181E00895F894FFCFBE
:0607F0009903990399032F
:00000001FF
