:103C00000C942A1E0C94001E0C94001E0C94001E92
:103C10000C94001E0C94001E0C94001E0C94001EAC
:103C20000C94001E0C94001E0C94001E0C94001E9C
:103C30000C94001E0C94001E0C94001E0C94001E8C
:103C40000C94001E0C94001E0C94001E0C94001E7C
:103C50000C94001EF894EE27ECBBF1E0FBBFF2E001
:103C6000FBBFE5BFF8E1F1BDE1BD8DE0A2E0BB2700
:103C7000ED938A95E9F780E094E0A0E6ED93019753
:103C8000E9F7EFE5EDBFE4E0EEBFC0E6D1E00C946C
:103C9000C81EE0915700E0FDFCCF08950E94491E28
:103CA000E981FA81A881A0935700E89523960895A9
:103CB0000E94491EF981E8811B800A80A1E0A0933F
:103CC0005700E89548C00E94491EB1E1B0935700E3
:103CD000E89508951A9341D01E2FF12FE0E0FF934D
:103CE000EF933BD0AF91BF91F0E0EA0FFB1F3F0194
:103CF000D301E7E00E94FD1E2F01199108950E9453
:103D0000061F00E010E00038E0E01E0788F425D030
:103D10002E2F332722D0FE2FE0E02E2B3F2B3A937D
:103D20002A931A930A930E94581E0E5F1F4FEBCFDF
:103D30005A924A92E3E0EA930E944E1E5A924A92A5
:103D4000E5E0EA930E944E1EBEDF07D00E2F11273A
:103D5000E1E00E940B1F249608951A930A9300E055
:103D600010E05F9909C0A8950E5F1F4F01501040E9
:103D70000B3FEFEF1E07A8F3ECB1099119910895DD
:103D80005D9902C0A895FCCFE881ECB92196089511
:103D9000E1E0E2BBECE0E9B9E8E1EAB9E6E8E0BD80
:103DA000DCDFEEE3EA93ECDFD8DFEC3319F5E3E593
:103DB000EA93E6DFE2E4EA93E3DFEDE6EA93E0DFAD
:103DC000E3E6EA93DDDFE1E3EA93DADFC6DFE1E28F
:103DD000EA93D6DFA8957EDFEFEFFFEFE615F70554
:103DE00049F08DDFE03021F0E1E2EA93C9DF01C064
:103DF00001C0F0CF0C940000FFCFEE230E2EFD018A
:103E000021F0EE0FFF1F0A94E1F708953A932A93E9
:103E10001A930A9308953B812A8119810881089594
:00000001FF
