:080000000C94EE010C940000C9
:100008000C9400000C9400000C9400000C94000068
:100018000C9400000C9400000C9400000C94000058
:100028000C9400000C9400000C9400000C94000048
:100038000C94DE040C9400000C9400000C94000056
:100048000C9400000C9400000C9400000C94000028
:100058000C9400000C9400000C9400000C94000018
:100068001027E80364000A000100001000011000D6
:100078000100000064622049443A25640D0A0064C6
:10008800623E002563257800696F706F72742025C1
:10009800783D2025780A0D002563257825780069A4
:1000A8006F706F72742025782D3E2025780A0D0018
:1000B8002563256400646174615265672025643D89
:1000C8002025780A0D00256325642578006461746D
:1000D800615265672025642D3E2025780A0D00723F
:1000E800656769737465722023206D757374206267
:1000F80065203C2032320D0A006D656D6F727920E3
:1001080025783D2025780A0D006D656D6F72792080
:1001180025782D3E2025780A0D00646174612073CE
:10012800746B20616464723D25780A0D006877203D
:1001380073746B20616464723D25780A0D00535214
:1001480045473D25780A0D002D2D25732D2D0A0DC7
:100158000025780D0A0067202D2D20676F20727505
:100168006E2074617267657420636F6465200D0A80
:100178000078202D2D207265626F6F74206D637575
:10018800200D0A006920696F726567202D2D207285
:1001980065616420692F6F20726567697374657281
:1001A8003B20696F72656720696E206865780D0A63
:1001B800004920696F7265672064617461202D2D84
:1001C80020777269746520692F6F2072656769737B
:1001D800746572202D206865780D0A0072206461AC
:1001E8007461726567202D2D20726561643B2064FF
:1001F80061746172656720696E20646563200D0A09
:1002080000522064617461726567206461746120C2
:100218002D2D2077726974653B20646174612069B3
:100228006E20686578200D0A006D20616464722074
:100238002D2D2072656164206D656D6F72793B208C
:100248006865780D0A004D206164647220646174E9
:10025800202D2D207772697465206D656D6F727918
:100268003B206865780D0A0064202D2D20746F707E
:10027800206F66206461746120737461636B3B2036
:100288006865780D0A0077202D2D20746F70206F17
:100298006620686172647761726520737461636B4C
:1002A8003B206865780D0A0073202D2D206D63753D
:1002B80020737461747573207265676973746572ED
:1002C8003B206865780D0A006C2C206C632C206C30
:1002D80064202D2D206C6F676765642076617269D4
:1002E80061626C65730D0A005461726765742063FE
:1002F8006F646520636F6D6D616E64733A0D0A00FB
:1003080020206465627567284465627567494429D9
:10031800202D2D20656E746572206465627567678F
:1003280065720D0A0020207265706F7274566465DC
:10033800632C207265706F727456686578202D2D55
:10034800207072696E74207661726961626C65737F
:100358000D0A0020206C6F67696E69742C206C6F21
:100368006756202D2D20736176652076617269614C
:10037800626C65730D0A000D0D0A20444220322E6E
:10038800300D0A00546172676574204661696C65B6
:100398006400257000746D70003D25640A0D0045E9
:1003A8006E7465722061206E756D6265723A002503
:1003B80073000A0D25730A0D000001002D4E414EF1
:1003C80000494E46000001000A007A000100580367
:1003D800C2030000F894EE27EFBBF1E0F5BFE5BFDC
:1003E800F8E1A895A4B7A77FA4BFF0936000E093B5
:1003F80060008DE0A2E0BB27ED938A95E9F780E0E5
:1004080098E0A0E0B1E0ED930197E9F7EEECF3E0B6
:1004180085919591009761F0A591B59105901590FA
:10042800BF01F00105900D920197E1F7FB01F0CFB4
:10043800E0E0EEBBEFEFEDBFE8E0EEBFC0E0D3E0F9
:100448000C94C804C0930403D0930503CDB7DEB75A
:10045800C0930603D0930703CFB7C0932803C09176
:100468000403D09105030092080310920903209217
:100478000A0330920B0340920C0350920D036092D2
:100488000E0370920F038092100390921103A092B2
:100498001203B0921303C0921403D0921503E09292
:1004A8001603F0921703009318031093190320936F
:1004B8001A0330931B0340931C0350931D0360934E
:1004C8001E0370931F038093200390932103A0932E
:1004D8002203B0932303C0932403D0932503E0930E
:1004E8002603F0932703089500900803109009034A
:1004F80020900A0330900B0340900C0350900D039A
:1005080060900E0370900F03809010039090110379
:10051800A0901203B0901303C0901403D090150359
:10052800E0901603F0901703009118031091190337
:1005380020911A0330911B0340911C0350911D0315
:1005480008950E94A80AA0E1B0E080E090E00E942F
:100558005E0AA0E0B2E18AE790E00E94880AE150D2
:10056800F04060407040E093C400E8E1E093C100CF
:1005780024960895A0970E94B80AE1E0E093290321
:10058800ECE7F0E0FA93EA93E09100030E94030994
:100598000E940909E0912903E03011F40C94C40485
:1005A800E0E0EC83E7E8F0E00E940E0900E00E943A
:1005B8007A051E2FED30C9F01A930E948105A12FEC
:1005C800E8E00E94270A0E2EA02FE0E00E942C0AE5
:1005D800E02111F0015008C0E02F0F5FF0E0DE01CC
:1005E8001496EA0FFB1F1083E2CFE02FF0E0DE0144
:1005F8001496AE0FBF1FE0E0EC93EDE0EA930E9483
:100608008105EAE0EA930E948105AC81A73619F4D6
:10061800E0E0E0932903AC81A837A9F4E091C00099
:100628000E94310AFF2766277727E070F070617013
:1006380070700E94B20A91F7E0E0E093C100E8E030
:10064800E0936000FFCFAC81A93611F00C946403ED
:100658000E9415090E941A090E9425090E942C0966
:10066800A0913E03A33329F4E0910103E0933D03F5
:100678001FC0A0913E03AE3229F4E0910203E0933B
:100688003D0316C0A0913E03A53229F4E09103036F
:10069800E0933D030DC0AF93BF930F93A0913E032A
:1006A800B0E090960C9100933D030F91BF91AF91EC
:1006B800E0E9F0E00E9431090E9436090E943909F8
:1006C800AC81A93411F00C94A3030E9415090E946F
:1006D8003E090E9425090E9449090E945009A091DB
:1006E8003E03A33329F4E0913F03E09301031FC0C5
:1006F800A0913E03AE3229F4E0913F03E093020358
:1007080016C0A0913E03A53229F4E0913F03E0937F
:1007180003030DC0AF93BF930F9300913F03A091C4
:100728003E03B0E090960C930F91BF91AF91E7EA2A
:10073800F0E00E9431090E9455090E943909AC81F4
:10074800A237D9F40E941509E8EBF0E00E94580995
:100758000E942C09A0913F03A03278F40E946109FD
:10076800E081E0933D03EDEBF0E0FA93EA930E9419
:1007780055090E9436090E943909AC81A235F1F465
:100788000E941509EEECF0E00E9458090E946709E2
:10079800A0913F03A63170F40E946109A091420321
:1007A800A083E5EDF0E0FA93EA930E9455090E94D0
:1007B8006E0904C0E7EEF0E00E940E09AC81AD3688
:1007C800E9F40E9415090E941A090E9477090E94FB
:1007D8002C09AF93BF930F93A0914003B0914103AD
:1007E8000C9100933D030F91BF91AF91E1E0F1E0CF
:1007F8000E947E090E9436090E943909AC81AD34F5
:1008080001F50E9415090E943E090E9477090E947D
:100818006709AF93BF930F93A0914003B091410331
:10082800009142030C930F91BF91AF91E091430364
:10083800E070E0934303E1E1F1E00E947E090E9449
:100848006E09AC81A43651F4E2E2F1E0FA93EA933E
:10085800E0910403F09105030E948909AC81A73750
:1008680059F4E5E3F1E0FA93EA93E0910603F09195
:10087800070332960E948909AC81A33751F4E6E454
:10088800F1E0FA93EA93E09128030E9403090E9499
:100898000909AC81AC3669F5AD81A33631F4E0E0E5
:1008A800E0932A03E0932B0324C0AD81A43689F496
:1008B8000E948E0920E030E00E94950948F4E2E8A1
:1008C800F0E00E949C090E9409092F5F3F4FF4CF76
:1008D80010C00E948E0920E030E00E94950948F47B
:1008E800E9E5F1E00E949C090E9409092F5F3F4F4A
:1008F800F4CFAC81A83611F00C94C204EEE5F1E017
:100908000E940E09E9E7F1E00E940E09ECE8F1E027
:100918000E940E09E9EBF1E00E940E09E4EEF1E015
:100928000E940E09E9E0F2E00E940E09E1E3F2E01C
:100938000E940E09EEE4F2E00E940E09E0E7F2E000
:100948000E940E09EEE8F2E00E940E09E0EBF2E0E8
:100958000E940E09E0EDF2E00E940E09E0EFF2E0DD
:100968000E940E09E8E0F3E00E940E09EDE2F3E0D0
:100978000E940E09EBE5F3E00E940E090C94CE02EA
:100988000E94BF0AA4960895E0E8F5E260E070E0EE
:100998000E94AD0A0E94A502EFE7F3E00E940E094B
:1009A800E0E0E093290319D0ECE8F3E00E940E0997
:1009B800FFCFFFCFEA93EFB7EA93E0E0E41508F43E
:1009C8004A94E0E0E31508F43A94E0E0E61508F408
:1009D8006A94E991EFBFE991189539D03D9A3C9A0C
:1009E800459AE4E6F0E0FA93EA930E940B0A4598E8
:1009F800E8E0E0932C03E0E0E0932A03E0932B0384
:100A0800EDE2F3E0FA93EA93EAE9F3E0FA93EA9382
:100A1800EDE9F3E0662777270E94AD0A84E00E949B
:100A2800FF062896A394EDE9F3E00E940E09E1EA97
:100A3800F3E0FA93EA93EA2D0E9403090E94090958
:100A4800459A0E94A30945980E94A309EBCF2297D3
:100A58000E94B60A15E50AEA33E024E055E046E0CC
:100A6800E5E5EF83EAEAEE83E4B5E0930103E0917C
:100A78008100E0930203E091B000E0930303E0E01B
:100A8800E4BDE0938100E093B0000E942602E1E01B
:100A9800E09300030E94BE020E947802E0910103E5
:100AA800E4BDE0910203E0938100E0910303E09349
:100AB800B000E0E0E7B9EFEFE4B9E0E0E5B9E2E083
:100AC800E0936E00EAEFE7BDEBE0E4BDEFEF7E2ECA
:100AD800EAEF4E2EEDE73E2EECE36E2EE4E05E2EBE
:100AE800882478940E94BD0A28960895E091C00051
:100AF800E078E1F3E091C6000895E091C000E0726B
:100B0800E1F3E881E093C60021960895EA81EA932B
:100B1800F4DFA881B9810E94A909239608951A9340
:100B28000A93AA81BB8112960E94A00A309729F1E4
:100B3800AA81BB8114960E94A00A8F01309761F0A8
:100B48000230E0E01E07C0F0F80131978F01AA815A
:100B5800BB811496ED93FC93AA81BB8112960E94E7
:100B6800A9093197AC81A083AA81BB810E94A00A00
:100B7800FF2312F00E94A90906C0AA81BB81EFEFEA
:100B8800FFEFED93FC9319810881A8C126970E9475
:100B9800B60A10E0AC85BD85E0E0F0E0ED93FC938B
:100BA800EA89FB893196EA8BFB8B3197E4912E2FEA
:100BB800E03011F40C94F706E12FE03039F42532D7
:100BC80011F411E002C00E94AF090CC1E130A9F490
:100BD800253219F40E94AF0904C112E040E000E098
:100BE8002D3211F401E0FEC02B3211F44BE2FAC0B1
:100BF800203211F440E2F6C002C0E23039F450E08D
:100C080013E0203311F40068EDC004C0E33011F0A4
:100C18000C94F606203310F02A3308F007C0AAE037
:100C28005A9F502DE22FE0535E0FDCC0E22FE336CF
:100C380049F40E94B809E889F989A481AA930E9415
:100C4800BE09CFC0E33741F40E94B8090E94C60923
:100C58000E94CE081E2F0AC0E03761F40E94B8092E
:100C68000E94C6090E94D8081E2F086002600F77EC
:100C780030E035C0E43611F0E93611F4046002C002
:100C8800E53731F4E8E6F0E0EE83FF8315E00DC0C8
:100C9800E83511F4086004C0E83711F00C94F50643
:100CA800E2E7F0E0EE83FF8314E002FF14C00E9445
:100CB800B8090E94D009AB85AA233AF4EA85FB85D6
:100CC8000E941B0AEA87FB874DE2403011F01F5F44
:100CD80001C00B7F04C00E94B8090E94D00900FD22
:100CE80011C0151778F407FF08C002FF04C00B7F76
:100CF800242F115001C020E301C020E20E94AF0957
:100D08005150EFCF312F01FF17C03030A1F003FF52
:100D180006C0EE81FF812591EE83FF8305C0AE8179
:100D2800BF812D91AE83BF830E94AF09503009F077
:100D380051503150EACF4BC020E3EE81FF810E9431
:100D4800A40AE887F987EE81FF813296EE83FF8354
:100D5800E885F985AA85BB85AE17BF0750F02F5FD8
:100D6800A885B985EA85FB85EA1BFB0BEA87FB8723
:100D7800EFCF2A3328F003FF02C0295F01C0295DA5
:100D880004FD1AC0213320F4A885B985119709F408
:100D980009C0531710F000FF01C013C020E207FF7D
:100DA8000BC020E3006102FF07C00B7F4A930E943B
:100DB800BE09503009F051500E94AF09503009F077
:100DC80051503150A885B985129708F0B5CF00FF6A
:100DD80008C0503031F05150E0E2EA930E94BE0959
:100DE800F8CF10E0DDCEAC85BD850E94A00A0E9438
:100DF800BD0A64960895FF92F82E26970E94B80AB5
:100E08000E94D809309719F4EFEFFFEF1FC0DE01F9
:100E180016960E94170A8D010E94D809EE83FF8357
:100E2800E0E0E887E987DE011A960E94DF09E3E936
:100E3800F5E0FA93EA93FE013A96FA93EA93A6DE6E
:100E48009F01AE81BF81E0E0EC93F9010E94BF0AE7
:100E58002A96FF900895FF92F82E26971A930A93E0
:100E6800DE0114960E94170A8D01E0E0EC83ED8301
:100E7800EE83EF83DE0118960E94DF09EAE8F5E0C9
:100E88000E94E80983DE198108812896FF90089559
:100E98001A93A981BA81E0E0EC93AB81BC81EC9113
:100EA8001E2FE03019F0E0E0EC9316C0A981BA815A
:100EB80011960E94A00A309771F0E981FA81A18108
:100EC800B281EC911E2FE03029F0A981BA811196E8
:100ED8000E94A90901C010E0E12F18812596089504
:100EE80025970E94B60AE0E0F0E0E887F9874E2FE0
:100EF800E989FA893196E98BFA8B3197E4913E2F8B
:100F0800E03011F40C94A5080E94EF09C1F0EDB788
:100F1800FEB7FA93EA934F930E94BE094F913E2F72
:100F2800E03019F00E94EF0909F407C00E94F409A3
:100F38001CF4EFEFFFEF07C1EACF432F01C13532B1
:100F480011F00C948C0850E0E989FA893591E98B05
:100F5800FA8B303310F03A3308F007C0AAE05A9FF2
:100F6800502DE32FE0535E0FEFCF303009F4E9C086
:100F7800EDB7FEB7FA93EA934F930E94BE094F91DB
:100F88002E2FEA930E94EB08E03039F00E94F40912
:100F98001CF4EFEFFFEFD7C0EBCF203009F4C8C047
:100FA800422F503009F45FEFE32FE33699F40E94A3
:100FB800F909EDB7FEB7FA93EA934F930E94BE0979
:100FC8004F91D801EC930E94F4091CF4EFEFFFEF66
:100FD800BAC098C0E33741F50E94F909E52F51508E
:100FE800E030F1F0EDB7FEB7FA93EA934F930E9421
:100FF800BE094F913E2FE03019F00E94EF0939F0F9
:101008000E94F4091CF4EFEFFFEF9DC009C01F9385
:101018000F930F5F1F4FE32FAF91BF91EC93DECF7C
:10102800D801E0E0EC936EC0E1E0EA87E32FE43614
:1010380011F0E93619F4E0E0EA8702C0E53711F467
:101048002AE008C0E83711F420E104C0E53209F4C9
:101058005FC077C0E0E0EE83EF83E52F5150E030CA
:1010680011F40C947908EDB7FEB7FA93EA934F930D
:101078000E94BE094F913E2FE13238F40E94F409D4
:101088001CF4EFEFFFEF5FC017C0EA85E03039F4DA
:101098003D3219F4EFEFEA87E0CFE1E0EA8720314B
:1010A80031F43A930E94F508E03031F007C03A93E2
:1010B8000E94E308E03011F4432F17C0313610F0D6
:1010C800375505C0313410F0375301C03053E22F83
:1010D800AE81BF81F0E00E94360ADF01E32FF0E025
:1010E800EA0FFB1FEE83FF83B8CF0E94F909EA8558
:1010F800AE81BF81F0E0E7FDFFEF0E94360AD8011C
:10110800ED93FC93E885F9853196E887F98718C04F
:10111800EDB7FEB7FA93EA934F930E94BE094F9139
:10112800E31771F00E94F4091CF4EFEFFFEF0BC016
:10113800E885F985309719F4EFEFFFEF04C001C097
:10114800D7CEE885F9850E94BD0A63960895FF9277
:10115800F82E23971A930A930E94040A309719F4D9
:10116800EFEFFFEF12C0DE0111960E94170A8D0102
:101178000E94040AEB83FC83DE0115960E94DF09B6
:10118800ECE4F7E00E94E809ABDE198108812596B6
:10119800FF900895A991B991EE27FF276D916623D5
:1011A80011F03196FBCF0895AA27BB27E991F99151
:1011B8000590002011F01196FBCFFD010895E1E0A4
:1011C800F991F03310F0FA3308F0EE270895E1E0D2
:1011D800F991F03229F0F93010F0FE3008F0EE27DE
:1011E8000895E1E0F991F05340F0FA3038F0FF75D6
:1011F800F750FA3010F0F03108F0EE270895FF2785
:10120800662777270E94AD0A089584E00E942F0779
:1012180026960895FA93EA9380E00E942F07229673
:101228000895FE013496FA93EA930895EBE8F0E006
:10123800FA93EA93EDE3F3E0662777270E94AD0A75
:101248000895EEE3F3E0662777270E94AD0A089534
:1012580088E00E94AB082C960895FA93EA93E091EF
:101268003E03CDCFE0913D03CACF88E00E942F070F
:101278002A960895E0EAF0E0FA93EA93EDE3F3E0C2
:10128800662777270E94AD0A0895EFE3F3E0662703
:1012980077270E94AD0A08958CE00E94AB086096FB
:1012A8000895E0913F03ABCFFA93EA93EDE3F3E0BF
:1012B800662777270E94AD0AE8CFE0913F03F0E068
:1012C800E85FFC4F0895E2E4F3E0662777270E9481
:1012D800AD0AE2CFE0914203F091430366277727F6
:1012E8000E94AD0AC2CFE0E4F3E0662777270E94A8
:1012F800AD0A0895FA93EA93E0914003F09141030F
:10130800662777270E94AD0A0895662777270E94E7
:10131800AD0A7BCFE0E5F1E0FA93EA93EDE2F3E082
:10132800F4CFE0912A03F0912B032E173F0708957D
:10133800FA93EA93F901E05AFF4FE08160CFE4EFB6
:10134800F1E0FA93EA930C940B0AED91FD91319632
:10135800FE93EE9308952A93ED85FE85FA93EA931A
:10136800E989FA8909950895E889F9893497E88B14
:10137800F98B0895ED85FE85FA93EA93E989FA8950
:1013880009950895A889B98914960E94A00AEE8340
:10139800FF83FA93EA930895A889B98914960E945D
:1013A800A00AEA87FB870895DE011C960E94170AA7
:1013B8000E94A00A08950E94170A0E94A00AFA93A0
:1013C800EA931A930A930895FA93EA93FE013896DA
:1013D800FA93EA9308953A930E94EB08E03008954F
:1013E800AB85BC85AC91A0300895EF85F88934971A
:1013F800EF87F88BAF85B88914960D911C910895E5
:10140800DE0117960E94170A0E94A00A0895E99122
:10141800F991309639F080ED97E00197F1F7A895AA
:101428003197C9F708950024AF0DB01D0895F195BF
:10143800E195F0400895F09560957095E195FF4F1E
:101448006F4F7F4F0895EA17E1E009F0EE270895FE
:10145800EA17E1E008F0EE270895EE23E1E009F04D
:10146800EE270895FA9FF02DEB9FF00DEA9FE02DEF
:10147800F10D08957A9F702D6B9F700DF89F700D78
:10148800E99F700D6A9F602D710DFB9F600D711DA6
:10149800E89F600D711D8827FA9FF02D610D781F58
:1014A800EB9FF00D611D781FEA9FE02DF10D681F7D
:1014B800781F08952ED0DEDF0EF4BDDF08953F9328
:1014C8004F935F93002411244427552730E2AA0F35
:1014D800BB1F881F991F001C111C441F551F0E1A83
:1014E8001F0A460B570B28F40E0E1F1E461F571FC8
:1014F80001C0A1603A9559F7FD01BC01D001CA01AC
:101508005F914F913F91089504D0D9DF0EF493DF96
:101518000895E89477FF02C08EDF689497FF0BC0A8
:101528000024A095B095809590951196801D901DEA
:1015380000F8039400FA0895ED91FC91119708952D
:101548000590F491E02D0895E881F9816A817B8105
:1015580008957A936A93FA93EA93089530976040CE
:10156800704008955A934A933A932A931A930A9388
:1015780008955D814C813B812A81198108810895F4
:00000001FF
