:020000021000EC
:0CFC00000C9446FE0C9400FE0C9400FED8
:10FC0C000C9400FE0C9400FE0C9400FE0C9400FE70
:10FC1C000C9400FE0C9400FE0C9400FE0C9400FE60
:10FC2C000C9400FE0C9400FE0C9400FE0C9400FE50
:10FC3C000C9400FE0C9400FE0C9400FE0C9400FE40
:10FC4C000C9400FE0C9400FE0C9400FE0C9400FE30
:10FC5C000C9400FE0C9400FE0C9400FE0C9400FE20
:10FC6C000C9400FE0C9400FE0C9400FE0C9400FE10
:10FC7C000C9400FE0C9400FE0C9400FE0C9400FE00
:10FC8C00F894EE27ECBBF1E0F5BFF2E0F5BFE093A2
:10FC9C006C00F8E1F1BDE1BD8DE0A2E0BB27ED9376
:10FCAC008A95E9F780E090E1A0E0B1E0ED9301974F
:10FCBC00E9F781E08BBFEFEFEDBFE0E1EEBFC0E015
:10FCCC00D5E00C94E7FEE0916800E0FDFCCF0895D0
:10FCDC000E9469FEE981FA81A881A0936800E895E9
:10FCEC00239608950E9469FEF981E8811B800A80A1
:10FCFC00A1E0A0936800E89547C00E9469FEB1E1BD
:10FD0C00B0936800E89508951A9340D01E2FF12FF8
:10FD1C00E0E0FF93EF933AD0AF91BF91F0E0EA0FA0
:10FD2C00FB1F3F01F62DE0E02F011BBF1991089539
:10FD3C000E9424FF00E010E00030E1E01E0788F490
:10FD4C0025D02E2F332722D0FE2FE0E02E2B3F2B59
:10FD5C003A932A931A930A930E9478FE0E5F1F4FD0
:10FD6C00EBCF5A924A92E3E0EA930E946EFE5A92CB
:10FD7C004A92E5E0EA930E946EFEBFDF07D00E2F99
:10FD8C001127E1E00E9429FF249608951A930A9303
:10FD9C0000E010E05F9909C0A8950E5F1F4F01505D
:10FDAC0010400B3FEFEF1E07A8F3ECB1099119912E
:10FDBC0008955D9902C0A895FCCFE881ECB9219615
:10FDCC000895E1E0E3B9599AE0E2E9B9E8E1EAB96A
:10FDDC00E6E0E0939500DADFEEE3EA93EADFD6DFC4
:10FDEC00EC3319F5E4E5EA93E4DFE4E4EA93E1DFCC
:10FDFC00E0E7EA93DEDFE3E6EA93DBDFE4E3EA93B2
:10FE0C00D8DFC4DFE1E2EA93D4DFA8957DDFEFEF22
:10FE1C00FFEFE615F70549F08BDFE03021F0E1E26A
:10FE2C00EA93C7DF01C001C0F0CFE0E0EBBFE1E037
:10FE3C00E5BFE0E0E5BF0C940000FFCF3A932A93B6
:10FE4C001A930A9308953B812A8119810881089598
:00000001FF
