:100000000C948C040C94A9040C94A9040C94A904D9
:100010000C94A9040C94A9040C94A9040C94A904AC
:100020000C94A9040C94A9040C94A9040C94A9049C
:100030000C94A9040C94A9040C94A9040C94A9048C
:100040000C94A9040C94A9040C94A9040C94A9047C
:100050000C94A904FF010101010101010103010147
:10006000010101010101010301010101010101017E
:10007000010301010101010101010103010101016C
:100080000101010101AB01010101010101010103B4
:10009000010101010101010101030101010101014E
:1000A000010101030101010101010101010301013C
:1000B0000101010101010101FF0000F0F88C8CF841
:1000C000F00000FCFC0000FCFC000004FCFC44C44C
:1000D000FC380000FF0800000000000000080000DD
:1000E0000000000000000008000000000000000008
:1000F00000080000000000000000000800000000F0
:100100000000000008AA080000000000000000082D
:1001100000000000000000000008000000000000D7
:1001200000000008000000000000000000080000BF
:100130000000000000000008FF0000C72720C007E3
:100140000700000103060603010000040707000082
:1001500007070000FF200000000000000020000052
:10016000000000000000002000000000000000006F
:10017000002000000000000000000020000000003F
:100180000000000020AA2000000000000000002065
:10019000000000000000000000200000000000003F
:1001A000000000200000000000000000002000000F
:1001B0000000000000000020FF00001922221C00A7
:1001C0001E212121001E21211E00FF21211E001EB3
:1001D00029292E00FF8000800080008000C0008060
:1001E00000800080008000C00080008000800080CF
:1001F00000C0008000800080008000C0008000807F
:100200000080008000AA008000800080008000C084
:10021000008000800080008000C00080008000809E
:10022000008000C0008000800080008000C000804E
:100230000080008000800080FF0028202820280007
:1002400000000000000000000000000000000000AE
:1002500000000000FF00000000000000000100009E
:10026000000000000000000100000000000000008D
:10027000000100000000000000000001000000007C
:100280000000000000AA00000000000000000001C3
:10029000000000000000000000010000000000005D
:1002A000000000010000000000000000000100004C
:1002B0000000000000000000FF00100810201000E7
:1002C000000000000000000000000000000000002E
:1002D00000000000FF02000000000000000200001B
:1002E000000000000000000200000000000000000C
:1002F00000020000000000000000000200000000FA
:100300000000000002AA020000000000000000023D
:1003100000000000000000000002000000000000DB
:1003200000000002000000000000000000020000C9
:100330000000000000000002FF00000000000000BC
:1003400000000000000000000000000000000000AD
:1003500000000000FF08000000000000000800008E
:100360000000000000000008000000000000000085
:10037000000800000000000000000008000000006D
:100380000000000008AA08000000000000000008AB
:100390000000000000000000000800000000000055
:1003A000000000080000000000000000000800003D
:1003B0000000000000000008FF00007C1404007C26
:1003C0001468007C54440038444478000000000065
:1003D00000000000FF8080808080808080A080807E
:1003E00080808080808080A08080808080808080ED
:1003F00080A0808080808080808080A080808080BD
:100400008080808080AA808080808080808080A0A2
:10041000808080808080808080A0808080808080BC
:10042000808080A0808080808080808080A080808C
:100430008080808080808080FF00000000000000BD
:1004400000000000000000000000007C107C00485C
:1004500068580000FF010101010101018181412172
:10046000211111111111111111212141418181011C
:10047000010101010101010101010101010101016C
:10048000010101010101010101010101010101015C
:10049000010101010101010101010101010101014C
:1004A00001010101010181C16121A1F1F1F1F131EC
:1004B0000101011119090D05BDFD7101010191F144
:1004C000711191C1E1213191F1F1311191F171017C
:1004D000010101FFFF0010001018041201100010AC
:1004E000001000100010001000100010001000118B
:1004F00002140418101020508090001000100010FA
:1005000000100010001000100010001000108050AB
:10051000201000100000000000000000000000C0DB
:10052000C08080C06030380C0E0B89F8FFFFC340DC
:1005300000000000000080F87F37180C060301005F
:100540008080C0C0F0BC1F07033EFEFFC1404000DA
:10055000000000FFFF00000000000000000000009D
:10056000000000000000000000000000000000008B
:1005700000000000008080000000018204040808E0
:1005800008101010901010101008080402018000CC
:10059000000000000000000000000000000000005B
:1005A000000000000000000000000000000000004B
:1005B000808000000000000000000000000000003B
:1005C000000000000000000000000000000000002B
:1005D000000000FFFF000000000000F0F83C0E07E4
:1005E0000EFCF000000070F89C8C0607030200006F
:1005F000E0F87C1E0F07030100E07E0F0100000001
:100600000000E0FE1F07000000000000E0FE1F07E2
:10061000000000000000F0F83C0E070EFCF00000A7
:100620000070F89C8C060703020000E0F87C1E0FA7
:1006300007030100F0F83C0E070EFCF0000000F488
:10064000FEFE22120E000000F0FE3F131313010005
:10065000000000FFFF00000000000001030206068A
:100660000303010000000808080809060000000054
:100670000103020202000000000F00000000000061
:10068000000003020606060202020200030206063A
:100690000602020202000103020606030301000033
:1006A0000008080808090600000000010302020211
:1006B000000000000103020606030301000000071A
:1006C000030000000000000001030202030101001A
:1006D000000000FFFF0000FC020000E0101010000E
:1006E0000002FC000000000000008C42221C00FC04
:1006F0000202FE00FC0202FE000282621E002020B6
:100700002020008C42221C00FC0202FE000804FE95
:1007100000000804FE00000000000000FE1010E0D1
:1007200000F00000F00000000000000000000000E9
:100730000000000000E0E000000000402000006039
:10074000001030E0400000000080E0201010E0C009
:10075000000000FFFF0000E10200E00102020200D1
:10076000000201000000000000000302024200033A
:100770000222E10003020241000003000000000029
:1007800000000003C22222C0030202010002020391
:100790000200020203020000000000000302024106
:1007A00000090A0A07E00000004000000000000005
:1007B0000000000000033F3C080601000030382420
:1007C00020222101003030000E3F2100201C0F03A9
:1007D000000000FFFF8080838CB08F8098A5A5BEAD
:1007E0008092A5A9928092A5A9928080A0BFA080A6
:1007F00080A0BFA08080A0BFA08092A5A992808089
:100800008080808099A2A29C809EA9A9AE8081BE92
:1008100081838098A5A5BE8092A5A9928080A0BF63
:10082000A0809EA1A1BF8080A0BFA08092A5A99218
:1008300080808080808080808080808080808080B8
:1008400080808080808080808080808080808080A8
:10085000808080FF000000005C000C000C7C287C85
:100860007C447C241048285408000C003844004480
:100870003800201008103810804000101010004080
:10088000002010087C447C007C0074545C54547C30
:100890001C107C5C54747C547404740C7C547C5C1C
:1008A000547C0050008050001028442828284428F8
:1008B00010045408384C5C7814787C54283844442C
:1008C0007C44387C54447C14043844347C107C00D0
:1008D0007C0020403C7C106C7C40407C087C7C048C
:1008E0007C7C447C7C14083844787C14684854240C
:1008F000047C047C407C3C403C7C207C6C106C1C68
:10090000601C64544C7C44007C3810380038102043
:10091000102020200408000011241FBECFE5D8E0DD
:10092000DEBFCDBF10E0A0E6B0E0ECE1F1E102C037
:1009300005900D92A236B107D9F711E0A2E6B0E01A
:1009400001C01D92AC3AB107E1F70E9449060C9430
:100950008C080C940000E7E7F0E0E80FF11D6083DD
:100960000895C59AC4980895C49AC59808958AE1CF
:10097000982F9A95F1F7C29A982F9A95F1F7C29805
:100980008A95F1F708951F93162F603418F4C59ACD
:10099000C49803C0C49AC5981054C198C098886B75
:1009A00082BB0E94B704106412BB0E94B704C198B6
:1009B000C09A1F9108951F9360916200603418F4EB
:1009C000C59AC49804C0809163000E94C30411BA00
:1009D00088B3836088BB8AE1982F9A95F1F7C29A11
:1009E000982F9A95F1F7C298982F9A95F1F7C29A95
:1009F000982F9A95F1F710B3C2988A95F1F78FEF77
:100A000081BB80916300609162000E94C304812FCA
:100A10001F9108951F93182F60916200603418F49D
:100A2000C59AC49804C0809163000E94C304809159
:100A30006200803881F410926200809163008F5FC1
:100A400080936300883011F41092630080916300FA
:100A500060E00E94C3048AE18A95F1F7C09AC198C8
:100A600012BB0E94B704809162008F5F8093620086
:100A70001F9108950F931F93CF93DF93CBEDD0E099
:100A800000E0009362008881809363001981602FE9
:100A90000E94C304812F0E940A050F5F229604362C
:100AA00081F7DF91CF911F910F910895DF92EF921F
:100AB000FF920F931F93CF93DF939BEDE92E90E06E
:100AC000F92EC0E0D0E087E0D82E6C2FFE01E95867
:100AD000FF4F9081892F8695869586952D2D281B11
:100AE000822F97702093630000E802C00695915012
:100AF0009923E1F7609362000E94C3040E94DB0423
:100B0000182F80916300F701808311836091620048
:100B10000E94C304802F812B0E940A05219682E047
:100B200090E0E80EF91EC436D10579F6DF91CF9139
:100B30001F910F91FF90EF90DF900895CF93DF9377
:100B4000109262001092630080E060E00E94C30493
:100B5000C4E5D0E0FE012196E4918E2F0E940A05A3
:100B600084E0C435D807B1F7DF91CF910895CF93D2
:100B7000DF93109262001092630080E060E00E94B8
:100B8000C304C4E5D4E0FE012196E4918E2F0E94B7
:100B90000A0588E0C435D807B1F7DF91CF910895F1
:100BA0001F9310BA8FEF81BB18BA87BBC39AC59A3F
:100BB000C49AC098C19810EE812F8A95F1F780EC05
:100BC00082BB0E94B704812F8A95F1F780E482BB33
:100BD0000E94B704812F8A95F1F788EB82BB0E94AF
:100BE000B7041A95F1F78FE382BB0E94B704C5984A
:100BF000C4981F9108950F931F93CF93DF9393E0B1
:100C0000899FC0011124EC01CC50D84F8C010D55A7
:100C100010400C5A174FFE0184910E940A0521963C
:100C2000C017D107C1F780E00E940A05DF91CF917C
:100C30001F910F91089580E687B986B1826C86B9BD
:100C400008959C01FB0168EE73E00E946508605DF9
:100C50006383C90168EE73E00E9465089C0164E645
:100C600070E00E946508605D6283C90164E670E01F
:100C70000E9465089C016AE070E00E946508605D62
:100C80006183C9016AE070E00E946508805D80832D
:100C900008952F923F924F925F926F927F928F9220
:100CA0009F92AF92BF92CF92DF92EF92FF920F93FB
:100CB0001F93CF93DF9314BA8FEF85BB1ABA0E94AC
:100CC000D00580E687B986B1826C86B90E94B705E7
:100CD00080E49CE920E931E0F9013197F1F70197CF
:100CE000D9F70E949E050E94560599990CC08091E3
:100CF0006C0090916D008937910528F401969093CE
:100D00006D0080936C009C990BC080916C00909159
:100D10006D00009729F0019790936D0080936C000F
:100D2000989907C0809175008D331CF48F5F809374
:100D300075009B9907C080917500843C1CF0815020
:100D4000809375009A9902C09A9BFECF10926F0013
:100D5000109270003FEF3093600081E08093730049
:100D600080916E00A82EBB2420906C0030906D0006
:100D700060907500209171000091A8011091A90167
:100D8000C2E0D0E0CC24DD24760140E09924882420
:100D90008A94E5E06E0E369A349BFECF75B0E72D4F
:100DA000F0E0AE16BF0640F4822F90E08E179F074A
:100DB00018F4442309F441E0EA15FB0540F4822FBE
:100DC00090E08E179F0718F4413009F442E0AE1608
:100DD000BF0690F4822F90E08E179F0768F4423090
:100DE00059F4BE017695679588ED99E50E946508EE
:100DF0006B01EE24FF2443E0910108C0369A349B36
:100E0000FECF85B1E82FF0E02150304021153105AB
:100E1000A9F7892D90E08E179F0708F49E2E882D44
:100E200090E0E817F90708F48E2E892D90E02C0148
:100E3000440C551C309719F482E090E00DC08C01F1
:100E400008191109000F111FCF01059665E070E028
:100E50000E946508CB010296262D280F203448F405
:100E6000C436D10578F4EC2FF0E0E958FF4F208329
:100E70000EC0C436D10530F4EC2FF0E0E958FF4F36
:100E8000108205C0C536D10510F0433039F02196E7
:100E90003AE3C839D30711F0272D7DCF7092710046
:100EA000909270001093A9010093A80180926000B5
:100EB000209376009093AB018093AA0180917000FB
:100EC00020916000821759F090E0821B910962E046
:100ED00070E00E947908260F20936E0002C0809374
:100EE0006E000E943A050E94560583E080936300DD
:100EF000EDE6E09362006DE60E94C304C20164EA7D
:100F000071E00E9421068091A6010E94FB0580E409
:100F10000E940A0580E00E940A058091A5010E94B6
:100F2000FB058091A4010E94FB0580E00E940A0558
:100F300086E50E94FB0534E0309363008DE68093E4
:100F4000620084E06DE60E94C3048091A801909144
:100F5000A90164EA71E00E9421068091A6010E9425
:100F6000FB0580E40E940A0580E00E940A0580914A
:100F7000A5010E94FB058091A4010E94FB0580E071
:100F80000E940A0586E50E94FB05E6E0E093630007
:100F90003AE73093620086E06AE70E94C3048091DA
:100FA0006C0090916D00892B11F48CE501C08DE5EA
:100FB0000E94FB0580916C0090916D00892B69F572
:100FC00087E080936300E6E6E093620066E60E94B5
:100FD000C30430E1C31637E2D30630E0E30630E065
:100FE000F306D8F480916300609162000E94C3040C
:100FF000C60164EA71E00E9421068091A7010E9467
:10100000FB058091A6010E94FB058091A5010E942D
:10101000FB058091A4010E94FB0510926B001092C9
:101020006A0081E08093730080916E00482F50E049
:101030002091AA013091AB0160E0722F369A349B67
:10104000FECF85B1282F30E04217530740F4872F99
:1010500090E08217930718F4662309F461E02417DF
:10106000350740F4872F90E08217930718F461301A
:1010700009F462E04217530750F4872F90E082177B
:10108000930728F4623019F41092730063E08091A2
:101090006A0090916B00895B9B4010F01092730086
:1010A00080916A0090916B00019690936B00809301
:1010B0006A0080917300813009F4BFCF7093710092
:1010C0003093AB012093AA0110CEAA1BBB1B51E1A8
:1010D00007C0AA1FBB1FA617B70710F0A61BB70BA8
:1010E000881F991F5A95A9F780959095BC01CD014D
:1010F000089597FB092E07260AD077FD04D0E5DF77
:1011000006D000201AF4709561957F4F0895F6F788
:0C111000909581959F4F0895F894FFCFB3
:02111C00FF00D2
:00000001FF
