:040000000C9427062F
:100004000C9400000C9400000C9400000C9400006C
:100014000C9400000C9400000C9400000C9400005C
:100024000C943E150C9400000C9400000C940000F9
:100034000C9400000C9400000C9400000C94640CCC
:100044000C94960B0C94370A0C9476090C940000CB
:100054000C94B50E0C9400000C9400000C94000059
:100064000C9400000C9400000C9400000C9400000C
:100074000C9400000C946C0A0C94A2090C940000DB
:100084000C94230D0C94000048656C7000005365BB
:1000940074005561727400004D6F64650000537004
:1000A4006565640053706900507265736300707015
:1000B400000049326300570072737400626F6F74FA
:1000C40000006462670020450D00206F6B0D000086
:1000D400204C617267655F76616C75650D00205711
:1000E400726F6E675F76616C75650D00205300005A
:1000F4000D3E3E3E2048454C50203C3C3C0D2043A8
:100104006F6D6D616E64733A0D000D20536574203C
:100114002D496E746572666163655F6E616D652DF0
:10012400202D6E756D6265722D204D6F6465202DD6
:1001340076616C7565286F7074696F6E616C292DBA
:10014400205370656564202D76616C7565286F7029
:1001540074696F6E616C292D00000D2057202020DA
:100164002D496E746572666163655F6E616D652DA0
:10017400202D6E756D6265722D202D646174612D64
:1001840000000D20476574202D656E746974792D07
:1001940000000D2020496E746572666163657320EA
:1001A400617661696C61626C653A0D20202055614D
:1001B400727428302C31290D202020537069283086
:1001C4002D486172642C20312D536F6674290D0003
:1001D4000D3E3E3E20554152545F48454C50203C14
:1001E4003C3C0D204D6F64653A20302D204E4F521B
:1001F4004D414C3B20312D20444F55424C45442029
:100204007370656564000D2053706565643A2062FF
:100214006175642F313030202845783A20353736DF
:10022400206973203537363030290D000D3E3E3EAF
:10023400205350495F48454C50203C3C3C0D204DD8
:100244006F64653A20302D20534C4156453B203194
:100254002D204D41535445520A000D2050726573B0
:1002640063616C6C65723A20706F77206F66203220
:10027400202845783A205072657363203136290D61
:100284000000000000000000005F000000070007FD
:1002940000147F147F14242A7F2A12231308646213
:1002A40036495522500005030000001C224100007D
:1002B40041221C0014083E081408083E0808005097
:1002C40030000008080808080060600000201008DA
:1002D4000402000000000000005F000000070007A7
:1002E40000147F147F14242A7F2A122313086462C3
:1002F40036495522500005030000001C224100002D
:1003040041221C0014083E081408083E0808005046
:100314003000000808080808006060000020100889
:100324000402000000000000005F00000007000756
:1003340000147F147F14242A7F2A12231308646272
:1003440036495522500005030000001C22410000DC
:1003540041221C0014083E081408083E08080050F6
:100364003000000808080808006060000020100839
:1003740004023E5149453E00427F400042615149DA
:10038400462141454B311814127F10274545453904
:100394003C4A494930017109050336494949360641
:1003A4004949291E0036360000005636000008145C
:1003B400224100141414141400412214080201519F
:1003C4000906324979413E7E1111117E7F4949491E
:1003D400363E414141227F4141221C7F49494941E6
:1003E4007F090909013E4149497A7F0808087F00CD
:1003F400417F41002040413F017F081422417F405A
:100404004040407F020C027F7F0408107F3E414140
:10041400413E7F090909063E4151215E7F091929A0
:1004240046464949493101017F01013F4040403F6F
:100434001F2040201F3F4038403F631408146307C7
:10044400087008076151494543007F414100020497
:100454000810200041417F00040201020440404092
:100464004040000102040020545454787F4844441E
:10047400383844444420384444487F385454541849
:10048400087E0901020C5252523E7F08040478008F
:10049400447D40002040443D007F1028440000413A
:1004A4007F40007C041804787C08040478384444B1
:1004B40044387C14141408081414187C7C080404AC
:1004C400084854545420043F4440203C4040207C7D
:1004D4001C2040201C3C4030403C44281028440C44
:1004E4005050503C4464544C4400083641000000D1
:1004F4007F000000413608001008081008784641C3
:100504004678000000000000005F000000070007BC
:1005140000147F147F14242A7F2A12231308646290
:1005240036495522500005030000001C22410000FA
:1005340041221C0014083E081408083E0808005014
:100544003000000808080808006060000020100857
:100554000402000000000000005F00000007000724
:1005640000147F147F14242A7F2A12231308646240
:1005740036495522500005030000001C22410000AA
:1005840041221C0014083E081408083E08080050C4
:100594003000000808080808006060000020100807
:1005A4000402000000000000005F000000070007D4
:1005B40000147F147F14242A7F2A122313086462F0
:1005C40036495522500005030000001C224100005A
:1005D40041221C0014083E081408083E0808005074
:1005E40030000008080808080060600000201008B7
:1005F40004023E5149453E00427F40004261514958
:10060400462141454B311814127F10274545453981
:100614003C4A4949300171090503364949493606BE
:100624004949291E003636000000563600000814D9
:10063400224100141414141400412214080201511C
:1006440009067E1111117E7F494949317F49494983
:10065400367F01010103702927217F7F49494941E0
:1006640077087F087741414149767F1008047F7FEE
:100674001009047F7F0814224120413F017F7F023B
:100684000C027F7F0808087F3E4141413E7F010103
:10069400017F7F090909063E4141412201017F0191
:1006A4000147281008071E217F211E6314081463C4
:1006B4003F2020205F070808087F7F407F407F3F5E
:1006C400203F205F017F4848307F4830007F007F13
:1006D400484830414141493E7F083E413E46291940
:1006E400097F20545454783C4A4A49317C54542854
:1006F400007C0404040C722A26227E3854545418B4
:100704006C107C106C44445454387C2010087C7C5D
:100714002112097C7C1028440020443C047C7C0881
:1007240010087C7C1010107C38444444387C040449
:10073400047C7C14141408384444442004047C04C9
:1007440004442810080408147E140844281028447B
:100754003C40407C400C1010107C7C407C407C3C35
:10076400203C207C047C5050207C5020007C007C69
:1007740050502028444454387C1038443848543469
:10078400147C00000000000000000000000080C095
:10079400E0F0F8F8FCFCFEFEFFFFFEFCF8F0E0C021
:1007A40080000000000000000000000000000000C5
:1007B4000000000000000080C0E0F0F8FCFEFFFF35
:1007C400FEFEFEFCF8F8F0E0C0800000000000002F
:1007D4000000000000000000000000000000E0F83D
:1007E400FEFFFFFFFFFFFFFFFFFFFFFFFFFFFFFF16
:1007F400FFFFFFFFFFFFFEFCF8F0E04000000000F9
:100804000000000040E0F0F8FCFEFFFFFFFFFFFFE8
:10081400FFFFFFFFFFFFFFFFFFFFFFFFFFFFFFFEE5
:10082400F8E00000000000000000000000000000EC
:10083400787F7F7F7F7F7F7F7F7F7F7F7F7F7F7FCB
:100844007F7F7F7F7F7F7F7F7F7F0F0301F0F8FCB7
:10085400FCFEFEFEFEFEFEFCFCF8F001030F7F7FB3
:100864007F7F7F7F7F7F7F7F7F7F7F7F7F7F7F7F94
:100874007F7F7F7F7F7F7F78000000000000000083
:100884000000000000000000000000000000000064
:1008940000000000000000000000000000000080D4
:1008A400C0E1E3E7C7CF8F8F8F8FCFC7E7E3E1C006
:1008B40080000000000000000000000000000000B4
:1008C4000000000000000000000000000000000024
:1008D4000000000000000000000000000000000014
:1008E400000000000000000000000080C0E0F0F8FC
:1008F400FCFEFFFFFFFFFFFFFFFFFFFFFFFFFFFF08
:10090400FFFFFFFFFFFFFEFCF8F0E0C080000000E7
:1009140000000000000000000000000000000000D3
:1009240000000000000000000000000000000000C3
:100934000000000000000000000000000C0E1F1F5B
:100944001F3F3F3F3F7F7F7FFFFFFFFFFFFFFFFF13
:10095400FFFFFFFFFFFFFFFF7F7F7F3F3F3F3F1F03
:100964001F1F0E0C0000000000000000000000002B
:10097400000000000000000000001027E8036400ED
:100984000A00010000100001100001000000FF0037
:10099400C800730E730E730E0303024600000000BA
:1009A4000000706F72660D0A0065787472660D0A35
:1009B40000626F72660D0A00776472660D0A004A5F
:1009C4005452460D0A000D3C52414D3E000D554116
:1009D40052545F53455454494E47530D00554152A8
:1009E4005420000D204D6F646520000D2053706568
:1009F400656420000D2D2D2D2D2D2D2D2D0D000D7B
:100A04005350495F53455454494E47530D00535076
:100A14004920000D205072657363616C6C6572200F
:100A2400000D3C454550524F4D3E000D42757465D6
:100A3400735F525820000D42757465735F545820DB
:100A440000767265663D25642000643D25642000BF
:100A540064656C74613D25642000766F6C743D257B
:100A64006420000D20536574000D205561727400DC
:100A74000D204E756D000D204D6F6465000D4D20E9
:100A840045584954000D20000D2055736172745F60
:100A9400696E6974000D20537069000D53204E7502
:100AA4006D000D53204D6F64652D000D5320507261
:100AB4006573632D000D5320506861506F6C2D00D9
:100AC4000D5320537069496E6974000D2057000D51
:100AD400205520443E545820000D205320443E54B9
:100AE4005820000D205320443C525820000D20492A
:100AF400324320443E545820000D204932432044C0
:100B04003C52582000730045000001002D4E414E18
:100B140000494E4600000100020090090100010F47
:100B2400940902000B0F960902000D0F98090200A8
:100B34000F0F9A0907000002CA0910000702D10921
:100B440006001702E10908001D02E7090900250251
:100B5400EF090B002E02F8090F003902030A050001
:100B64004802120A08004D02E7090E005502170A4E
:100B74000B006302F8090A006E02250A10007802CD
:100B8400D10906008802E10908008E02E70909007C
:100B94009602EF090B009F02F8090F00AA02030A4C
:100BA4000500B902120A0800BE02E7090E00C602D7
:100BB400170A0B00D402F8090B00DF022F0A0B00FE
:100BC400EA023A0A0600F502670A0700FB026D0A08
:100BD40006000203740A070008037A0A08000F03D8
:100BE400810A03001703890A08001A03810A0D0009
:100BF40022038C0A06002F03990A070035039F0A73
:100C040009003C03A60A0A004503AF0A0B004F0380
:100C1400B90A0B005A03C40A04006503CF0A0A0088
:100C24006903D30A0A007303DD0A0A007D03E70A95
:100C34000C008703F10A0C009303FD0A0A00040068
:100C44009C0901005F0F0E0B0000F894EE27ECBB2B
:100C5400F1E0F5BFE5BFE0936C00F8E1F1BDE1BD63
:100C64008DE0A2E0BB27ED938A95E9F780E090E15F
:100C7400A0E0B1E0ED930197E9F7EAE1FBE08591AB
:100C84009591009761F0A591B59105901590BF01DC
:100C9400F00105900D920197E1F7FB01F0CF8BBFB6
:100CA400EFEFEDBFE0E1EEBFC0E0D2E00C9414152D
:100CB400EFB7E093A803F8940E94311828F40E9437
:100CC4003918A8810E9440180E9449187FC4E881FD
:100CD400F981E491E03051F0E881F9813196E883BB
:100CE400F9833197E491EA93E3DFF1CFAAC1A881B4
:100CF400B981EC91E03031F0ED91A883B983EA93A6
:100D0400D7DFF5CF9EC10E940D160E943918AFEFB0
:100D14000E944018E0E0EA93E2ECF3E00E944F18EE
:100D24000E940216EAEBF0E1FA93EA93EAE0F0E0BB
:100D34000E945318E0E0E093C205E093C3050895D0
:100D44001A930A9300E8D998EA81E03011F0D89A0E
:100D540001C0D89810E0183060F4E02FAB81EA238A
:100D640011F0DB9A01C0DB980695DC9ADC981F5FD2
:100D7400F2CFD99A64C40E945718083FE1E01E07D5
:100D840054F40E946818EC91EA93E1E0EA93D8DF06
:100D94000F5F1F4FF2CF0EC00E946D18083FE1E0B5
:100DA4001E073CF40E946818E0E0EC930F5F1F4FAD
:100DB400F5CFE1DF099119910895DA9AD49AD39A7B
:100DC400D19AD09AD29ADC98E1E0F0E00E947218AD
:100DD400DA98E4E1F0E00E947218DA9AD99AE1E232
:100DE4000E947618E52DEC5F0E947618E42DE05FF2
:100DF4000E947618E72DE0580E947618A0E020FCA7
:100E0400A1E0EA2FEE0FEE0FEE0FE0620E2EA0E04F
:100E140021FCA1E0EA2FEE0FEE0FE0290E947618E4
:100E2400E62DEE0FE629E570E8600E947618B4DF3F
:100E340008950E945718083FE1E01E0778F4F8016E
:100E4400ED52FA4F0F01F801AA81BB81EA0FFB1F93
:100E5400E491D001EC930F5F1F4FEDCFF0C30E94DC
:100E64004E1DAE81A535B8F5AD81A133A0F5B0E036
:100E7400E8E0F0E00E94561CA4E5B0E00E943E1CAD
:100E8400DF01EE810E947B188F01ED81E695E695E6
:100E9400E695EE0FEE0FEE0FAD81AE1B3A2F0E94DA
:100EA40068182C91EC81E03029F40E947F18E095B9
:100EB4002E230DC0AC81A13021F40E947F182E2B6B
:100EC40006C0AC81A23019F40E947F182E27F801C5
:100ED400ED52FA4F20830E94551D279608952497BA
:100EE400E0E0E883E983EA83EB830E944C1D00E0A1
:100EF40010E020E030E040E050E0A989BA89A5354F
:100F0400E0E0BE0774F4AD85BE85A535E0E0BE071C
:100F140044F4AF85B889D19724F4AB85BC85D197C7
:100F24000CF072C0AF85B889EB85FC85EA1BFB0B1E
:100F34008F01A989BA89ED85FE85EA1BFB0B9F0108
:100F440011233AF4F8010E94EE1B8F01EFEFFFEF3B
:100F540002C0E1E0F0E0E887F98733233AF4F901CD
:100F64000E94EE1B9F014FEF5FEF02C041E050E093
:100F7400000F111F220F331F0E948418021713073A
:100F840014F5F901F595E795DF01F801EA1BFB0B70
:100F9400EE83FF83ED85FE85A989BA89EA17FB07ED
:100FA40089F0AF81AA2342F00E948C18EE81FF8160
:100FB400E21BF30BEE83FF830E949518F8010E9455
:100FC4009D18E8CF21C0F801F595E795DF01F901F7
:100FD400EA1BFB0BEE83FF83EB85FC85AF85B889A9
:100FE400EA17FB0789F0AF81AA2342F00E94951803
:100FF400EE81FF81E01BF10BEE83FF830E948C18CE
:10100400F9010E949D18E8CF0E94531D639608952C
:10101400A981AF3018F4A881A73008F012C0E88184
:10102400F0E03197A4E5B0E00E943E1CBF01E981E5
:10103400F0E03197A6E0B0E00E943E1CE60FF71FF7
:101044004F01229608951A9310E01E3030F40E9446
:10105400A418A0E0A0831F5FF8CF199108951A93F4
:1010640010E01530A0F40E94A918BF01E981FA81AB
:10107400A5E0B0E00E943E1CDF01E12F0E947B1836
:10108400EA57FD4FE491DB01EC931F5FEACF0E9426
:10109400A918A0E0A083188109C31A93AA81AF30CC
:1010A40018F4A981A73010F0188100C3EA81EA93EB
:1010B400EA81EA93ADDF10E0AA81EFE0EA1B1E1794
:1010C40068F40E94A418E081E03031F00E94A41872
:1010D400E0810E94B018C3DF1F5FEECFB4DF188138
:1010E400E5C2969A08951A930A93EFB7E093A8037A
:1010F400F894AA81BB81E4E60E94381CEA83FB834E
:10110400ED81E03049F50E94B418E0E0E093D30C9F
:10111400E093D40CE093D50CE093D60CE093D70C79
:10112400E093D80CEBB9EAB9E0939500EC81E03098
:1011340029F40E94BE180E94C31805C00E94BE185C
:101144000E94D518EBB91093900009B9E8E9EAB9FF
:10115400E6E0E09395002DC00E94E818E0E0E093FB
:10116400D90DE093DA0DE093DB0DE093DC0DE09311
:10117400DD0DE093DE0DE0939B00E0939A00E09395
:101184009D00EC81E03029F40E94BE180E94C3182F
:1011940006C00E94BE180E94D518E0939B001093CD
:1011A400980000939900E8E9E0939A00E6E0E09360
:1011B4009D000E9449181981088172C0EFB7E0931D
:1011C400A803F894E0E0E093AE03E093AF03E09368
:1011D400B003E093B103E881E03019F40E94B4183D
:1011E40006C0E13019F40E94E81801C0F7CF0E944C
:1011F4004918ECC10E944E1D0091CD091091CE09F1
:101204002091D10B3091D20BED81E030F9F4A09113
:10121400CB09B091CC09F801EA1BFB0BE130A2E049
:10122400FA0790F4F801F170E553F84FAC81A0830C
:101234000F5F1F4FEFB7E093A803F8940093CD0915
:101244001093CE09559A01C04CDF26C0E13019F540
:10125400A091CF0BB091D00BF901EA1BFB0BE1304D
:10126400A2E0FA07B0F4F901F170E153F64FAC8152
:10127400A0832F5F3F4FEFB7E093A803F894209328
:10128400D10B3093D20BE0919A00E062E0939A0084
:1012940001C027DF01C0BBCF0E9449180E94551D21
:1012A40026960895A881B981EC91E03051F0EA8145
:1012B400EA93A981BA81ED91A983BA83EA939ADF6B
:1012C400F1CFF4C1E881F981E491E03061F0EA8181
:1012D400EA93E981FA813196E983FA833197E491BB
:1012E400EA9388DFEFCFE2C10E94F2180A930091DB
:1012F400CB091091CC09E091CD09F091CE09E0170A
:10130400F10769F0F801F170E553F84FE081ECB9A9
:101314000F5F1F4F0093CB091093CC090AC0E0E084
:10132400E093CD09E093CE09E093CB09E093CC0997
:101334005598AEEAB3E00E94FC1809911991C1C016
:10134400EA93FA93EFB7EA931A930A930091CF0BB7
:101354001091D00BF801F170E153F64FE081E09366
:101364009C000F5F1F4F0093CF0B1093D00BE091A5
:10137400D10BF091D20BE017F10771F4E0E0E093A8
:10138400D10BE093D20BE093CF0BE093D00BE09121
:101394009A00EF7DE0939A0009911991E991EFBFCA
:1013A400F991E9911895E881E03019F0E091DD0DAB
:1013B40002C0E091D70C0AC11A930A93EA81E03083
:1013C40051F5A091D70CB091D80C0E943E1DF8F4B1
:1013D400E091D50CF091D60CED52F44F1081A5EDAF
:1013E400BCE00E940519A091D50CB091D60CA03098
:1013F400E1E0BE0729F4E0E0E093D50CE093D60CDD
:101404000FB7F894A7EDBCE00E940B194FC1E0E0C0
:10141400198108814BC1A091DD0DB091DE0D0E94B0
:101424003E1DF8F4E091DB0DF091DC0DE752F34F33
:101434001081ABEDBDE00E940519A091DB0DB091C8
:10144400DC0DA030E1E0BE0729F4E0E0E093DB0D21
:10145400E093DC0D0FB7F894ADEDBDE00E940B19DD
:1014640025C1E0E01981088121C10E94F2181CB154
:10147400A091D70CB091D80CA030E1E0BE07E0F405
:10148400E091D30CF091D40CED52F44F1083A3ED02
:10149400BCE00E940519A7EDBCE00E940519A091CB
:1014A400D30CB091D40CA030E1E0BE0729F4E0E005
:1014B400E093D30CE093D40CA2EBB3E00E94FC18AD
:1014C4001991E991EFBFF991E991B991A9917991B4
:1014D40069911895AA93BA93EA93FA93EFB7EA93AA
:1014E4001A9310919C00A091DD0DB091DE0DA030F7
:1014F400E1E0BE07E0F4E091D90DF091DA0DE75296
:10150400F34F1083A9EDBDE00E940519ADEDBDE0D8
:101514000E940519A091D90DB091DA0DA030E1E037
:10152400BE0729F4E0E0E093D90DE093DA0D1991B8
:10153400E991EFBFF991E991B991A9911895BB246B
:101544000E941719DD24AA240895A881AD3071F1F1
:10155400EFE7AE1630F5A032D9F0BB2019F40E94A3
:101564001719B394DD2071F0EAE0BE1650F4EB2DA8
:10157400AFE5BEE00E941E190E942419ED93FC936E
:10158400B394DD240E942419A881A083A39409C0E4
:10159400DD2039F40E942419A0E0A083A394E1E0A3
:1015A400DE2E0E942419A0E0A08310C00E942419FA
:1015B400A0E0A083BB2039F0BA92EFE5FEE0FA93F5
:1015C400EA930E943C12BB24DD24AA2421960895A8
:1015D4001A9310E0A981BA81EC91E03081F0E053D4
:1015E4001E0FE981FA813196E983FA83A981BA81D0
:1015F400EC91E03019F0AAE01A9F102DEBCFE12F07
:10160400188154C00E946D18AA81BB81EC91E0300E
:10161400A9F0E053F0E00E0F1F1FEA81FB81319621
:10162400EA83FB83AA81BB81EC91E03031F0AAE02C
:10163400A09FF001A19FF00D8F01E6CFF801198161
:10164400088124960895E0E0EDB9E7E0E7BBEFE018
:10165400E8BBE1E567C0E0E0EDB9E7E0E7BBBB98D4
:10166400E8BBEA81EE0FEE0FAE2FE981EE0FEE0F2D
:10167400EE0FEA2BEDB9E881E23019F4E1E0EEB9BE
:1016840013C0E43011F4E0E00EC0E83019F4709AAD
:10169400689A0AC0E03131F0E03221F4E1E0EEB9B9
:1016A400E2E001C0E1E0EDB9E0E5EDB9239608958B
:1016B400EC81E03081F4E0E0EDB9EEB9AB81A1302A
:1016C40041F4EA81EA93EA81EA93EA81EA93C3DF87
:1016D40001C023D001C0B7DF90C41A9310E0C098B2
:1016E400AB81BC81EC91E03089F0ED91AB83BC839C
:1016F400EFB9779BFECF103438F4A981BA81EE2775
:10170400A10FBE1FEFB1EC931F5FEACFC09AE5EDC6
:10171400F0E10E942919188124C3E0E0EDB9E8E062
:10172400E7BBE0E4EDB90895AA93EA93EFB7EA932F
:101734001A930A930091B30EE0E1EDB9A0E09699F3
:10174400A1E0E1E0EA2711F4969801C0969A1FB14E
:1017540009911991E991EFBFE991A99118950E9416
:101764002D19E0ECE7B9ECE8E6B90895E7B1EE75B8
:10177400E7B9E7B1EE64E7B9E6B1EC7DE6B9E6B105
:10178400E46CE6B9E0E0E093FB0EE093FC0EE4E6E3
:10179400F0E0E093050FF093060FA091050FB091D0
:1017A400060F0E943E1DF8F4369A3699FECFE4B136
:1017B4000E9433190E947B18E093FB0EF093FC0EF9
:1017C400E5B1FE2FE0E00E943319EA0FFB1FE0931E
:1017D400FB0EF093FC0EA5E0BFE0ED91FD91319777
:1017E400FE93EE93DACFEEE8F2E1E093030FF09389
:1017F400040FA091030FB091040FA238E4E1BE07D7
:1018040010F00C94500CE091030FF091040F0E941F
:1018140033190E94101C0E940B1CEF2FF0E0E09380
:10182400FF0EF093000FA091FF0EB091000FA331B3
:10183400E5E0BE0738F0E091FF0EF091000FE251B1
:10184400F54008C0A091FF0EB091000FE2E1F5E071
:10185400EA1BFB0BE093FD0EF093FE0EE091010FEB
:10186400F091020FA091FD0EB091FE0EAE17BF07CE
:1018740080F4E091FD0EF091FE0EE093010FF093E1
:10188400020FE091030FF091040FE093F90EF0932F
:10189400FA0EA3E0BFE00E940519ABCF0895F894B7
:1018A400E7B7EC7FE7BFE0B7E860E0BFE0E0E2BFA6
:1018B400E5E0E3BFE0B7E770E9F7E7B7E160E7BF6A
:1018C400789408950E943819A7E0BFE080E00E9450
:1018D400461911F00C94020DE091070FE078E093A3
:1018E400070FA7E0BFE087E00E94461911F00C94AF
:1018F400020DE091070FF091080FEF77F07CE09371
:10190400070FF093080FA7E0BFE08EE00E94541980
:10191400E831A0E0FA07A0E06A07A0E07A0711F036
:101924000C94020DA7E0BFE00E94961CEF7FFF73AA
:10193400607F7F7F0E949B1CA7E0BFE084E10E9440
:101944005419E032A0E0FA07A0E06A07A0E07A07A1
:1019540059F10E945B19EF3171F4E0910A0FEC73B5
:10196400E03131F0E83121F0E43211F0EC3211F4DD
:101974000E9463192DC00E945B19EE3141F4E0917D
:101984000A0FEC73E83011F40E94631921C00E941D
:101994005B19ED31E9F4E0910A0FEC73E83019F4C6
:1019A40030D0E03009F414C0A7E0BFE08AE1EFE0F2
:1019B400F0E060E070E00E94F71CE091090FF09104
:1019C4000A0FEF70FC7FE061E093090FF0930A0FB8
:1019D400E0910A0FEC73E43399F4E091090FF0916C
:1019E4000A0FF37CF460E093090FF0930A0FA7E069
:1019F400BFE08EE1E3E0F0E060E070E00E94F71CFD
:101A040062C10E947819E4E6F0E060E070E00E94B0
:101A1400801C0E943A1D49F40E947819E0E9F1E023
:101A240060E070E00E94801C0895E0910A0FE29546
:101A3400EF70E695E695E370F0706070707008954D
:101A440008950E9438190E943118B0F4E091710091
:101A5400E03051F0A091C205B091C305AE53BC4F24
:101A6400E0917100EC9304C00E943918AFEFA08399
:101A7400A2ECB5E00E940519E0917100E87FE03026
:101A840031F4E091110FE1600E9485191CC1E83026
:101A940081F4E091110FEC7021F4E0911A0FE160F0
:101AA40003C0E0911A0FEE7FE0931A0F0E94901981
:101AB4000AC1E03179F40E94981921F4E0911A0FD7
:101AC400E16003C0E0911A0FEE7FE0931A0F0E94C9
:101AD4009019F9C0E83179F4E091110FEC70E43019
:101AE40011F40E949D190E94981921F40E94AE19C4
:101AF400E0937400E8C0E03231F4E091110FE0614A
:101B04000E948519E0C0E83201F5E091110FEC70F4
:101B1400E43059F4E091190FA091180FEA1719F461
:101B24000E94BD1902C00E949D190E94981961F477
:101B3400E0911E0FA0911D0FEA1711F4E5EE02C00B
:101B44000E94AE19E0937400BEC0E03341F4E0910A
:101B5400110FE260E093110F0E94BD19B4C0E83385
:101B640049F4E091110FE0620E94C619E5EEE0939A
:101B74007400A9C0E03449F40E94CE1911F4E5E8D8
:101B840001C0E5ECE09374009EC0E83431F4E091C8
:101B9400110FE0610E94851996C0E03581F40E941E
:101BA400D519E091180FEF5FE093180F0E94CE193A
:101BB40011F4E5E801C0E5ECE093740084C0E83575
:101BC40029F40E94D5190E94BD197DC0E83611F090
:101BD400E83731F4E091110FE06A0E94C61902C09F
:101BE400E03609F402C0E03749F40E94DE19E0E06F
:101BF400E093140FE5E8E093740065C0E03811F059
:101C0400E03961F40E94E4190E94ED19E03011F406
:101C1400E5E801C0E5ECE093740055C0E83811F044
:101C2400E83989F40E94E419E091110FE07811F089
:101C3400E5EE01C0E5ECE0937400E0910D0FF09146
:101C44000E0F099540C0E03A21F4E5ECE0937400EE
:101C54003AC0E03B31F4E091110FE06A0E94C619EA
:101C640002C0E83A49F4E0E0E093140F0E94F3194B
:101C7400E5E8E093740027C0E83B71F40E94ED1995
:101C84000E94F319E091140FE03011F4E5E801C06B
:101C9400E1ECE093740017C0E03C11F0E83C99F4E7
:101CA400E091110FE07839F0E091110FEF77E093B4
:101CB400110FE5EE01C0E5ECE0937400E0910D0F27
:101CC400F0910E0F0995E991EFBFF991E991B9915E
:101CD400A9919991899179916991F99019900990B3
:101CE40018950895E2B3E360E2BBE1B3EC7FE1BB96
:101CF400EFEFE0937000E3E0E09371000895E2E316
:101D0400E0937200E881F981E0930D0FF0930E0FD8
:101D1400E5E4E093740022960895E091110FE074D5
:101D240011F0E0E01EC0E0E0E093180FE3E0E09380
:101D3400190FED81E0931A0FEC81E093150FEB81FD
:101D4400E093160FEA81E093170FE4E0E093110F9C
:101D5400E881F981E0930B0FF0930C0F0E94FA19BC
:101D6400E1E0269608950A921A926A937A939A93D6
:101D7400AA93BA93EA93FA93EFB7EA93E4B1F5B16D
:101D8400A3E0B0E00E94101CBF01E4B1F5B1DF0193
:101D9400E7E0F0E00E94431CDB01AE1BBF0BA09305
:101DA400F70EB093F80EE0E0E6B9E991EFBFF991D0
:101DB400E991B991A99199917991699119900990B1
:101DC40018950E940D16E0E0EA93E4EFF0E00E941B
:101DD400021AEEE0F1E00E94021AEEE5F1E00E9440
:101DE400021AE6E8F1E00E94021AE6E9F1E00E9434
:101DF400021AE4EDF1E00E94021AEAE0F2E00E9425
:101E0400021AE0E3F2E00E94021AEEE5F2E00E9418
:101E1400091A08952A971A9310E0E0E0EA93E0E0A3
:101E2400F2E00E944F18E0E0EA93E7E0F2E00E945B
:101E34004F1810E0123038F5E0E0EA93E7E1F2E001
:101E44000E944F180E940F1AE0E0EA93EDE1F2E0DD
:101E54000E944F18AAEBB3E00E94201AE0E0EA9334
:101E6400E5E2F2E00E944F18E12F0E94341A0E942A
:101E7400921C0E94371AE0E0EA93EEE2F2E00E943C
:101E84004F181F5FD7CFE0E0EA93E9E3F2E00E9446
:101E94004F1810E0123020F5E0E0EA93E8E4F2E0B5
:101EA4000E944F180E940F1AE0E0EA93EDE4F2E07A
:101EB4000E944F18ACEBB3E00E94201AE0E0EA93D2
:101EC400E5E5F2E00E944F18A0ECB3E00E94201A6E
:101ED400E0E0EA93E3E6F2E00E944F181F5FDACFF6
:101EE40068C02A971A9310E0E0E0EA93EEE6F2E085
:101EF4000E944F18E0E0EA93E8E7F2E00E944F18EE
:101F040010E0123048F5E0E0EA93E8E8F2E00E94DD
:101F14004F180E940F1AE0E0EA93EEE8F2E00E9404
:101F24004F180E94461A0E944E1AE0E0EA93E6E92E
:101F3400F2E00E944F18E12FA0E0B0E00E941E19C9
:101F44000E94111D0E94371AE0E0EA93EFE9F2E0E3
:101F54000E944F181F5FD5CFE0E0EA93EAEAF2E06F
:101F64000E944F1810E0123020F5E0E0EA93E9EB0C
:101F7400F2E00E944F180E940F1AE0E0EA93EEEBA1
:101F8400F2E00E944F180E945E1A0E944E1AE0E08E
:101F9400EA93E6ECF2E00E944F180E94661A0E944F
:101FA4004E1AE0E0EA93E4EDF2E00E944F181F5F5E
:101FB400DACF18812B9608952597E0E0EA93EFEDA8
:101FC400F2E00E944F18E091B203F091B3036091E4
:101FD400B4037091B5030E946E1AE0E0EA93EAEE4E
:101FE400F2E00E944F18E091AE03F091AF036091CC
:101FF400B0037091B1030E946E1A25960895969AC3
:102004000E947B1AA5C0EFE0F0E1FA93EA93E4EFB3
:10201400F1E00E945318969808950E947B1A0E943A
:102024005318969A08950E94821A92C0EEECF6E034
:102034000E942919E6E8F7E0FA93EA930E941B0745
:10204400EDEBF6E00E9429190E94891A0E945318A8
:10205400E1E3F0E1FA93EA93E8EBFBE079C0AA2428
:10206400E4E5AE1628F50E94901AEFE2F0E0FA9348
:10207400EA93EA2D0E94B0180E94901AE1E0EA93D4
:102084000E947107E4E5F0E0FA93EA93EFE2F0E0EE
:10209400FA93EA93E4E5EA190E94B0180E94901AB0
:1020A400E1E0EA930E9471070E94BD06A394D8CF91
:1020B4000E94891A4DC00E94951AE5E4FAE0FA9349
:1020C400EA93E091F90EF091FA0E0E949A1AE1E077
:1020D4000E94A51AEEE4FAE0FA93EA93E091010F64
:1020E400F091020F0E949A1AE2E00E94A51AE4E518
:1020F400FAE0FA93EA93E091FD0EF091FE0E0E944D
:102104009A1AE3E00E94A51AEEE5FAE0FA93EA933C
:10211400E091FB0EF091FC0E0E949A1AE4E0EA931F
:102124000E944F080E94BD060895E0E0EA930E94D1
:10213400D509E13058F0E0E0EA930E94DE09E0932B
:10214400A903E091A903EA930E94A70A0E94A91A8D
:10215400FA93EA930E94721508950E94B01AE091CE
:10216400C205F091C305309711F00E9485060895C9
:102174000E946D180030E2E01E0748F4A2ECB3E0C0
:10218400A00FB11FE0E0EC930F5F1F4FF3CFA0E06F
:102194009799A1E0E1E0EA2711F4979801C0979A92
:1021A4000991199108951A9310E0103468F4E12FFD
:1021B400F0E0E954F14FA0E0A083E12FF0E0ED5806
:1021C400F14FA0831F5FF1CF19910895E0EAEA93DC
:1021D400EFEFF0E0FA93EA93E9E0EA93E0E0F1E16B
:1021E400FA93EA939ADDE03041F4E8EEF0E1FA93F1
:1021F400EA93E2E3F0E00E94531808950E94B71AAC
:1022040029F0E8EEF0E10E94BE1A04C0EDE0F1E12D
:102214000E9429190895E091110FE07441F0EDE056
:10222400F1E1FA93EA93E4E6F0E00E945318E0E067
:10223400E093180FE2E0E093190FE0EBE0931A0F3C
:10224400E0E0E093150FEFEFE093160FE4E0E09386
:10225400110FE6E3F1E1E0930B0FF0930C0FE6E3CB
:10226400F1E10E94FA1908950E94B71A21F0EDE0F5
:10227400F1E10E94BE1A0895E091110FEF7BE09303
:10228400110FE091120FECB90895E0E0EBBBEABB4B
:10229400E8BBE7E0E7BBE0E0E5BBE4BBE2BBE1BBF6
:1022A400E3B9E2B90E942D19E0E0E0936500E09300
:1022B40064000895E0E0E0BFE3BFE2BFE1BF08953A
:1022C400E0E0EFBDEEBDEDBDECBDE7BDE6BDEBBDB1
:1022D400EABDE9BDE8BDE0937900E0937800089594
:1022E400E0E0E5BDE4BDE3BD0895E0E0E0938B00EC
:1022F400E0938A00E0938900E0938800E0938100F2
:10230400E0938000E0938700E0938600E0938500EB
:10231400E0938400E0938300E09382000895E0E07A
:10232400E0936A00EABFE9BFE7BFE0937D00089548
:10233400E0E0EBB9E8EDEAB9E6E0E0939500E0E02F
:10234400E0939000E3E3E9B90895E2E0E0939B00B1
:10235400E8EDE0939A00E6E0E0939D00E0E0E0938E
:102364009800E8E0E093990008951A9310E010E0D3
:102374001230D0F4AAEBB3E0E12F0E947B180F01D6
:102384000E94461AD001EC93E12F0E94C31A0F0158
:10239400E12FA0E0B0E00E941E190E94111DD0019F
:1023A400ED93FC931F5FE4CF10E01230B0F4ACEB7C
:1023B400B3E0E12F0E947B180F010E945E1AD00146
:1023C400EC93A0ECB3E0E12F0E947B180F010E9474
:1023D400661AD001EC931F5FE8CF0C94001655DF0A
:1023E4000E94B10B0E94B80B65DF6ADF79DF7DDFE5
:1023F40096DF9EDFAADF0E94250B51DA0895B5DF30
:10240400E0E0EA93E091BA03EA93E091B603F09135
:10241400B7030E94CB1AE1E0EA93E091BB03EA938D
:10242400E091B803F091B9030E94CB1AE0E0EA937B
:10243400E1E0EA93EA93E0E0EA93E0E1EA930E94C0
:102444005A0B0E94DF060E94A10A0E9453154ADC1F
:10245400EEE3F1E1FA93EA9352DCEEB1EFB1E0E09E
:10246400E093C205E093C3050E943918A1E00E94DD
:10247400401808952A97E0E0EE83EF83E887E98720
:102484000E944C1D0AEC10E030E020E050E040E0F7
:102494000E94CF1AE2E9F0E00E94D61A11F00C94DF
:1024A4000E14E5EFF2E00E94DC1AA23010F40C9452
:1024B4000E140E94E21AE6E9F0E00E94D61A11F026
:1024C4000C940C13EBEFF2E00E94DC1AA33010F42E
:1024D4000C9408130E94E91A0E94F01A0E94FD1A33
:1024E40048F42C85EEECF0E08F01E2E0F3E00E948A
:1024F400051B03C0E4EDF0E08AC2AA89A43010F4FD
:102504000C9408130E94091B01F50E94121B29F068
:102514000E942D1B0E94461D81F4AAEBB3E0E22F1A
:102524000E947B18AC85A083EEECF0E08F01E8E01C
:10253400F3E00E94051B32E008C0E4EDF0E08F01F7
:10254400EFE0F3E00E94051B63C20E94321B0E946D
:10255400371BE2EAF0E00E94D61A61F50E943C1BA8
:102564000E94371B0E94F01AA138E4E0BE07E0E0A5
:102574008E07E0E09E07B0F4E22F0E94C31AAC85F8
:10258400BD85A083B183EEECF0E08F0130E0E7E19C
:10259400F3E00E94051BE2EAF0E0FA93EA930E945A
:1025A400690608C0E4EDF0E08F01EAE1F3E00E947F
:1025B400051B2EC22A930E94411BEA93E22F0E941C
:1025C400341A0E94921C0E94CB1A20E0A4E0B0E0CE
:1025D400E22F0E947B180F010E94411BD0010E9430
:1025E400291DE22FA0E0B0E0F0E0EE0FFF1FEA0F9C
:1025F400FB1F0F01E22F0E94341A0E94921CD0018B
:102604000E94211DE2E2F3E00E94051BE0E0EA9350
:102614000E94E0080E94E21AE8EAF0E00E94D61A5A
:1026240011F00C940E14EFE2F3E00E94DC1AA330D4
:1026340010F40C940E14E5E3F3E00E94051B0E94D1
:10264400E91A0E94481B0E94FD1A28F42C85EEEC1E
:10265400F0E08F0103C0E4EDF0E0D9C1AA89A43011
:1026640010F40C940E140E94091BD9F40E94121B3E
:1026740029F00E942D1B0E94461D81F4ACEBB3E0AF
:10268400E22F0E947B18AC85A08332E0EEECF0E0F0
:102694008F01ECE3F3E00E94051B03C0E4EDF0E0DE
:1026A400B6C10E94321B0E94371BECEAF0E00E9484
:1026B400D61A09F50E943C1B0E94371B0E94481B36
:1026C400A138E0E0BE07E0E08E07E0E09E0780F47A
:1026D400A0ECB3E0E22F0E947B18AC85A0833E5FA0
:1026E400EEECF0E08F01E5E4F3E00E94051B03C08B
:1026F400E4EDF0E08CC10E94321B0E94371BE2EB38
:10270400F0E00E94D61A11F00C94D7130E943C1BDF
:102714000E94371B0E94481B0E94421D50F00E94D9
:102724002D1BA430E0E0BE07E0E08E07E0E09E074A
:1027340008F038C0EC85FD856E857F850E943A1DC2
:1027440001F1E130A0E0FA07A0E06A07A0E07A070F
:1027540019F450E041E017C0E230A0E0FA07A0E02D
:102764006A07A0E07A0711F451E00CC0E330A0E05E
:10277400FA07A0E06A07A0E07A0719F451E041E003
:1027840002C050E040E0EEECF0E08F01EFE4F3E053
:102794000E94051BAEEBB3E0E22F0E947B18AC85D0
:1027A400A08303C0E2EEF0E032C12A930E94521BE0
:1027B400EA934A935A930E94591BEA930E945A0B34
:1027C40030E050E040E0A6E0B0E0E22F0E947B1849
:1027D4000F010E94521BD0010E94291DA8E0B0E005
:1027E400E22F0E947B180F01AEEBB3E0EE27A20F9D
:1027F400BE1FEC91D0010E94291DAAE0B0E0E22F97
:102804000E947B180F010E94591BD0010E94291DB0
:10281400EAE5F3E00E94051B0E94CF1AEAEBF0E020
:102824000E94D61A11F00C94BD14E5E6F3E00E9460
:10283400DC1AA23010F40C94BD140E94E21AE6E9EA
:10284400F0E00E94D61A19F5AA89A33000F10E947B
:10285400E91A0E94481B0E94FD1A20F42C85EEEC14
:10286400F0E002C0E4EDF0E08F01AA89A43078F032
:10287400EDE0F6E12A930E94601B0E945409E2E015
:10288400F6E1E9E6F3E00E94051B0E94671B0E9443
:10289400E21AE8EAF0E00E94D61A61F5AA89A330A8
:1028A40048F10E94E91A0E94481B0E94FD1A20F474
:1028B4002C85EEECF0E002C0E4EDF0E08F01AA8993
:1028C400A430C0F0E3E7F3E00E94051B0E94671BFD
:1028D400EAE0EA930E94601BE7EBFEE0FA93EA93D6
:1028E4000E946F0BEDE7F3E00E94051BE7EBFEE0AF
:1028F4000E94051B0E94E21AE6EBF0E00E94D61A41
:10290400D1F5AA89A330B8F10E94E91A0E94481BA4
:102914000E94FD1A20F42C85EEECF0E002C0E4EDF8
:10292400F0E08F01AA89A43030F1E7E8F3E00E94D7
:10293400051BE889F989A681B781BA93AA930E94F5
:10294400040B662777270E94A41CFE013A96FA938B
:10295400EA930E94D817E0E0EA93FE0137960E94BA
:102964004F18E3E9F3E00E94051BE0E0EA93E7EB8C
:10297400FEE00E944F180E94CF1AECE8F0E00E949B
:10298400D61A21F41EDAEEECF0E08F010E94CF1A81
:10299400E0ECF0E00E94D61A29F40E94001EEEEC4E
:1029A400F0E08F010E94CF1AECEBF0E00E94D61AFF
:1029B40029F40C940000EEECF0E08F010E94CF1A91
:1029C400E6ECF0E00E94D61A51F40E940D1689DA62
:1029D40021DAF2DAEEECF0E08F010E9402160E9496
:1029E400CF1AE9E0FBE00E94D61A21F4E5DAEEEC16
:1029F400F0E08F010E94CF1AEBE0FBE00E94D61AB0
:102A040039F4E8EEF0E10E942919EEECF0E08F01D0
:102A1400E0E0EA931A930A930E9464090E94531D0A
:102A2400639608952797DBDCEADCE1E0EA93E0EFC4
:102A3400F0E00E94021AE0EFF0E00E94091AE1E0DF
:102A4400F0E10E9429190E94A91A0E9453180E94B9
:102A5400B01A0E94821A0E945318E8E1F0E10E9421
:102A64002919EDE5F0E10E942919E8EEF3E00E944E
:102A7400721874D0FECFFFCF0E9438199CD0AAEAF6
:102A8400B3E00E94FC18E991EFBFF991E991B99183
:102A9400A9919991899179916991F99019900990E5
:102AA40018951A9310E0103179F00E947C1B0E9453
:102AB400831B0E947C1BAE0FBF1F1296E0E0F0E068
:102AC400ED93FC931F5FEFCF99C00895E881F981DE
:102AD400FA93EA93E0E0F0E00E94531822960895F6
:102AE4001A930A9310E000E0EFB7E7FF02C0F894EE
:102AF40001E010E0103199F00E947C1B0E948A1BB7
:102B0400DF01EC81FD81EA17FB0739F40E947C1B8D
:102B14000E948F1B09F078941DC01F5FEBCF10E05B
:102B24001031C1F00E947C1B0E948A1B0E94981BDA
:102B340079F40E947C1BEA0FFB1FAC81BD81A0834A
:102B4400B1830E947C1B0E948F1B09F0789402C001
:102B54001F5FE6CF19810881269608950E944E1DB5
:102B640010E010E0103109F10E947C1B0E948A1BC6
:102B74000E94981B49F00E947C1BAE0FBF1F129647
:102B84000E94921C309709F00EC00E947C1BAE0F6D
:102B9400BF1F2D913C910E947C1B0E94831B789443
:102BA400F901099504C01F5FDDCF78948EDF0E9480
:102BB400551D249608951A9310E01031F9F00E94DF
:102BC4007C1B0E948A1B0E94981B59F00E947C1B4C
:102BD400AE0FBF1F12960E94921CDF010E943E1D81
:102BE40008F00AC00E947C1BAE0FBF1F1296ED9125
:102BF400FD913197FE93EE931F5FDFCF19910895F6
:102C0400F894ECE0E5BDE0E0E4BDEEE3E3BDE0E82C
:102C1400E7BF78940895E5E0E5BD08951A930A9313
:102C2400AA81BB8112960E94921C309729F1AA8135
:102C3400BB8114960E94921C8F01309761F0023080
:102C4400E0E01E07C0F0F80131978F01AA81BB8133
:102C54001496ED93FC93AA81BB8112960E940519E8
:102C64003197AC81A083AA81BB810E94921CFF236F
:102C740012F00E94051906C0AA81BB81EFEFFFEF95
:102C8400ED93FC93198108812596089526970E9457
:102C94004C1D10E0AC85BD85E0E0F0E0ED93FC93C5
:102CA400EA89FB893196EA8BFB8B3197E4912E2FCD
:102CB400E03011F40C947517E12FE03039F425322B
:102CC40011F411E002C00E949E1B0CC1E130A9F472
:102CD400253219F40E949E1B04C112E040E000E07A
:102CE4002D3211F401E0FEC02B3211F44BE2FAC094
:102CF400203211F440E2F6C002C0E23039F450E070
:102D040013E0203311F40068EDC004C0E33011F087
:102D14000C947417203310F02A3308F007C0AAE08B
:102D24005A9F502DE22FE0535E0FDCC0E22FE336B2
:102D340049F40E94A71BE889F989A481AA930E94F7
:102D4400AD1BCFC0E33741F40E94A71B0E94B51B03
:102D54000E94C3171E2F0AC0E03761F40E94A71B0C
:102D64000E94B51B0E94CD171E2F086002600F77CA
:102D740030E035C0E43611F0E93611F4046002C0E5
:102D8400E53731F4EEE7F9E0EE83FF8315E00DC09B
:102D9400E83511F4086004C0E83711F00C94731797
:102DA400E8E8F9E0EE83FF8314E002FF14C00E9418
:102DB400A71B0E94BF1BAB85AA233AF4EA85FB85B7
:102DC4000E94EE1BEA87FB874DE2403011F01F5F43
:102DD40001C00B7F04C00E94A71B0E94BF1B00FD03
:102DE40011C0151778F407FF08C002FF04C00B7F59
:102DF400242F115001C020E301C020E20E949E1B39
:102E04005150EFCF312F01FF17C03030A1F003FF35
:102E140006C0EE81FF812591EE83FF8305C0AE815C
:102E2400BF812D91AE83BF830E949E1B503009F059
:102E340051503150EACF4BC020E3EE81FF810E9414
:102E4400A01CE887F987EE81FF813296EE83FF8329
:102E5400E885F985AA85BB85AE17BF0750F02F5FBB
:102E6400A885B985EA85FB85EA1BFB0BEA87FB8706
:102E7400EFCF2A3328F003FF02C0295F01C0295D88
:102E840004FD1AC0213320F4A885B985119709F4EB
:102E940009C0531710F000FF01C013C020E207FF60
:102EA4000BC020E3006102FF07C00B7F4A930E941E
:102EB400AD1B503009F051500E949E1B503009F058
:102EC40051503150A885B985129708F0B5CF00FF4D
:102ED40008C0503031F05150E0E2EA930E94AD1B3B
:102EE400F8CF10E0DDCEAC85BD850E94921C0E9417
:102EF400531D64960895FF92F82E26970E944E1D46
:102F04000E94C71B309719F4EFEFFFEF23C0DE01D7
:102F140016960E94EA1B8D010E94C71BEE83FF8355
:102F2400E0E0E887E987DE011A960E94EA1B0E9426
:102F3400371B1A930A93E0E1F6E1FA93EA93FE0150
:102F44003A96FA93EA93A2DE9F01AE81BF81E0E054
:102F5400EC93F9010E94551D2A96FF900895E9917A
:102F6400F991A991B9911D900590011421F40020C3
:102F7400D1F7EE2708951018E1F3E1E008F4E250E8
:102F84000895A991B991EE27FF276D91662311F059
:102F94003196FBCF0895AA27BB27E991F9910590B3
:102FA400002011F01196FBCFFD01089524971A9388
:102FB4000A93E0E0FAEC6AE97BE3EA83FB836C833F
:102FC4007D8300E0AB85AA2372F4E885F9856A85E0
:102FD4007B850E94F21BE887F9876A877B870E94BA
:102FE400CE1BEDE2EC930E94D51B0E945B1C1E2FAE
:102FF400103071F4003061F4AA81BB818C819D8111
:10300400A130E0E0BE07E0E08E07E0E09E0731F487
:103014000E94CE1BE12FE05DEC9301E00E94D51BE2
:103024000E94801CE887F9876A877B87AA81BB8115
:103034008C819D81EAE0F0E060E070E00E945B1C1E
:10304400EA83FB836C837D830E943A1D61F6AE8123
:10305400BF81E0E0EC93198108812C960895A0913A
:10306400C205B091C305A030E2E0BE070895E09127
:10307400C205F091C305EE53FC4F0895A083A2EC62
:10308400B5E0ED91FD913196FE93EE930895EFB77F
:10309400A091A803EA2BEFBF0895FA93EA930C9446
:1030A4005409FA93EA930C9472151A930A93E0E87C
:1030B400EA93E0E0EA930E94A206E0E4EA93E0E007
:1030C400EA930E94A20600E010E00895A3EDB5E0A3
:1030D400A00FB11F08951A930A9300E010E0089519
:1030E400FA93EA930C94DE1BEA93E0E0EA930C94DF
:1030F400A206F0E0EA0FFB1F0895E32FA1E00E946F
:10310400FA1B0895E989EA93E889EA93EC85EA933E
:103114000C943107E885F985AF85B889EA0FFB1F60
:10312400EF87F88B0895FA01A989BA89EA0FFB1F82
:10313400E98BFA8B0895AE81BF81EA0FFB1FEE8302
:10314400FF83E0CFE12FF0E0EC53FA4F0895F40150
:1031540031964F013197ED52FA4F0895F0E0FA930A
:10316400EA930895E0E0E093CB09E093CC09E0937F
:10317400CD09E093CE090895EA81FB81662777277C
:103184000895A0E1B0E080E090E00E94181CA0E067
:10319400B4E284EF90E00E945B1CE150F040604098
:1031A40070408F010895A8E0B0E080E090E00E94B4
:1031B400181CA0E0B4E284EF90E00E945B1CE15094
:1031C400F040604070408F01E2E00895E0E0E09359
:1031D400CF0BE093D00BE093D10BE093D20B089587
:1031E4006A937A93AA93BA93EA93FA93EFB7EA931A
:1031F4001A9308950E94961CEF5FFF4F6F4F7F4F05
:103204000E949B1C0895ED91FD913196FE93EE93DF
:103214000895ED91FD913197FE93EE93EFB7E02B76
:10322400EFBFE12F198108810895EFEDFDE0E093F0
:103234005F0EF093600E0895F0E0EE0FFF1FAE0FE7
:10324400BF1F0895EA2DF0E0E152F24F0895FA937A
:10325400EA930C946815E0E0E0936200E093610067
:103264000895A091FB0EB091FC0E08950A921A9253
:10327400FA926A937A938A939A93AA93BA93EA9363
:10328400FA93EFB7EA930895EFE7F0E060E070E0B7
:103294000E94E51CEC33A0E0FA07A0E06A07A0E076
:1032A4007A070895EFE3F0E060E070E00E94E51C27
:1032B4000895E091090FF0910A0F0E94071CEF7323
:1032C4000895A7E0BFE08AE1EFE0F0E060E070E09D
:1032D4000E94F71CE091090FF0910A0FEF70FC7F38
:1032E400E061E093090FF0930A0F0895E0910A0F4B
:1032F400E295EF70E695E695E370F070607070709B
:10330400DF01CB010895E093110FE5EDE093740024
:10331400E0910F0FF091100F09950895E0911A0FA5
:10332400E0937300E5ECE09374000895E091110FCD
:10333400EC70E8300895E091180FF0E0EB5EF04F88
:10334400E081E0937300E091180FEF5FE093180FB2
:10335400E5ECE09374000895E0911D0FF0E0E55E64
:10336400F04FE081E0937300E0911D0FEF5FE09375
:103374001D0FE5EC0895E5EDE0937400E0910B0F6B
:10338400F0910C0F09950895E093110FE0E0E0939C
:10339400180FE0931D0F0895A091180FAF5FE091EF
:1033A400190FEA170895A091180FB0E0AB5EB04F63
:1033B400E0917300EC930895E091110FE064E093C1
:1033C400110F0895A091140FB0E0AE5EB04FE091DC
:1033D4007300EC930895E091140FEF5FE093140FE2
:1033E4000895F0E0ED5EF04FE081E09373000895FE
:1033F400E0930F0FF093100FE5EAE0937400DCCF35
:10340400FA93EA930E946409E0E0EA930895FA9338
:10341400EA930E9464090C940216E12FFF276627A1
:1034240077270E94A41CFE013596FA93EA930E9422
:10343400D817E0E0EA93FE0132962FCEEE27A10FD3
:10344400BE1FEC91FF27662777270E94A41CFE016C
:103454003596FA93EA930E94D817E0E0EA93FE01C6
:1034640032961BCEA6EBB3E0E7CE662777270E9401
:10347400A41CFE013596FA93EA930E94D817E0E063
:10348400EA93FE01329609CEA4E0B0E0EE27A10F44
:10349400BE1F0E94151D0895FF27662777270E94E7
:1034A400A41CFE013596FA93EA930E94D817E0E033
:1034B400EA93FE013296F1CDA6E0B0E0EE27A10F2B
:1034C400BE1F0E94151D0895AAE0B0E0EE27A10FCB
:1034D400BE1F0E94151D08950E94A41CFE0134966F
:1034E400FA93EA930E94D817E0E0EA93FE0131963A
:1034F400D4CDE5E0F0E1FA93EA93E2E3F0E0089555
:10350400E5E1F0E1FA93EA93E8E8F3E10895EEECFB
:10351400F6E0FA93EA93E0EDF7E00895E0E0F0E0F6
:10352400FA93EA930895E4ECF5E0FA93EA930895A4
:10353400662777270E94A41C84E00E947D172896A2
:10354400E1E0EA930895EA930E944F08ECCFE7E99B
:10355400F0E1FA93EA93E9E1F0E00895EFEAF0E1AB
:10356400FA93EA93E2E3F0E09CCDE091110FEF7B54
:10357400E093110FE1710895FA93EA93E4E1F0E026
:1035840090CDA6EBB3E0F0E0EE0FFF1FEA0FFB1FB8
:103594000895FA93EA930C947508A889B9890E944E
:1035A400921CFA93EA930895FA93EA930E94B1174E
:1035B400E0300895FA93EA930E947906AA8908955F
:1035C400E889F989A281B381BA93AA930895E88915
:1035D400F989A481B581BA93AA9308950E94040B32
:1035E40066277727EC87FD876E877F87AC85BD8547
:1035F4008E859F850895A330E0E0BE07E0E08E0746
:10360400E0E09E070895FA93EA930C947906E8891A
:10361400F989A681B781BA93AA93ECE9F0E0C4CF03
:10362400E889F989A085B185BA93AA930E94EA0A28
:10363400FF2766277727EC87FD876E877F87AC8512
:10364400BD858E859F85A130E0E0BE07E0E08E0752
:10365400E0E09E070895AC85BD858E859F8508951D
:10366400E32FED5FA889B989E7CD0E94921CFA93F4
:10367400EA930895E32FEC5FA889B989DDCDAAEB1D
:10368400B3E0EE27A20FBE1FEC9108950E94EA0A50
:10369400FF2766277727EC87FD876E877F87DBCF39
:1036A400ACEBB3E0EE27A20FBE1FEC910895A0ECA3
:1036B400B3E0EE27A20FBE1FEC910895E989FA89C1
:1036C400A681B781BA93AA930895E889F989A68156
:1036D400B781BA93AA930E94040B662777270E94A6
:1036E400A41CFE013A96FA93EA930E94D817FE01AD
:1036F400369689CFE12FAFE1BFE0F0E00E94021CD3
:103704000895AE0FBF1FE7E6F5E1ED93FC9308952E
:10371400AE0FBF1F0E94921C0895EA0FFB1F329642
:10372400AA81BB81A083B18300300895DF01E7E65D
:10373400F5E1EA17FB0708952A93ED85FE85FA93D0
:10374400EA93E989FA8909950895E889F98934970A
:10375400E88BF98B0895ED85FE85FA93EA93E98960
:10376400FA8909950895A889B98914960E94921C2A
:10377400EE83FF83FA93EA930895A889B98914968E
:103784000E94921CEA87FB870895DE011C960E9422
:10379400EA1B0E94921C0895AE81BF811196AE83EC
:1037A400BF8311970895EA81FB816C817D81A8858F
:1037B400B9858A859B850895E991F991309639F008
:1037C40080EA9FE00197F1F7A8953197C9F708952A
:1037D4000024AF0DB01D0895F195E195F0400895D2
:1037E400F09560957095E195FF4F6F4F7F4F089569
:1037F400EE230E2EEA2F19F0EE0F0A94E9F708953E
:10380400EE0FFF1FEE0FFF1F0895F695E795F6954F
:10381400E795F695E795F695E7950895FA9FF02DC7
:10382400EB9FF00DEA9FE02DF10D08957A9F702D26
:103834006B9F700DF89F700DE99F700D6A9F602D4E
:10384400710DFB9F600D711DE89F600D711D882730
:10385400FA9FF02D610D781FEB9FF00D611D781F0D
:10386400EA9FE02DF10D681F781F08956E2F6A9F5F
:10387400F0016B9FF00D089545D0D0DF0EF4ACDF5E
:1038840008950024112490E1AA0FBB1F001C111CF1
:103894000E1A1F0A18F40E0E1F1E01C0A1609A957D
:1038A40099F7FD01D00108952DD0EBDF0EF494DFDC
:1038B40008953F934F935F93002411244427552781
:1038C40030E2AA0FBB1F881F991F001C111C441F44
:1038D400551F0E1A1F0A460B570B28F40E0E1F1EF7
:1038E400461F571F01C0A1603A9559F7FD01BC015D
:1038F400D001CA015F914F913F910895DADFFD0134
:10390400BC010895E894F7FF02C066DF6894B7FF2E
:1039140006C0A095B095119600F8039400FA089596
:10392400ED91FC9111970895ED91FD916D917D912B
:1039340008957E936E93FE93EE9308950590F4910B
:10394400E02D08957A936A93FA93EA930895082EE2
:103954008F019B01ED91FD916D917C91102C1120B3
:1039640031F076956795F795E7951A94D1F7E023AA
:10397400F123622373230895E023F1236223732345
:10398400AF01CB01002051F0000F111F221F331F84
:10399400440F551F881F991F0A94B1F7009510957D
:1039A400209530951C900E90022213223E912E9168
:1039B40020233123242B352B082A192A2D933D93B8
:1039C4000D921C9208950F931F932F933F934F933F
:1039D4005F93BDDF3196611D711DCEDF5F914F9105
:1039E4003F912F911F910F9108950F931F932F9340
:1039F4003F934F935F93ABDFEF93FF936F937F936B
:103A04003196611D711DB8DF7F916F91FF91EF9128
:103A14005F914F913F912F911F910F9108951196AE
:103A240002D0FE2F1197E199FECFFF93FFB7F894D0
:103A3400AEBBBFBBE09AEDB3FFBFFF91089507D0C3
:103A44001196EF93EF2F03D0EF9111970895E19B17
:103A540002C0A895FCCF9FB7F894AEBBBFBBE09A59
:103A64008DB3E81719F0EDBBE29AE19A9FBF089570
:103A7400309760407040089500240A160B0608959C
:103A8400109780409040089500240A160B060806FB
:103A9400090608955A934A933A932A931A930A93D8
:103AA40008955D814C813B812A81198108810895A3
:00000001FF
