:060000000C9489060C942B
:1000060000000C9400000C9400000C9400000C946A
:1000160000000C9400000C9400000C9400000C945A
:10002600D00F0C9400000C9400000C9400000C946B
:1000360000000C94E60F0C9400000C943F0B0C94FB
:100046004B0A0C9470090C9419090C9400000C943A
:10005600660A0C9400000C9400000C9400000C94AA
:1000660000000C9400000C9400000C9400000C940A
:1000760000000C94A5090C9442090C9400000C9401
:10008600FA0B0C94000048656C7000005365740010
:100096005561727400004D6F6465000053706565AC
:1000A60064005370690050726573630070700000DD
:1000B60049326300570072737400626F6F740000F8
:1000C6006462670020450D00206F6B0D0000204C18
:1000D600617267655F76616C75650D002057726F9A
:1000E6006E675F76616C75650D00205300000D3EEE
:1000F6003E3E2048454C50203C3C3C0D20436F6D15
:100106006D616E64733A0D000D20536574202D49A0
:100116006E746572666163655F6E616D652D202D17
:100126006E756D6265722D204D6F6465202D76614A
:100136006C7565286F7074696F6E616C292D20531C
:1001460070656564202D76616C7565286F707469BD
:100156006F6E616C292D00000D20572020202D493F
:100166006E746572666163655F6E616D652D202DC7
:100176006E756D6265722D202D646174612D0000AF
:100186000D20476574202D656E746974792D000005
:100196000D2020496E746572666163657320617611
:1001A60061696C61626C653A0D202020556172743C
:1001B60028302C31290D20202053706928302D48F5
:1001C6006172642C20312D536F6674290D000D3E2B
:1001D6003E3E20554152545F48454C50203C3C3CE5
:1001E6000D204D6F64653A20302D204E4F524D4103
:1001F6004C3B20312D20444F55424C4544207370D2
:10020600656564000D2053706565643A206261750A
:10021600642F313030202845783A2035373620692A
:1002260073203537363030290D000D3E3E3E2053C3
:1002360050495F48454C50203C3C3C0D204D6F6476
:10024600653A20302D20534C4156453B20312D2018
:100256004D41535445520A000D2050726573636137
:100266006C6C65723A20706F77206F66203220289A
:1002760045783A205072657363203136290D0000A7
:10028600000000000000005F0000000700070014E7
:100296007F147F14242A7F2A1223130864623649A6
:1002A6005522500005030000001C22410000412297
:1002B6001C0014083E081408083E080800503000C8
:1002C6000008080808080060600000201008040202
:1002D600000000000000005F000000070007001497
:1002E6007F147F14242A7F2A122313086462364956
:1002F6005522500005030000001C22410000412247
:100306001C0014083E081408083E08080050300077
:1003160000080808080800606000002010080402B1
:10032600000000000000005F000000070007001446
:100336007F147F14242A7F2A122313086462364905
:100346005522500005030000001C224100004122F6
:100356001C0014083E081408083E08080050300027
:100366000008080808080060600000201008040261
:100376003E5149453E00427F400042615149462177
:1003860041454B311814127F1027454545393C4AE3
:100396004949300171090503364949493606494933
:1003A600291E003636000000563600000814224189
:1003B60000141414141400412214080201510906F1
:1003C600324979413E7E1111117E7F494949363EB7
:1003D600414141227F4141221C7F494949417F09D0
:1003E6000909013E4149497A7F0808087F00417F93
:1003F60041002040413F017F081422417F40404098
:10040600407F020C027F7F0408107F3E4141413E3F
:100416007F090909063E4151215E7F091929464691
:100426004949493101017F01013F4040403F1F20BA
:1004360040201F3F4038403F63140814630708708C
:1004460008076151494543007F41410002040810F5
:10045600200041417F000402010204404040404028
:10046600000102040020545454787F48444438382C
:1004760044444420384444487F3854545418087E31
:100486000901020C5252523E7F0804047800447D52
:1004960040002040443D007F1028440000417F403A
:1004A600007C041804787C080404783844444438F2
:1004B6007C14141408081414187C7C0804040848D6
:1004C60054545420043F4440203C4040207C1C208F
:1004D60040201C3C4030403C44281028440C5050DE
:1004E600503C4464544C44000836410000007F00F0
:1004F6000000413608001008081008784641467882
:10050600000000000000005F000000070007001464
:100516007F147F14242A7F2A122313086462364923
:100526005522500005030000001C22410000412214
:100536001C0014083E081408083E08080050300045
:10054600000808080808006060000020100804027F
:10055600000000000000005F000000070007001414
:100566007F147F14242A7F2A1223130864623649D3
:100576005522500005030000001C224100004122C4
:100586001C0014083E081408083E080800503000F5
:10059600000808080808006060000020100804022F
:1005A600000000000000005F0000000700070014C4
:1005B6007F147F14242A7F2A122313086462364983
:1005C6005522500005030000001C22410000412274
:1005D6001C0014083E081408083E080800503000A5
:1005E60000080808080800606000002010080402DF
:1005F6003E5149453E00427F4000426151494621F5
:1006060041454B311814127F1027454545393C4A60
:1006160049493001710905033649494936064949B0
:10062600291E003636000000563600000814224106
:10063600001414141414004122140802015109066E
:100646007E1111117E7F494949317F494949367FDB
:1006560001010103702927217F7F49494941770814
:100666007F087741414149767F1008047F7F100952
:10067600047F7F0814224120413F017F7F020C0244
:100686007F7F0808087F3E4141413E7F0101017F8F
:100696007F090909063E4141412201017F010147C7
:1006A600281008071E217F211E63140814633F20AB
:1006B60020205F070808087F7F407F407F3F203F5C
:1006C600205F017F4848307F4830007F007F4848E0
:1006D60030414141493E7F083E413E462919097F46
:1006E60020545454783C4A4A49317C545428007C5E
:1006F6000404040C722A26227E38545454186C10B2
:100706007C106C44445454387C2010087C7C2112A4
:10071600097C7C1028440020443C047C7C0810089A
:100726007C7C1010107C38444444387C0404047CDF
:100736007C14141408384444442004047C040444FF
:100746002810080408147E140844281028443C4045
:10075600407C400C1010107C7C407C407C3C203C53
:10076600207C047C5050207C5020007C007C505023
:100776002028444454387C10384438485434147C77
:1007860000000000000000000000000080C0E0F053
:10079600F8F8FCFCFEFEFFFFFEFCF8F0E0C080006F
:1007A6000000000000000000000000000000000043
:1007B600000000000080C0E0F0F8FCFEFFFFFEFE37
:1007C600FCFCF8F8F0E0C08000000000000000002B
:1007D600000000000000000000000000E0F8FEFF3E
:1007E600FFFFFFFFFFFFFFFFFFFFFFFFFFFFFFFF13
:1007F600FFFFFFFFFEFCF8F0E040000000000000F5
:10080600000040E0F0F8FCFEFFFFFFFFFFFFFFFFE8
:10081600FFFFFFFFFFFFFFFFFFFFFFFFFFFEF8E009
:100826000000000000000000000000000000787FCB
:100836007F7F7F7F7F7F7F7F7F7F7F7F7F7F7F7FC2
:100846007F7F7F7F7F7F7F7F0F0301F0F8FCFCFEB9
:10085600FEFEFEFEFEFCFCF8F001030F7F7F7F7FAD
:100866007F7F7F7F7F7F7F7F7F7F7F7F7F7F7F7F92
:100876007F7F7F7F7F78000000000000000000007F
:100886000000000000000000000000000000000062
:100896000000000000000000000000000080C0E131
:1008A600E3E7C7CF8F8F8F8FCFC7E7E3E1C0800025
:1008B6000000000000000000000000000000000032
:1008C6000000000000000000000000000000000022
:1008D6000000000000000000000000000000000012
:1008E60000000000000000000080C0E0F0F8FCFE00
:1008F600FFFFFFFFFFFFFFFFFFFFFFFFFFFFFFFF02
:10090600FFFFFFFFFEFCF8F0E0C0800000000000E3
:1009160000000000000000000000000000000000D1
:100926000000000070887050887000C8A8900070A1
:1009360088700010F800708870000C0E1F1F1F3F93
:100946003F3F3F7F7F7FFFFFFFFFFFFFFFFFFFFF71
:10095600FFFFFFFFFFFF7F7F7F3F3F3F3F1F1F1FC1
:100966000E0C000000F028F000F820F800F8A88827
:100976000088F88800F848B01027E80364000A00E9
:100986000100001000011000010000004453544112
:10099600434B454E440048535441434B454E440057
:1009A600FF000300030046000200C8004D0D4D0D78
:1009B6004D0D706F726600657874726600626F72B4
:1009C600660077647266004A545246000D3C5241F6
:1009D6004D3E000D554152545F53455454494E47C0
:1009E600530D005541525420000D204D6F64652073
:1009F600000D20537065656420000D2D2D2D2D2DC5
:100A06002D2D2D0D000D5350495F53455454494E1D
:100A160047530D0053504920000D205072657363F3
:100A2600616C6C657220000D3C454550524F4D3E41
:100A3600000D42757465735F525820000D4275743F
:100A460065735F545820005461736B335F323530E1
:100A56006D730D0A00545F4C5F540D0A00546963B0
:100A66006B3D25690A004F6C6F6C6F3D29000D20A8
:100A76004552525F554E4445465F464C414720001D
:100A86000D20536574000D2055617274000D204EC3
:100A9600756D000D204D6F6465000D4D204558495C
:100AA60054000D20000D20556172745F696E6974E3
:100AB600000D20537069000D53204E756D000D53C7
:100AC600204D6F64652D000D532050726573632DA4
:100AD600000D5320506861506F6C2D000D5320534C
:100AE6007069496E6974000D20493263000D204912
:100AF60032635F696E6974000D2057000D20552022
:100B0600443E545820000D205320443E54582000A3
:100B16000D205320443C525820000D2049324320DA
:100B2600443E545820000D2049324320443C52583C
:100B3600200079006E006100730045000100250D5C
:100B4600000001002D4E414E00494E4600000100B6
:100B5600020090090900000192090900EC109C09A5
:100B660001005606A80901005706AA090100580601
:100B7600AC0901005906AE0901008D0FB00902004B
:100B8600970FB2090200990FB40902009B0FB6092C
:100B960005000002B80906000502BD0905000B02A2
:100BA600C30905001002C80905001502CD09070092
:100BB6001A02D20910002102D90906003102E909F8
:100BC60008003702EF0909003F02F7090B00480247
:100BD600000A0F0053020B0A050062021A0A0800F7
:100BE6006702EF090E006F021F0A0B007D02000A62
:100BF6000A0088022D0A10009202D9090600A202F4
:100C0600E9090800A802EF090900B002F7090B007C
:100C1600B902000A0F00C4020B0A0500D3021A0A21
:100C26000800D802EF090E00E0021F0A0B00EE02D0
:100C3600000A0B00F902370A0B000403420A0E00F1
:100C46000F034D0A08001D035B0A080025036C0A02
:100C560012002D03740A06003F03860A07004503A7
:100C66008C0A06004C03930A07005203990A0800EF
:100C76005903A00A03006103A80A08006403A00A36
:100C86000C006C03AB0A06007803B70A07007E0364
:100C9600BD0A09008503C40A0A008E03CD0A0B00AB
:100CA6009803D70A0B00A303E20A0600AE03ED0A77
:100CB6000600B403930A0700BA03990A0800C103A1
:100CC600A00A0300C903A80A0800CC03A00A0B0067
:100CD600D403F30A0400DF03FE0A0A00E303020B4F
:100CE6000A00ED030C0B0A00F703160B0C000104B7
:100CF600200B0C000D042C0B0100E610420B030028
:100D06001904440B0100E810480B0000F894EE2784
:100D1600ECBBF1E0F5BFE5BFE0936C00F8E1F1BD97
:100D2600E1BD8DE0A2E0BB27ED938A95E9F780E06F
:100D360090E1A0E0B1E0ED930197E9F7E4E5FBE08F
:100D460085919591009761F0A591B59105901590C3
:100D5600BF01F00105900D920197E1F7FB01F0CF7D
:100D66008BBFEFEFEDBFE0E1EEBFC0E0D2E00C9449
:100D7600B10FEFB7E0932504F8940E946F1328F49F
:100D86000E947713A8810E947E130E9487132196E2
:100D96000895A881B981EC91E03031F0ED91A883F6
:100DA600B983EA93E6DFF5CFD3C00E9474110E949F
:100DB6007713ABE20E947E13E0E0EA93E5E4F4E009
:100DC600FA93EA9311D20E9469110E948D13E4608E
:100DD6000E949213E0E0E0934506E09346060895EC
:100DE6001A930A9300E8D998EA81E03011F0D89A6C
:100DF60001C0D89810E0183060F4E02FAB81EA23E8
:100E060011F0DB9A01C0DB980695DC9ADC981F5F2F
:100E1600F2CFD99A7DC00E949713083FE1E01E07E2
:100E260064F4AAE5B6E0A00FB11FEC91EA93E1E005
:100E3600EA93D6DF0F5F1F4FF0CF10C00E94A813B2
:100E4600083FE1E01E074CF4AAE5B6E0A00FB11F8B
:100E5600E0E0EC930F5F1F4FF3CFDDDF09911991AF
:100E66000895DA9AD49AD39AD19AD09AD29ADC98DB
:100E7600E1E0F0E00E94AD13DA98E4E1F0E00E94D0
:100E8600AD13DA9AD99AE1E20E94B113E0915606BF
:100E9600EC5F0E94B113E0915706E05F0E94B11328
:100EA600E0915806E0580E94B113A0E020FCA1E0B2
:100EB600EA2FEE0FEE0FEE0FE0620E2EA0E021FC01
:100EC600A1E0EA2FEE0FEE0FE0290E94B113E091A8
:100ED6005906EE0FA0915906EA2BE570E8600E94CC
:100EE600B113ACDF08950E949713083FE1E01E0797
:100EF60078F4F801E65AF94F0F01F801AA81BB818F
:100F0600EA0FFB1FE491D001EC930F5F1F4FEDCF6B
:100F16001981088124960895A981AF3018F4A88113
:100F2600A73008F015C0E881F0E03197A4E5B0E0FD
:100F36000E94D715BF01E981F0E03197A6E0B0E045
:100F46000E94D715E60FF71FE0935208F093530857
:100F5600229608951A9310E01E3040F40E94B613AC
:100F6600E95BF94FA0E0A0831F5FF6CF19910895C2
:100F76001A9310E01530A8F40E94B913BF01E98155
:100F8600FA81A5E0B0E00E94D715DF010E94B613F2
:100F9600EA0FFB1FEA57FD4FE491DB01EC931F5F5D
:100FA600E9CF0E94B913A0E0A083188152C21A9318
:100FB600AA81AF3018F4A981A73010F0188149C270
:100FC600EA81EA93EA81EA93A7DF10E0AA81EFE0DB
:100FD600EA1B1E1790F40E94B613E95BF94FE081F5
:100FE600E03049F00E94B613E95BF94FE081F0E08A
:100FF600FA93EA93BDDF1F5FE9CFACDF188129C200
:10100600979A08951A930A93EFB7E0932504F894F4
:10101600AA81BB81E4E60E94D115EA83FB83EC81B9
:10102600E030C9F40E94C4130E94C913E050FC4D7D
:101036006B407F4F7F936F93FF93EF930E94C41390
:10104600A0E1B0E080E090E00E94B115AF91BF91C1
:101056008F919F9118C00E94C4130F01CB010E946B
:101066009F150E949F15E050FC4D6B407F4F7F936C
:101076006F93FF93EF93F001BC010E94C913AF91E8
:10108600BF918F919F910E94EF15E150F040604013
:1010960070408F01ED81E03031F5E0E0E093540AD5
:1010A600E093550A0E94D013E0935C0DE0935D0D2A
:1010B600E0E0E0935E0DE0935F0DE093600DE0935A
:1010C600610DEBB9EAB9E0939500EC81E03011F0DF
:1010D600E2E0EBB91093900009B9E8E9EAB9E6E075
:1010E600E09395002AC0E0E0E093580CE093590C99
:1010F6000E94D613E093620EE093630EE0E0E09365
:10110600640EE093650EE093660EE093670EE0933F
:101116009B00E0939A00E0939D00EC81E03019F08B
:10112600E2E0E0939B001093980000939900E8E9B1
:10113600E0939A00E6E0E0939D000E9487131981F0
:10114600088150C00E94E7160091560A1091570A6E
:1011560020915A0C30915B0CED81E030E1F4A091C6
:10116600540AB091550AF8010E94DC1390F4F80174
:10117600F170EC5AF74FAC81A0830F5F1F4FEFB7AA
:10118600E0932504F8940093560A1093570A559A4B
:1011960001C036DF23C0E13001F5A091580CB091B3
:1011A600590CF9010E94DC13B0F4F901F170E85A08
:1011B600F54FAC81A0832F5F3F4FEFB7E093250437
:1011C600F89420935A0C30935B0CE0919A00E062FD
:1011D600E0939A0001C014DF01C0C1CF0E948713BB
:1011E6000E94EE1626960895A881B981EC91E0300A
:1011F60051F0EA81EA93A981BA81ED91A983BA8374
:10120600EA93A0DFF1CF25C1E881F981E491E030CE
:1012160061F0EA81EA93E981FA813196E983FA83FA
:101226003197E491EA938EDFEFCF13C10E94E21368
:101236000A930091540A1091550AE091560AF091CA
:10124600570AE017F10769F0F801F170EC5AF74F09
:10125600E081ECB90F5F1F4F0093540A1093550AB3
:1012660007C00E94D013E093540AE093550A55989C
:10127600AFE2B4E00E94EC13099119915AC0EA93C7
:10128600FA93EFB7EA931A930A930091580C1091C8
:10129600590CF801F170E85AF54FE081E0939C0093
:1012A6000F5F1F4F0093580C1093590C0E94F513B3
:1012B600E017F10759F40E94D613E093580CE09317
:1012C600590CE0919A00EF7DE0939A0009911991EB
:1012D600E991EFBFF991E99118950E94E2131CB1CB
:1012E600A091600DB091610DA030E1E0BE07E0F481
:1012F600E0915C0DF0915D0DE45AF34F1083ACE57F
:10130600BDE00E94FA13A0E6BDE00E94FA13A09188
:101316005C0DB0915D0DA030E1E0BE0729F4E0E080
:10132600E0935C0DE0935D0DA3E3B4E00E94EC1343
:101336001991E991EFBFF991E991B991A991799143
:10134600699118950E9400141A9310919C00E091DF
:101356002804E03029F5A091660EB091670EA03002
:10136600E1E0BE07E0F4E091620EF091630EEE5903
:10137600F24F1083A2E6BEE00E94FA13A6E6BEE094
:101386000E94FA13A091620EB091630EA030E1E0C4
:10139600BE0729F4E0E0E093620EE093630E13C00B
:1013A600A091580CB091590C0E94F5130E94DC13C1
:1013B60050F40E94F513F170EC5AF74F1083A6E52E
:1013C600BAE00E94FA1319910E9407141895E0E0FA
:1013D600E093FC0EE8E6FEE0E093E80EF093E90EFB
:1013E600E0E0E093FE0EE093FD0E0895E0E0EDB937
:1013F600E7E0E7BBEFE0E8BBE1E548C0E0E0EDB9D8
:10140600E7E0E7BBBB98E8BBEA81EE0FEE0FAE2F35
:10141600E981EE0FEE0FEE0FEA2BEDB9E881E2302F
:1014260019F4E1E0EEB913C0E43011F4E0E00EC0C7
:10143600E83019F4709A689A0AC0E03131F0E03267
:1014460021F4E1E0EEB9E2E001C0E1E0EDB9E0E56A
:10145600EDB923960895EC81E03081F4E0E0EDB932
:10146600EEB9AB81A13041F4EA81EA93EA81EA93CD
:10147600EA81EA93C3DF01C004D001C0B7DF259635
:101486000895E0E0EDB9E8E0E7BBE0E4EDB90895E2
:10149600AA93EA93EFB7EA931A930A9300913F0F40
:1014A600E0E1EDB9A0E09799A1E0E1E0EA2711F4C7
:1014B600979801C0979A1FB109911991E991EFBFC9
:1014C600E991A99118950A921A926A937A939A9336
:1014D600AA93BA93EA93FA93EFB7EA93E4B1F5B114
:1014E600A3E0B0E00E94A915BF01E4B1F5B1DF01A8
:1014F600E7E0F0E00E94DC15DB01AE1BBF0BA0931A
:10150600830FB093840FE0E0E6B9E991EFBFF9915C
:10151600E991B991A9919991799169911990099057
:1015260018950E940E14E0ECE7B9ECE8E6B90895C8
:10153600E7B1EE75E7B9E7B1EE64E7B9E6B1EC7D80
:10154600E6B9E6B1E46CE6B9E0E0E093870FE09334
:10155600880FE4E6F0E0E093910FF093920FA091EC
:10156600910FB091920F0E94E116C0F4369A369907
:10157600FECFE4B10E941414F0E00E941914E5B104
:10158600FE2FE0E00E9414140E941914A1E9BFE0A6
:10159600ED91FD913197FE93EE93E1CFEEE8F2E106
:1015A600E0938F0FF093900FA0918F0FB091900F53
:1015B600A238E4E1BE0710F00C942C0BE0918F0FDB
:1015C600F091900F0E9414140E94A9150E949A157A
:1015D600EF2FF0E0E0938B0FF0938C0FA0918B0F21
:1015E600B0918C0FA331E5E0BE0738F0E0918B0F88
:1015F600F0918C0FE251F54008C0A0918B0FB0918D
:101606008C0FE2E1F5E0EA1BFB0BE093890FF09308
:101616008A0FE0918D0FF0918E0FA091890FB091F6
:101626008A0FAE17BF0780F4E091890FF0918A0FF9
:10163600E0938D0FF0938E0FE0918F0FF091900F46
:10164600E093850FF093860FAFE8BFE00E94FA1390
:10165600ABCF0895E7B7EC7FE7BFE0B7E860E0BF40
:10166600E0E0E2BFE5E0E3BFE0B7E770E9F7E7B740
:10167600E160E7BF789408950E942014A3E9BFE0D3
:1016860080E00E942E1411F00C94DB0BE091930F76
:10169600E07CE093930FA3E9BFE086E00E942E145E
:1016A60011F00C94DB0BE091930FF091940FEF7314
:1016B600F07FE093930FF093940FA3E9BFE08CE0E3
:1016C6000E943C14E831A0E0FA07A0E06A07A0E017
:1016D6007A0711F00C94DB0BA3E9BFE00E942A16EF
:1016E600EF7FFF706E7F7F7F0E942F16A3E9BFE01A
:1016F60081E10E943C14E032A0E0FA07A0E06A070C
:10170600A0E07A0771F10E944314EF3199F40E9428
:101716004B14E43061F00E944B14E63041F00E9415
:101726004B14E93021F00E944B14EB3011F40E9467
:10173600541426C00E944314EE3139F40E944B140F
:10174600E23011F40E9454141BC00E944314ED3180
:10175600B9F40E944B14E23019F42BD0E03009F4AE
:101766000FC0A3E9BFE086E1EFE0F0E060E070E0E3
:101776000E949016E091950FE17CE260E093950F50
:101786000E944B14ED30A1F4E091950FF091960F65
:10179600EF73FC7FE064E093950FF093960FA3E957
:1017A600BFE08AE1EFE3F0E060E070E00E949016AF
:1017B60063C10E946414E4E6F0E060E070E00E9419
:1017C60014160E94DD1649F40E946414E0E9F1E063
:1017D60060E070E00E9414160895E091960FE69579
:1017E600E695E370F07060707070089508950E9439
:1017F60020140E946F13B0F4E0917100E03051F0B4
:10180600A0914506B0914606AB5BBB4FE0917100D7
:10181600EC9304C00E947713AFEFA083A5E4B6E073
:101826000E94FA13E0917100E87FE03031F4E09114
:101836009D0FE1600E946F141FC1E83081F4E091B2
:101846009D0FEC7021F4E091A60FE16003C0E091DA
:10185600A60FEE7FE093A60F0E947A140DC1E03129
:1018660079F40E94821421F4E091A60FE16003C08E
:10187600E091A60FEE7FE093A60F0E947A14FCC0BB
:10188600E83179F4E0919D0FEC70E43011F40E9498
:1018960087140E94821421F40E949814E093740025
:1018A600EBC0E03231F4E0919D0FE0610E946F14CD
:1018B600E3C0E83201F5E0919D0FEC70E43059F495
:1018C600E091A50FA091A40FEA1719F40E94A7149E
:1018D60002C00E9487140E94821461F4E091AA0F4C
:1018E600A091A90FEA1711F4E5EE02C00E94981420
:1018F600E0937400C1C0E03341F4E0919D0FE260D3
:10190600E0939D0F0E94A714B7C0E83349F4E09115
:101916009D0FE0620E94B014E5EEE0937400ACC047
:10192600E03449F40E94B81411F4E5E801C0E5EC8E
:10193600E0937400A1C0E83431F4E0919D0FE061BA
:101946000E946F1499C0E03581F40E94BF14E091A3
:10195600A40FEF5FE093A40F0E94B81411F4E5E81A
:1019660001C0E5ECE093740087C0E83529F40E94D5
:10197600BF140E94A71480C0E83611F0E83731F48E
:10198600E0919D0FE06A0E94B01402C0E03609F4AF
:1019960002C0E03761F4E0919D0FE064E0939D0F93
:1019A600E0E0E093A00FE5E8E093740065C0E0385E
:1019B60011F0E03961F40E94C8140E94D114E0309D
:1019C60011F4E5E801C0E5ECE093740055C0E83891
:1019D60011F0E83989F40E94C814E0919D0FE0786F
:1019E60011F0E5EE01C0E5ECE0937400E091990F8B
:1019F600F0919A0F099540C0E03A21F4E5ECE093A6
:101A060074003AC0E03B31F4E0919D0FE06A0E9419
:101A1600B01402C0E83A49F4E0E0E093A00F0E9457
:101A2600D714E5E8E093740027C0E83B71F40E9400
:101A3600D1140E94D714E091A00FE03011F4E5E82C
:101A460001C0E1ECE093740017C0E03C11F0E83C03
:101A560099F4E0919D0FE07839F0E0919D0FEF77D2
:101A6600E0939D0FE5EE01C0E5ECE0937400E09194
:101A7600990FF0919A0F0995E991EFBFF991E991C4
:101A8600B991A9919991899179916991F990199052
:101A9600099018950895E2B3E360E2BBE1B3EC7FE9
:101AA600E1BBEFEFE0937000E3E0E093710008958F
:101AB600E2E3E0937200E881F981E093990FF093F5
:101AC6009A0FE5E4E09374000C940810EFECFDE047
:101AD6000E94DE14EAE0F0E00E94E514E9E9FDE088
:101AE600FA93EA93E8E8F3E1FA93EA93E4EFF1E094
:101AF6000E94E514E4E3FEE0FA93EA93E2E3F0E001
:101B0600FA93EA930E94E514E9EDFDE00E94E914D8
:101B1600E4E9FDE0FA93EA93EAEFF0E0FA93EA9358
:101B26005DC0EFE0F3E00E94ED1408950E94A81353
:101B360000912A0410912B04EDE1F3E00E94ED14CC
:101B4600E7E4F6E0FA93EA93E3E6FAE0FA93EA9337
:101B5600F8010E94A4150E943D1684E00E94E4123A
:101B66002896E1E0EA93E2E0EA930E94DA07E7E4E6
:101B7600F6E0FA93EA93E5E2F3E0FA93EA93EFE00C
:101B8600EA930E942F13E1E0EA93E4E0EA930E94CD
:101B9600DA070E940E077DC0A0E09799A1E0E1E078
:101BA600EA2711F4979801C0979A0895E6E8F7E0B6
:101BB600FA93EA930E947607E1E2F7E00E94DE14C8
:101BC600E0E0F0E00E94E5140E940E07E1E2F7E093
:101BD600FA93EA93E0EDF7E00E94F114FA93EA93A0
:101BE6000E940A10089525970E948D133097B9F424
:101BF600EDE2F3E00E94ED140E948D13FA93EA934E
:101C0600FE013296FA93EA930E944313FE010E9464
:101C1600ED140E948D13EE7F0E94921304C0E130F2
:101C2600A0E0FA0751F4EFE4FEE00E94E9140E94F6
:101C36008D13ED7F0E94921304C0E230A0E0FA07F4
:101C460049F4EDE3FEE00E94E9140E948D13EB7F58
:101C56000E9492130E948D13E1600E9492130C94CD
:101C6600AD11E0914506F0914606309711F00E94BD
:101C7600D80608950E94A8130030E2E01E0748F433
:101C8600A5E4B4E0A00FB11FE0E0EC930F5F1F4F97
:101C9600F3CF0991199108951A9310E0103470F456
:101CA6000E94B613ED5BF04FA0E0A0830E94B6132E
:101CB600E150F14FA0E0A0831F5FF0CF0C94031119
:101CC600E0919D0FEF7BE0939D0FE0919E0FECB9A5
:101CD6000895E0E0EBBBEABBE8BBE7E0E7BBE0E08A
:101CE600E5BBE4BBE2BBE1BBE3B9E2B90E940E147B
:101CF600E0E0E0936500E09364000895E0E0E0BF73
:101D0600E3BFE2BFE1BF0895E0E0EFBDEEBDEDBD8C
:101D1600ECBDE7BDE6BDEBBDEABDE9BDE8BDE093C0
:101D26007900E09378000895E0E0E5BDE4BDE3BD09
:101D36000895E0E0E0938B00E0938A00E093890049
:101D4600E0938800E0938100E0938000E0938700B1
:101D5600E0938600E0938500E0938400E09383009F
:101D6600E09382000895E0E0E0936A00EABFE9BFED
:101D7600E7BFE0937D000895E0E0EBB9E8EDEAB94E
:101D8600E6E0E0939500E0E0E0939000E3E3E9B954
:101D96000895E2E0E0939B00E8EDE0939A00E6E028
:101DA600E0939D00E0E0E0939800E8E0E09399007E
:101DB60008951A9310E010E0123018F5ADE3B4E080
:101DC6000E94B613EA0FFB1F0F010E94F6140E9431
:101DD600FB14E12FA9E3B4E0F0E0EE0FFF1FEA0FDA
:101DE600FB1F0F01A3E0B0E00E94B613EE0FFF1F2A
:101DF600AE0FBF1F0E94AA16D001ED93FC931F5F82
:101E0600DBCF10E01230F0F4AFE3B4E00E94B6137B
:101E1600EA0FFB1F0F01A7E0B0E0EE27A10FBE1FE0
:101E26000E94FB14A3E4B4E00E94B613EA0FFB1F62
:101E36000F01ABE0B0E0EE27A10FBE1F0E94FB141E
:101E46001F5FE0CF0C9403111A9310E010E01230DC
:101E560038F40E94F614E0E00E94C2161F5FF7CF26
:101E6600A3E0B0E0E0E4F2E00E94BA16A5E0B0E03C
:101E7600E0E2F1E00E94BA1610E0123088F4A7E022
:101E8600B0E0EE27A10FBE1F0E94C216ABE0B0E085
:101E9600EE27A10FBE1FE0E10E94C2161F5FEDCF25
:101EA6000C94031116DF3DDB43DB28DF2DDF3CDF1F
:101EB60040DF59DF61DF6DDF0E94F909CBDB089552
:101EC600A0E0B0E00E94AE16E23431F0BDDFA0E043
:101ED600B0E0E2E40E94C2166CDFE0E0EA93E09133
:101EE6003D04EA93E0913904F0913A040E9400150A
:101EF600E1E0EA93E0913E04EA93E0913B04F0913D
:101F06003C040E940015E0E0EA93E1E0EA93E0E495
:101F1600F2E00E940015E0E0EA93E1E0EA93EA933A
:101F2600E0E0EA93E0E1EA930E942E0A0E94340779
:101F3600B2DDE3E6FEE0FA93EA93BADDEEB1EFB185
:101F46000E94EA0949D0E0E0E0934506E0934606A0
:101F56000E947713A1E00E947E1308958F9A979AA4
:101F6600EFE0F0E00E94AD138F9897989BDFA8DF13
:101F76008F9A8E9A8D9AE1E00E940415E0E00E9405
:101F86000415E9E6FDE00E94E9140E94691184D077
:101F960002D0FDCFFFCF27DE08950E942014AAE2CB
:101FA600B4E00E94EC130E94E010E991EFBFF991B2
:101FB600E991B991A9919991899179916991F9904C
:101FC6001990099018950E940014A7E3B4E00E94A6
:101FD600FA130E94071418951A9310E0153151F060
:101FE6000E940B150E9411150E9417150E941D15BF
:101FF6001F5FF4CF05C196980895E881F9810E9484
:10200600F1140E94F1140E94E514229608951A9381
:102016000A9310E000E0EFB7E7FF02C0F89401E092
:1020260010E0E091E610E11799F10E940B15DF012F
:102036000E942616DF01EE81FF81EA17FB0741F4B5
:102046000E9417150E942215003009F0789420C0CE
:102056000E940B15DF010E942616DF01EEEFFFE05E
:10206600EA17FB0799F40E940B15AE81BF81A08386
:10207600B1830E9417150E942215E091E610EF5FCA
:10208600E093E610003009F0789402C01F5FC9CFD4
:102096001981088128960895FF922A970E94E716CB
:1020A600E1E0FE2E10E010E0E091E610E11711F4F9
:1020B6000C94D9100E943715A081A13011F00C9410
:1020C600D710969A0E940B1520813181AFE01A9F96
:1020D600F001E155F04FDF010E942616309731F4EA
:1020E6003A932A938FD0E894F0F812C0AFE01A9F83
:1020F600F001DF01E355F04FBF01A155B04F0E943B
:102106002616DB01ED93FC930E943715A0E0A08311
:10211600F8942093E710AFE01A9FF001E754F04FD0
:10212600A091E710A083AFE01A9FF001EE54F04FA4
:10213600A0912A04B0912B0480912C0490912D0437
:102146000E9438167894E0912A04E0932E0478943D
:10215600F9010995F0FE27C0A0912E04E0912A040A
:10216600EA1BE0932E04E13098F0E0912E04F0E0B3
:10217600FA93EA93FE013696FA93EA930E94431382
:10218600FE0134960E94ED14E9E1F4E00E94ED149C
:10219600AFE01A9FF001EA54F04FDF01E0912E0400
:1021A600F0E0ED93FC9304C01F5F7ECF789423DFAD
:1021B6000E94EE162E96FF9008951A9310E0E09175
:1021C600E610E117E9F00E943715E081E030B1F43E
:1021D6000E941715DF010E942616DF010E94E116F4
:1021E60048F40E941715DF01ED91FD913197FE939A
:1021F600EE9304C00E943715A1E0A0831F5FDFCFD6
:1022060019910895FF921A93FF2410E0EFB7E7FFA4
:1022160003C0F8946894F0F810E0E091E6101E17F9
:1022260010F00C9465110E940B15DF010E94261612
:10223600DF01E981FA81EA17FB0711F00C946311BB
:10224600E091E610E150E117E1F00E940B15BF01A5
:102256000E943D15DB018FE00E94D3160E943D15BA
:102266000E9411150E944615E355F04F0E941D1558
:102276000E944615E155F04F0E941D150E94461515
:1022860012C00E940B150E9411150E9417150E947C
:102296001D15AFE01A9FF001E155F04F0E941D1584
:1022A600AFE01A9FF001EF54F04FA3E0A083E09156
:1022B600E610E150E093E610F0FE01C0789402C00B
:1022C6001F5FABCF18812396FF900895F894ECE03A
:1022D600E5BDE0E0E4BDECE0E3BDE0E8E7BF78940F
:1022E6000895E5E0E5BD08951A930A93AA81BB8196
:1022F60012960E942616309729F1AA81BB81149660
:102306000E9426168F01309761F00230E0E01E072A
:10231600C0F0F80131978F01AA81BB811496ED9325
:10232600FC93AA81BB8112960E94FA133197AC8165
:10233600A083AA81BB810E942616FF2312F00E9469
:10234600FA1306C0AA81BB81EFEFFFEFED93FC9372
:10235600198108812596089526970E94E51610E0B2
:10236600AC85BD85E0E0F0E0ED93FC93EA89FB895E
:102376003196EA8BFB8B3197E4912E2FE03011F4E6
:102386000C94DC12E12FE03039F4253211F411E01F
:1023960002C00E944D150CC1E130A9F4253219F492
:1023A6000E944D1504C112E040E000E02D3211F408
:1023B60001E0FEC02B3211F44BE2FAC0203211F4D8
:1023C60040E2F6C002C0E23039F450E013E02033B8
:1023D60011F40068EDC004C0E33011F00C94DB1278
:1023E600203310F02A3308F007C0AAE05A9F502D78
:1023F600E22FE0535E0FDCC0E22FE33649F40E9481
:102406005615E889F989A481AA930E945C15CFC064
:10241600E33741F40E9456150E9464150E941A1370
:102426001E2F0AC0E03761F40E9456150E946415FB
:102436000E9424131E2F086002600F7730E035C01B
:10244600E43611F0E93611F4046002C0E53731F4E0
:10245600EEE7F9E0EE83FF8315E00DC0E83511F4F1
:10246600086004C0E83711F00C94DA12E8E8F9E0E5
:10247600EE83FF8314E002FF14C00E9456150E94EB
:102486006E15AB85AA233AF4EA85FB850E948D1565
:10249600EA87FB874DE2403011F01F5F01C00B7FDA
:1024A60004C00E9456150E946E1500FD11C0151736
:1024B60078F407FF08C002FF04C00B7F242F1150D9
:1024C60001C020E301C020E20E944D155150EFCF1C
:1024D600312F01FF17C03030A1F003FF06C0EE8197
:1024E600FF812591EE83FF8305C0AE81BF812D91CB
:1024F600AE83BF830E944D15503009F051503150C4
:10250600EACF4BC020E3EE81FF810E943416E887B4
:10251600F987EE81FF813296EE83FF83E885F985A0
:10252600AA85BB85AE17BF0750F02F5FA885B98572
:10253600EA85FB85EA1BFB0BEA87FB87EFCF2A338D
:1025460028F003FF02C0295F01C0295D04FD1AC0FF
:10255600213320F4A885B985119709F409C05317CA
:1025660010F000FF01C013C020E207FF0BC020E3FC
:10257600006102FF07C00B7F4A930E945C15503032
:1025860009F051500E944D15503009F0515031500C
:10259600A885B985129708F0B5CF00FF08C050305E
:1025A60031F05150E0E2EA930E945C15F8CF10E05A
:1025B600DDCEAC85BD850E9426160E94EC1664967B
:1025C6000895FF92F82E26970E94E7160E94761528
:1025D600309719F4EFEFFFEF25C0DE0116960E9443
:1025E60089158D010E947615EE83FF83E0E0E8876A
:1025F600E987DE011A960E9489150E942616FA932B
:10260600EA931A930A93E7E7F1E1FA93EA93FE0154
:102616003A96FA93EA93A0DE9F01AE81BF81E0E08D
:10262600EC93F9010E94EE162A96FF900895A9915F
:10263600B991EE27FF276D91662311F03196FBCFF6
:102646000895AA27BB27E991F9910590002011F07A
:102656001196FBCFFD0108957991E991F991A99120
:10266600B991CD01772351F07A9561916D936623E7
:10267600C9F7772319F07A956D93FBCFFC0108957E
:10268600A991B991E991F99130962AF4E095F095DE
:1026960031966DE26D93E89480E197E20DD088EE75
:1026A60093E00AD084E6992707D08AE005D06E2FFA
:1026B60010D066276C9308956627E817F90720F06F
:1026C6006395E81BF90BC9F7662311F416F0089514
:1026D6006894605D6D930895A0914506B091460695
:1026E600A030E2E0BE070895E0914506F091460667
:1026F600EB5BFB4F0895A083A5E4B6E0ED91FD9159
:102706003196FE93EE930895EFB7A0912504EA2B38
:10271600EFBF0895E0912604F09127040895E09311
:102726002604F093270408951A930A93E0E8EA939F
:10273600E0E0EA930E94F306E0E4EA93E0E0EA933D
:102746000E94F30600E010E008951A930A9300E051
:1027560010E00895FA93EA930C947D15EA93E0E06D
:10276600EA930C94F306E12FF0E00895A2E5B8E0B1
:10277600ED91FD913196FE93EE933197E65AF94F1E
:102786000895EA81FB81662777270895A8E0B0E0DF
:1027960080E090E00E94B1150895E0E0E093560ACB
:1027A600E093570A0895E0E0E0935A0CE0935B0C3F
:1027B6000895EA1BFB0BE130A2E0FA0708956A933D
:1027C6007A93AA93BA93EA93FA93EFB7EA931A9392
:1027D60008950E942A16EF5FFF4F6F4F7F4F0E94AA
:1027E6002F160895E0915A0CF0915B0C0895ED9127
:1027F600FD913196FE93EE930895AA93BA93EA93C8
:10280600FA93EFB7EA930895E991EFBFF991E99149
:10281600B991A9910895E0E0E0936200E093610028
:102826000895A091870FB091880F0895EA0FFB1FB6
:10283600E093870FF093880F08950A921A92FA92FE
:102846006A937A938A939A93AA93BA93EA93FA939A
:10285600EFB7EA930895EFE3F0E060E070E00E94DE
:102866007E16EC33A0E0FA07A0E06A07A0E07A073C
:102876000895EFE1F0E060E070E00E947E160895B2
:10288600E091950FF091960FF695E795EF71089503
:10289600A091950FB091960FE6E00E949115EF700A
:1028A6000895A3E9BFE086E1EFE0F0E060E070E0C4
:1028B6000E949016E091950FE17CE260E093950FFF
:1028C6000895E091960FE695E695EF73F0706070C7
:1028D6007070DF01CB010895E0939D0FE5EDE09365
:1028E6007400E0919B0FF0919C0F09950895E0917B
:1028F600A60FE0937300E5ECE09374000895E09171
:102906009D0FEC70E8300895E091A40FF0E0EF55CC
:10291600F04FE081E0937300E091A40FEF5FE09346
:10292600A40FE5ECE09374000895E091A90FF0E0A0
:10293600E955F04FE081E0937300E091A90FEF5F56
:10294600E093A90FE5EC0895E5EDE0937400E091BE
:10295600970FF091980F09950895E0939D0FE0E089
:10296600E093A40FE093A90F0895A091A40FAF5F81
:10297600E091A50FEA170895A091A40FB0E0AF5516
:10298600B04FE0917300EC930895A091A00FB0E0D2
:10299600A256B04FE0917300EC930895E091A00F1A
:1029A600EF5FE093A00F0895F0E0E156F04FE0816D
:1029B600E09373000895FA93EA93E8EEF3E0FA934E
:1029C600EA930895FA93EA930C940A10FA93EA9319
:1029D6000C940010FA93EA930C94CC06FA93EA93BB
:1029E600E0E0F0E00895A12FB0E0AF5FBF4F08959B
:1029F6000E94AE16D001EC930895FA93EA930C94D4
:102A06000508EA93E0EFF0E0FA93EA930C940709DD
:102A1600AFE01A9FF001E555F04F0895DF01EEEFA4
:102A2600FFE0ED93FC930895AFE01A9FF001E355A4
:102A3600F04F0895A0E0B0E0A083B1830895AC8183
:102A4600BD81A083B183AFE01A9FF001E155F04F3D
:102A5600AA81BB81A083B183AFE01A9FF001EF5436
:102A6600F04FA0E0A0830895AFE01A9FF001EF5465
:102A7600F04F0895E091E610E150AFE0EA9FF001D3
:102A8600E555F04F0895E091E610E150AFE0EA9F7A
:102A9600F00108952A93ED85FE85FA93EA93E98974
:102AA600FA8909950895E889F9893497E88BF98BAD
:102AB6000895ED85FE85FA93EA93E989FA890995E1
:102AC6000895A889B98914960E942616EE83FF8375
:102AD600FA93EA930895A889B98914960E9426164E
:102AE600EA87FB870895DE011C960E9489150E94DD
:102AF60026160895E991F991309639F080EA9FE01B
:102B06000197F1F7A8953197C9F708950024AF0DFD
:102B1600B01D0895F195E195F0400895EE230E2E2F
:102B2600FD0121F0F695E7950A94E1F70895F695EB
:102B3600E795F695E7950895EE0FFF1F661F771F39
:102B460008956F2F660F660B762F0895FA9FF02D66
:102B5600EB9FF00DEA9FE02DF10D08957A9F702D01
:102B66006B9F700DF89F700DE99F700D6A9F602D29
:102B7600710DFB9F600D711DE89F600D711D88270B
:102B8600FA9FF02D610D781FEB9FF00D611D781FE8
:102B9600EA9FE02DF10D681F781F08956E2F6A9F3A
:102BA600F0016B9FF00D089540D0D0DF0EF4B2DF38
:102BB60008950024112490E1AA0FBB1F001C111CCC
:102BC6000E1A1F0A18F40E0E1F1E01C0A1609A9558
:102BD60099F7FD01D00108953F934F935F93002429
:102BE60011244427552730E2AA0FBB1F881F991FBF
:102BF600001C111C441F551F0E1A1F0A460B570BAB
:102C060028F40E0E1F1E461F571F01C0A1603A95DD
:102C160059F7FD01BC01D001CA015F914F913F9167
:102C26000895DADFFD01BC010895E894F7FF02C0BC
:102C360071DF6894B7FF06C0A095B095119600F8AD
:102C4600039400FA0895ED91FC9111970895ED9182
:102C5600FD916D917D9108957E936E93FE93EE9313
:102C660008950590F491E02D0895A083B1838283A1
:102C7600938308957A936A93FA93EA930895082EB4
:102C86008F019B01ED91FD916D917C91102C11208E
:102C960031F076956795F795E7951A94D1F7E02385
:102CA600F123622373230895E023F1236223732320
:102CB600AF01CB01002051F0000F111F221F331F5F
:102CC600440F551F881F991F0A94B1F70095109558
:102CD600209530951C900E90022213223E912E9143
:102CE60020233123242B352B082A192A2D933D9393
:102CF6000D921C9208950F931F932F933F934F931A
:102D06005F93BDDF3196611D711DCEDF5F914F91DF
:102D16003F912F911F910F9108950F931F932F931A
:102D26003F934F935F93ABDFEF93FF936F937F9345
:102D36003196611D711DB8DF7F916F91FF91EF9103
:102D46005F914F913F912F911F910F910895119689
:102D560002D0FE2F1197E199FECFFF93FFB7F894AB
:102D6600AEBBBFBBE09AEDB3FFBFFF91089507D09E
:102D76001196EF93EF2F03D0EF9111970895E19BF2
:102D860002C0A895FCCF9FB7F894AEBBBFBBE09A34
:102D96008DB3E81719F0EDBBE29AE19A9FBF08954B
:102DA6009927EF93FF9361916D930197E1F7FF9157
:102DB600EF910895309760407040089500240A16F8
:102DC6000B0608955A934A933A932A931A930A93B1
:102DD60008955D814C813B812A811981088108957E
:00000001FF
