:040000000C94B105A6
:100004000C9400000C9400000C9400000C9400006C
:100014000C9400000C9400000C9400000C9400005C
:100024000C94420E0C9400000C9400000C940000FC
:100034000C9400000C94580E0C9400000C945E0A6E
:100044000C946A090C948F080C9438080C940000E2
:100054000C9485090C9400000C9400000C9400008E
:100064000C9400000C9400000C9400000C9400000C
:100074000C9400000C94C4080C9461080C940000C7
:100084000C94190B0C94000048656C7000005365C7
:1000940074005561727400004D6F64650000537004
:1000A4006565640053706900507265736300707015
:1000B400000049326300570072737400626F6F74FA
:1000C40000006462670020450D00206F6B0D000086
:1000D400204C617267655F76616C75650D00205711
:1000E400726F6E675F76616C75650D00205300005A
:1000F4000D3E3E3E2048454C50203C3C3C0D2043A8
:100104006F6D6D616E64733A0D000D20536574203C
:100114002D496E746572666163655F6E616D652DF0
:10012400202D6E756D6265722D204D6F6465202DD6
:1001340076616C7565286F7074696F6E616C292DBA
:10014400205370656564202D76616C7565286F7029
:1001540074696F6E616C292D00000D2057202020DA
:100164002D496E746572666163655F6E616D652DA0
:10017400202D6E756D6265722D202D646174612D64
:1001840000000D20476574202D656E746974792D07
:1001940000000D2020496E746572666163657320EA
:1001A400617661696C61626C653A0D20202055614D
:1001B400727428302C31290D202020537069283086
:1001C4002D486172642C20312D536F6674290D0003
:1001D4000D3E3E3E20554152545F48454C50203C14
:1001E4003C3C0D204D6F64653A20302D204E4F521B
:1001F4004D414C3B20312D20444F55424C45442029
:100204007370656564000D2053706565643A2062FF
:100214006175642F313030202845783A20353736DF
:10022400206973203537363030290D000D3E3E3EAF
:10023400205350495F48454C50203C3C3C0D204DD8
:100244006F64653A20302D20534C4156453B203194
:100254002D204D41535445520A000D2050726573B0
:1002640063616C6C65723A20706F77206F66203220
:10027400202845783A205072657363203136290D61
:100284000000000000000000005F000000070007FD
:1002940000147F147F14242A7F2A12231308646213
:1002A40036495522500005030000001C224100007D
:1002B40041221C0014083E081408083E0808005097
:1002C40030000008080808080060600000201008DA
:1002D4000402000000000000005F000000070007A7
:1002E40000147F147F14242A7F2A122313086462C3
:1002F40036495522500005030000001C224100002D
:1003040041221C0014083E081408083E0808005046
:100314003000000808080808006060000020100889
:100324000402000000000000005F00000007000756
:1003340000147F147F14242A7F2A12231308646272
:1003440036495522500005030000001C22410000DC
:1003540041221C0014083E081408083E08080050F6
:100364003000000808080808006060000020100839
:1003740004023E5149453E00427F400042615149DA
:10038400462141454B311814127F10274545453904
:100394003C4A494930017109050336494949360641
:1003A4004949291E0036360000005636000008145C
:1003B400224100141414141400412214080201519F
:1003C4000906324979413E7E1111117E7F4949491E
:1003D400363E414141227F4141221C7F49494941E6
:1003E4007F090909013E4149497A7F0808087F00CD
:1003F400417F41002040413F017F081422417F405A
:100404004040407F020C027F7F0408107F3E414140
:10041400413E7F090909063E4151215E7F091929A0
:1004240046464949493101017F01013F4040403F6F
:100434001F2040201F3F4038403F631408146307C7
:10044400087008076151494543007F414100020497
:100454000810200041417F00040201020440404092
:100464004040000102040020545454787F4844441E
:10047400383844444420384444487F385454541849
:10048400087E0901020C5252523E7F08040478008F
:10049400447D40002040443D007F1028440000413A
:1004A4007F40007C041804787C08040478384444B1
:1004B40044387C14141408081414187C7C080404AC
:1004C400084854545420043F4440203C4040207C7D
:1004D4001C2040201C3C4030403C44281028440C44
:1004E4005050503C4464544C4400083641000000D1
:1004F4007F000000413608001008081008784641C3
:100504004678000000000000005F000000070007BC
:1005140000147F147F14242A7F2A12231308646290
:1005240036495522500005030000001C22410000FA
:1005340041221C0014083E081408083E0808005014
:100544003000000808080808006060000020100857
:100554000402000000000000005F00000007000724
:1005640000147F147F14242A7F2A12231308646240
:1005740036495522500005030000001C22410000AA
:1005840041221C0014083E081408083E08080050C4
:100594003000000808080808006060000020100807
:1005A4000402000000000000005F000000070007D4
:1005B40000147F147F14242A7F2A122313086462F0
:1005C40036495522500005030000001C224100005A
:1005D40041221C0014083E081408083E0808005074
:1005E40030000008080808080060600000201008B7
:1005F40004023E5149453E00427F40004261514958
:10060400462141454B311814127F10274545453981
:100614003C4A4949300171090503364949493606BE
:100624004949291E003636000000563600000814D9
:10063400224100141414141400412214080201511C
:1006440009067E1111117E7F494949317F49494983
:10065400367F01010103702927217F7F49494941E0
:1006640077087F087741414149767F1008047F7FEE
:100674001009047F7F0814224120413F017F7F023B
:100684000C027F7F0808087F3E4141413E7F010103
:10069400017F7F090909063E4141412201017F0191
:1006A4000147281008071E217F211E6314081463C4
:1006B4003F2020205F070808087F7F407F407F3F5E
:1006C400203F205F017F4848307F4830007F007F13
:1006D400484830414141493E7F083E413E46291940
:1006E400097F20545454783C4A4A49317C54542854
:1006F400007C0404040C722A26227E3854545418B4
:100704006C107C106C44445454387C2010087C7C5D
:100714002112097C7C1028440020443C047C7C0881
:1007240010087C7C1010107C38444444387C040449
:10073400047C7C14141408384444442004047C04C9
:1007440004442810080408147E140844281028447B
:100754003C40407C400C1010107C7C407C407C3C35
:10076400203C207C047C5050207C5020007C007C69
:1007740050502028444454387C1038443848543469
:10078400147C1027E80364000A0001000010000133
:1007940010000100000044535441434B454E4400B3
:1007A40048535441434B454E4400FF0003000300AB
:1007B40046000200C8006C0C6C0C6C0C706F726606
:1007C40000657874726600626F72660077647266A0
:1007D400004A545246000D3C52414D3E000D5541D5
:1007E40052545F53455454494E47530D005541529A
:1007F4005420000D204D6F646520000D205370655A
:10080400656420000D2D2D2D2D2D2D2D2D0D000D6C
:100814005350495F53455454494E47530D00535068
:100824004920000D205072657363616C6C65722001
:10083400000D3C454550524F4D3E000D42757465C8
:10084400735F525820000D42757465735F545820CD
:10085400005461736B335F3235306D730D0A00548D
:100864005F4C5F540D0A005469636B3D25690A00AF
:100874004F6C6F6C6F3D29002020496E7465726661
:1008840061636520202000204D6F6E69746F7220B3
:1008940076322E31200020D5ECE5EBE5E2F1FCEADE
:1008A400EEE92020002020C2EBE0E4E8F1EBE0E2F6
:1008B400202020002020C0C5202D203130342020CD
:1008C4002020000D20536574000D205561727400C2
:1008D4000D204E756D000D204D6F6465000D4D208B
:1008E40045584954000D20000D20556172745F690C
:1008F4006E6974000D20537069000D53204E756DA0
:10090400000D53204D6F64652D000D53205072650A
:1009140073632D000D5320506861506F6C2D000DD2
:100924005320537069496E6974000D204932630085
:100934000D204932635F696E6974000D2057000D04
:10094400205520443E545820000D205320443E544A
:100954005820000D205320443C525820000D2049BB
:10096400324320443E545820000D20493243204451
:100974003C5258200079006E00610073004500006D
:10098400010001002D4E414E00494E460000010079
:1009940002009807090000019A070900D410A4076F
:1009A40001008906B00701008A06B20701008B0620
:1009B400B40701008C06B6070100C00FB807020097
:1009C400CA0FBA070200CC0FBC070200CE0FBE0745
:1009D40005000002C00706000502C50705000B025A
:1009E400CB0705001002D00705001502D507070044
:1009F4001A02DA0710002102E10706003102F107AA
:100A040008003702F70709003F02FF070B004802FE
:100A140008080F00530213080500620222080800A8
:100A24006702F7070E006F0227080B007D02080813
:100A34000A008802350810009202E1070600A202AB
:100A4400F1070800A802F7070900B002FF070B002E
:100A5400B90208080F00C40213080500D3022208D3
:100A64000800D802F7070E00E00227080B00EE0288
:100A740008080B00F9023F080B0004034A080E00A3
:100A84000F03550808001D036308080025037408B4
:100A94000F002D037C080F003C038B080F004B0351
:100AA4009A080F005A03A9080F006903B808060042
:100AB4007803C70807007E03CD0806008503D40821
:100AC40007008B03DA0808009203E10803009A0385
:100AD400E90808009D03E1080C00A503EC080600E2
:100AE400B103F8080700B703FE080900BE030509AF
:100AF4000A00C7030E090B00D10318090B00DC031D
:100B040023090600E7032E090600ED03D4080700B5
:100B1400F303DA080800FA03E10803000204E90811
:100B240008000504E1080B000D043409040018044E
:100B34003F090A001C0443090A0026044D090A005F
:100B4400300457090C003A0461090C0046046D098D
:100B54000100CE1084090100D01086090000F89429
:100B6400EE27ECBBF1E0F5BFE5BFE0936C00F8E1E4
:100B7400F1BDE1BD8DE0A2E0BB27ED938A95E9F7D5
:100B840080E090E1A0E0B1E0ED930197E9F7E2E9BC
:100B9400F9E085919591009761F0A591B591059043
:100BA4001590BF01F00105900D920197E1F7FB014B
:100BB400F0CF8BBFEFEFEDBFE0E1EEBFC0E0D2E0DE
:100BC4000C94250EEFB7E0935B04F8940E94811116
:100BD40028F40E948911A8810E9490110E94991101
:100BE40021960895A881B981EC91E03031F0ED911E
:100BF400A883B983EA93E6DFF5CFCAC00E94B20F97
:100C04000E948911ABE20E949011E0E0EA93E8E7C8
:100C1400F4E0FA93EA9308D20E94A70FE5E0FDE01E
:100C2400FA93EA93E9E1F0E00E949F110E947C0E9E
:100C3400E0E0E0937806E093790608951A930A9326
:100C440000E8D998EA81E03011F0D89A01C0D89828
:100C540010E0183060F4E02FAB81EA2311F0DB9A46
:100C640001C0DB980695DC9ADC981F5FF2CFD99A15
:100C740019810881249608951A930A93E0E80E9442
:100C8400A611E0E40E94A61100E010E0083FE1E0B4
:100C94001E0764F4ADE8B6E0A00FB11FEC91EA932F
:100CA400E1E0EA93CBDF0F5F1F4FF0CF10C00E944B
:100CB400AB11083FE1E01E074CF4ADE8B6E0A00F2D
:100CC400B11FE0E0EC930F5F1F4FF3CFD5DF099125
:100CD40019910895DA9AD49AD39AD19AD09AD29A39
:100CE400DC98E1E0F0E00E94B011DA98E4E1F0E091
:100CF4000E94B011DA9AD99AE1E20E94A611E09119
:100D04008906EC5F0E94A611E0918A06E05F0E94CA
:100D1400A611E0918B06E0580E94A611A0E020FCE9
:100D2400A1E0EA2FEE0FEE0FEE0FE0620E2EA0E030
:100D340021FCA1E0EA2FEE0FEE0FE0290E94A6119C
:100D4400E0918C06EE0FA0918C06EA2BE570E8602A
:100D54000E94A611ACDF0895A981AF3018F4A881D0
:100D6400A73008F015C0E881F0E03197A4E5B0E0C1
:100D74000E94BF13BF01E981F0E03197A6E0B0E023
:100D84000E94BF13E60FF71FE0938508F0938608CF
:100D9400229608951A9310E01E3040F40E94B41174
:100DA400E658F94FA0E0A0831F5FF6CF199108958C
:100DB4001A9310E01530A8F40E94B711BF01E9811D
:100DC400FA81A5E0B0E00E94BF13DF010E94B411D4
:100DD400EA0FFB1FEA57FD4FE491DB01EC931F5F21
:100DE400E9CF0E94B711A0E0A083188152C21A93E0
:100DF400AA81AF3018F4A981A73010F0188149C234
:100E0400EA81EA93EA81EA93A7DF10E0AA81EFE09E
:100E1400EA1B1E1790F40E94B411E658F94FE081C2
:100E2400E03049F00E94B411E658F94FE081F0E057
:100E3400FA93EA93BDDF1F5FE9CFACDF188129C2C3
:100E4400979A08951A930A93EFB7E0935B04F89482
:100E5400AA81BB81E4E60E94B913EA83FB83EC8197
:100E6400E030C9F40E94C2110E94C711E050FC4D49
:100E74006B407F4F7F936F93FF93EF930E94C21158
:100E8400A0E1B0E080E090E00E949913AF91BF919F
:100E94008F919F9118C00E94C2110F01CB010E9433
:100EA40087130E948713E050FC4D6B407F4F7F9364
:100EB4006F93FF93EF93F001BC010E94C711AF91B0
:100EC400BF918F919F910E94D713E150F0406040F1
:100ED40070408F01ED81E03031F5E0E0E093870A66
:100EE400E093880A0E94CE11E0938F0DE093900D59
:100EF400E0E0E093910DE093920DE093930DE09385
:100F0400940DEBB9EAB9E0939500EC81E03011F06F
:100F1400E2E0EBB91093900009B9E8E9EAB9E6E038
:100F2400E09395002AC0E0E0E0938B0CE0938C0CF6
:100F34000E94D411E093950EE093960EE0E0E093C6
:100F4400970EE093980EE093990EE0939A0EE09337
:100F54009B00E0939A00E0939D00EC81E03019F04F
:100F6400E2E0E0939B001093980000939900E8E975
:100F7400E0939A00E6E0E0939D000E9499111981A4
:100F8400088150C00E94B6140091890A10918A0AFF
:100F940020918D0C30918E0CED81E030E1F4A09124
:100FA400870AB091880AF8010E94DA1190F4F801D6
:100FB400F170E957F74FAC81A0830F5F1F4FEFB774
:100FC400E0935B04F8940093890A10938A0A559A73
:100FD40001C036DF23C0E13001F5A0918B0CB09144
:100FE4008C0CF9010E94DA11B0F4F901F170E557A3
:100FF400F54FAC81A0832F5F3F4FEFB7E0935B04C5
:10100400F89420938D0C30938E0CE0919A00E0625A
:10101400E0939A0001C014DF01C0C1CF0E9499116E
:101024000E94BD1426960895A881B981EC91E03000
:1010340051F0EA81EA93A981BA81ED91A983BA8337
:10104400EA93A0DFF1CF25C1E881F981E491E03092
:1010540061F0EA81EA93E981FA813196E983FA83BE
:101064003197E491EA938EDFEFCF13C10E94E01130
:101074000A930091870A1091880AE091890AF091F5
:101084008A0AE017F10769F0F801F170E957F74FA0
:10109400E081ECB90F5F1F4F0093870A1093880A11
:1010A40007C00E94CE11E093870AE093880A5598FE
:1010B400A2E6B4E00E94EA11099119915AC0EA9398
:1010C400FA93EFB7EA931A930A9300918B0C109159
:1010D4008C0CF801F170E557F54FE081E0939C002A
:1010E4000F5F1F4F00938B0C10938C0C0E94F31115
:1010F400E017F10759F40E94D411E0938B0CE093AC
:101104008C0CE0919A00EF7DE0939A00099119917B
:10111400E991EFBFF991E99118950E94E0111CB192
:10112400A091930DB091940DA030E1E0BE07E0F4DE
:10113400E0918F0DF091900DE157F34F1083AFE8DC
:10114400BDE00E94F811A3E9BDE00E94F811A0914E
:101154008F0DB091900DA030E1E0BE0729F4E0E0DE
:10116400E0938F0DE093900DA6E6B4E00E94EA119F
:101174001991E991EFBFF991E991B991A991799107
:10118400699118950E94FE111A9310919C00E091A8
:101194005C04E03029F5A091990EB0919A0EA0302C
:1011A400E1E0BE07E0F4E091950EF091960EEB5667
:1011B400F24F1083A5E9BEE00E94F811A9E9BEE050
:1011C4000E94F811A091950EB091960EA030E1E026
:1011D400BE0729F4E0E0E093950EE093960E13C069
:1011E400A0918B0CB0918C0C0E94F3110E94DA1127
:1011F40050F40E94F311F170E957F74F1083A9E8F6
:10120400BAE00E94F81119910E9405121895E0E0C5
:10121400E0932F0FEBE9FEE0E0931B0FF0931C0F1C
:10122400E0E0E093310FE093300F0895E0E0EDB992
:10123400E7E0E7BBEFE0E8BBE1E548C0E0E0EDB99B
:10124400E7E0E7BBBB98E8BBEA81EE0FEE0FAE2FF9
:10125400E981EE0FEE0FEE0FEA2BEDB9E881E230F3
:1012640019F4E1E0EEB913C0E43011F4E0E00EC08B
:10127400E83019F4709A689A0AC0E03131F0E0322B
:1012840021F4E1E0EEB9E2E001C0E1E0EDB9E0E52E
:10129400EDB923960895EC81E03081F4E0E0EDB9F6
:1012A400EEB9AB81A13041F4EA81EA93EA81EA9391
:1012B400EA81EA93C3DF01C004D001C0B7DF2596F9
:1012C4000895E0E0EDB9E8E0E7BBE0E4EDB90895A6
:1012D400AA93EA93EFB7EA931A930A930091720FD1
:1012E400E0E1EDB9A0E09799A1E0E1E0EA2711F48B
:1012F400979801C0979A1FB109911991E991EFBF8D
:10130400E991A99118950A921A926A937A939A93F9
:10131400AA93BA93EA93FA93EFB7EA93E4B1F5B1D7
:10132400A3E0B0E00E949113BF01E4B1F5B1DF0185
:10133400E7E0F0E00E94C413DB01AE1BBF0BA093F7
:10134400B60FB093B70FE0E0E6B9E991EFBFF991BA
:10135400E991B991A991999179916991199009901B
:1013640018950E940C12E0ECE7B9ECE8E6B9089590
:10137400E7B1EE75E7B9E7B1EE64E7B9E6B1EC7D44
:10138400E6B9E6B1E46CE6B9E0E0E093BA0FE093C5
:10139400BB0FE4E6F0E0E093C40FF093C50FA09117
:1013A400C40FB091C50F0E94B014C0F4369A369998
:1013B400FECFE4B10E941212F0E00E941712E5B1D0
:1013C400FE2FE0E00E9412120E941712A4ECBFE06C
:1013D400ED91FD913197FE93EE93E1CFEEE8F2E1CA
:1013E400E093C20FF093C30FA091C20FB091C30F4B
:1013F400A238E4E1BE0710F00C944B0AE091C20F4E
:10140400F091C30F0E9412120E9491130E94821342
:10141400EF2FF0E0E093BE0FF093BF0FA091BE0F4B
:10142400B091BF0FA331E5E0BE0738F0E091BE0FE5
:10143400F091BF0FE251F54008C0A091BE0FB091EA
:10144400BF0FE2E1F5E0EA1BFB0BE093BC0FF09366
:10145400BD0FE091C00FF091C10FA091BC0FB091EE
:10146400BD0FAE17BF0780F4E091BC0FF091BD0F24
:10147400E093C00FF093C10FE091C20FF091C30F3E
:10148400E093B80FF093B90FA2ECBFE00E94F811FB
:10149400ABCF0895E7B7EC7FE7BFE0B7E860E0BF04
:1014A400E0E0E2BFE5E0E3BFE0B7E770E9F7E7B704
:1014B400E160E7BF789408950E941E12A6ECBFE095
:1014C40080E00E942C1211F00C94FA0AE091C60FED
:1014D400E07CE093C60FA6ECBFE086E00E942C12ED
:1014E40011F00C94FA0AE091C60FF091C70FEF7354
:1014F400F07FE093C60FF093C70FA6ECBFE08CE03B
:101504000E943A12E831A0E0FA07A0E06A07A0E0DE
:101514007A0711F00C94FA0AA6ECBFE00E941214A8
:10152400EF7FFF706E7F7F7F0E941714A6ECBFE0F1
:1015340081E10E943A12E032A0E0FA07A0E06A07D3
:10154400A0E07A0771F10E944112EF3199F40E94F0
:101554004912E43061F00E944912E63041F00E94E1
:101564004912E93021F00E944912EB3011F40E9433
:10157400521226C00E944112EE3139F40E944912DF
:10158400E23011F40E9452121BC00E944112ED314C
:10159400B9F40E944912E23019F42BD0E03009F476
:1015A4000FC0A6ECBFE086E1EFE0F0E060E070E0A1
:1015B4000E947814E091C80FE17CE260E093C80FC8
:1015C4000E944912ED30A1F4E091C80FF091C90FC7
:1015D400EF73FC7FE064E093C80FF093C90FA6ECAF
:1015E400BFE08AE1EFE3F0E060E070E00E9478148D
:1015F40063C10E946212E4E6F0E060E070E00E94E1
:10160400FC130E94AC1449F40E946212E0E9F1E078
:1016140060E070E00E94FC130895E091C90FE69524
:10162400E695E370F07060707070089508950E94FC
:101634001E120E948111B0F4E0917100E03051F06B
:10164400A0917806B0917906A858BB4FE09171003B
:10165400EC9304C00E948911AFEFA083A8E7B6E021
:101664000E94F811E0917100E87FE03031F4E091DC
:10167400D00FE1600E946D121FC1E83081F4E09147
:10168400D00FEC7021F4E091D90FE16003C0E09138
:10169400D90FEE7FE093D90F0E9478120DC1E0318B
:1016A40079F40E94801221F4E091D90FE16003C023
:1016B400E091D90FEE7FE093D90F0E947812FCC01D
:1016C400E83179F4E091D00FEC70E43011F40E9429
:1016D40085120E94801221F40E949612E0937400F5
:1016E400EBC0E03231F4E091D00FE0610E946D1262
:1016F400E3C0E83201F5E091D00FEC70E43059F426
:10170400E091D80FA091D70FEA1719F40E94A512FF
:1017140002C00E9485120E94801261F4E091DD0FE4
:10172400A091DC0FEA1711F4E5EE02C00E949612B4
:10173400E0937400C1C0E03341F4E091D00FE26063
:10174400E093D00F0E94A512B7C0E83349F4E091AA
:10175400D00FE0620E94AE12E5EEE0937400ACC0DC
:10176400E03449F40E94B61211F4E5E801C0E5EC56
:10177400E0937400A1C0E83431F4E091D00FE0614B
:101784000E946D1299C0E03581F40E94BD12E0916F
:10179400D70FEF5FE093D70F0E94B61211F4E5E87C
:1017A40001C0E5ECE093740087C0E83529F40E9499
:1017B400BD120E94A51280C0E83611F0E83731F45A
:1017C400E091D00FE06A0E94AE1202C0E03609F444
:1017D40002C0E03761F4E091D00FE064E093D00FF1
:1017E400E0E0E093D30FE5E8E093740065C0E038EF
:1017F40011F0E03961F40E94C6120E94CF12E03069
:1018040011F4E5E801C0E5ECE093740055C0E83854
:1018140011F0E83989F40E94C612E091D00FE07803
:1018240011F0E5EE01C0E5ECE0937400E091CC0F1B
:10183400F091CD0F099540C0E03A21F4E5ECE09336
:1018440074003AC0E03B31F4E091D00FE06A0E94AA
:10185400AE1202C0E83A49F4E0E0E093D30F0E94EC
:10186400D512E5E8E093740027C0E83B71F40E94C8
:10187400CF120E94D512E091D30FE03011F4E5E8C5
:1018840001C0E1ECE093740017C0E03C11F0E83CC7
:1018940099F4E091D00FE07839F0E091D00FEF7730
:1018A400E093D00FE5EE01C0E5ECE0937400E09125
:1018B400CC0FF091CD0F0995E991EFBFF991E99122
:1018C400B991A9919991899179916991F990199016
:1018D400099018950895E2B3E360E2BBE1B3EC7FAD
:1018E400E1BBEFEFE0937000E3E0E0937100089553
:1018F400E2E3E0937200E881F981E093CC0FF09386
:10190400CD0FE5E4E09374000C947A0EE2EFFCE072
:10191400FA93EA93E8EEF3E0FA93EA93EAE0F0E06C
:101924000E94DC12EAEBFCE0FA93EA93E4EFF1E0C4
:10193400FA93EA930E94DC12ECEFFCE0FA93EA9348
:10194400E2E3F0E0FA93EA930E94DC12E3EBFCE0BA
:10195400FA93EA93EAEFF0E0FA93EA930E94DC1236
:101964000895EFE0F3E0FA93EA930E94F4050895F2
:101974000E94AB1100915E0410915F04EDE1F3E06D
:10198400FA93EA930E94F405EAE7F6E0FA93EA93FD
:10199400EBE6F8E0FA93EA93F8010E948C130E94B4
:1019A400251484E00E9422112896E1E0EA93E2E003
:1019B400EA930E94F906EAE7F6E0FA93EA93E5E28D
:1019C400F3E0FA93EA93EFE0EA930E946D11E1E009
:1019D400EA93E4E0EA930E94F9060E943E0622C0DC
:1019E400A0E09799A1E0E1E0EA2711F4979801C0FB
:1019F400979A0895E0917806F0917906309711F05E
:101A04000E94000608950E94AB110030E2E01E0718
:101A140048F4A8E7B4E0A00FB11FE0E0EC930F5F37
:101A24001F4FF3CF099119910895E091D00FEF7BE7
:101A3400E093D00FE091D10FECB90895E0E0EBBB57
:101A4400EABBE8BBE7E0E7BBE0E0E5BBE4BBE2BB45
:101A5400E1BBE3B9E2B90E940C12E0E0E093650057
:101A6400E09364000895E0E0E0BFE3BFE2BFE1BFBC
:101A74000895E0E0EFBDEEBDEDBDECBDE7BDE6BD14
:101A8400EBBDEABDE9BDE8BDE0937900E0937800E1
:101A94000895E0E0E5BDE4BDE3BD0895E0E0E09332
:101AA4008B00E0938A00E0938900E0938800E09340
:101AB4008100E0938000E0938700E0938600E09348
:101AC4008500E0938400E0938300E093820008950E
:101AD400E0E0E0936A00EABFE9BFE7BFE0937D007E
:101AE4000895E0E0EBB9E8EDEAB9E6E0E0939500AB
:101AF400E0E0E0939000E3E3E9B90895E2E0E093E5
:101B04009B00E8EDE0939A00E6E0E0939D00E0E0BE
:101B1400E0939800E8E0E093990008951A9310E0A8
:101B240010E0123018F5A0E7B4E00E94B411EA0FF7
:101B3400FB1F0F01A4E0B0E00E94E012E12FACE62D
:101B4400B4E0F0E0EE0FFF1FEA0FFB1F0F01E12FDF
:101B5400A0E0B0E0F0E0EE0FFF1FAE0FBF1F0E9449
:101B64009214D001ED93FC931F5FDBCF10E0123091
:101B7400C0F4A2E7B4E00E94B411EA0FFB1F0F0106
:101B8400A6E0B0E00E94E012A6E7B4E00E94B4111F
:101B9400EA0FFB1F0F01AAE0B0E00E94E0121F5FF2
:101BA400E6CF0C94410F4ADFDCDBE2DB5CDF61DF74
:101BB40070DF74DF8DDF95DFA1DF0E9418096ADC16
:101BC4000895ACDFE0E0EA93E0917004EA93E091D9
:101BD4006C04F0916D040E94E812E1E0EA93E09154
:101BE4007104EA93E0916E04F0916F040E94E8128C
:101BF400E0E0EA93E1E0EA93E0E4F2E00E94E81234
:101C0400E0E0EA93E1E0EA93EA93E0E0EA93E0E1DA
:101C1400EA930E944D090E946C060E9409094FD064
:101C24005ADEE7E1FDE0FA93EA9362DEEEB1EFB14A
:101C3400E0E0E0937806E09379060E948911A1E040
:101C44000E94901108958F9A979AE3E2F0E00E941F
:101C5400B0118F989798A7DFB4DF8F9A8E9A8D9AD8
:101C6400E1E00E94EC12E0E00E94EC12E8E8FCE003
:101C7400FA93EA9335D00E94A70F81D0FECFFFCF0D
:101C84000E941E12AEE5B4E00E94EA110E941E0FEB
:101C9400E991EFBFF991E991B991A991999189914C
:101CA40079916991F9901990099018950E94FE1103
:101CB400AAE6B4E00E94F8110E94051218951A933E
:101CC40010E0103151F00E94F3120E94F9120E94A8
:101CD400FF120E9405131F5FF4CFD1C09698089598
:101CE400E881F9810E949F11E0E0F0E00E94DC129B
:101CF400229608951A930A9310E000E0EFB7E7FFE5
:101D040002C0F89401E010E0E091CE10E11799F1DF
:101D14000E94F312DF010E940E14DF01EE81FF81A5
:101D2400EA17FB0741F40E94FF120E940A130030D5
:101D340009F0789420C00E94F312DF010E940E146F
:101D4400DF01E0E7FEE0EA17FB0799F40E94F312D3
:101D5400AE81BF81A083B1830E94FF120E940A1347
:101D6400E091CE10EF5FE093CE10003009F078944C
:101D740002C01F5FC9CF19810881289608950E9467
:101D8400B61410E010E0E091CE10E11711F40C94B9
:101D9400180F0E941F13A081A13011F00C94160F8C
:101DA400969A0E94F31220813181AFE01A9FF001CC
:101DB400EE51F04FDF010E940E14309721F43A9354
:101DC4002A935FD012C0AFE01A9FF001DF01E05206
:101DD400F04FBF01AE51B04F0E940E14DB01ED93E2
:101DE400FC930E941F13A0E0A083F8942093CF10CB
:101DF400AFE01A9FF001E451F04FA091CF10A083FF
:101E0400AFE01A9FF001EB51F04FA0915E04B09146
:101E14005F0480916004909161040E94201478947E
:101E24007894F901099504C01F5FADCF789456DF0B
:101E34000E94BD14249608951A9310E0E091CE10E8
:101E4400E117E9F00E941F13E081E030B1F40E9431
:101E5400FF12DF010E940E14DF010E94B01448F447
:101E64000E94FF12DF01ED91FD913197FE93EE93F5
:101E740004C00E941F13A1E0A0831F5FDFCF19914C
:101E84000895FF921A93FF2410E0EFB7E7FF03C011
:101E9400F8946894F0F810E0E091CE101E1710F05A
:101EA4000C94A30F0E94F312DF010E940E14DF01B1
:101EB400E981FA81EA17FB0711F00C94A10FE09174
:101EC400CE10E150E117E1F00E94F312BF010E942D
:101ED4002513DB018FE00E94A2140E9425130E94A7
:101EE400F9120E942E13E052F04F0E9405130E9433
:101EF4002E13EE51F04F0E9405130E942E1312C0B0
:101F04000E94F3120E94F9120E94FF120E9405130C
:101F1400AFE01A9FF001EE51F04F0E940513AFE0BD
:101F24001A9FF001EC51F04FA3E0A083E091CE1092
:101F3400E150E093CE10F0FE01C0789402C01F5F20
:101F4400ABCF18812396FF900895F894ECE0E5BD9B
:101F5400E0E0E4BDEEE3E3BDE0E8E7BF7894089594
:101F6400E5E0E5BD08951A930A93AA81BB81129610
:101F74000E940E14309729F1AA81BB8114960E9405
:101F84000E148F01309761F00230E0E01E07C0F0BC
:101F9400F80131978F01AA81BB811496ED93FC93CC
:101FA400AA81BB8112960E94F8113197AC81A0835B
:101FB400AA81BB810E940E14FF2312F00E94F81123
:101FC40006C0AA81BB81EFEFFFEFED93FC9319816B
:101FD40008812596089526970E94B41410E0AC85D4
:101FE400BD85E0E0F0E0ED93FC93EA89FB8931964E
:101FF400EA8BFB8B3197E4912E2FE03011F40C9493
:102004001A11E12FE03039F4253211F411E002C045
:102014000E9435130CC1E130A9F4253219F40E9451
:10202400351304C112E040E000E02D3211F401E068
:10203400FEC02B3211F44BE2FAC0203211F440E21C
:10204400F6C002C0E23039F450E013E0203311F45A
:102054000068EDC004C0E33011F00C941911203372
:1020640010F02A3308F007C0AAE05A9F502DE22F3F
:10207400E0535E0FDCC0E22FE33649F40E943E13C6
:10208400E889F989A481AA930E944413CFC0E33755
:1020940041F40E943E130E944C130E9458111E2FBB
:1020A4000AC0E03761F40E943E130E944C130E9460
:1020B40062111E2F086002600F7730E035C0E436ED
:1020C40011F0E93611F4046002C0E53731F4E6E8B2
:1020D400F7E0EE83FF8315E00DC0E83511F40860E6
:1020E40004C0E83711F00C941811E0E9F7E0EE832E
:1020F400FF8314E002FF14C00E943E130E94561393
:10210400AB85AA233AF4EA85FB850E947513EA8716
:10211400FB874DE2403011F01F5F01C00B7F04C00C
:102124000E943E130E94561300FD11C0151778F447
:1021340007FF08C002FF04C00B7F242F115001C009
:1021440020E301C020E20E9435135150EFCF312F1C
:1021540001FF17C03030A1F003FF06C0EE81FF81FC
:102164002591EE83FF8305C0AE81BF812D91AE839F
:10217400BF830E943513503009F051503150EACFDB
:102184004BC020E3EE81FF810E941C14E887F9878D
:10219400EE81FF813296EE83FF83E885F985AA8577
:1021A400BB85AE17BF0750F02F5FA885B985EA85B8
:1021B400FB85EA1BFB0BEA87FB87EFCF2A3328F06A
:1021C40003FF02C0295F01C0295D04FD1AC0213349
:1021D40020F4A885B985119709F409C0531710F0A4
:1021E40000FF01C013C020E207FF0BC020E3006121
:1021F40002FF07C00B7F4A930E944413503009F03A
:1022040051500E943513503009F051503150A88577
:10221400B985129708F0B5CF00FF08C0503031F0EF
:102224005150E0E2EA930E944413F8CF10E0DDCE6F
:10223400AC85BD850E940E140E94BB14649608955B
:10224400FF92F82E26970E94B6140E945E133097D0
:1022540019F4EFEFFFEF25C0DE0116960E9471130B
:102264008D010E945E13EE83FF83E0E0E887E98737
:10227400DE011A960E9471130E940E14FA93EA93D7
:102284001A930A93E5EBFFE0FA93EA93FE013A9678
:10229400FA93EA93A0DE9F01AE81BF81E0E0EC9364
:1022A400F9010E94BD142A96FF900895A991B9914D
:1022B400EE27FF276D91662311F03196FBCF089529
:1022C400AA27BB27E991F9910590002011F01196F6
:1022D400FBCFFD0108957991E991F991A991B99103
:1022E400CD01772351F07A9561916D936623C9F7F7
:1022F400772319F07A956D93FBCFFC010895A09193
:102304007806B0917906A030E2E0BE070895E09126
:102314007806F0917906E858FB4F0895A083A8E762
:10232400B6E0ED91FD913196FE93EE930895EFB7EB
:10233400A0915B04EA2BEFBF0895FA93EA93E0E0DF
:10234400F0E0FA93EA930895EA93E0E0EA930C94B8
:1023540020061A930A9300E010E00895FA93EA9392
:102364000C946513E12FF0E00895A5E8B8E0ED9131
:10237400FD913196FE93EE933197E357F94F08950B
:10238400EA81FB81662777270895A8E0B0E080E022
:1023940090E00E9499130895E0E0E093890AE093A5
:1023A4008A0A0895E0E0E0938D0CE0938E0C089582
:1023B400EA1BFB0BE130A2E0FA0708956A937A93D3
:1023C400AA93BA93EA93FA93EFB7EA931A93089508
:1023D4000E941214EF5FFF4F6F4F7F4F0E9417143C
:1023E4000895E0918D0CF0918E0C0895ED91FD917E
:1023F4003196FE93EE930895AA93BA93EA93FA93CF
:10240400EFB7EA930895E991EFBFF991E991B99192
:10241400A9910895E0E0E0936200E09361000895DB
:10242400A091BA0FB091BB0F0895EA0FFB1FE09380
:10243400BA0FF093BB0F08950A921A92FA926A9314
:102444007A938A939A93AA93BA93EA93FA93EFB7F7
:10245400EA930895EFE3F0E060E070E00E94661410
:10246400EC33A0E0FA07A0E06A07A0E07A07089539
:10247400EFE1F0E060E070E00E9466140895E091FE
:10248400C80FF091C90FF695E795EF710895A091E3
:10249400C80FB091C90FE6E00E947913EF70089558
:1024A400A6ECBFE086E1EFE0F0E060E070E00E94BF
:1024B4007814E091C80FE17CE260E093C80F0895BE
:1024C400E091C90FE695E695EF73F0706070707057
:1024D400DF01CB010895E093D00FE5EDE0937400A4
:1024E400E091CE0FF091CF0F09950895E091D90FA7
:1024F400E0937300E5ECE09374000895E091D00F4D
:10250400EC70E8300895E091D70FF0E0EC52F04F12
:10251400E081E0937300E091D70FEF5FE093D70F72
:10252400E5ECE09374000895E091DC0FF0E0E652EE
:10253400F04FE081E0937300E091DC0FEF5FE093F4
:10254400DC0FE5EC0895E5EDE0937400E091CA0F2B
:10255400F091CB0F09950895E093D00FE0E0E0935C
:10256400D70FE093DC0F0895A091D70FAF5FE091F0
:10257400D80FEA170895A091D70FB0E0AC52B04F2E
:10258400E0917300EC930895A091D30FB0E0AF52A3
:10259400B04FE0917300EC930895E091D30FEF5F97
:1025A400E093D30F0895F0E0EE52F04FE081E09312
:1025B40073000895FA93EA930C947C0EEE27A10F0E
:1025C400BE1F0E949614D001EC930895FA93EA93E7
:1025D4000C942407EA93E0EFF0E0FA93EA930C9466
:1025E4002608AFE01A9FF001E252F04F0895DF0190
:1025F400E0E7FEE0ED93FC930895AFE01A9FF0014D
:10260400E052F04F0895A0E0B0E0A083B1830895B4
:10261400AC81BD81A083B183AFE01A9FF001EE517C
:10262400F04FAA81BB81A083B183AFE01A9FF00170
:10263400EC51F04FA0E0A0830895AFE01A9FF001A1
:10264400EC51F04F0895E091CE10E150AFE0EA9FD5
:10265400F001E252F04F0895E091CE10E150AFE066
:10266400EA9FF00108952A93ED85FE85FA93EA9393
:10267400E989FA8909950895E889F9893497E88BF5
:10268400F98B0895ED85FE85FA93EA93E989FA8931
:1026940009950895A889B98914960E940E14EE83A9
:1026A400FF83FA93EA930895A889B98914960E943E
:1026B4000E14EA87FB870895DE011C960E947113AD
:1026C4000E940E140895E991F991309639F080EA48
:1026D4009FE00197F1F7A8953197C9F70895002471
:1026E400AF0DB01D0895F195E195F0400895EE23E6
:1026F4000E2EFD0121F0F695E7950A94E1F7089571
:10270400F695E795F695E7950895EE0FFF1F661F7A
:10271400771F08956F2F660F660B762F0895FA9F23
:10272400F02DEB9FF00DEA9FE02DF10D08957A9FB7
:10273400702D6B9F700DF89F700DE99F700D6A9F4F
:10274400602D710DFB9F600D711DE89F600D711D63
:102754008827FA9FF02D610D781FEB9FF00D611D06
:10276400781FEA9FE02DF10D681F781F08956E2FE2
:102774006A9FF0016B9FF00D089540D0D0DF0EF4F6
:10278400B2DF08950024112490E1AA0FBB1F001C9E
:10279400111C0E1A1F0A18F40E0E1F1E01C0A16090
:1027A4009A9599F7FD01D00108953F934F935F9354
:1027B400002411244427552730E2AA0FBB1F881F89
:1027C400991F001C111C441F551F0E1A1F0A460B8B
:1027D400570B28F40E0E1F1E461F571F01C0A16081
:1027E4003A9559F7FD01BC01D001CA015F914F919F
:1027F4003F910895DADFFD01BC010895E894F7FFE5
:1028040002C071DF6894B7FF06C0A095B095119619
:1028140000F8039400FA0895ED91FC91119708953E
:10282400ED91FD916D917D9108957E936E93FE934C
:10283400EE9308950590F491E02D0895A083B1835B
:102844008283938308957A936A93FA93EA9308951B
:10285400082E8F019B01ED91FD916D917C91102CBF
:10286400112031F076956795F795E7951A94D1F78D
:10287400E023F123622373230895E023F1236223E9
:102884007323AF01CB01002051F0000F111F221F51
:10289400331F440F551F881F991F0A94B1F70095E1
:1028A4001095209530951C900E90022213223E9193
:1028B4002E9120233123242B352B082A192A2D93DA
:1028C4003D930D921C9208950F931F932F933F9362
:1028D4004F935F93BDDF3196611D711DCEDF5F9114
:1028E4004F913F912F911F910F9108950F931F9333
:1028F4002F933F934F935F93ABDFEF93FF936F93CC
:102904007F933196611D711DB8DF7F916F91FF91A7
:10291400EF915F914F913F912F911F910F910895E6
:10292400119602D0FE2F1197E199FECFFF93FFB7C6
:10293400F894AEBBBFBBE09AEDB3FFBFFF9108951F
:102944009927EF93FF9361916D930197E1F7FF91BD
:10295400EF910895309760407040089500240A165E
:102964000B0608955A934A933A932A931A930A9317
:1029740008955D814C813B812A81198108810895E4
:00000001FF
