:060000000C947E050C9437
:1000060000000C9400000C9400000C9400000C946A
:1000160000000C9400000C9400000C9400000C945A
:10002600BE140C9400000C9400000C9400000C9478
:1000360000000C9400000C9400000C94BD0B0C9472
:10004600BF0A0C9447090C9488080C9400000C9481
:10005600DA0A0C9400000C9400000C9400000C9436
:1000660000000C9400000C9400000C9400000C940A
:1000760000000C947C090C94B4080C9400000C94B9
:10008600780C0C94000048656C7000005365740091
:100096005561727400004D6F6465000053706565AC
:1000A60064005370690050726573630070700000DD
:1000B60049326300570072737400626F6F740000F8
:1000C6006462670020450D00206F6B0D0000204C18
:1000D600617267655F76616C75650D002057726F9A
:1000E6006E675F76616C75650D00205300000D3EEE
:1000F6003E3E2048454C50203C3C3C0D20436F6D15
:100106006D616E64733A0D000D20536574202D49A0
:100116006E746572666163655F6E616D652D202D17
:100126006E756D6265722D204D6F6465202D76614A
:100136006C7565286F7074696F6E616C292D20531C
:1001460070656564202D76616C7565286F707469BD
:100156006F6E616C292D00000D20572020202D493F
:100166006E746572666163655F6E616D652D202DC7
:100176006E756D6265722D202D646174612D0000AF
:100186000D20476574202D656E746974792D000005
:100196000D2020496E746572666163657320617611
:1001A60061696C61626C653A0D202020556172743C
:1001B60028302C31290D20202053706928302D48F5
:1001C6006172642C20312D536F6674290D000D3E2B
:1001D6003E3E20554152545F48454C50203C3C3CE5
:1001E6000D204D6F64653A20302D204E4F524D4103
:1001F6004C3B20312D20444F55424C4544207370D2
:10020600656564000D2053706565643A206261750A
:10021600642F313030202845783A2035373620692A
:1002260073203537363030290D000D3E3E3E2053C3
:1002360050495F48454C50203C3C3C0D204D6F6476
:10024600653A20302D20534C4156453B20312D2018
:100256004D41535445520A000D2050726573636137
:100266006C6C65723A20706F77206F66203220289A
:1002760045783A205072657363203136290D0000A7
:10028600000000000000005F0000000700070014E7
:100296007F147F14242A7F2A1223130864623649A6
:1002A6005522500005030000001C22410000412297
:1002B6001C0014083E081408083E080800503000C8
:1002C6000008080808080060600000201008040202
:1002D600000000000000005F000000070007001497
:1002E6007F147F14242A7F2A122313086462364956
:1002F6005522500005030000001C22410000412247
:100306001C0014083E081408083E08080050300077
:1003160000080808080800606000002010080402B1
:10032600000000000000005F000000070007001446
:100336007F147F14242A7F2A122313086462364905
:100346005522500005030000001C224100004122F6
:100356001C0014083E081408083E08080050300027
:100366000008080808080060600000201008040261
:100376003E5149453E00427F400042615149462177
:1003860041454B311814127F1027454545393C4AE3
:100396004949300171090503364949493606494933
:1003A600291E003636000000563600000814224189
:1003B60000141414141400412214080201510906F1
:1003C600324979413E7E1111117E7F494949363EB7
:1003D600414141227F4141221C7F494949417F09D0
:1003E6000909013E4149497A7F0808087F00417F93
:1003F60041002040413F017F081422417F40404098
:10040600407F020C027F7F0408107F3E4141413E3F
:100416007F090909063E4151215E7F091929464691
:100426004949493101017F01013F4040403F1F20BA
:1004360040201F3F4038403F63140814630708708C
:1004460008076151494543007F41410002040810F5
:10045600200041417F000402010204404040404028
:10046600000102040020545454787F48444438382C
:1004760044444420384444487F3854545418087E31
:100486000901020C5252523E7F0804047800447D52
:1004960040002040443D007F1028440000417F403A
:1004A600007C041804787C080404783844444438F2
:1004B6007C14141408081414187C7C0804040848D6
:1004C60054545420043F4440203C4040207C1C208F
:1004D60040201C3C4030403C44281028440C5050DE
:1004E600503C4464544C44000836410000007F00F0
:1004F6000000413608001008081008784641467882
:10050600000000000000005F000000070007001464
:100516007F147F14242A7F2A122313086462364923
:100526005522500005030000001C22410000412214
:100536001C0014083E081408083E08080050300045
:10054600000808080808006060000020100804027F
:10055600000000000000005F000000070007001414
:100566007F147F14242A7F2A1223130864623649D3
:100576005522500005030000001C224100004122C4
:100586001C0014083E081408083E080800503000F5
:10059600000808080808006060000020100804022F
:1005A600000000000000005F0000000700070014C4
:1005B6007F147F14242A7F2A122313086462364983
:1005C6005522500005030000001C22410000412274
:1005D6001C0014083E081408083E080800503000A5
:1005E60000080808080800606000002010080402DF
:1005F6003E5149453E00427F4000426151494621F5
:1006060041454B311814127F1027454545393C4A60
:1006160049493001710905033649494936064949B0
:10062600291E003636000000563600000814224106
:10063600001414141414004122140802015109066E
:100646007E1111117E7F494949317F494949367FDB
:1006560001010103702927217F7F49494941770814
:100666007F087741414149767F1008047F7F100952
:10067600047F7F0814224120413F017F7F020C0244
:100686007F7F0808087F3E4141413E7F0101017F8F
:100696007F090909063E4141412201017F010147C7
:1006A600281008071E217F211E63140814633F20AB
:1006B60020205F070808087F7F407F407F3F203F5C
:1006C600205F017F4848307F4830007F007F4848E0
:1006D60030414141493E7F083E413E462919097F46
:1006E60020545454783C4A4A49317C545428007C5E
:1006F6000404040C722A26227E38545454186C10B2
:100706007C106C44445454387C2010087C7C2112A4
:10071600097C7C1028440020443C047C7C0810089A
:100726007C7C1010107C38444444387C0404047CDF
:100736007C14141408384444442004047C040444FF
:100746002810080408147E140844281028443C4045
:10075600407C400C1010107C7C407C407C3C203C53
:10076600207C047C5050207C5020007C007C505023
:100776002028444454387C10384438485434147C77
:100786001027E80364000A000100001000011000B1
:1007960001000000FF00C800C80DC80DC80D030306
:1007A60002460000000000000000706F72660D0A2D
:1007B6000065787472660D0A00626F72660D0A0033
:1007C600776472660D0A004A5452460D0A000D3CC3
:1007D60052414D3E000D554152545F5345545449C4
:1007E6004E47530D005541525420000D204D6F6465
:1007F6006520000D20537065656420000D2D2D2D9C
:100806002D2D2D2D2D0D000D5350495F534554545C
:10081600494E47530D0053504920000D2050726534
:100826007363616C6C657220000D3C454550524FF8
:100836004D3E000D42757465735F525820000D429F
:10084600757465735F545820002020496E74657274
:100856006661636520202000204D6F6E69746F729B
:100866002076322E31200020D5ECE5EBE5E2F1FCD6
:10087600EAEEE92020002020C2EBE0E4E8F1EBE01C
:10088600E2202020002020C0C5202D203130342039
:10089600202020000D20536574000D2055617274D0
:1008A600000D204E756D000D204D6F6465000D4DD9
:1008B6002045584954000D20000D20556172745F83
:1008C600696E6974000D20537069000D53204E75D2
:1008D6006D000D53204D6F64652D000D5320507231
:1008E6006573632D000D5320506861506F6C2D00A9
:1008F6000D5320537069496E6974000D20493263A7
:10090600000D204932635F696E6974000D2057003F
:100916000D205520443E545820000D205320443EBF
:10092600545820000D205320443C525820000D20DE
:1009360049324320443E545820000D20493243207A
:10094600443C5258200079006E0061007300450057
:1009560001002D4E414E00494E46000001000200A6
:1009660098070100A10F9C070200AB0F9E0702002B
:10097600AD0FA0070200AF0FA20707000002B007E5
:1009860008000702B70707000F02BF070700160295
:10099600C60707001D02CD0707002402D407100072
:1009A6002B02DB0706003B02EB0708004102F107BA
:1009B60009004902F9070B00520202080F005D0206
:1009C6000D0805006C021C0808007102F1070E00F4
:1009D600790221080B00870202080A0092022F08FA
:1009E60010009C02DB070600AC02EB070800B2020F
:1009F600F1070900BA02F9070B00C30202080F004B
:100A0600CE020D080500DD021C080800E202F1070F
:100A16000E00EA0221080B00F80202080B0003038D
:100A260039080B000E0344080F0019034F080F0086
:100A360028035E080F0037036D080F0046037C0885
:100A46000F0055038B08060064039A0807006A0323
:100A5600A00806007103A70807007703AD08080081
:100A66007E03B40803008603BC0808008903B408A3
:100A76000C009103BF0806009D03CB080700A303E3
:100A8600D1080900AA03D8080A00B303E1080B003D
:100A9600BD03EB080B00C803F6080600D3030109E3
:100AA6000600D903A7080700DF03AD080800E60320
:100AB600B4080300EE03BC080800F103B4080B00F9
:100AC600F90307090400040412090A0008041609B8
:100AD6000A00120420090A001C042A090C00260434
:100AE60034090C00320440090C000300A40701007D
:100AF6003B1056090000F894EE27ECBBF1E0F5BF79
:100B0600E5BFE0936C00F8E1F1BDE1BD8DE0A2E048
:100B1600BB27ED938A95E9F780E090E1A0E0B1E08C
:100B2600ED930197E9F7E2E6F9E085919591009753
:100B360061F0A591B59105901590BF01F001059062
:100B46000D920197E1F7FB01F0CF8BBFEFEFEDBF01
:100B5600E0E1EEBFC0E0D2E00C949B14EFB7E09367
:100B66004704F8940E94051628F40E940D16A881E1
:100B76000E9414160E941D1650C4E881F981E49162
:100B8600E03051F0E881F9813196E883F9833197B5
:100B9600E491EA93E3DFF1CFCCC0A881B981EC916F
:100BA600E03031F0ED91A883B983EA93D7DFF5CF32
:100BB600C0C00E94B0150E940D16AFEF0E94141619
:100BC600E0E0EA93E2E6F4E00E9423160E94A5150F
:100BD600E4EAFFE0FA93EA93EAE0F0E00E942716DF
:100BE600E0E0E0936206E093630608951A930A93A1
:100BF60000E8D998EA81E03011F0D89A01C0D89877
:100C060010E0183060F4E02FAB81EA2311F0DB9A94
:100C160001C0DB980695DC9ADC981F5FF2CFD99A63
:100C260035C41A930A93E0E80E942B16E0E40E946A
:100C36002B1600E010E0083FE1E01E0764F4A3E78E
:100C4600B6E0A00FB11FEC91EA93E1E0EA93CEDFA4
:100C56000F5F1F4FF0CF10C00E943016083FE1E033
:100C66001E074CF4A3E7B6E0A00FB11FE0E0EC933B
:100C76000F5F1F4FF3CFD5DF099119910895DA9AC7
:100C8600D49AD39AD19AD09AD29ADC98E1E0F0E03D
:100C9600FA93EA930E942719DA98E4E1F0E0FA93CE
:100CA600EA930E942719DA9AD99AE1E20E942B1652
:100CB600E42DEC5F0E942B16E32DE05F0E942B16BD
:100CC600E62DE0580E942B16A0E020FCA1E0EA2FBA
:100CD600EE0FEE0FEE0FE0620E2EA0E021FCA1E07B
:100CE600EA2FEE0FEE0FE0290E942B16E52DEE0FF0
:100CF600E529E570E8600E942B16AEDF0895A9810C
:100D0600AF3018F4A881A73008F013C0E881F0E0EE
:100D16003197A4E5B0E00E947D19BF01E981F0E0BA
:100D26003197A6E0B0E00E947D19E60FF71F7E2EF0
:100D36008F2E229608951A9310E01E3040F40E94DA
:100D46003516EC59F94FA0E0A0831F5FF6CF199135
:100D560008951A9310E0153080F40E943816BF01EA
:100D6600E981FA810E944116EA0FFB1FEA57FD4FFF
:100D7600E491DB01EC931F5FEECF0E943816A0E0F2
:100D8600A0831881BAC31A93AA81AF3018F4A98137
:100D9600A73010F01881B1C30E944716AA81EFE070
:100DA600EA1B1E1770F40E943516EC59F94FE081C4
:100DB600E03029F00E9435160E944F16CADF1F5FE9
:100DC600EDCFB9DF188199C30E947F1A00E030E0A9
:100DD60020E010E0153010F00C943A07EC81FD810C
:100DE6000E944116EA0FFB1FEA57FD4F2491E22F9E
:100DF600E170A3E0EA9F302DE22FE270A6E0EA9FC1
:100E0600F0013E2BE22FE470ACE0EA9FF0013E2BAE
:100E1600E22FE870A8E1EA9FF0013E2B22952F70A1
:100E2600E22FE170A3E0EA9F002DE22FE270A6E038
:100E3600EA9FF0010E2BE22FE470ACE0EA9FF0018E
:100E46000E2BE22FE870A8E1EA9FF0010E2BE72DAA
:100E5600F82DED58F94F3083E72DF82DE953F94F6A
:100E66000083E1E0F0E07E0E8F1E1F5FB3CF0E948D
:100E76003816A0E0A08323C11A93AA81AF3018F4D4
:100E8600A981A63010F0188138C30E944716AA819E
:100E9600EFE0EA1B1E1770F40E943516EC59F94F65
:100EA600E081E03029F00E9435160E944F168CDF53
:100EB6001F5FEDCF40DF188120C3979A08951A93DC
:100EC6000A93EFB7E0934704F894AA81BB81E4E65E
:100ED6000E947719EA83FB83EC81E030C9F40E9413
:100EE60056160E945B16E050FC4D6B407F4F7F9379
:100EF6006F93FF93EF930E945616A0E1B0E080E057
:100F060090E00E945719AF91BF918F919F9118C0A1
:100F16000E9456160F01CB010E944A190E944A19D7
:100F2600E050FC4D6B407F4F7F936F93FF93EF93A1
:100F3600F001BC010E945B16AF91BF918F919F910A
:100F46000E949519E150F040604070408F01ED819C
:100F5600E03009F50E946216E0E0E093730DE0933D
:100F6600740DE093750DE093760DE093770DE093A5
:100F7600780DEBB9EAB9E0939500EC81E03011F019
:100F8600E2E0EBB91093900009B9E8E9EAB9E6E0C6
:100F9600E093950025C00E946C16E0E0E093790E80
:100FA600E0937A0EE0937B0EE0937C0EE0937D0E49
:100FB600E0937E0EE0939B00E0939A00E0939D0001
:100FC600EC81E03019F0E2E0E0939B00109398008A
:100FD60000939900E8E9E0939A00E6E0E0939D002B
:100FE6000E941D16198108816CC0EFB7E093470473
:100FF600F894E0E0E0934E04E0934F04E09350044D
:10100600E0935104E881E03019F40E94621606C0AC
:10101600E13019F40E946C1601C0F7CF0E941D162C
:10102600FCC10E947F1A00916D0A10916E0A2091F0
:10103600710C3091720CED81E030E1F4A0916B0AF5
:10104600B0916C0AF8010E94761690F4F801F170DE
:10105600E559F74FAC81A0830F5F1F4FEFB7E093C1
:101066004704F89400936D0A10936E0A559A01C0CE
:1010760024DF23C0E13001F5A0916F0CB091700C14
:10108600F9010E947616B0F4F901F170E159F54FB5
:10109600AC81A0832F5F3F4FEFB7E0934704F894EE
:1010A6002093710C3093720CE0919A00E062E09309
:1010B6009A0001C002DF01C0C1CF0E941D160E9426
:1010C600861A26960895A881B981EC91E03051F0F0
:1010D600EA81EA93A981BA81ED91A983BA83EA9359
:1010E600A0DFF1CF0AC2E881F981E491E03061F036
:1010F600EA81EA93E981FA813196E983FA833197A5
:10110600E491EA938EDFEFCFF8C10E947C160A9332
:1011160000916B0A10916C0AE0916D0AF0916E0ACB
:10112600E017F10769F0F801F170E559F74FE08132
:10113600ECB90F5F1F4F00936B0A10936C0A0AC03D
:10114600E0E0E0936D0AE0936E0AE0936B0AE093A9
:101156006C0A5598AEE4B4E00E948616099119917E
:10116600BFC0EA93FA93EFB7EA931A930A930091F2
:101176006F0C1091700CF801F170E159F54FE08198
:10118600E0939C000F5F1F4F00936F0C1093700C41
:101196000E948F16E017F10771F4E0E0E093710CFE
:1011A600E093720CE0936F0CE093700CE0919A0060
:1011B600EF7DE0939A0009911991E991EFBFF991BA
:1011C600E9911895E881E03019F0E0917D0E02C0B2
:1011D600E091770D22C11A930A93EA81E03051F526
:1011E600A091770DB091780D0E946F1AF8F4E091F6
:1011F600750DF091760DED58F34F1081A5E7BDE022
:101206000E949416A091750DB091760DA030E1E084
:10121600BE0729F4E0E0E093750DE093760D0FB775
:10122600F894A7E7BDE00E949A1667C1E0E019812D
:10123600088163C1A0917D0EB0917E0E0E946F1A47
:10124600F8F4E0917B0EF0917C0EE758F24F108196
:10125600ABE7BEE00E949416A0917B0EB0917C0E87
:10126600A030E1E0BE0729F4E0E0E0937B0EE093D6
:101276007C0E0FB7F894ADE7BEE00E949A163DC10A
:10128600E0E01981088139C10E947C161CB1A09149
:10129600770DB091780DA030E1E0BE07E0F4E09163
:1012A600730DF091740DED58F34F1083A3E7BDE075
:1012B6000E949416A7E7BDE00E949416A091730DB4
:1012C600B091740DA030E1E0BE0729F4E0E0E093B0
:1012D600730DE093740DA2E5B4E00E948616199191
:1012E600E991EFBFF991E991B991A9917991699144
:1012F6001895AA93BA93EA93FA93EFB7EA931A93D7
:1013060010919C00E0914804E03029F5A0917D0EF3
:10131600B0917E0EA030E1E0BE07E0F4E091790ED8
:10132600F0917A0EE758F24F1083A9E7BEE00E94CB
:101336009416ADE7BEE00E949416A091790EB09186
:101346007A0EA030E1E0BE0729F4E0E0E093790EE2
:10135600E0937A0E13C0A0916F0CB091700C0E94AE
:101366008F160E94761650F40E948F16F170E5597A
:10137600F74F1083ADE6BAE00E9494161991E991F1
:10138600EFBFF991E991B991A9911895AA240E9404
:10139600A616CC2499240895A881AD3071F1EFE703
:1013A6009E1630F5A032D9F0AA2019F40E94A6168E
:1013B600A394CC2071F0EAE0AE1650F4EA2DAFEF1C
:1013C600BEE00E94AD160E94B316ED93FC93A39463
:1013D600CC240E94B316A881A083939409C0CC2084
:1013E60039F40E94B316A0E0A0839394E1E0CE2ED8
:1013F6000E94B316A0E0A08310C00E94B316A0E01E
:10140600A083AA2039F0AA92EFEFFEE0FA93EA93BE
:101416000E942B11AA24CC249924219608951A936C
:1014260010E0A981BA81EC91E03081F0E0531E0F03
:10143600E981FA813196E983FA83A981BA81EC912F
:10144600E03019F0AAE01A9F102DEBCFE12F18819A
:1014560054C00E943016AA81BB81EC91E030A9F0FD
:10146600E053F0E00E0F1F1FEA81FB813196EA83FD
:10147600FB83AA81BB81EC91E03031F0AAE0A09F0A
:10148600F001A19FF00D8F01E6CFF80119810881C7
:1014960024960895E0E0EDB9E7E0E7BBEFE0E8BBAE
:1014A600E1E568C0E0E0EDB9E7E0E7BBBB98E8BB83
:1014B600EA81EE0FEE0FAE2FE981EE0FEE0FEE0F83
:1014C600EA2BEDB9E881E23019F4E1E0EEB913C098
:1014D600E43011F4E0E00EC0E83019F4709A689A2E
:1014E6000AC0E03131F0E03221F4E1E0EEB9E2E0A9
:1014F60001C0E1E0EDB9E0E5EDB923960895EC8190
:10150600E03081F4E0E0EDB9EEB9AB81A13041F411
:10151600EA81EA93EA81EA93EA81EA93C3DF01C0AA
:1015260024D001C0B7DF259608951A9310E0C0981D
:10153600AB81BC81EC91E03089F0ED91AB83BC834B
:10154600EFB9779BFECF103438F4A981BA81EE2724
:10155600A10FBE1FEFB1EC931F5FEACFC09AEFEB6E
:10156600FFE00E94B816188150C3E0E0EDB9E8E04C
:10157600E7BBE0E4EDB90895AA93EA93EFB7EA93DF
:101586001A930A930091530FE0E1EDB9A0E0979901
:10159600A1E0E1E0EA2711F4979801C0979A1FB1FC
:1015A60009911991E991EFBFE991A99118950A92CC
:1015B6001A926A937A939A93AA93BA93EA93FA93AE
:1015C600EFB7EA93E4B1F5B1A3E0B0E00E944F199A
:1015D600BF01E4B1F5B1DF01E7E0F0E00E94821956
:1015E600DB01AE1BBF0BA093970FB093980FE0E003
:1015F600E6B9E991EFBFF991E991B991A99199916C
:10160600799169911990099018950E94BC16E0ECA1
:10161600E7B9ECE802C0389AEFEDE6B90895E7B10C
:10162600EE75E7B9E7B1EE64E7B9E6B1EC7DE6B988
:10163600E6B1E46CE6B9E0E0E0939B0FE0939C0F23
:10164600E4E6F0E0E093A50FF093A60FA091A50FB6
:10165600B091A60F0E946F1AF8F4369A3699FECF0B
:10166600E4B10E94C2160E94C716E0939B0FF09346
:101676009C0FE5B1FE2FE0E00E94C216EA0FFB1FA9
:10168600E0939B0FF0939C0FA5EABFE0ED91FD91CF
:101696003197FE93EE93DACFEEE8F2E1E093A30FF3
:1016A600F093A40FA091A30FB091A40FA238E4E188
:1016B600BE0710F00C94AA0BE091A30FF091A40FB3
:1016C6000E94C2160E944F190E944519EF2FF0E0A2
:1016D600E0939F0FF093A00FA0919F0FB091A00FE2
:1016E600A331E5E0BE0738F0E0919F0FF091A00F1F
:1016F600E251F54008C0A0919F0FB091A00FE2E122
:10170600F5E0EA1BFB0BE0939D0FF0939E0FE09133
:10171600A10FF091A20FA0919D0FB0919E0FAE1751
:10172600BF0780F4E0919D0FF0919E0FE093A10F0B
:10173600F093A20FE091A30FF091A40FE093990FFD
:10174600F0939A0FA3EABFE00E949416ABCF0895D8
:10175600E7B7EC7FE7BFE0B7E860E0BFE0E0E2BFF5
:10176600E5E0E3BFE0B7E770E9F7E7B7E160E7BFB9
:10177600789408950E94CB16A7EABFE080E00E9405
:10178600D91611F00C94590CE091A70FE07CE09368
:10179600A70FA7EABFE086E00E94D91611F00C94C5
:1017A600590CE091A70FF091A80FEF73F07FE0932B
:1017B600A70FF093A80FA7EABFE08CE00E94E716F8
:1017C600E831A0E0FA07A0E06A07A0E07A0711F086
:1017D6000C94590CA7EABFE00E94D019EF7FFF7066
:1017E6006E7F7F7F0E94D519A7EABFE081E10E9444
:1017F600E716E032A0E0FA07A0E06A07A0E07A0761
:1018060071F10E94EE16EF3199F40E94F616E4305B
:1018160061F00E94F616E63041F00E94F616E930B5
:1018260021F00E94F616EB3011F40E94FF1626C036
:101836000E94EE16EE3139F40E94F616E23011F4EB
:101846000E94FF161BC00E94EE16ED31B9F40E94ED
:10185600F616E23019F42BD0E03009F40FC0A7EAEF
:10186600BFE086E1EFE0F0E060E070E00E94281A59
:10187600E091A90FE17CE260E093A90F0E94F616C1
:10188600ED30A1F4E091A90FF091AA0FEF73FC7F60
:10189600E064E093A90FF093AA0FA7EABFE08AE1FC
:1018A600EFE3F0E060E070E00E94281A60C10E9459
:1018B6000F17E4E6F0E060E070E00E94BA190E94BB
:1018C6006B1A49F40E940F17E0E9F1E060E070E05E
:1018D6000E94BA190895E091AA0FE695E695E3707D
:1018E600F07060707070089508950E94CB160E9483
:1018F6000516B0F4E0917100E03051F0A091620657
:10190600B0916306AE59BB4FE0917100EC9304C0F1
:101916000E940D16AFEFA083A2E6B6E00E949416D1
:10192600E0917100E87FE03031F4E091B10FE160C1
:101936000E941A171CC1E83081F4E091B10FEC70D7
:1019460021F4E091BA0FE16003C0E091BA0FEE7F97
:10195600E093BA0F0E9425170AC1E03179F40E947C
:101966002D1721F4E091BA0FE16003C0E091BA0FA0
:10197600EE7FE093BA0F0E942517F9C0E83179F49B
:10198600E091B10FEC70E43011F40E9432170E941E
:101996002D1721F40E944317E0937400E8C0E0324B
:1019A60031F4E091B10FE0610E941A17E0C0E8320D
:1019B60001F5E091B10FEC70E43059F4E091B90F04
:1019C600A091B80FEA1719F40E94521702C00E949C
:1019D60032170E942D1761F4E091BE0FA091BD0F42
:1019E600EA1711F4E5EE02C00E944317E093740073
:1019F600BEC0E03341F4E091B10FE260E093B10F75
:101A06000E945217B4C0E83349F4E091B10FE06286
:101A16000E945B17E5EEE0937400A9C0E03449F438
:101A26000E94631711F4E5E801C0E5ECE093740049
:101A36009EC0E83431F4E091B10FE0610E941A17BC
:101A460096C0E03581F40E946A17E091B80FEF5F07
:101A5600E093B80F0E94631711F4E5E801C0E5ECC6
:101A6600E093740084C0E83529F40E946A170E9446
:101A760052177DC0E83611F0E83731F4E091B10F26
:101A8600E06A0E945B1702C0E03609F402C0E03744
:101A960049F40E947317E0E0E093B40FE5E8E093A1
:101AA600740065C0E03811F0E03961F40E947917DE
:101AB6000E948217E03011F4E5E801C0E5ECE093FE
:101AC600740055C0E83811F0E83989F40E94791796
:101AD600E091B10FE07811F0E5EE01C0E5ECE0939E
:101AE6007400E091AD0FF091AE0F099540C0E03A59
:101AF60021F4E5ECE09374003AC0E03B31F4E09168
:101B0600B10FE06A0E945B1702C0E83A49F4E0E0D0
:101B1600E093B40F0E948817E5E8E093740027C0AD
:101B2600E83B71F40E9482170E948817E091B40F77
:101B3600E03011F4E5E801C0E1ECE093740017C071
:101B4600E03C11F0E83C99F4E091B10FE07839F00F
:101B5600E091B10FEF77E093B10FE5EE01C0E5EC50
:101B6600E0937400E091AD0FF091AE0F0995E99105
:101B7600EFBFF991E991B991A991999189917991DB
:101B86006991F9901990099018950895E2B3E36068
:101B9600E2BBE1B3EC7FE1BBEFEFE0937000E3E083
:101BA600E09371000895E2E3E0937200E881F98121
:101BB600E093AD0FF093AE0FE5E4E0937400229648
:101BC6000895E091B10FE07411F0E0E01EC0E0E08E
:101BD600E093B80FE3E0E093B90FED81E093BA0F1D
:101BE600EC81E093B50FEB81E093B60FEA81E093C9
:101BF600B70FE4E0E093B10FE881F981E093AB0F12
:101C0600F093AC0F0E948F17E1E0269608950E948C
:101C1600B015E0E0EA93E4EFF0E00E949717EEE0FB
:101C2600F1E00E949717EEE5F1E00E949717E6E8CB
:101C3600F1E00E949717E6E9F1E00E949717E4EDBC
:101C4600F1E00E949717EAE0F2E00E949717E0E3BE
:101C5600F2E00E949717EEE5F2E00E949E170895C3
:101C66002A971A9310E0E0E0EA93E4E2F2E00E9499
:101C76002316E0E0EA93EBE2F2E00E94231610E07E
:101C8600123048F5E0E0EA93EBE3F2E00E94231617
:101C96000E9435160E94A417E0E0EA93E1E4F2E020
:101CA6000E942316AAE5B4E00E94B117E0E0EA9389
:101CB600E9E4F2E00E942316E12F0E94B7170E9482
:101CC600CC190E94A417E0E0EA93E2E5F2E00E9454
:101CD60023161F5FD5CFE0E0EA93EDE5F2E00E9420
:101CE600231610E0123030F5E0E0EA93ECE6F2E07D
:101CF6000E9423160E9435160E94A417E0E0EA937C
:101D0600E1E7F2E00E942316ACE5B4E00E94B117C9
:101D1600E0E0EA93E9E7F2E00E942316A0E6B4E0E9
:101D26000E94B117E0E0EA93E7E8F2E00E9423168A
:101D36001F5FD8CF6CC02A971A9310E0E0E0EA93B1
:101D4600E2E9F2E00E942316E0E0EA93ECE9F2E031
:101D56000E94231610E0123058F5E0E0EA93ECEA10
:101D6600F2E00E9423160E9435160E94A417E0E0B6
:101D7600EA93E2EBF2E00E9423160E94BA170E9451
:101D8600C217E0E0EA93EAEBF2E00E942316E12FA5
:101D9600A0E0B0E00E94AD160E94421A0E94A4176D
:101DA600E0E0EA93E3ECF2E00E9423161F5FD3CF54
:101DB600E0E0EA93EEECF2E00E94231610E0123027
:101DC60030F5E0E0EA93EDEDF2E00E9423160E9482
:101DD60035160E94A417E0E0EA93E2EEF2E00E94D4
:101DE60023160E94C4170E94C217E0E0EA93EAEEA7
:101DF600F2E00E9423160E94CC170E94C217E0E070
:101E0600EA93E8EFF2E00E9423161F5FD8CF18810D
:101E16002B9608952597E0E0EA93E3E0F3E00E942D
:101E26002316E0915204F09153040E94D417E0E087
:101E3600EA93EEE0F3E00E942316E0914E04F0915F
:101E46004F040E94D41725960895559A08950E9426
:101E5600E1170895E7E3FFE0FA93EA93E4E8F3E095
:101E66000E942716979808950E94E117979A089559
:101E76000E94E817E9E1F3E00E94ED17E1E0EA933A
:101E86000E943F070E94E817E8E2F3E00E94ED1780
:101E9600E3E00E94F617E7E3F3E00E94ED17E4E0C3
:101EA6000E94F617E6E4F3E00E94ED17E5E00E94D3
:101EB600F617E5E5F3E00E94ED17E6E012C00E9492
:101EC6002F06A9DBE1E0EA93E2E0EA930E94C60668
:101ED600E1E0EA93E3E0EA930E94C606E1E0EA93D2
:101EE600E4E0EA930E94C6060E94140608951A9337
:101EF60014E6E0E0EA930E94E508E13068F0E0E0ED
:101F0600EA930E94EE08E0934904E0914904EA93BB
:101F16000E94CF091AE001C014E6EAE7FFE0FA934F
:101F2600EA930E9435160E94271645C10E94FA17A9
:101F3600E0916206F0916306309711F00E94DC058D
:101F460008950E9430160030E2E01E0748F4A2E62B
:101F5600B4E0A00FB11FE0E0EC930F5F1F4FF3CF8B
:101F6600A0E09799A1E0E1E0EA2711F4979801C073
:101F7600979A0991199108951A9310E0103470F404
:101F86000E943516E95AF04FA0E0A0830E9435164C
:101F9600ED5EF04FA0E0A0831F5FF0CF0CC1E2ED35
:101FA600FFE00E94011851DF0895E0EAEA93EFEF9F
:101FB600F0E0FA93EA93E9E0EA93ECEEFFE0FA93B5
:101FC600EA93FFDDE03021F4E8EDFFE00E9401181E
:101FD60008950E94061829F0E8EDFFE00E940D180A
:101FE60004C0E9EFFFE00E94B8160895E091B10F32
:101FF600E07441F0E9EFFFE0FA93EA93E4E6F0E0FB
:102006000E942716E0E0E093B80FE2E0E093B90FF4
:10201600E0EBE093BA0FE0E0E093B50FEFEFE0936B
:10202600B60FE4E0E093B10FE2E2F0E1E093AB0F2C
:10203600F093AC0FE2E2F0E10E948F1708950E9440
:10204600061821F0E9EFFFE00E940D180895E091CF
:10205600B10FEF7BE093B10FE091B20FECB90895A9
:10206600E0E0EBBBEABBE8BBE7E0E7BBE0E0E5BBF3
:10207600E4BBE2BBE1BBE3B9E2B90E94BC16E0E017
:10208600E0936500E09364000895E0E0E0BFE3BFFD
:10209600E2BFE1BF0895E0E0EFBDEEBDEDBDECBDF2
:1020A600E7BDE6BDEBBDEABDE9BDE8BDE09379005D
:1020B600E09378000895E0E0E5BDE4BDE3BD089552
:1020C600E0E0E0938B00E0938A00E0938900E093E0
:1020D6008800E0938100E0938000E0938700E0931E
:1020E6008600E0938500E0938400E0938300E0930C
:1020F60082000895E0E0E0936A00EABFE9BFE7BF27
:10210600E0937D000895E0E0EBB9E8EDEAB9E6E09A
:10211600E0939500E0E0E0939000E3E3E9B90895E9
:10212600E2E0E0939B00E8EDE0939A00E6E0E093BE
:102136009D00E0E0E0939800E8E0E09399000895C0
:102146001A9310E010E01230D8F4AAE5B4E00E9429
:102156003516EA0FFB1F0F010E94BA17D001EC9348
:10216600E12F0E9412180F01E12FA0E0B0E00E94BB
:10217600AD160E94421AD001ED93FC931F5FE3CF88
:1021860010E01230C0F4ACE5B4E00E943516EA0F58
:10219600FB1F0F010E94C417D001EC93A0E6B4E028
:1021A6000E943516EA0FFB1F0F010E94CC17D001C3
:1021B600EC931F5FE6CF1991089552DF0E94080B3A
:1021C6000E94120B62DF67DF76DF7ADF93DF9BDF29
:1021D600A7DF0E944D0ABCDA0895B2DFE0E0EA9379
:1021E600E0915A04EA93E0915604F09157040E9454
:1021F6001A18E1E0EA93E0915B04EA93E09158044F
:10220600F09159040E941A18E0E0EA93E1E0EA939B
:10221600EA93E0E0EA93E0E1EA930E94820A0E94F0
:1022260042060E94C9090E94D314B0DCEAE2F0E13A
:10223600FA93EA93B8DCEEB1EFB1E0E0E093620620
:10224600E09363060E940D16A1E00E9414160895FD
:102256002A97E0E0EE83EF83E887E9870E947D1AFC
:102266000AEC10E030E020E050E040E00E941E184A
:10227600E2E9F0E00E94251811F00C946413E4E6FC
:10228600F3E00E942B18A23010F40C9464130E9401
:102296003118E6E9F0E00E94251811F00C94D911E6
:1022A600EAE6F3E00E942B18A33010F40C94D51143
:1022B6000E9438180E943F180E944C1838F40E9459
:1022C6005418E1E7F3E00E94591803C0E4EDF0E08A
:1022D60024C3AA89A43010F40C94D5110E945D1869
:1022E60001F50E94661829F00E9481180E94771A4B
:1022F60081F4AAE5B4E0E22F0E94C716AC85A0835C
:10230600EEECF0E08F01E7E7F3E00E94591832E0C7
:1023160008C0E4EDF0E08F01EEE7F3E00E94591803
:10232600FDC20E9486180E948B18E2EAF0E00E9425
:102336002518E9F40E9490180E948B180E943F18F5
:102346000E94951860F4E22F0E9412180E949D18B0
:10235600E6E8F3E00E9459180E94A61808C0E4EDCA
:10236600F0E08F01E9E8F3E00E945918D7C20E9415
:10237600AC180E94CC190E941A1820E00E94B015D1
:10238600A4E0B0E0E22F0E94C7160E94B6180E9491
:10239600CC19D0010E94521A0E94A515E1E9F3E07A
:1023A6000E945918E0E0EA930E94F8070E9431184B
:1023B600E8EAF0E00E94251811F00C94D912EDE934
:1023C600F3E00E942B18A33010F40C94D912E3EA20
:1023D600F3E00E9459180E9438180E94CB180E94F8
:1023E6004C1818F40E94541803C0E4EDF0E095C2AE
:1023F600AA89A43010F40C94D9120E945D18D9F45D
:102406000E94661829F00E9481180E94771A81F4AA
:10241600ACE5B4E0E22F0E94C716AC85A08332E09B
:10242600EEECF0E08F01EAEAF3E00E94591803C0EF
:10243600E4EDF0E072C20E9486180E948B18ECEA66
:10244600F0E00E94251809F50E9490180E948B184A
:102456000E94CB18A138E0E0BE07E0E08E07E0E07E
:102466009E0780F4A0E6B4E0E22F0E94C716AC8572
:10247600A0833E5FEEECF0E08F01E3EBF3E00E9419
:10248600591803C0E4EDF0E048C20E9486180E9485
:102496008B18E2EBF0E00E94251811F00C94A212C2
:1024A6000E9490180E948B180E94CB180E94731AE3
:1024B60050F00E948118A430E0E0BE07E0E08E07ED
:1024C600E0E09E0708F038C0EC85FD856E857F85C7
:1024D6000E946B1A01F1E130A0E0FA07A0E06A075A
:1024E600A0E07A0719F450E041E017C0E230A0E01E
:1024F600FA07A0E06A07A0E07A0711F451E00CC0E1
:10250600E330A0E0FA07A0E06A07A0E07A0719F432
:1025160051E041E002C050E040E0EEECF0E08F0117
:10252600EDEBF3E00E945918AEE5B4E0E22F0E940D
:10253600C716AC85A08303C0E2EEF0E0EEC12A9395
:102546000E94D518EA934A935A930E94DC18EA939C
:102556000E94820A30E050E040E0A6E0B0E0E22FC0
:102566000E94C7160F010E94D518D0010E945A1A60
:10257600A8E0B0E0E22F0E94C7160F01AEE5B4E076
:10258600EE27A20FBE1FEC91D0010E945A1AAAE0B4
:10259600B0E0E22F0E94C7160F010E94DC18D0019E
:1025A6000E945A1AE8ECF3E00E9459180E9431186A
:1025B600E6EBF0E00E94251811F00C946413E3EDAD
:1025C600F3E00E942B18A33010F40C9460130E94C1
:1025D60038180E943F180E944C1838F40E9454186C
:1025E600E9EDF3E00E94591803C0E4EDF0E095C16F
:1025F600AA89A43010F40C9460130E945D1801F5AA
:102606000E94661829F00E9481180E94771A81F4A8
:10261600AAE5B4E0E22F0E94C716AC85A083EEECD3
:10262600F0E08F01EFEDF3E00E94591832E008C0A8
:10263600E4EDF0E08F01E6EEF3E00E9459186EC17A
:102646000E9486180E948B18E2EAF0E00E94251884
:10265600E9F40E9490180E948B180E943F180E946D
:10266600951860F4E22F0E9412180E949D18EEEE53
:10267600F3E00E9459180E94A61808C0E4EDF0E0A5
:102686008F01E1EFF3E00E94591848C10E94AC188F
:102696000E94CC190E941A1820E0A4E0B0E0E22FB4
:1026A6000E94C7160E94B6180E94CC19D0010E943B
:1026B600521AE9EFF3E00E945918E0E0EA930E940B
:1026C600F8070E941E18EAEBF0E00E94251811F0A8
:1026D6000C941114E4E0F4E00E942B18A23010F4DC
:1026E6000C9411140E943118E6E9F0E00E942518B6
:1026F60019F5AA89A33000F10E9438180E94CB1858
:102706000E944C1820F42C85EEECF0E002C0E4EDBB
:10271600F0E08F01AA89A43078F0E0EBF5E12A9386
:102726000E94E3180E946608E5EAF5E1E8E0F4E0B5
:102736000E9459180E94EA180E943118E8EAF0E04F
:102746000E94251861F5AA89A33048F10E9438181D
:102756000E94CB180E944C1820F42C85EEECF0E079
:1027660002C0E4EDF0E08F01AA89A430C0F0E2E1F6
:10277600F4E00E9459180E94EA18EAE0EA930E94DF
:10278600E318E7E5FFE0FA93EA930E94980AECE182
:10279600F4E00E945918E7E5FFE00E9459180E94EC
:1027A6003118E6EBF0E00E942518C1F5AA89A3309E
:1027B600A8F10E9438180E94CB180E944C1820F4E9
:1027C6002C85EEECF0E002C0E4EDF0E08F01AA8982
:1027D600A43020F1E6E2F4E00E945918E889F9896C
:1027E600A681B781BA93AA930E942C0AFA93EA9318
:1027F600FE013896FA93EA930E94D915E0E0EA932F
:10280600FE0137960E942316E2E3F4E00E9459186F
:10281600E0E0EA93E7E5FFE00E9423160E941E1817
:10282600ECE4F9E00E94251851F4E2EDFFE00E9485
:10283600B816E1E0E0934804EEECF0E08F010E9468
:102846001E18EEE4F9E00E94251861F4E2EDFFE0BF
:10285600FA93EA930E947D15E0E0E0934804EEECDB
:10286600F0E08F010E941E18E0E5F9E00E942518AD
:1028760039F4E2E6FFE00E94B816EEECF0E08F01D4
:102886000E941E18ECE8F0E00E94251821F4BFD93A
:10289600EEECF0E08F010E941E18E0ECF0E00E94E2
:1028A600251829F4EEECF0E08F010E94001E0E942C
:1028B6001E18ECEBF0E00E94251829F4EEECF0E08F
:1028C6008F010C9400000E941E18E6ECF0E00E94B6
:1028D600251859F40E94B0152EDA0E94330E9ADAA2
:1028E600EEECF0E08F010E94A5150E941E18E2E5AD
:1028F600F9E00E94251821F48DDAEEECF0E08F0164
:102906000E941E18E4E5F9E00E94251839F4E8ED66
:10291600FFE00E94B816EEECF0E08F01E0E0EA93EB
:102926001A930A930E9476080E94841A6396089561
:10293600279743DC52DC8F9AE1E0EA93E0EFF0E080
:102946000E949717E0EFF0E00E949E17EAE2FFE090
:102956000E94B816EAE7FFE0FA93EA93E9E1F0E0AD
:102966000E9427160E94FA17EBE3FFE00E94B816B2
:1029760070D0FECFFFCF0E94CB1699D0AAE4B4E068
:102986000E948616E991EFBFF991E991B991A99153
:102996009991899179916991F99019900990189571
:1029A6001A9310E01F3151F00E94FD180E9404197D
:1029B6000E94FD180E940C191F5FF4CF99C008955C
:1029C600E881F981FA93EA93E0E0F0E00E942716A5
:1029D600229608951A930A9310E000E0EFB7E7FFF6
:1029E60002C0F89401E010E01F3199F00E94FD1832
:1029F6000E941319DF01EC81FD81EA17FB0739F408
:102A06000E94FD180E94191909F078941EC01F5FD4
:102A1600EBCF10E01F31C9F00E94FD180E94131978
:102A26000E94211981F40E94FD18EA0FFB1F3296BD
:102A3600AC81BD81A083B1830E94FD180E94191943
:102A460009F0789402C01F5FE5CF198108812696A8
:102A560008950E947F1A10E010E01F3119F10E94BC
:102A6600FD180E9413190E94211941F00E94FD18B9
:102A7600AE0FBF1F0E94CC19309709F011C00E94FB
:102A8600FD18AE0FBF1F12962D913C910E94FD18A6
:102A96000E9404197894F90109950E94861A50C07B
:102AA6001F5FDBCF78948BDF0E94861A49C01A938A
:102AB60010E01F31E9F00E94FD180E9413190E94D0
:102AC600211951F00E94FD18AE0FBF1F0E94CC19AC
:102AD600DF010E946F1A08F009C00E94FD18AE0FB0
:102AE600BF1FED91FD913197FE93EE931F5FE1CFEE
:102AF600199108951A930A9310E000E0EFB7E7FFE3
:102B060002C0F89401E010E01F31C1F00E94FD18E8
:102B16000E941319DF01EA81FB81EA17FB0761F4C2
:102B26000E94FD180E9404190E94FD180E940C19AB
:102B3600003009F0789402C01F5FE6CF1981088142
:102B460024960895F894ECE0E5BDE0E0E4BDEEE3FC
:102B5600E3BDE0E8E7BF78940895E5E0E5BD0895B4
:102B6600E991F991A991B9911D900590011421F46B
:102B76000020D1F7EE2708951018E1F3E1E008F4FC
:102B8600E25008957991E991F991A991B991CD0110
:102B9600772351F07A9561916D936623C9F7772370
:102BA60019F07A956D93FBCFFC010895A991B9911F
:102BB600E991F99130962AF4E095F09531966DE217
:102BC6006D93E89480E197E20DD088EE93E00AD009
:102BD60084E6992707D08AE005D06E2F10D06627A5
:102BE6006C9308956627E817F90720F06395E81BAC
:102BF600F90BC9F7662311F416F008956894605D21
:102C06006D930895A0916206B0916306A030E2E04C
:102C1600BE070895E0916206F0916306EE59FB4FF8
:102C26000895A083A2E6B6E0ED91FD913196FE935C
:102C3600EE930895EFB7A0914704EA2BEFBF0895EE
:102C4600FA93EA930C946608FA93EA930C94ED14BB
:102C5600EA93E0E0EA930C94F9051A930A9300E0EC
:102C660010E00895E12FF0E00895E72DF82D319654
:102C76007E2E8F2E3197ED58F94F0895A5E0B0E0DE
:102C86000E947D19DF01EECFEA81EA93EA81EA9399
:102C96000E94820610E00895EC59F94FE081F0E0B9
:102CA600FA93EA930895EA81FB81662777270895C8
:102CB600A8E0B0E080E090E00E9457190895E0E0B7
:102CC600E0936B0AE0936C0AE0936D0AE0936E0A58
:102CD6000895E0E0E0936F0CE093700CE093710CC4
:102CE600E093720C0895EA1BFB0BE130A2E0FA07B1
:102CF60008956A937A93AA93BA93EA93FA93EFB7ED
:102D0600EA931A9308950E94D019EF5FFF4F6F4F11
:102D16007F4F0E94D5190895E091710CF091720CC5
:102D26000895ED91FD913196FE93EE930895ED9100
:102D3600FD913197FE93EE93EFB7E02BEFBFE12FB6
:102D4600198108810895EFE7FEE0E093FF0EF09306
:102D5600000F0895F0E0EE0FFF1FAE0FBF1F08959E
:102D6600E92DF0E0E158F14F0895FA93EA930C94B7
:102D7600E314E0E0E0936200E09361000895A0911F
:102D86009B0FB0919C0F0895F0E0EA0FFB1F08958A
:102D96000A921A92FA926A937A938A939A93AA93C8
:102DA600BA93EA93FA93EFB7EA930895EFE3F0E064
:102DB60060E070E00E94161AEC33A0E0FA07A0E08B
:102DC6006A07A0E07A070895EFE1F0E060E070E0BE
:102DD6000E94161A0895E091A90FF091AA0FF69590
:102DE600E795EF710895A091A90FB091AA0FE6E0BB
:102DF6000E943719EF700895A7EABFE086E1EFE079
:102E0600F0E060E070E00E94281AE091A90FE17CF2
:102E1600E260E093A90F0895E091AA0FE695E69582
:102E2600EF73F07060707070DF01CB010895E0936E
:102E3600B10FE5EDE0937400E091AF0FF091B00FA4
:102E460009950895E091BA0FE0937300E5ECE093DD
:102E560074000895E091B10FEC70E8300895E091A8
:102E6600B80FF0E0EB54F04FE081E0937300E0918F
:102E7600B80FEF5FE093B80FE5ECE09374000895A8
:102E8600E091BD0FF0E0E554F04FE081E093730070
:102E9600E091BD0FEF5FE093BD0FE5EC0895E5ED22
:102EA600E0937400E091AB0FF091AC0F0995089593
:102EB600E093B10FE0E0E093B80FE093BD0F089503
:102EC600A091B80FAF5FE091B90FEA170895A091EE
:102ED600B80FB0E0AB54B04FE0917300EC93089597
:102EE600E091B10FE064E093B10F0895A091B40FA3
:102EF600B0E0AE54B04FE0917300EC930895E091CA
:102F0600B40FEF5FE093B40F0895F0E0ED54F04F87
:102F1600E081E09373000895E093AF0FF093B00F54
:102F2600E5EAE0937400DCCFFA93EA930E94760810
:102F3600E0E0EA930895FA93EA930E9476080C94E7
:102F4600A515FA93EA93FE013396FA93EA930E9443
:102F5600D915E0E0EA93FE01329672CEEE27A10F74
:102F6600BE1FEC91F0E0EDCFA6E5B4E0F3CEA4E011
:102F7600B0E0EE27A10FBE1F0E94461A0895F0E0AA
:102F8600E0CFA6E0B0E0EE27A10FBE1F0E94461AD2
:102F96000895AAE0B0E0EE27A10FBE1F0E94461AD0
:102FA6000895FA93EA93FE013296FA93EA930E9401
:102FB600D915E0E0EA93FE01319642CEEDE2FFE05C
:102FC600FA93EA93E4E6F0E03FCEE4E6F6E0FA931D
:102FD600EA930895FA93EA93EFE0EA930E94C515FF
:102FE600E1E0EA930895EA930E94C606EECFE9E986
:102FF600FFE0FA93EA93E2E3F0E026CEFA93EA934F
:10300600E2E3F0E021CEE091B10FEF7BE093B10F68
:10301600E1710895FA93EA93E4E1F0E015CEA6E5AE
:10302600B4E0F0E0EE0FFF1FEA0FFB1F0895FA93DE
:10303600EA930C946207A889B9890E94CC19FA937D
:10304600EA930895FA93EA930E94B315E03008953F
:10305600FA93EA930E94D005AA890895E889F98926
:10306600A281B381BA93AA930895E889F989A481C4
:10307600B581BA93AA9308950E942C0A66277727EA
:10308600EC87FD876E877F87AC85BD858E859F859E
:103096000895A330E0E0BE07E0E08E07E0E09E077B
:1030A60008952C85EEECF0E08F010895FA93EA93EB
:1030B6000C94D005E889F989A681B781BA93AA93B9
:1030C600ECE9F0E0BFCFE889F989A085B185BA932C
:1030D600AA930E94120AFF2766277727EC87FD87A7
:1030E6006E877F87AC85BD858E859F85A130E0E0A4
:1030F600BE07E0E08E07E0E09E070895AC85BD853B
:103106008E859F850895E32FED5FA889B98922CE24
:103116000E94CC19FA93EA930895E32FEC5FA889ED
:10312600B98918CEA138E4E0BE07E0E08E07E0E0FA
:103136009E070895AC85BD85A083B183EEECF0E0D3
:103146008F0130E00895E2EAF0E0FA93EA930C94F6
:10315600C0052A93AAE5B4E0EE27A20FBE1FEC91A4
:10316600EA93E22F01CF0F01AAE5B4E0EE27A20F02
:10317600BE1FEC91D0010E945A1AE22FA0E0B0E0E7
:10318600F0E0EE0FFF1FEA0FFB1F0F01E22FECCE60
:103196000E94120AFF2766277727EC87FD876E872E
:1031A6007F87ACCFACE5B4E0EE27A20FBE1FEC9153
:1031B6000895A0E6B4E0EE27A20FBE1FEC91089595
:1031C600E989FA89A681B781BA93AA930895E8890D
:1031D600F989A681B781BA93AA930E942C0AFA9319
:1031E600EA93FE013896FA93EA930E94D915FE01F6
:1031F60036965CCFE12FAFEBBFE0F0E00E944019BE
:103206000895AE0FBF1F1296E2EEF4E1ED93FC9324
:103216000895AE0FBF1FE0E0F0E0ED93FC93089534
:10322600AE0FBF1F12960E94CC190895EA0FFB1F1E
:10323600AA81BB81A083B18300300895DF01E2EE4D
:10324600F4E1EA17FB070895E991F991309639F010
:1032560080EA9FE00197F1F7A8953197C9F708959D
:10326600F195E195F0400895EE230E2EFD0121F033
:10327600F695E7950A94E1F70895EE0FFF1FEE0F16
:10328600FF1F0895F695E795F695E7950895EE0FD5
:10329600FF1F661F771F0895FA9FF02DEB9FF00D15
:1032A600EA9FE02DF10D08957A9F702D6B9F700DAA
:1032B600F89F700DE99F700D6A9F602D710DFB9F41
:1032C600600D711DE89F600D711D8827FA9FF02D16
:1032D600610D781FEB9FF00D611D781FEA9FE02DB1
:1032E600F10D681F781F08956E2F6A9FF0016B9F7E
:1032F600F00D089540D0D0DF0EF4B2DF089500241B
:10330600112490E1AA0FBB1F001C111C0E1A1F0AE4
:1033160018F40E0E1F1E01C0A1609A9599F7FD01C3
:10332600D00108953F934F935F93002411244427BF
:10333600552730E2AA0FBB1F881F991F001C111CBE
:10334600441F551F0E1A1F0A460B570B28F40E0E64
:103356001F1E461F571F01C0A1603A9559F7FD0170
:10336600BC01D001CA015F914F913F910895DADF08
:10337600FD01BC010895E894F7FF02C071DF68946F
:10338600B7FF06C0A095B095119600F8039400FA11
:103396000895ED91FC9111970895ED91FD916D9130
:1033A6007D9108957E936E93FE93EE930895082E75
:1033B6008F019B01ED91FD916D917C91102C112057
:1033C60031F076956795F795E7951A94D1F7E0234E
:1033D600F123622373230895E023F12362237323E9
:1033E600AF01CB01002051F0000F111F221F331F28
:1033F600440F551F881F991F0A94B1F70095109521
:10340600209530951C900E90022213223E912E910B
:1034160020233123242B352B082A192A2D933D935B
:103426000D921C9208950F931F932F933F934F93E2
:103436005F93BDDF3196611D711DCEDF5F914F91A8
:103446003F912F911F910F9108950F931F932F93E3
:103456003F934F935F93ABDFEF93FF936F937F930E
:103466003196611D711DB8DF7F916F91FF91EF91CC
:103476005F914F913F912F911F910F910895119652
:1034860002D0FE2F1197E199FECFFF93FFB7F89474
:10349600AEBBBFBBE09AEDB3FFBFFF91089507D067
:1034A6001196EF93EF2F03D0EF9111970895E19BBB
:1034B60002C0A895FCCF9FB7F894AEBBBFBBE09AFD
:1034C6008DB3E81719F0EDBBE29AE19A9FBF089514
:1034D600309760407040089500240A160B06089540
:1034E600109780409040089500240A160B0608069F
:1034F600090608955A934A933A932A931A930A937C
:1035060008955D814C813B812A8119810881089546
:00000001FF
