:0C0000000C940A070C9400000C94000003
:10000C000C9400000C9400000C9400000C94000064
:10001C000C9400000C9400000C947B100C940000C9
:10002C000C9400000C9400000C9400000C949110A3
:10003C000C9400000C94B90B0C94C80A0C94ED09A8
:10004C000C9496090C9400000C94E00A0C9400009B
:10005C000C9400000C9400000C9400000C94000014
:10006C000C9400000C9400000C9400000C94220AD8
:10007C000C94BF090C9400000C94740C0C940000AC
:10008C0048656C7000005365740055617274000013
:10009C004D6F6465000053706565640053706900B2
:1000AC005072657363007070000049326300570032
:1000BC0072737400626F6F74000064626700204595
:1000CC000D00206F6B0D0000204C617267655F7630
:1000DC00616C75650D002057726F6E675F76616C91
:1000EC0075650D00205300000D3E3E3E2048454CEA
:1000FC0050203C3C3C0D20436F6D6D616E64733A37
:10010C000D000D20536574202D496E746572666167
:10011C0063655F6E616D652D202D6E756D62657208
:10012C002D204D6F6465202D76616C7565286F7080
:10013C0074696F6E616C292D205370656564202D78
:10014C0076616C7565286F7074696F6E616C292DA2
:10015C0000000D20572020202D496E7465726661B9
:10016C0063655F6E616D652D202D6E756D626572B8
:10017C002D202D646174612D00000D2047657420C5
:10018C002D656E746974792D00000D2020496E74F4
:10019C006572666163657320617661696C61626C1E
:1001AC00653A0D2020205561727428302C31290DB0
:1001BC0020202053706928302D486172642C203126
:1001CC002D536F6674290D000D3E3E3E2055415255
:1001DC00545F48454C50203C3C3C0D204D6F6465B1
:1001EC003A20302D204E4F524D414C3B20312D208A
:1001FC00444F55424C4544207370656564000D2096
:10020C0053706565643A20626175642F313030201B
:10021C002845783A20353736206973203537363003
:10022C0030290D000D3E3E3E205350495F48454C51
:10023C0050203C3C3C0D204D6F64653A20302D2005
:10024C00534C4156453B20312D204D415354455282
:10025C000A000D205072657363616C6C65723A20F4
:10026C00706F77206F662032202845783A205072C4
:10027C00657363203136290D00000000000000007A
:10028C00005F00000007000700147F147F14242A6D
:10029C007F2A122313086462364955225000050345
:1002AC000000001C2241000041221C0014083E08E2
:1002BC001408083E08080050300000080808080818
:1002CC000060600000201008040200000000000024
:1002DC00005F00000007000700147F147F14242A1D
:1002EC007F2A1223130864623649552250000503F5
:1002FC000000001C2241000041221C0014083E0892
:10030C001408083E080800503000000808080808C7
:10031C0000606000002010080402000000000000D3
:10032C00005F00000007000700147F147F14242ACC
:10033C007F2A1223130864623649552250000503A4
:10034C000000001C2241000041221C0014083E0841
:10035C001408083E08080050300000080808080877
:10036C00006060000020100804023E5149453E0028
:10037C00427F400042615149462141454B3118149E
:10038C00127F1027454545393C4A494930017109CE
:10039C0005033649494936064949291E00363600B7
:1003AC0000005636000008142241001414141414D2
:1003BC0000412214080201510906324979413E7E5E
:1003CC001111117E7F494949363E414141227F41FD
:1003DC0041221C7F494949417F090909013E414994
:1003EC00497A7F0808087F00417F41002040413F47
:1003FC00017F081422417F404040407F020C027F65
:10040C007F0408107F3E4141413E7F090909063EA9
:10041C004151215E7F09192946464949493101015B
:10042C007F01013F4040403F1F2040201F3F40388C
:10043C00403F63140814630708700807615149456D
:10044C0043007F41410002040810200041417F001D
:10045C00040201020440404040400001020400201C
:10046C00545454787F4844443838444444203844E5
:10047C0044487F3854545418087E0901020C5252D7
:10048C00523E7F0804047800447D40002040443DE7
:10049C00007F1028440000417F40007C0418047841
:1004AC007C0804047838444444387C141414080838
:1004BC001414187C7C080404084854545420043F39
:1004CC004440203C4040207C1C2040201C3C4030C0
:1004DC00403C44281028440C5050503C4464544C2C
:1004EC0044000836410000007F000000413608003F
:1004FC0010080810087846414678000000000000FB
:10050C00005F00000007000700147F147F14242AEA
:10051C007F2A1223130864623649552250000503C2
:10052C000000001C2241000041221C0014083E085F
:10053C001408083E08080050300000080808080895
:10054C0000606000002010080402000000000000A1
:10055C00005F00000007000700147F147F14242A9A
:10056C007F2A122313086462364955225000050372
:10057C000000001C2241000041221C0014083E080F
:10058C001408083E08080050300000080808080845
:10059C000060600000201008040200000000000051
:1005AC00005F00000007000700147F147F14242A4A
:1005BC007F2A122313086462364955225000050322
:1005CC000000001C2241000041221C0014083E08BF
:1005DC001408083E080800503000000808080808F5
:1005EC00006060000020100804023E5149453E00A6
:1005FC00427F400042615149462141454B3118141C
:10060C00127F1027454545393C4A4949300171094B
:10061C0005033649494936064949291E0036360034
:10062C00000056360000081422410014141414144F
:10063C00004122140802015109067E1111117E7F1E
:10064C00494949317F494949367F010101037029E4
:10065C0027217F7F4949494177087F0877414141EC
:10066C0049767F1008047F7F1009047F7F081422CD
:10067C004120413F017F7F020C027F7F0808087FE9
:10068C003E4141413E7F0101017F7F090909063E40
:10069C004141412201017F010147281008071E2119
:1006AC007F211E63140814633F2020205F07080875
:1006BC00087F7F407F407F3F203F205F017F48487D
:1006CC00307F4830007F007F484830414141493EEF
:1006DC007F083E413E462919097F20545454783CEA
:1006EC004A4A49317C545428007C0404040C722A74
:1006FC0026227E38545454186C107C106C4444548C
:10070C0054387C2010087C7C2112097C7C102844F5
:10071C000020443C047C7C0810087C7C1010107C6D
:10072C0038444444387C0404047C7C141414083885
:10073C004444442004047C04044428100804081491
:10074C007E140844281028443C40407C400C101077
:10075C00107C7C407C407C3C203C207C047C5050B9
:10076C00207C5020007C007C50502028444454387D
:10077C007C10384438485434147C000000000000CD
:10078C0000000000000080C0E0F0F8F8FCFCFEFE69
:10079C00FFFFFEFCF8F0E0C080000000000000004D
:1007AC0000000000000000000000000000000080BD
:1007BC00C0E0F0F8FCFEFFFFFEFEFCFCF8F8F0E0F9
:1007CC00C0800000000000000000000000000000DD
:1007DC00000000000000E0F8FEFFFFFFFFFFFFFF3E
:1007EC00FFFFFFFFFFFFFFFFFFFFFFFFFFFFFEFC11
:1007FC00F8F0E040000000000000000040E0F0F8DD
:10080C00FCFEFFFFFFFFFFFFFFFFFFFFFFFFFFFFF0
:10081C00FFFFFFFFFFFFFFFEF8E0000000000000FD
:10082C000000000000000000787F7F7F7F7F7F7FCB
:10083C007F7F7F7F7F7F7F7F7F7F7F7F7F7F7F7FBC
:10084C007F7F0F0301F0F8FCFCFEFEFEFEFEFEFCBB
:10085C00FCF8F001030F7F7F7F7F7F7F7F7F7F7F9F
:10086C007F7F7F7F7F7F7F7F7F7F7F7F7F7F7F7893
:10087C00000000000000000000000000000000006C
:10088C00000000000000000000000000000000005C
:10089C000000000000000080C0E1E3E7C7CF8F8FAD
:1008AC008F8FCFC7E7E3E1C080000000000000009D
:1008BC00000000000000000000000000000000002C
:1008CC00000000000000000000000000000000001C
:1008DC00000000000000000000000000000000000C
:1008EC0000000080C0E0F0F8FCFEFFFFFFFFFFFF00
:1008FC00FFFFFFFFFFFFFFFFFFFFFFFFFFFFFEFC00
:10090C00F8F0E0C0800000000000000000000000D3
:10091C0000000000000000000000000000007088D3
:10092C007050887000C8A890007088700010F80093
:10093C00708870000C0E1F1F1F3F3F3F3F7F7F7F53
:10094C00FFFFFFFFFFFFFFFFFFFFFFFFFFFFFFFFAB
:10095C007F7F7F3F3F3F3F1F1F1F0E0C000000F0AB
:10096C0028F000F820F800F8A8880088F88800F82B
:10097C0048B01027E80364000A00010000100001D1
:10098C0010000100000044535441434B454E4400B9
:10099C0048535441434B454E4400FF0003000300B1
:1009AC00460002000C00018001C001E001F002F8D9
:1009BC0002FC02FE02FF01FE01FC01F801F001E065
:1009CC0001C001801600018001C001E001F001F8B6
:1009DC0001FC01FE02FF03FE01FC02F801F001E044
:1009EC0001C00180140001E001F801FE15FF01FEB9
:1009FC0001FC01F801F001E001400800014001E0B8
:100A0C0001F001F801FC01FE15FF01FE01F801E007
:100A1C000E000178197F010F0103010101F001F8AB
:100A2C0002FC06FE02FC01F801F001010103010FBA
:100A3C00197F01782700018001C001E101E301E782
:100A4C0001C701CF048F01CF01C701E701E301E129
:100A5C0001C001803A00018001C001E001F001F801
:100A6C0001FC01FE14FF01FE01FC01F801F001E0A4
:100A7C0001C001802F00010C010E031F043F037FF6
:100A8C0010FF037F043F031F010E010C1600C8006A
:100A9C00C70DC70DC70D706F7266006578747266EE
:100AAC0000626F72660077647266004A54524600A8
:100ABC000D3C52414D3E000D554152545F5345542F
:100ACC0054494E47530D005541525420000D204DB2
:100ADC006F646520000D20537065656420000D2D3A
:100AEC002D2D2D2D2D2D2D0D000D5350495F5345C2
:100AFC005454494E47530D0053504920000D20507B
:100B0C0072657363616C6C657220000D3C454550D9
:100B1C00524F4D3E000D42757465735F5258200064
:100B2C000D42757465735F545820005469636B3DB6
:100B3C0025690A004F6C6F6C6F3D29000D204552E2
:100B4C00525F554E4445465F464C414720000D20B0
:100B5C00536574000D2055617274000D204E756D37
:100B6C00000D204D6F6465000D4D20455849540013
:100B7C000D20000D20556172745F696E6974000D53
:100B8C0020537069000D53204E756D000D53204D90
:100B9C006F64652D000D532050726573632D000D2D
:100BAC005320506861506F6C2D000D5320537069A9
:100BBC00496E6974000D20493263000D204932637F
:100BCC005F696E6974000D2057000D205520443E5E
:100BDC00545820000D205320443E545820000D2022
:100BEC005320443C525820000D2049324320443EAF
:100BFC00545820000D2049324320443C52582000C8
:100C0C0079006E006100730045000100250D000D98
:100C1C000A3C002C003E000D0A0001002D4E414EF6
:100C2C0000494E4600000100020090090900000135
:100C3C0092090900D30E9C0901005406A809010071
:100C4C005506AA0901005606AC0901005706AE0963
:100C5C0001008B0D9A0A0200950D9C0A0200970D5B
:100C6C009E0A0200990DA00A05000002A20A0600C5
:100C7C000502A70A05000B02AD0A05001002B20A14
:100C8C0005001502B70A07001A02BC0A100021025F
:100C9C00C30A06003102D30A08003702D90A090038
:100CAC003F02E10A0B004802EA0A0F005302F50A60
:100CBC0005006202040B08006702D90A0E006F02DD
:100CCC00090B0B007D02EA0A0A008802170B1000C0
:100CDC009202C30A0600A202D30A0800A802D90A8B
:100CEC000900B002E10A0B00B902EA0A0F00C402C3
:100CFC00F50A0500D302040B0800D802D90A0E002D
:100D0C00E002090B0B00EE02EA0A0B00F902210BC0
:100D1C000B0004032C0B08000F03400B12001703ED
:100D2C00480B060029035A0B07002F03600B060023
:100D3C003603670B07003C036D0B08004303740B71
:100D4C0003004B037C0B08004E03740B0C00560382
:100D5C007F0B060062038B0B07006803910B0900E5
:100D6C006F03980B0A007803A10B0B008203AB0BEB
:100D7C000B008D03B60B06009803C10B06009E03F7
:100D8C00670B0700A4036D0B0800AB03740B030087
:100D9C00B3037C0B0800B603740B0B00BE03C70B2C
:100DAC000400C903D20B0A00CD03D60B0A00D703EB
:100DBC00E00B0A00E103EA0B0C00EB03F40B0C0054
:100DCC00F703000C01004204160C03000304180C7A
:100DDC00040006041B0C02000A041F0C02000C0485
:100DEC001F0C02000E041F0C020010041F0C02004A
:100DFC0012041F0C02001404210C03001604230C13
:100E0C000100CF0E260C0000F894EE27ECBBF1E0AD
:100E1C00F5BFE5BFE0936C00F8E1F1BDE1BD8DE0FD
:100E2C00A2E0BB27ED938A95E9F780E090E1A0E082
:100E3C00B1E0ED930197E9F7E2E3FCE08591959140
:100E4C00009761F0A591B59105901590BF01F00147
:100E5C0005900D920197E1F7FB01F0CF8BBFEFEFFF
:100E6C00EDBFE0E1EEBFC0E0D2E00C945C10EFB758
:100E7C00E0932204F8940E94521428F40E945A140D
:100E8C00A8810E9461140E946A1421960895A88179
:100E9C00B981EC91E03031F0ED91A883B983EA93FC
:100EAC00E6DFF5CFCFC00E945A14ABE20E9461146A
:100EBC00E0E0EA93E3E4F4E0FA93EA930FD20E94C1
:100ECC007014E4600E947514E0E0E0934306E09334
:100EDC00440608951A930A9300E8D998EA81E03001
:100EEC0011F0D89A01C0D89810E0183060F4E02FB7
:100EFC00AB81EA2311F0DB9A01C0DB980695DC9AF2
:100F0C00DC981F5FF2CFD99A7DC00E947A14083FFB
:100F1C00E1E01E0764F4A8E5B6E0A00FB11FEC9168
:100F2C00EA93E1E0EA93D6DF0F5F1F4FF0CF10C0DA
:100F3C000E948B14083FE1E01E074CF4A8E5B6E0D4
:100F4C00A00FB11FE0E0EC930F5F1F4FF3CFDDDF7D
:100F5C00099119910895DA9AD49AD39AD19AD09A80
:100F6C00D29ADC98E1E0F0E00E949014DA98E4E187
:100F7C00F0E00E949014DA9AD99AE1E20E9494145B
:100F8C00E0915406EC5F0E949414E0915506E05FEA
:100F9C000E949414E0915606E0580E949414A0E02C
:100FAC0020FCA1E0EA2FEE0FEE0FEE0FE0620E2E0A
:100FBC00A0E021FCA1E0EA2FEE0FEE0FE0290E9449
:100FCC009414E0915706EE0FA0915706EA2BE570AA
:100FDC00E8600E949414ACDF08950E947A14083FD4
:100FEC00E1E01E0778F4F801E85AF94F0F01F80117
:100FFC00AA81BB81EA0FFB1FE491D001EC930F5F38
:10100C001F4FEDCF1981088124960895A981AF3027
:10101C0018F4A881A73008F015C0E881F0E03197EA
:10102C00A4E5B0E00E940217BF01E981F0E031971E
:10103C00A6E0B0E00E940217E60FF71FE0935008FD
:10104C00F0935108229608951A9310E01E3040F444
:10105C000E949914EB5BF94FA0E0A0831F5FF6CFC1
:10106C00199108951A9310E01530A8F40E949C145D
:10107C00BF01E981FA81A5E0B0E00E940217DF010F
:10108C000E949914EA0FFB1FEA57FD4FE491DB0114
:10109C00EC931F5FE9CF0E949C14A0E0A083188101
:1010AC0052C21A93AA81AF3018F4A981A73010F05C
:1010BC00188149C2EA81EA93EA81EA93A7DF10E03A
:1010CC00AA81EFE0EA1B1E1790F40E949914EB5BC7
:1010DC00F94FE081E03049F00E949914EB5BF94F35
:1010EC00E081F0E0FA93EA93BDDF1F5FE9CFACDF5C
:1010FC00188129C2979A08951A930A93EFB7E0932F
:10110C002204F894AA81BB81E4E60E94FC16EA83CF
:10111C00FB83EC81E030C9F40E94A7140E94AC144C
:10112C00E050FC4D6B407F4F7F936F93FF93EF9399
:10113C000E94A714A0E1B0E080E090E00E94DC16D1
:10114C00AF91BF918F919F9118C00E94A7140F016E
:10115C00CB010E94CA160E94CA16E050FC4D6B408F
:10116C007F4F7F936F93FF93EF93F001BC010E942D
:10117C00AC14AF91BF918F919F910E941A17E150BF
:10118C00F040604070408F01ED81E03031F5E0E0DF
:10119C00E0935209E09353090E94B314E0935A0B65
:1011AC00E0935B0BE0E0E0935C0BE0935D0BE09372
:1011BC005E0BE0935F0BEBB9EAB9E0939500EC8121
:1011CC00E03011F0E2E0EBB91093900009B9E8E9D6
:1011DC00EAB9E6E0E09395002AC0E0E0E093560A15
:1011EC00E093570A0E94B914E093600CE093610CF1
:1011FC00E0E0E093620CE093630CE093640CE0930A
:10120C00650CE0939B00E0939A00E0939D00EC81C9
:10121C00E03019F0E2E0E0939B001093980000930B
:10122C009900E8E9E0939A00E6E0E0939D000E94C3
:10123C006A141981088150C00E9412180091540937
:10124C00109155092091580A3091590AED81E030DE
:10125C00E1F4A0915209B0915309F8010E94BF1416
:10126C0090F4F801F070EE5AF74FAC81A0830F5F49
:10127C001F4FEFB7E0932204F89400935409109396
:10128C005509559A01C036DF23C0E13001F5A09114
:10129C00560AB091570AF9010E94BF14B0F4F90133
:1012AC00F070EA5AF64FAC81A0832F5F3F4FEFB737
:1012BC00E0932204F8942093580A3093590AE09151
:1012CC009A00E062E0939A0001C014DF01C0C1CF24
:1012DC000E946A140E94191826960895A881B98153
:1012EC00EC91E03051F0EA81EA93A981BA81ED9159
:1012FC00A983BA83EA93A0DFF1CF25C1E881F981F4
:10130C00E491E03061F0EA81EA93E981FA81319667
:10131C00E983FA833197E491EA938EDFEFCF13C11F
:10132C000E94C5140A930091520910915309E0913F
:10133C005409F0915509E017F10769F0F801F070C4
:10134C00EE5AF74FE081ECB90F5F1F4F0093520933
:10135C001093530907C00E94B314E0935209E09311
:10136C0053095598ACE2B4E00E94CF14099119913D
:10137C005AC0EA93FA93EFB7EA931A930A9300913F
:10138C00560A1091570AF801F070EA5AF64FE081AC
:10139C00E0939C000F5F1F4F0093560A1093570A5F
:1013AC000E94D814E017F10759F40E94B914E09385
:1013BC00560AE093570AE0919A00EF7DE0939A0069
:1013CC0009911991E991EFBFF991E99118950E9452
:1013DC00C5141CB1A0915E0BB0915F0BA030E1E085
:1013EC00BE07E0F4E0915A0BF0915B0BE65AF54F17
:1013FC001083AAE5BBE00E94DD14AEE5BBE00E94C1
:10140C00DD14A0915A0BB0915B0BA030E1E0BE074C
:10141C0029F4E0E0E0935A0BE0935B0BA0E3B4E01B
:10142C000E94CF141991E991EFBFF991E991B9910B
:10143C00A9917991699118950E94E3141A931091CE
:10144C009C00E0912504E03029F5A091640CB0914A
:10145C00650CA030E1E0BE07E0F4E091600CF09187
:10146C00610CE05AF44F1083A0E6BCE00E94DD143E
:10147C00A4E6BCE00E94DD14A091600CB091610C5C
:10148C00A030E1E0BE0729F4E0E0E093600CE093CB
:10149C00610C13C0A091560AB091570A0E94D8143F
:1014AC000E94BF1450F40E94D814F070EE5AF74FFB
:1014BC001083A4E5B9E00E94DD1419910E94EA148E
:1014CC001895E0E0E093FA0CE6E6FCE0E093E60C1D
:1014DC00F093E70CE0E0E093FC0CE093FB0C089538
:1014EC00E0E0EDB9E7E0E7BBEFE0E8BBE1E548C0E1
:1014FC00E0E0EDB9E7E0E7BBBB98E8BBEA81EE0FB3
:10150C00EE0FAE2FE981EE0FEE0FEE0FEA2BEDB9D9
:10151C00E881E23019F4E1E0EEB913C0E43011F4E3
:10152C00E0E00EC0E83019F4709A689A0AC0E03115
:10153C0031F0E03221F4E1E0EEB9E2E001C0E1E0AB
:10154C00EDB9E0E5EDB923960895EC81E03081F436
:10155C00E0E0EDB9EEB9AB81A13041F4EA81EA9358
:10156C00EA81EA93EA81EA93C3DF01C004D001C0A7
:10157C00B7DF25960895E0E0EDB9E8E0E7BBE0E4DD
:10158C00EDB90895AA93EA93EFB7EA931A930A93E5
:10159C0000913D0DE0E1EDB90E94F11411F4979822
:1015AC0001C0979A1FB109911991E991EFBFE99187
:1015BC00A99118950A921A926A937A939A93AA937C
:1015CC00BA93EA93FA93EFB7EA93E4B1F5B1A3E0D7
:1015DC00B0E00E94D416BF01E4B1F5B1DF01E7E041
:1015EC00F0E00E940717DB01AE1BBF0BA093810D2F
:1015FC00B093820DE0E0E6B9E991EFBFF991E99182
:10160C00B991A9919991799169911990099018952D
:10161C000E94F714E0ECE7B9ECE8E6B90895E7B1FD
:10162C00EE75E7B9E7B1EE64E7B9E6B1EC7DE6B982
:10163C00E6B1E46CE6B9E0E0E093850DE093860D4D
:10164C00E4E6F0E0E0938F0DF093900DA0918F0DF8
:10165C00B091900D0E940C18C0F4369A3699FECFBA
:10166C00E4B10E94FD14F0E00E940215E5B1FE2FDA
:10167C00E0E00E94FD140E940215AFE8BDE0ED9180
:10168C00FD913197FE93EE93E1CFEEE8F2E1E0931A
:10169C008D0DF0938E0DA0918D0DB0918E0DA23805
:1016AC00E4E1BE0710F00C94A60BE0918D0DF091C7
:1016BC008E0D0E94FD140E94D4160E94C516EF2FA9
:1016CC00F0E0E093890DF0938A0DA091890DB09113
:1016DC008A0DA331E5E0BE0738F0E091890DF09159
:1016EC008A0DE251F54008C0A091890DB0918A0D88
:1016FC00E2E1F5E0EA1BFB0BE093870DF093880D1C
:10170C00E0918B0DF0918C0DA091870DB091880D0F
:10171C00AE17BF0780F4E091870DF091880DE09330
:10172C008B0DF0938C0DE0918D0DF0918E0DE0935F
:10173C00830DF093840DADE8BDE00E94DD14ABCFBA
:10174C000895E7B7EC7FE7BFE0B7E860E0BFE0E003
:10175C00E2BFE5E0E3BFE0B7E770E9F7E7B7E160C8
:10176C00E7BF789408950E940915A1E9BDE080E0D7
:10177C000E94171511F00C94550CE091910DE07C22
:10178C00E093910DA1E9BDE086E00E94171511F0E0
:10179C000C94550CE091910DF091920DEF73F07F3C
:1017AC00E093910DF093920DA1E9BDE08CE00E94C5
:1017BC002515E831A0E0FA07A0E06A07A0E07A0757
:1017CC0011F00C94550CA1E9BDE00E945517EF7F68
:1017DC00FF706E7F7F7F0E945A17A1E9BDE081E107
:1017EC000E942515E032A0E0FA07A0E06A07A0E00D
:1017FC007A0771F10E942C15EF3199F40E9434157F
:10180C00E43061F00E943415E63041F00E9434154A
:10181C00E93021F00E943415EB3011F40E943D1593
:10182C0026C00E942C15EE3139F40E943415E2309A
:10183C0011F40E943D151BC00E942C15ED31B9F41A
:10184C000E943415E23019F42BD0E03009F40FC0AB
:10185C00A1E9BDE086E1EFE0F0E060E070E00E941D
:10186C00BB17E091930DE17CE260E093930D0E9435
:10187C003415ED30A1F4E091930DF091940DEF73CC
:10188C00FC7FE064E093930DF093940DA1E9BDE02F
:10189C008AE1EFE3F0E060E070E00E94BB1763C107
:1018AC000E944D15E4E6F0E060E070E00E943F1706
:1018BC000E94081849F40E944D15E0E9F1E060E03F
:1018CC0070E00E943F170895E091940DE695E6951F
:1018DC00E370F07060707070089508950E9409159F
:1018EC000E945214B0F4E0917100E03051F0A091DC
:1018FC004306B0914406AD5BBB4FE0917100EC9395
:10190C0004C00E945A14AFEFA083A3E4B6E00E9477
:10191C00DD14E0917100E87FE03031F4E0919B0D33
:10192C00E1600E9458151FC1E83081F4E0919B0DD5
:10193C00EC7021F4E091A40DE16003C0E091A40DE2
:10194C00EE7FE093A40D0E9463150DC1E03179F494
:10195C000E946B1521F4E091A40DE16003C0E091AD
:10196C00A40DEE7FE093A40D0E946315FCC0E8313A
:10197C0079F4E0919B0DEC70E43011F40E94701539
:10198C000E946B1521F40E948115E0937400EBC04A
:10199C00E03231F4E0919B0DE0610E945815E3C0F8
:1019AC00E83201F5E0919B0DEC70E43059F4E091D4
:1019BC00A30DA091A20DEA1719F40E94901502C074
:1019CC000E9470150E946B1561F4E091A80DA09116
:1019DC00A70DEA1711F4E5EE02C00E948115E09301
:1019EC007400C1C0E03341F4E0919B0DE260E093E0
:1019FC009B0D0E949015B7C0E83349F4E0919B0D04
:101A0C00E0620E949915E5EEE0937400ACC0E034FE
:101A1C0049F40E94A11511F4E5E801C0E5ECE0934E
:101A2C007400A1C0E83431F4E0919B0DE0610E9498
:101A3C00581599C0E03581F40E94A815E091A20DCB
:101A4C00EF5FE093A20D0E94A11511F4E5E801C02F
:101A5C00E5ECE093740087C0E83529F40E94A815E2
:101A6C000E94901580C0E83611F0E83731F4E0910F
:101A7C009B0DE06A0E94991502C0E03609F402C081
:101A8C00E03761F4E0919B0DE064E0939B0DE0E0A6
:101A9C00E0939E0DE5E8E093740065C0E03811F02A
:101AAC00E03961F40E94B1150E94BA15E03011F4CE
:101ABC00E5E801C0E5ECE093740055C0E83811F09E
:101ACC00E83989F40E94B115E0919B0DE07811F092
:101ADC00E5EE01C0E5ECE0937400E091970DF09118
:101AEC00980D099540C0E03A21F4E5ECE0937400C0
:101AFC003AC0E03B31F4E0919B0DE06A0E949915ED
:101B0C0002C0E83A49F4E0E0E0939E0D0E94C01553
:101B1C00E5E8E093740027C0E83B71F40E94BA1525
:101B2C000E94C015E0919E0DE03011F4E5E801C073
:101B3C00E1ECE093740017C0E03C11F0E83C99F440
:101B4C00E0919B0DE07839F0E0919B0DEF77E093FD
:101B5C009B0DE5EE01C0E5ECE0937400E091970D70
:101B6C00F091980D0995E991EFBFF991E991B9912F
:101B7C00A9919991899179916991F990199009900C
:101B8C0018950895E2B3E360E2BBE1B3EC7FE1BBEF
:101B9C00EFEFE0937000E3E0E09371000895E2E36F
:101BAC00E0937200E881F981E093970DF093980D22
:101BBC00E5E4E09374000C94B310559A0895E7E7AC
:101BCC00FEE00E94C7150E94CE15E5E4FEE0FA93F4
:101BDC00EA93ECEDF5E0FA93EA93E4EFF1E00E947E
:101BEC00D415EDEDFEE0FA93EA93E2E3F0E0FA931C
:101BFC00EA930E94D415E6E8FEE00E94D815EDE3C6
:101C0C00FEE0FA93EA93E7E3F0E0FA93EA930E949A
:101C1C00CE15E4E4FEE0FA93EA93EAEFF0E0FA93EF
:101C2C00EA930E94D415EAE3FEE0FA93EA93E8E221
:101C3C00FAE00E94DC150E94D415EEE7FEE0FA9360
:101C4C00EA93E8ECF0E0FA93EA93E8EBF1E00E9417
:101C5C00D415ECE0FFE0FA93EA93E4EBF0E0FA93AE
:101C6C00EA93EDE4F1E064C00E94081208950E942A
:101C7C00F11411F4979801C0979A089508950E9451
:101C8C008B140091270410912804E5E4F6E0FA93F4
:101C9C00EA93E7E3FBE0FA93EA93F8010E94CF168C
:101CAC000E94681784E00E94C7132896E1E0EA932B
:101CBC00E2E0EA930E945708E5E4F6E0FA93EA932F
:101CCC00EFE0F3E0FA93EA93EFE0EA930E94121448
:101CDC00E1E0EA93E4E0EA930E9457080E948B0744
:101CEC007EC00E94F11411F4979801C0979A089540
:101CFC00E1E0EA93EA930E9457080E948B0708954B
:101D0C00E6E8F7E0FA93EA930E94F307EEE9F7E0CE
:101D1C000E94C715E0E0F0E00E94D4150E948B07EA
:101D2C00EEE9F7E0FA93EA93E0EDF7E00E94DC15B8
:101D3C00FA93EA930E94B510089525970E947014A7
:101D4C00309799F4E7E1F3E00E94E115FA93EA93F6
:101D5C00FE013296FA93EA930E942614FE010E9429
:101D6C00E115EE7F0E94751404C0E130A0E0FA0783
:101D7C0051F4E8EFFEE00E94D8150E947014ED7F3C
:101D8C000E94751404C0E230A0E0FA0749F4E6EEB4
:101D9C00FEE00E94D8150E947014EB7F0E9475140F
:101DAC000E947014E1600E9475140C949012E091E2
:101DBC004306F0914406309711F00E94590708959C
:101DCC000E948B140030E2E01E0748F4A3E4B4E058
:101DDC00A00FB11FE0E0EC930F5F1F4FF3CF099101
:101DEC00199108951A9310E0103470F40E9499140C
:101DFC00EF5BF24FA0E0A0830E949914E350F34FE5
:101E0C00A0E0A0831F5FF0CF0C94A411D6DE089540
:101E1C00E0919B0DEF7BE0939B0DE0919C0DECB959
:101E2C000895E0E0EBBBEABBE8BBE7E0E7BBE0E032
:101E3C00E5BBE4BBE2BBE1BBE3B9E2B90E94F7143A
:101E4C00E0E0E0936500E09364000895E0E0E0BF1B
:101E5C00E3BFE2BFE1BF0895E0E0EFBDEEBDEDBD35
:101E6C00ECBDE7BDE6BDEBBDEABDE9BDE8BDE09369
:101E7C007900E09378000895E0E0E5BDE4BDE3BDB2
:101E8C000895E0E0E0938B00E0938A00E0938900F2
:101E9C00E0938800E0938100E0938000E09387005A
:101EAC00E0938600E0938500E0938400E093830048
:101EBC00E09382000895E0E0E0936A00EABFE9BF96
:101ECC00E7BFE0937D000895E0E0EBB9E8EDEAB9F7
:101EDC00E6E0E0939500E0E0E0939000E3E3E9B9FD
:101EEC000895E2E0E0939B00E8EDE0939A00E6E0D1
:101EFC00E0939D00E0E0E0939800E8E0E093990027
:101F0C0008951A9310E010E0123018F5AAE3B4E02B
:101F1C000E949914EA0FFB1F0F010E94E6150E9404
:101F2C00EB15E12FA6E3B4E0F0E0EE0FFF1FEA0F94
:101F3C00FB1F0F01A3E0B0E00E949914EE0FFF1FEE
:101F4C00AE0FBF1F0E94D517D001ED93FC931F5FFE
:101F5C00DBCF10E01230F0F4ACE3B4E00E94991443
:101F6C00EA0FFB1F0F01A7E0B0E0EE27A10FBE1F89
:101F7C000E94EB15A0E4B4E00E949914EA0FFB1F39
:101F8C000F01ABE0B0E0EE27A10FBE1F0E94EB15D6
:101F9C001F5FE0CF0C94A4111A9310E010E01230E4
:101FAC0038F40E94E615E0E00E94ED171F5FF7CFB2
:101FBC00A3E0B0E0E0E4F2E00E94E517A5E0B0E0B9
:101FCC00E0E2F1E00E94E51710E0123088F4A7E09F
:101FDC00B0E0EE27A10FBE1F0E94ED17ABE0B0E002
:101FEC00EE27A10FBE1FE0E10E94ED171F5FEDCFA2
:101FFC000C94A41116DF0CDB12DB28DF2DDF3CDF89
:10200C0040DF59DF61DF6DDF0E94760A9ADB0895AD
:10201C00A0E0B0E00E94D917E23431F0BDDFA0E0BF
:10202C00B0E0E2E40E94ED176CDFE0E0EA93E091AF
:10203C003A04EA93E0913604F09137040E94F015CB
:10204C00E1E0EA93E0913B04EA93E0913804F091EB
:10205C0039040E94F015E0E0EA93E1E0EA93E0E451
:10206C00F2E00E94F015E0E0EA93E1E0EA93EA93F3
:10207C00E0E0EA93E0E1EA930E94AB0A0E94B10728
:10208C0081DDEEE0FFE0FA93EA9389DDEEB1EFB18A
:10209C000E94670A49D0E0E0E0934306E0934406CF
:1020AC000E945A14A1E00E94611408958F9A979A85
:1020BC00EFE0F0E00E9490148F9897989BDFA8DFD8
:1020CC008F9A8E9A8D9AE1E00E94F415E0E00E94BE
:1020DC00F415E5EEFDE00E94D8150E944F1284D055
:1020EC0002D0FDCFFFCF29DE08950E940915A7E28B
:1020FC00B4E00E94CF140E948111E991EFBFF991D5
:10210C00E991B991A9919991899179916991F990F4
:10211C001990099018950E94E314A4E3B4E00E946E
:10212C00DD140E94EA1418951A9310E0153151F041
:10213C000E94FB150E9401160E9407160E940D16A4
:10214C001F5FF4CFFBC096980895E881F9810E9437
:10215C00DC150E94DC150E94D415229608951A9362
:10216C000A9310E000E0EFB7E7FF02C0F89401E03B
:10217C0010E0E0914204E11799F10E94FB15DF0198
:10218C000E945117DF01EE81FF81EA17FB0741F432
:10219C000E9407160E941216003009F0789420C095
:1021AC000E94FB15DF010E945117DF01E9EAF0E103
:1021BC00EA17FB0799F40E94FB15AE81BF81A0833F
:1021CC00B1830E9407160E941216E0914204EF5F41
:1021DC00E0934204003009F0789402C01F5FC9CF2D
:1021EC001981088128960895FF922A970E94121847
:1021FC00E1E0FE2E10E010E0E0914204E11711F452
:10220C000C947A110E942716A081A13011F00C9425
:10221C007811969A0E94FB1520813181AEE01A9FAD
:10222C00F0010E942D16309731F43A932A9388D0FE
:10223C00E894F0F812C0AEE01A9FF001DF01E5550A
:10224C00F24FBF01A355B24F0E945117DB01ED9322
:10225C00FC930E942716A0E0A083F894F0FE0FC018
:10226C00AEE01A9FF001E055F24FA0912704B09117
:10227C0028048091290490912A040E946317789471
:10228C00E0912704E0932B047894F9010995F0FE72
:10229C0028C0A0912B04E0912704EA1BE0932B04A7
:1022AC00E130B8F0E0912B04F0E0FA93EA93FE01F0
:1022BC003696FA93EA930E942614FE013496FA930A
:1022CC00EA930E944D07E3E0F4E0FA93EA930E944C
:1022DC004D07AEE01A9FF001EC54F24FA0912B0485
:1022EC00A08304C01F5F88CF78942DDF0E9419183B
:1022FC002E96FF9008951A9310E0E0914204E11796
:10230C00E9F00E942716E081E030B1F40E94071634
:10231C00DF010E945117DF010E940C1848F40E9443
:10232C000716DF01ED91FD913197FE93EE9304C0FA
:10233C000E942716A1E0A0831F5FDFCF199108959B
:10234C00FF921A93FF2410E0EFB7E7FF03C0F89455
:10235C006894F0F810E0E09142041E1710F00C9411
:10236C0004120E94FB15DF010E945117DF01E98165
:10237C00FA81EA17FB0711F00C940212E091420467
:10238C00E150E117D1F00E94FB15BF010E943316FA
:10239C000E943C160E9433160E9401160E944116A0
:1023AC00E555F24F0E940D160E944116E355F24F6F
:1023BC000E940D160E94411612C00E94FB150E942D
:1023CC0001160E9407160E940D16AEE01A9FF0012E
:1023DC00E355F24F0E940D16AEE01A9FF001E15545
:1023EC00F24FA3E0A083E0914204E150E093420459
:1023FC00F0FE01C0789402C01F5FADCF1881239608
:10240C00FF900895FF922E970E941218FF24EFB7A9
:10241C00E7FF03C0F8946894F0F8E0E01E2F3E2F1D
:10242C00E0914204E3500E2F01175CF1212F0217AB
:10243C007CF00E944816E617F70740F40E945416E9
:10244C000E945A160E9460160E9469162F5FEFCFE9
:10245C00E32FE1500E2F202F21177CF00E944816FD
:10246C00E617F70740F40E9454160E945A160E9471
:10247C0060160E9469162150EFCFE32FEF5F1E2FDD
:10248C00D3CFF0FE01C078940E9419186296FF9089
:10249C000895F894ECE0E5BDE0E0E4BDECE0E3BDCC
:1024AC00E0E8E7BF789408951A930A93AA81BB8158
:1024BC0012960E945117309729F1AA81BB8114966C
:1024CC000E9451178F01309761F00230E0E01E0737
:1024DC00C0F0F80131978F01AA81BB811496ED935E
:1024EC00FC93AA81BB8112960E94DD143197AC81BA
:1024FC00A083AA81BB810E945117FF2312F00E9476
:10250C00DD1406C0AA81BB81EFEFFFEFED93FC93C6
:10251C00198108812596089526970E94101810E0BD
:10252C00AC85BD85E0E0F0E0ED93FC93EA89FB8996
:10253C003196EA8BFB8B3197E4912E2FE03011F41E
:10254C000C94BF13E12FE03039F4253211F411E073
:10255C0002C00E9478160CC1E130A9F4253219F49E
:10256C000E94781604C112E040E000E02D3211F414
:10257C0001E0FEC02B3211F44BE2FAC0203211F410
:10258C0040E2F6C002C0E23039F450E013E02033F0
:10259C0011F40068EDC004C0E33011F00C94BE13CC
:1025AC00203310F02A3308F007C0AAE05A9F502DB0
:1025BC00E22FE0535E0FDCC0E22FE33649F40E94B9
:1025CC008116E889F989A481AA930E948716CFC045
:1025DC00E33741F40E9481160E948F160E94FD136E
:1025EC001E2F0AC0E03761F40E9481160E948F16DC
:1025FC000E9407141E2F086002600F7730E035C070
:10260C00E43611F0E93611F4046002C0E53731F418
:10261C00EEE7F9E0EE83FF8315E00DC0E83511F429
:10262C00086004C0E83711F00C94BD13E8E8F9E039
:10263C00EE83FF8314E002FF14C00E9481160E94F7
:10264C009916AB85AA233AF4EA85FB850E94B81645
:10265C00EA87FB874DE2403011F01F5F01C00B7F12
:10266C0004C00E9481160E94991600FD11C0151716
:10267C0078F407FF08C002FF04C00B7F242F115011
:10268C0001C020E301C020E20E9478165150EFCF28
:10269C00312F01FF17C03030A1F003FF06C0EE81CF
:1026AC00FF812591EE83FF8305C0AE81BF812D9103
:1026BC00AE83BF830E947816503009F051503150D0
:1026CC00EACF4BC020E3EE81FF810E945F17E887C1
:1026DC00F987EE81FF813296EE83FF83E885F985D9
:1026EC00AA85BB85AE17BF0750F02F5FA885B985AB
:1026FC00EA85FB85EA1BFB0BEA87FB87EFCF2A33C6
:10270C0028F003FF02C0295F01C0295D04FD1AC037
:10271C00213320F4A885B985119709F409C0531702
:10272C0010F000FF01C013C020E207FF0BC020E334
:10273C00006102FF07C00B7F4A930E94871650303E
:10274C0009F051500E947816503009F05150315018
:10275C00A885B985129708F0B5CF00FF08C0503096
:10276C0031F05150E0E2EA930E948716F8CF10E066
:10277C00DDCEAC85BD850E9451170E94171864965A
:10278C000895FF92F82E26970E9412180E94A11607
:10279C00309719F4EFEFFFEF25C0DE0116960E947B
:1027AC00B4168D010E94A116EE83FF83E0E0E8874A
:1027BC00E987DE011A960E94B4160E945117FA930B
:1027CC00EA931A930A93EAE5F2E1FA93EA93FE018B
:1027DC003A96FA93EA93A0DE9F01AE81BF81E0E0C6
:1027EC00EC93F9010E9419182A96FF900895A9916B
:1027FC00B991EE27FF276D91662311F03196FBCF2F
:10280C000895AA27BB27E991F9910590002011F0B2
:10281C001196FBCFFD0108957991E991F991A99158
:10282C00B991CD01772351F07A9561916D9366231F
:10283C00C9F7772319F07A956D93FBCFFC010895B6
:10284C00A991B991E991F99130962AF4E095F09516
:10285C0031966DE26D93E89480E197E20DD088EEAD
:10286C0093E00AD084E6992707D08AE005D06E2F32
:10287C0010D066276C9308956627E817F90720F0A7
:10288C006395E81BF90BC9F7662311F416F008954C
:10289C006894605D6D930895A0914306B0914406D1
:1028AC00A030E2E0BE070895E0914306F0914406A3
:1028BC00ED5BFB4F0895A083A3E4B6E0ED91FD9191
:1028CC003196FE93EE930895EFB7A0912204EA2B74
:1028DC00EFBF0895E0912304F09124040895E09350
:1028EC002304F093240408951A930A93E0E8EA93DE
:1028FC00E0E0EA930E947007E0E4EA93E0E0EA93F8
:10290C000E94700700E010E008951A930A9300E00B
:10291C0010E00895FA93EA930C94A816EA93E0E079
:10292C00EA930C947007E12FF0E00895A0E5B8E06D
:10293C00ED91FD913196FE93EE933197E85AF94F54
:10294C000895EA81FB81662777270895A8E0B0E017
:10295C0080E090E00E94DC160895E0E0E0935409DA
:10296C00E09355090895E0E0E093580AE093590A82
:10297C000895EA1BFB0BE130A1E0FA0708956A9376
:10298C007A93AA93BA93EA93FA93EFB7EA931A93CA
:10299C0008950E945517EF5FFF4F6F4F7F4F0E94B6
:1029AC005A170895E091580AF091590A0895ED913B
:1029BC00FD913196FE93EE930895AA93BA93EA9300
:1029CC00FA93EFB7EA930895E991EFBFF991E99182
:1029DC00B991A9910895A0E09799A1E0E1E0EA27C7
:1029EC000895E0E0E0936200E09361000895A09107
:1029FC00850DB091860D0895EA0FFB1FE093850DB0
:102A0C00F093860D08950A921A92FA926A937A9329
:102A1C008A939A93AA93BA93EA93FA93EFB7EA93A9
:102A2C000895EFE3F0E060E070E00E94A917EC334A
:102A3C00A0E0FA07A0E06A07A0E07A070895EFE1AA
:102A4C00F0E060E070E00E94A9170895E091930D0A
:102A5C00F091940DF695E795EF710895A091930D73
:102A6C00B091940DE6E00E94BC16EF700895A1E9B8
:102A7C00BDE086E1EFE0F0E060E070E00E94BB17A3
:102A8C00E091930DE17CE260E093930D0895E09169
:102A9C00940DE695E695EF73F07060707070DF0141
:102AAC00CB010895E0939B0DE5EDE0937400E0916C
:102ABC00990DF0919A0D09950895E091A40DE0936C
:102ACC007300E5ECE09374000895E0919B0DEC70BD
:102ADC00E8300895E091A20DF0E0E156F24FE0816C
:102AEC00E0937300E091A20DEF5FE093A20DE5EC93
:102AFC00E09374000895E091A70DF0E0EB55F24FD0
:102B0C00E081E0937300E091A70DEF5FE093A70DD8
:102B1C00E5EC0895E5EDE0937400E091950DF091EE
:102B2C00960D09950895E0939B0DE0E0E093A20DBE
:102B3C00E093A70D0895A091A20DAF5FE091A30DB6
:102B4C00EA170895A091A20DB0E0A156B24FE09102
:102B5C007300EC930895A0919E0DB0E0A456B24F73
:102B6C00E0917300EC930895E0919E0DEF5FE0937C
:102B7C009E0D0895F0E0E356F24FE081E093730070
:102B8C000895FA93EA93E8EEF3E0FA93EA93089542
:102B9C00EAE0F0E0FA93EA930C94B510FA93EA9316
:102BAC000C94B510FA93EA930C94AB10FA93EA9345
:102BBC00E0E0F0E00895FA93EA930E944D078ACE84
:102BCC00A12FB0E0AF5FBF4F08950E94D917D0017D
:102BDC00EC930895FA93EA930C948208EA93E0EF4D
:102BEC00F0E0FA93EA930C948409AEE01A9FF0019A
:102BFC00E755F24F0895DF01E9EAF0E1ED93FC931C
:102C0C000895AEE01A9FF001E555F24F0895A0E04B
:102C1C00B0E0A083B1830895AC81BD81A083B18362
:102C2C00AEE01A9FF001E355F24FAA81BB81A0835D
:102C3C00B183AEE01A9FF001E155F24FA0E0A08302
:102C4C000895AEE01A9FF001E155F24F0895E35557
:102C5C00F24FDF010E9451170895E0914204E150B8
:102C6C00AEE0EA9FF001E755F24F0895DB018EE0EC
:102C7C000E94FE170895E0914204E150AEE0EA9FF5
:102C8C00F0010895AEE02A9FF001E355F24F608108
:102C9C007181E22FEF5FEA9FF001D9CFAEE02A9F5E
:102CAC00F001E755F24F0895DE0114968EE00E9474
:102CBC00FE17F4CFBF01E22FEF5FAEE0EA9FF00109
:102CCC00E755F24FD3CFE22FEF5FAEE0EA9FF00172
:102CDC00E755F24FDF01FE0134968EE00E94FE179D
:102CEC00322F08952A93ED85FE85FA93EA93E989AC
:102CFC00FA8909950895E889F9893497E88BF98B55
:102D0C000895ED85FE85FA93EA93E989FA89099588
:102D1C000895A889B98914960E945117EE83FF83F0
:102D2C00FA93EA930895A889B98914960E945117C9
:102D3C00EA87FB870895DE011C960E94B4160E9458
:102D4C0051170895E991F991309639F080EA9FE096
:102D5C000197F1F7A8953197C9F708950024AF0DA5
:102D6C00B01D0895F195E195F0400895EE230E2ED7
:102D7C00FD0121F0F695E7950A94E1F70895F69593
:102D8C00E795F695E7950895EE0FFF1F661F771FE1
:102D9C0008956F2F660F660B762F0895FA9FF02D0E
:102DAC00EB9FF00DEA9FE02DF10D08957A9F702DA9
:102DBC006B9F700DF89F700DE99F700D6A9F602DD1
:102DCC00710DFB9F600D711DE89F600D711D8827B3
:102DDC00FA9FF02D610D781FEB9FF00D611D781F90
:102DEC00EA9FE02DF10D681F781F08956E2F6A9FE2
:102DFC00F0016B9FF00D089540D0D0DF0EF4B2DFE0
:102E0C0008950024112490E1AA0FBB1F001C111C73
:102E1C000E1A1F0A18F40E0E1F1E01C0A1609A95FF
:102E2C0099F7FD01D00108953F934F935F930024D0
:102E3C0011244427552730E2AA0FBB1F881F991F66
:102E4C00001C111C441F551F0E1A1F0A460B570B52
:102E5C0028F40E0E1F1E461F571F01C0A1603A9585
:102E6C0059F7FD01BC01D001CA015F914F913F910F
:102E7C000895DADFFD01BC010895E894F7FF02C064
:102E8C0071DF6894B7FF06C0A095B095119600F855
:102E9C00039400FA0895ED91FC9111970895ED912A
:102EAC00FD916D917D9108957E936E93FE93EE93BB
:102EBC0008950590F491E02D0895A083B183828349
:102ECC00938308957A936A93FA93EA930895082E5C
:102EDC008F019B01ED91FD916D917C91102C112036
:102EEC0031F076956795F795E7951A94D1F7E0232D
:102EFC00F123622373230895E023F12362237323C8
:102F0C00AF01CB01002051F0000F111F221F331F06
:102F1C00440F551F881F991F0A94B1F700951095FF
:102F2C00209530951C900E90022213223E912E91EA
:102F3C0020233123242B352B082A192A2D933D933A
:102F4C000D921C9208950F931F932F933F934F93C1
:102F5C005F93BDDF3196611D711DCEDF5F914F9187
:102F6C003F912F911F910F9108950F931F932F93C2
:102F7C003F934F935F93ABDFEF93FF936F937F93ED
:102F8C003196611D711DB8DF7F916F91FF91EF91AB
:102F9C005F914F913F912F911F910F910895119631
:102FAC0002D0FE2F1197E199FECFFF93FFB7F89453
:102FBC00AEBBBFBBE09AEDB3FFBFFF91089507D046
:102FCC001196EF93EF2F03D0EF9111970895E19B9A
:102FDC0002C0A895FCCF9FB7F894AEBBBFBBE09ADC
:102FEC008DB3E81719F0EDBBE29AE19A9FBF0895F3
:102FFC009927EF93FF9361916D930197E1F7FF91FF
:10300C00EF910895309760407040089500240A169F
:10301C000B0608955A934A933A932A931A930A9358
:10302C0008955D814C813B812A8119810881089525
:00000001FF
