:0A0000000C9428060C9400000C94E8
:10000A0000000C9400000C9400000C9400000C9466
:10001A0000000C9400000C9400000C9471150C94D0
:10002A0000000C9400000C9400000C9400000C9446
:10003A0000000C9400000C94BF0C0C94C40B0C949C
:10004A00640A0C94A3090C9400000C94DF0B0C9422
:10005A0000000C9400000C9400000C9400000C9416
:10006A0000000C9400000C9400000C9400000C9406
:10007A00990A0C94CF090C9400000C947A0D0C94F4
:10008A00000048656C700000536574005561727415
:10009A0000004D6F6465000053706565640053701D
:1000AA006900507265736300707000004932630022
:1000BA00570072737400626F6F74000064626700A5
:1000CA0020450D00206F6B0D0000204C61726765A2
:1000DA005F76616C75650D002057726F6E675F768B
:1000EA00616C75650D00205300000D3E3E3E2048B0
:1000FA00454C50203C3C3C0D20436F6D6D616E6455
:10010A00733A0D000D20536574202D496E74657283
:10011A00666163655F6E616D652D202D6E756D621A
:10012A0065722D204D6F6465202D76616C7565288A
:10013A006F7074696F6E616C292D205370656564E8
:10014A00202D76616C7565286F7074696F6E616CAD
:10015A00292D00000D20572020202D496E7465722C
:10016A00666163655F6E616D652D202D6E756D62CA
:10017A0065722D202D646174612D00000D20476584
:10018A0074202D656E746974792D00000D20204944
:10019A006E746572666163657320617661696C610C
:1001AA00626C653A0D2020205561727428302C311A
:1001BA00290D20202053706928302D486172642C43
:1001CA0020312D536F6674290D000D3E3E3E205599
:1001DA004152545F48454C50203C3C3C0D204D6FE9
:1001EA0064653A20302D204E4F524D414C3B203110
:1001FA002D20444F55424C45442073706565640078
:10020A000D2053706565643A20626175642F313040
:10021A0030202845783A203537362069732035371B
:10022A00363030290D000D3E3E3E205350495F487E
:10023A00454C50203C3C3C0D204D6F64653A2030C3
:10024A002D20534C4156453B20312D204D415354CE
:10025A0045520A000D205072657363616C6C6572B9
:10026A003A20706F77206F662032202845783A202E
:10027A005072657363203136290D000000000000BA
:10028A000000005F00000007000700147F147F14BD
:10029A00242A7F2A12231308646236495522500001
:1002AA0005030000001C2241000041221C00140822
:1002BA003E081408083E08080050300000080808E4
:1002CA000808006060000020100804020000000016
:1002DA000000005F00000007000700147F147F146D
:1002EA00242A7F2A122313086462364955225000B1
:1002FA0005030000001C2241000041221C001408D2
:10030A003E081408083E0808005030000008080893
:10031A0008080060600000201008040200000000C5
:10032A000000005F00000007000700147F147F141C
:10033A00242A7F2A12231308646236495522500060
:10034A0005030000001C2241000041221C00140881
:10035A003E081408083E0808005030000008080843
:10036A000808006060000020100804023E51494558
:10037A003E00427F400042615149462141454B318E
:10038A001814127F1027454545393C4A494930011E
:10039A00710905033649494936064949291E003675
:1003AA0036000000563600000814224100141414C6
:1003BA0014140041221408020151090632497941F4
:1003CA003E7E1111117E7F494949363E4141412203
:1003DA007F4141221C7F494949417F090909013E60
:1003EA004149497A7F0808087F00417F410020403F
:1003FA00413F017F081422417F404040407F020C68
:10040A00027F7F0408107F3E4141413E7F0909096E
:10041A00063E4151215E7F0919294646494949311B
:10042A0001017F01013F4040403F1F2040201F3F04
:10043A004038403F63140814630708700807615185
:10044A00494543007F414100020408102000414110
:10045A007F000402010204404040404000010204BF
:10046A000020545454787F48444438384444442043
:10047A00384444487F3854545418087E0901020C01
:10048A005252523E7F0804047800447D40002040C6
:10049A00443D007F1028440000417F40007C04183E
:1004AA0004787C0804047838444444387C141414CE
:1004BA0008081414187C7C0804040848545454206E
:1004CA00043F4440203C4040207C1C2040201C3CEF
:1004DA004030403C44281028440C5050503C44645E
:1004EA00544C44000836410000007F0000004136A9
:1004FA0008001008081008784641467800000000F5
:10050A000000005F00000007000700147F147F143A
:10051A00242A7F2A1223130864623649552250007E
:10052A0005030000001C2241000041221C0014089F
:10053A003E081408083E0808005030000008080861
:10054A000808006060000020100804020000000093
:10055A000000005F00000007000700147F147F14EA
:10056A00242A7F2A1223130864623649552250002E
:10057A0005030000001C2241000041221C0014084F
:10058A003E081408083E0808005030000008080811
:10059A000808006060000020100804020000000043
:1005AA000000005F00000007000700147F147F149A
:1005BA00242A7F2A122313086462364955225000DE
:1005CA0005030000001C2241000041221C001408FF
:1005DA003E081408083E08080050300000080808C1
:1005EA000808006060000020100804023E514945D6
:1005FA003E00427F400042615149462141454B310C
:10060A001814127F1027454545393C4A494930019B
:10061A00710905033649494936064949291E0036F2
:10062A003600000056360000081422410014141443
:10063A001414004122140802015109067E111111F5
:10064A007E7F494949317F494949367F0101010382
:10065A00702927217F7F4949494177087F087741D7
:10066A00414149767F1008047F7F1009047F7F0883
:10067A0014224120413F017F7F020C027F7F08083C
:10068A00087F3E4141413E7F0101017F7F090909FF
:10069A00063E4141412201017F0101472810080716
:1006AA001E217F211E63140814633F2020205F0748
:1006BA000808087F7F407F407F3F203F205F017FFF
:1006CA004848307F4830007F007F484830414141E8
:1006DA00493E7F083E413E462919097F2054545419
:1006EA00783C4A4A49317C545428007C0404040C5E
:1006FA00722A26227E38545454186C107C106C448A
:10070A00445454387C2010087C7C2112097C7C10CB
:10071A0028440020443C047C7C0810087C7C10108F
:10072A00107C38444444387C0404047C7C1414143B
:10073A0008384444442004047C040444281008046F
:10074A0008147E140844281028443C40407C400C7D
:10075A001010107C7C407C407C3C203C207C047C3B
:10076A005050207C5020007C007C5050202844446B
:10077A0054387C10384438485434147C0000000043
:10078A00000000000000000080C0E0F0F8F8FCFC67
:10079A00FEFEFFFFFEFCF8F0E0C080000000000053
:1007AA00000000000000000000000000000000003F
:1007BA000080C0E0F0F8FCFEFFFFFEFEFEFCF8F849
:1007CA00F0E0C0800000000000000000000000000F
:1007DA000000000000000000E0F8FEFFFFFFFFFF3E
:1007EA00FFFFFFFFFFFFFFFFFFFFFFFFFFFFFFFF0F
:1007FA00FEFCF8F0E040000000000000000040E0CD
:10080A00F0F8FCFEFFFFFFFFFFFFFFFFFFFFFFFF08
:10081A00FFFFFFFFFFFFFFFFFFFEF8E00000000001
:10082A0000000000000000000000787F7F7F7F7FCB
:10083A007F7F7F7F7F7F7F7F7F7F7F7F7F7F7F7FBE
:10084A007F7F7F7F0F0301F0F8FCFCFEFEFEFEFEB9
:10085A00FEFCFCF8F001030F7F7F7F7F7F7F7F7FA5
:10086A007F7F7F7F7F7F7F7F7F7F7F7F7F7F7F7F8E
:10087A007F78000000000000000000000000000077
:10088A00000000000000000000000000000000005E
:10089A0000000000000000000080C0E1E3E7C7CFCD
:1008AA008F8F8F8FCFC7E7E3E1C080000000000081
:1008BA00000000000000000000000000000000002E
:1008CA00000000000000000000000000000000001E
:1008DA00000000000000000000000000000000000E
:1008EA00000000000080C0E0F0F8FCFEFFFFFFFF00
:1008FA00FFFFFFFFFFFFFFFFFFFFFFFFFFFFFFFFFE
:10090A00FEFCF8F0E0C080000000000000000000DB
:10091A0000000000000000000000000000000000CD
:10092A0000000000000000000000000000000000BD
:10093A000000000000000C0E1F1F1F3F3F3F3F7FBB
:10094A007F7FFFFFFFFFFFFFFFFFFFFFFFFFFFFFAD
:10095A00FFFF7F7F7F3F3F3F3F1F1F1F0E0C00009F
:10096A00000000000000000000000000000000007D
:10097A00000000001027E80364000A0001000010CC
:10098A000001100001000000FF00C800CA0ECA0ED4
:10099A00CA0E030302460000000000000000706F48
:1009AA0072660D0A0065787472660D0A00626F72CB
:1009BA00660D0A00776472660D0A004A5452460DA3
:1009CA000A000D3C52414D3E000D554152545F53B1
:1009DA00455454494E47530D005541525420000D79
:1009EA00204D6F646520000D2053706565642000FA
:1009FA000D2D2D2D2D2D2D2D2D0D000D5350495F13
:100A0A0053455454494E47530D0053504920000D45
:100A1A00205072657363616C6C657220000D3C45F1
:100A2A004550524F4D3E000D42757465735F5258E2
:100A3A0020000D42757465735F5458200076726504
:100A4A00663D25642000643D2564200064656C745D
:100A5A00613D25642000766F6C743D256420000D8D
:100A6A0020536574000D2055617274000D204E7577
:100A7A006D000D204D6F6465000D4D204558495499
:100A8A00000D20000D2055736172745F696E6974E0
:100A9A00000D20537069000D53204E756D000D53E3
:100AAA00204D6F64652D000D532050726573632DC0
:100ABA00000D5320506861506F6C2D000D53205368
:100ACA007069496E6974000D2057000D2055204445
:100ADA003E545820000D205320443E545820000D07
:100AEA00205320443C525820000D204932432044D0
:100AFA003E545820000D2049324320443C5258208D
:100B0A0000730045000001002D4E414E00494E463B
:100B1A0000000100020090090100010F940902007F
:100B2A000B0F960902000D0F980902000F0F9A0980
:100B3A0007000002CC0910000702D30906001702B9
:100B4A00E30908001D02E90909002502F1090B0061
:100B5A002E02FA090F003902050A05004802140A92
:100B6A0008004D02E9090E005502190A0B0063023A
:100B7A00FA090A006E02270A10007802D309060051
:100B8A008802E30908008E02E90909009602F109C0
:100B9A000B009F02FA090F00AA02050A0500B90212
:100BAA00140A0800BE02E9090E00C602190A0B005F
:100BBA00D402FA090B00DF02310A0B00EA023C0AEE
:100BCA000600F502690A0700FB026F0A0600020323
:100BDA00760A070008037C0A08000F03830A030049
:100BEA0017038B0A08001A03830A0D0022038E0AD0
:100BFA0006002F039B0A07003503A10A09003C03DC
:100C0A00A80A0A004503B10A0B004F03BB0A0B00EE
:100C1A005A03C60A04006503D10A0A006903D50A01
:100C2A000A007303DF0A0A007D03E90A0C0087033E
:100C3A00F30A0C009303FF0A0C0003009C0901004D
:100C4A005F0F100B0000F894EE27ECBBF1E0F5BF44
:100C5A00E5BFE0936C00F8E1F1BDE1BD8DE0A2E0F3
:100C6A00BB27ED938A95E9F780E090E1A0E0B1E037
:100C7A00ED930197E9F7ECE1FBE0859195910097F7
:100C8A0061F0A591B59105901590BF01F00105900D
:100C9A000D920197E1F7FB01F0CF8BBFEFEFEDBFAC
:100CAA00E0E1EEBFC0E0D2E00C944315EFB7E09369
:100CBA00A803F8940E94621828F40E946A18A8816E
:100CCA000E9471180E947A18ABC4E881F981E491F4
:100CDA00E03051F0E881F9813196E883F983319760
:100CEA00E491EA93E3DFF1CFABC1A881B981EC913A
:100CFA00E03031F0ED91A883B983EA93D7DFF5CFDD
:100D0A009FC10E943E160E946A18AFEF0E94711896
:100D1A00E0E0EA93E2ECF3E00E9480180E943316C6
:100D2A00E7EEF0E1FA93EA93EAE0F0E00E94841831
:100D3A00E0E0E093C205E093C30508951A930A938D
:100D4A0000E8D998EA81E03011F0D89A01C0D89821
:100D5A0010E0183060F4E02FAB81EA2311F0DB9A3F
:100D6A0001C0DB980695DC9ADC981F5FF2CFD99A0E
:100D7A0090C40E948818083FE1E01E0754F40E94BC
:100D8A009918EC91EA93E1E0EA93D8DF0F5F1F4FDD
:100D9A00F2CF0EC00E949E18083FE1E01E073CF405
:100DAA000E949918E0E0EC930F5F1F4FF5CFE1DF47
:100DBA00099119910895DA9AD49AD39AD19AD09A24
:100DCA00D29ADC98E1E0F0E00E94A318DA98E4E114
:100DDA00F0E00E94A318DA9AD99AE1E20E94A718D1
:100DEA00E42DEC5F0E94A718E32DE05F0E94A7188C
:100DFA00E62DE0580E94A718A0E020FCA1E0EA2F07
:100E0A00EE0FEE0FEE0FE0620E2EA0E021FCA1E045
:100E1A00EA2FEE0FEE0FE0290E94A718E52DEE0F3C
:100E2A00E529E570E8600E94A718B4DF08950E94DA
:100E3A008818083FE1E01E0778F4F801ED52FA4FEE
:100E4A000F01F801AA81BB81EA0FFB1FE491D001CF
:100E5A00EC930F5F1F4FEDCF1CC40E94691DAE813A
:100E6A00A535B8F5AD81A133A0F5B0E0E8E0F0E032
:100E7A000E94711CA4E5B0E00E94591CDF01EE81BA
:100E8A000E94AC188F01ED81E695E695E695EE0F86
:100E9A00EE0FEE0FAD81AE1B3A2F0E9499182C91DE
:100EAA00EC81E03029F40E94B018E0952E230DC0A1
:100EBA00AC81A13021F40E94B0182E2B06C0AC815F
:100ECA00A23019F40E94B0182E27F801ED52FA4FF9
:100EDA0020830E94701D279608952497E0E0E883F6
:100EEA00E983EA83EB830E94671D00E010E020E0BB
:100EFA0030E040E050E0A989BA89A535E0E0BE07B4
:100F0A0074F4AD85BE85A535E0E0BE0744F4AF852F
:100F1A00B889D19724F4AB85BC85D1970CF072C0FF
:100F2A00AF85B889EB85FC85EA1BFB0B8F01A98984
:100F3A00BA89ED85FE85EA1BFB0B9F0111233AF462
:100F4A00F8010E94FF1B8F01EFEFFFEF02C0E1E003
:100F5A00F0E0E887F98733233AF4F9010E94FF1B8E
:100F6A009F014FEF5FEF02C041E050E0000F111FF9
:100F7A00220F331F0E94B5180217130714F5F9013F
:100F8A00F595E795DF01F801EA1BFB0BEE83FF837A
:100F9A00ED85FE85A989BA89EA17FB0789F0AF8131
:100FAA00AA2342F00E94BD18EE81FF81E21BF30BD7
:100FBA00EE83FF830E94C618F8010E94CE18E8CF7C
:100FCA0021C0F801F595E795DF01F901EA1BFB0B52
:100FDA00EE83FF83EB85FC85AF85B889EA17FB07AB
:100FEA0089F0AF81AA2342F00E94C618EE81FF81E0
:100FFA00E01BF10BEE83FF830E94BD18F9010E94EA
:10100A00CE18E8CF0E946E1D63960895A981AF306D
:10101A0018F4A881A73008F013C0E881F0E03197EE
:10102A00A4E5B0E00E94591CBF01E981F0E03197C4
:10103A00A6E0B0E00E94591CE60FF71F7E2E8F2E05
:10104A00229608951A9310E01E3030F40E94D518A3
:10105A00A0E0A0831F5FF8CF199108951A9310E0BA
:10106A001530A0F40E94DA18BF01E981FA81A5E0DF
:10107A00B0E00E94591CDF01E12F0E94AC18EA5728
:10108A00FD4FE491DB01EC931F5FEACF0E94DA186F
:10109A00A0E0A083188134C31A93AA81AF3018F450
:1010AA00A981A73010F018812BC3EA81EA93EA815B
:1010BA00EA93ACDF10E0AA81EFE0EA1B1E1768F49E
:1010CA000E94D518E081E03031F00E94D518E08105
:1010DA000E94E318C3DF1F5FEECFB4DF188110C38D
:1010EA00969A08951A930A93EFB7E093A803F8948F
:1010FA00AA81BB81E4E60E94531CEA83FB83EC814C
:10110A00E030C9F40E94E7180E94EC18E050FC4D48
:10111A006B407F4F7F936F93FF93EF930E94E71883
:10112A00A0E1B0E080E090E00E94331CAF91BF9153
:10113A008F919F9118C00E94E7180F01CB010E945E
:10114A00261C0E94261CE050FC4D6B407F4F7F936B
:10115A006F93FF93EF93F001BC010E94EC18AF91DB
:10116A00BF918F919F910E94761CE150F0406040A0
:10117A0070408F01ED81E03009F50E94F318E0E03C
:10118A00E093D30CE093D40CE093D50CE093D60C07
:10119A00E093D70CE093D80CEBB9EAB9E093950049
:1011AA00EC81E03011F0E2E0EBB91093900009B95C
:1011BA00E8E9EAB9E6E0E093950025C00E94FD1847
:1011CA00E0E0E093D90DE093DA0DE093DB0DE093D4
:1011DA00DC0DE093DD0DE093DE0DE0939B00E093E0
:1011EA009A00E0939D00EC81E03019F0E2E0E09390
:1011FA009B001093980000939900E8E9E0939A0005
:10120A00E6E0E0939D000E947A181981088172C075
:10121A00EFB7E093A803F894E0E0E093AE03E0931D
:10122A00AF03E093B003E093B103E881E03019F42F
:10123A000E94F31806C0E13019F40E94FD1801C09B
:10124A00F7CF0E947A18ECC10E94691D0091CD095E
:10125A001091CE092091D10B3091D20BED81E03063
:10126A00F9F4A091CB09B091CC09F801EA1BFB0B68
:10127A00E130A2E0FA0790F4F801F170E553F84F73
:10128A00AC81A0830F5F1F4FEFB7E093A803F894D8
:10129A000093CD091093CE09559A01C021DF26C0CB
:1012AA00E13019F5A091CF0BB091D00BF901EA1BEF
:1012BA00FB0BE130A2E0FA07B0F4F901F170E15357
:1012CA00F64FAC81A0832F5F3F4FEFB7E093A8039F
:1012DA00F8942093D10B3093D20BE0919A00E062FC
:1012EA00E0939A0001C0FCDE01C0BBCF0E947A18CD
:1012FA000E94701D26960895A881B981EC91E0306C
:10130A0051F0EA81EA93A981BA81ED91A983BA835E
:10131A00EA939ADFF1CFF4C1E881F981E491E030F0
:10132A0061F0EA81EA93E981FA813196E983FA83E5
:10133A003197E491EA9388DFEFCFE2C10E9407195F
:10134A000A930091CB091091CC09E091CD09F09153
:10135A00CE09E017F10769F0F801F170E553F84F8B
:10136A00E081ECB90F5F1F4F0093CB091093CC09B2
:10137A000AC0E0E0E093CD09E093CE09E093CB09FF
:10138A00E093CC095598AEEAB3E00E94111909918D
:10139A001991C1C0EA93FA93EFB7EA931A930A93A1
:1013AA000091CF0B1091D00BF801F170E153F64F79
:1013BA00E081E0939C000F5F1F4F0093CF0B1093C7
:1013CA00D00BE091D10BF091D20BE017F10771F439
:1013DA00E0E0E093D10BE093D20BE093CF0BE093E4
:1013EA00D00BE0919A00EF7DE0939A000991199150
:1013FA00E991EFBFF991E9911895E881E03019F088
:10140A00E091DD0D02C0E091D70C0AC11A930A934C
:10141A00EA81E03051F5A091D70CB091D80C0E9426
:10142A00591DF8F4E091D50CF091D60CED52F44F19
:10143A001081A5EDBCE00E941A19A091D50CB091BB
:10144A00D60CA030E1E0BE0729F4E0E0E093D50C29
:10145A00E093D60C0FB7F894A7EDBCE00E942019D0
:10146A004FC1E0E0198108814BC1A091DD0DB09117
:10147A00DE0D0E94591DF8F4E091DB0DF091DC0DB0
:10148A00E752F34F1081ABEDBDE00E941A19A0910B
:10149A00DB0DB091DC0DA030E1E0BE0729F4E0E0FD
:1014AA00E093DB0DE093DC0D0FB7F894ADEDBDE0F2
:1014BA000E94201925C1E0E01981088121C10E94FA
:1014CA0007191CB1A091D70CB091D80CA030E1E05B
:1014DA00BE07E0F4E091D30CF091D40CED52F44F36
:1014EA001083A3EDBCE00E941A19A7EDBCE00E948C
:1014FA001A19A091D30CB091D40CA030E1E0BE0728
:10150A0029F4E0E0E093D30CE093D40CA2EBB3E02F
:10151A000E9411191991E991EFBFF991E991B991D5
:10152A00A991799169911895AA93BA93EA93FA9332
:10153A00EFB7EA931A9310919C00A091DD0DB09138
:10154A00DE0DA030E1E0BE07E0F4E091D90DF091A4
:10155A00DA0DE752F34F1083A9EDBDE00E941A1984
:10156A00ADEDBDE00E941A19A091D90DB091DA0D26
:10157A00A030E1E0BE0729F4E0E0E093D90DE09362
:10158A00DA0D1991E991EFBFF991E991B991A99110
:10159A001895AA240E942C19CC2499240895A8816C
:1015AA00AD3071F1EFE79E1630F5A032D9F0AA20DE
:1015BA0019F40E942C19A394CC2071F0EAE0AE161B
:1015CA0050F4EA2DAFE5BEE00E9433190E943919A2
:1015DA00ED93FC93A394CC240E943919A881A0838B
:1015EA00939409C0CC2039F40E943919A0E0A08351
:1015FA009394E1E0CE2E0E943919A0E0A08310C096
:10160A000E943919A0E0A083AA2039F0AA92EFE536
:10161A00FEE0FA93EA930E946A12AA24CC2499243F
:10162A00219608951A9310E0A981BA81EC91E030CD
:10163A0081F0E0531E0FE981FA813196E983FA833A
:10164A00A981BA81EC91E03019F0AAE01A9F102D15
:10165A00EBCFE12F188154C00E949E18AA81BB814A
:10166A00EC91E030A9F0E053F0E00E0F1F1FEA8181
:10167A00FB813196EA83FB83AA81BB81EC91E0303E
:10168A0031F0AAE0A09FF001A19FF00D8F01E6CFF3
:10169A00F8011981088124960895E0E0EDB9E7E0A0
:1016AA00E7BBEFE0E8BBE1E568C0E0E0EDB9E7E001
:1016BA00E7BBBB98E8BBEA81EE0FEE0FAE2FE981DC
:1016CA00EE0FEE0FEE0FEA2BEDB9E881E23019F4D6
:1016DA00E1E0EEB913C0E43011F4E0E00EC0E83006
:1016EA0019F4709A689A0AC0E03131F0E03221F4B4
:1016FA00E1E0EEB9E2E001C0E1E0EDB9E0E5EDB923
:10170A0023960895EC81E03081F4E0E0EDB9EEB97A
:10171A00AB81A13041F4EA81EA93EA81EA93EA8152
:10172A00EA93C3DF01C024D001C0B7DF259608952C
:10173A001A9310E0C098AB81BC81EC91E03089F03B
:10174A00ED91AB83BC83EFB9779BFECF103438F4AD
:10175A00A981BA81EE27A10FBE1FEFB1EC931F5FDB
:10176A00EACFC09AE2E0F1E10E943E1918814DC326
:10177A00E0E0EDB9E8E0E7BBE0E4EDB90895AA934B
:10178A00EA93EFB7EA931A930A930091B30EE0E152
:10179A00EDB9A0E09699A1E0E1E0EA2711F4969864
:1017AA0001C0969A1FB109911991E991EFBFE99188
:1017BA00A99118950A921A926A937A939A93AA937C
:1017CA00BA93EA93FA93EFB7EA93E4B1F5B1A3E0D7
:1017DA00B0E00E942B1CBF01E4B1F5B1DF01E7E0E4
:1017EA00F0E00E945E1CDB01AE1BBF0BA093F70E5C
:1017FA00B093F80EE0E0E6B9E991EFBFF991E9910B
:10180A00B991A9919991799169911990099018952D
:10181A000E944219E0ECE7B9ECE8E6B90895E7B1AD
:10182A00EE75E7B9E7B1EE64E7B9E6B1EC7DE6B982
:10183A00E6B1E46CE6B9E0E0E093FB0EE093FC0E5F
:10184A00E4E6F0E0E093050FF093060FA091050F90
:10185A00B091060F0E94591DF8F4369A3699FECFB8
:10186A00E4B10E9448190E94AC18E093FB0EF09371
:10187A00FC0EE5B1FE2FE0E00E944819EA0FFB1FBB
:10188A00E093FB0EF093FC0EA5E0BFE0ED91FD9115
:10189A003197FE93EE93DACFEEE8F2E1E093030F8D
:1018AA00F093040FA091030FB091040FA238E4E162
:1018BA00BE0710F00C94AC0CE091030FF091040FEA
:1018CA000E9448190E942B1C0E94211CEF2FF0E055
:1018DA00E093FF0EF093000FA091FF0EB091000F5E
:1018EA00A331E5E0BE0738F0E091FF0EF091000F5A
:1018FA00E251F54008C0A091FF0EB091000FE2E15D
:10190A00F5E0EA1BFB0BE093FD0EF093FE0EE0916F
:10191A00010FF091020FA091FD0EB091FE0EAE17CD
:10192A00BF0780F4E091FD0EF091FE0EE093010FE7
:10193A00F093020FE091030FF091040FE093F90E78
:10194A00F093FA0EA3E0BFE00E941A19ABCF0895F4
:10195A00E7B7EC7FE7BFE0B7E860E0BFE0E0E2BFEF
:10196A00E5E0E3BFE0B7E770E9F7E7B7E160E7BFB3
:10197A00789408950E944D19A7E0BFE080E00E9484
:10198A005B1911F00C945B0DE091070FE07CE0937A
:10199A00070FA7E0BFE086E00E945B1911F00C94E4
:1019AA005B0DE091070FF091080FEF73F07FE09362
:1019BA00070FF093080FA7E0BFE08CE00E946919B7
:1019CA00E831A0E0FA07A0E06A07A0E07A0711F080
:1019DA000C945B0DA7E0BFE00E94B11CEF7FFF7083
:1019EA006E7F7F7F0E94B61CA7E0BFE081E10E9464
:1019FA006919E032A0E0FA07A0E06A07A0E07A07D6
:101A0A0071F10E947019EF3199F40E947819E4304B
:101A1A0061F00E947819E63041F00E947819E930A5
:101A2A0021F00E947819EB3011F40E94811926C026
:101A3A000E947019EE3139F40E947819E23011F4DB
:101A4A000E9481191BC00E947019ED31B9F40E94DD
:101A5A007819E23019F42BD0E03009F40FC0A7E06E
:101A6A00BFE086E1EFE0F0E060E070E00E94121D66
:101A7A00E091090FE17CE260E093090F0E94781976
:101A8A00ED30A1F4E091090FF0910A0FEF73FC7F9A
:101A9A00E064E093090FF0930A0FA7E0BFE08AE140
:101AAA00EFE3F0E060E070E00E94121D60C10E9466
:101ABA009119E4E6F0E060E070E00E949B1C0E944D
:101ACA00551D49F40E949119E0E9F1E060E070E0E7
:101ADA000E949B1C0895E0910A0FE695E695E37033
:101AEA00F07060707070089508950E944D190E94F8
:101AFA006218B0F4E0917100E03051F0A091C20593
:101B0A00B091C305AE53BC4FE0917100EC9304C091
:101B1A000E946A18AFEFA083A2ECB5E00E941A19DE
:101B2A00E0917100E87FE03031F4E091110FE1605B
:101B3A000E949C191CC1E83081F4E091110FEC70ED
:101B4A0021F4E0911A0FE16003C0E0911A0FEE7FD1
:101B5A00E0931A0F0E94A7190AC1E03179F40E9492
:101B6A00AF1921F4E0911A0FE16003C0E0911A0F56
:101B7A00EE7FE0931A0F0E94A719F9C0E83179F4B1
:101B8A00E091110FEC70E43011F40E94B4190E9434
:101B9A00AF1921F40E94C519E0937400E8C0E0323D
:101BAA0031F4E091110FE0610E949C19E0C0E83223
:101BBA0001F5E091110FEC70E43059F4E091190F3E
:101BCA00A091180FEA1719F40E94D41902C00E94B2
:101BDA00B4190E94AF1961F4E0911E0FA0911D0F74
:101BEA00EA1711F4E5EE02C00E94C519E0937400E9
:101BFA00BEC0E03341F4E091110FE260E093110FAF
:101C0A000E94D419B4C0E83349F4E091110FE0629C
:101C1A000E94DD19E5EEE0937400A9C0E03449F4AE
:101C2A000E94E51911F4E5E801C0E5ECE0937400BF
:101C3A009EC0E83431F4E091110FE0610E949C19D2
:101C4A0096C0E03581F40E94EC19E091180FEF5F1D
:101C5A00E093180F0E94E51911F4E5E801C0E5ECDC
:101C6A00E093740084C0E83529F40E94EC190E94BC
:101C7A00D4197DC0E83611F0E83731F4E091110F3C
:101C8A00E06A0E94DD1902C0E03609F402C0E037BA
:101C9A0049F40E94F519E0E0E093140FE5E8E093B7
:101CAA00740065C0E03811F0E03961F40E94FB1954
:101CBA000E94041AE03011F4E5E801C0E5ECE09373
:101CCA00740055C0E83811F0E83989F40E94FB190C
:101CDA00E091110FE07811F0E5EE01C0E5ECE09338
:101CEA007400E0910D0FF0910E0F099540C0E03A93
:101CFA0021F4E5ECE09374003AC0E03B31F4E09162
:101D0A00110FE06A0E94DD1902C0E83A49F4E0E0E6
:101D1A00E093140F0E940A1AE5E8E093740027C0C2
:101D2A00E83B71F40E94041A0E940A1AE091140F07
:101D3A00E03011F4E5E801C0E1ECE093740017C06B
:101D4A00E03C11F0E83C99F4E091110FE07839F0A9
:101D5A00E091110FEF77E093110FE5EE01C0E5EC8A
:101D6A00E0937400E0910D0FF0910E0F0995E9913F
:101D7A00EFBFF991E991B991A991999189917991D5
:101D8A006991F9901990099018950895E2B3E36062
:101D9A00E2BBE1B3EC7FE1BBEFEFE0937000E3E07D
:101DAA00E09371000895E2E3E0937200E881F9811B
:101DBA00E0930D0FF0930E0FE5E4E0937400229682
:101DCA000895E091110FE07411F0E0E01EC0E0E028
:101DDA00E093180FE3E0E093190FED81E0931A0FF7
:101DEA00EC81E093150FEB81E093160FEA81E09303
:101DFA00170FE4E0E093110FE881F981E0930B0FEC
:101E0A00F0930C0F0E94111AE1E0269608950E94A1
:101E1A003E16E0E0EA93E4EFF0E00E94191AEEE0E1
:101E2A00F1E00E94191AEEE5F1E00E94191AE6E8BB
:101E3A00F1E00E94191AE6E9F1E00E94191AE4EDAC
:101E4A00F1E00E94191AEAE0F2E00E94191AE0E3AE
:101E5A00F2E00E94191AEEE5F2E00E94201A0895B3
:101E6A002A971A9310E0E0E0EA93E0E0F2E00E9499
:101E7A008018E0E0EA93E7E0F2E00E94801810E0C0
:101E8A00123038F5E0E0EA93E7E1F2E00E948018C8
:101E9A000E94261AE0E0EA93EDE1F2E00E9480183F
:101EAA00AAEBB3E00E94371AE0E0EA93E5E2F2E037
:101EBA000E948018E12F0E944B1A0E94AD1C0E94BA
:101ECA004E1AE0E0EA93EEE2F2E00E9480181F5F09
:101EDA00D7CFE0E0EA93E9E3F2E00E94801810E04D
:101EEA00123020F5E0E0EA93E8E4F2E00E9480187C
:101EFA000E94261AE0E0EA93EDE4F2E00E948018DC
:101F0A00ACEBB3E00E94371AE0E0EA93E5E5F2E0D1
:101F1A000E948018A0ECB3E00E94371AE0E0EA932E
:101F2A00E3E6F2E00E9480181F5FDACF68C02A97C2
:101F3A001A9310E0E0E0EA93EEE6F2E00E948018DD
:101F4A00E0E0EA93E8E7F2E00E94801810E012303D
:101F5A0048F5E0E0EA93E8E8F2E00E9480180E947F
:101F6A00261AE0E0EA93EEE8F2E00E9480180E9466
:101F7A005D1A0E94651AE0E0EA93E6E9F2E00E943F
:101F8A008018E12FA0E0B0E00E9433190E942C1DB6
:101F9A000E944E1AE0E0EA93EFE9F2E00E9480180C
:101FAA001F5FD5CFE0E0EA93EAEAF2E00E948018E8
:101FBA0010E0123020F5E0E0EA93E9EBF2E00E944B
:101FCA0080180E94261AE0E0EA93EEEBF2E00E9403
:101FDA0080180E94751A0E94651AE0E0EA93E6ECFE
:101FEA00F2E00E9480180E947D1A0E94651AE0E0C1
:101FFA00EA93E4EDF2E00E9480181F5FDACF1881BD
:10200A002B9608952597E0E0EA93EFEDF2E00E941F
:10201A008018E091B203F091B3036091B403709118
:10202A00B5030E94851AE0E0EA93EAEEF2E00E9424
:10203A008018E091AE03F091AF036091B003709104
:10204A00B1030E94851A25960895969A0E94921ABB
:10205A00A9C0E8E3F0E1FA93EA93E4EFF1E00E9421
:10206A008418969808950E94921A0E948418969A43
:10207A0008950E94991A96C0EFECF6E00E943E1964
:10208A00E6E8F7E0FA93EA930E941C07EEEBF6E023
:10209A000E943E190E94A01A0E948418EAE5F0E103
:1020AA00FA93EA93E8EBFBE07DC09924E4E59E16F7
:1020BA0028F50E94A71AEFE2F0E0FA93EA93E92DD5
:1020CA000E94E3180E94A71AE1E0EA930E947207AD
:1020DA00E4E5F0E0FA93EA93EFE2F0E0FA93EA93A8
:1020EA00E4E5E9190E94E3180E94A71AE1E0EA93DD
:1020FA000E9472070E94BE069394D8CF0E94A01A2B
:10210A0051C00E94AC1AE7E4FAE0FA93EA93E0912C
:10211A00F90EF091FA0E0E94B11AE1E00E94BC1A7F
:10212A00E0E5FAE0FA93EA93E091010FF091020FE9
:10213A000E94B11AE2E00E94BC1AE6E5FAE0FA93BC
:10214A00EA93E091FD0EF091FE0E0E94B11AE3E0CF
:10215A000E94BC1AE0E6FAE0FA93EA93E091FB0ED9
:10216A00F091FC0E0E94B11AE4E0EA930E94510831
:10217A000E94BE060895E0E0EA930E94020AE13056
:10218A0058F0E0E0EA930E940B0AE093A903E09179
:10219A00A903EA930E94D40AE0ECF0E1FA93EA93E5
:1021AA00E4E6F0E0FA93EA930E94A41508950E94E7
:1021BA00C01AE091C205F091C305309711F00E9450
:1021CA00860608950E949E180030E2E01E0748F431
:1021DA00A2ECB3E0A00FB11FE0E0EC930F5F1F4F3A
:1021EA00F3CFA0E09799A1E0E1E0EA2711F49798EC
:1021FA0001C0979A0991199108951A9310E0103421
:10220A0068F4E12FF0E0E954F14FA0E0A083E12F58
:10221A00F0E0ED58F14FA0831F5FF1CF19910895B7
:10222A00E0EAEA93EFEFF0E0FA93EA93E9E0EA935F
:10223A00EDE2F1E1FA93EA93C4DDE03041F4E5E13D
:10224A00F1E1FA93EA93E2E3F0E00E948418089538
:10225A000E94C71A29F0E5E1F1E10E94CE1A04C0F2
:10226A00EAE3F1E10E943E190895E091110FE0744A
:10227A0041F0EAE3F1E1FA93EA93E4E6F0E00E943E
:10228A008418E0E0E093180FE2E0E093190FE0EB26
:10229A00E0931A0FE0E0E093150FEFEFE093160FCB
:1022AA00E4E0E093110FE3E6F1E1E0930B0FF09322
:1022BA000C0FE3E6F1E10E94111A08950E94C71A71
:1022CA0021F0EAE3F1E10E94CE1A0895E091110F9C
:1022DA00EF7BE093110FE091120FECB90895E0E063
:1022EA00EBBBEABBE8BBE7E0E7BBE0E0E5BBE4BB8E
:1022FA00E2BBE1BBE3B9E2B90E944219E0E0E09334
:10230A006500E09364000895E0E0E0BFE3BFE2BF48
:10231A00E1BF0895E0E0EFBDEEBDEDBDECBDE7BD68
:10232A00E6BDEBBDEABDE9BDE8BDE0937900E09307
:10233A0078000895E0E0E5BDE4BDE3BD0895E0E07E
:10234A00E0938B00E0938A00E0938900E093880091
:10235A00E0938100E0938000E0938700E093860099
:10236A00E0938500E0938400E0938300E093820089
:10237A000895E0E0E0936A00EABFE9BFE7BFE093AF
:10238A007D000895E0E0EBB9E8EDEAB9E6E0E09314
:10239A009500E0E0E0939000E3E3E9B90895E2E014
:1023AA00E0939B00E8EDE0939A00E6E0E0939D005D
:1023BA00E0E0E0939800E8E0E093990008951A932A
:1023CA0010E010E01230D0F4AAEBB3E0E12F0E9443
:1023DA00AC180F010E945D1AD001EC93E12F0E9404
:1023EA00D31A0F01E12FA0E0B0E00E9433190E9436
:1023FA002C1DD001ED93FC931F5FE4CF10E0123047
:10240A00B0F4ACEBB3E0E12F0E94AC180F010E94CC
:10241A00751AD001EC93A0ECB3E0E12F0E94AC183E
:10242A000F010E947D1AD001EC931F5FE8CF0C9434
:10243A00311655DF0E940D0C0E94140C65DF6ADF0D
:10244A0079DF7DDF96DF9EDFAADF0E94520B0E94B2
:10245A00AD0C0895B4DFE0E0EA93E091BA03EA93A1
:10246A00E091B603F091B7030E94DB1AE1E0EA9328
:10247A00E091BB03EA93E091B803F091B9030E949B
:10248A00DB1AE0E0EA93E1E0EA93EA93E0E0EA9318
:10249A00E0E1EA930E94870B0E94E0060E94CE0ABE
:1024AA000E94861573DCEBE6F1E1FA93EA937BDC92
:1024BA00EEB1EFB1E0E0E093C205E093C3050E94FC
:1024CA006A18A1E00E94711808952A97E0E0EE8345
:1024DA00EF83E887E9870E94671D0AEC10E030E085
:1024EA0020E050E040E00E94DF1AE2E9F0E00E94BA
:1024FA00E61A11F00C943C14E5EFF2E00E94EC1A93
:10250A00A23010F40C943C140E94F21AE6E9F0E0AE
:10251A000E94E61A11F00C943A13EBEFF2E00E94D3
:10252A00EC1AA33010F40C9436130E94F91A0E9484
:10253A00001B0E940D1B48F42C85EEECF0E08F0185
:10254A00E2E0F3E00E94151B03C0E4EDF0E08BC269
:10255A00AA89A43010F40C9436130E94191B01F5B1
:10256A000E94221B29F00E943D1B0E94611D81F4DA
:10257A00AAEBB3E0E22F0E94AC18AC85A083EEEC84
:10258A00F0E08F01E8E0F3E00E94151B32E008C09A
:10259A00E4EDF0E08F01EFE0F3E00E94151B64C266
:1025AA000E94421B0E94471BE2EAF0E00E94E61AE0
:1025BA0061F50E944C1B0E94471B0E94001BA13818
:1025CA00E4E0BE07E0E08E07E0E09E07B0F4E22F09
:1025DA000E94D31AAC85BD85A083B183EEECF0E0EE
:1025EA008F0130E0E7E1F3E00E94151BE2EAF0E038
:1025FA00FA93EA930E946A0608C0E4EDF0E08F01BC
:10260A00EAE1F3E00E94151B2FC22A930E94511B94
:10261A00EA93E22F0E944B1A0E94AD1C0E94DB1A19
:10262A0020E0A4E0B0E0E22F0E94AC180F010E9463
:10263A00511BD0010E94441DE22FA0E0B0E0F0E05F
:10264A00EE0FFF1FEA0FFB1F0F01E22F0E944B1A2A
:10265A000E94AD1CD0010E943C1DE2E2F3E00E9400
:10266A00151BE0E0EA930E940D090E94F21AE8EABB
:10267A00F0E00E94E61A11F00C943C14EFE2F3E049
:10268A000E94EC1AA33010F40C943C14E5E3F3E036
:10269A000E94151B0E94F91A0E94581B0E940D1BCA
:1026AA0028F42C85EEECF0E08F0103C0E4EDF0E0B5
:1026BA00DAC1AA89A43010F40C943C140E94191BA4
:1026CA00D9F40E94221B29F00E943D1B0E94611D21
:1026DA0081F4ACEBB3E0E22F0E94AC18AC85A08386
:1026EA0032E0EEECF0E08F01ECE3F3E00E94151B20
:1026FA0003C0E4EDF0E0B7C10E94421B0E94471BF1
:10270A00ECEAF0E00E94E61A09F50E944C1B0E94CE
:10271A00471B0E94581BA138E0E0BE07E0E08E0785
:10272A00E0E09E0780F4A0ECB3E0E22F0E94AC1830
:10273A00AC85A0833E5FEEECF0E08F01E5E4F3E0C8
:10274A000E94151B03C0E4EDF0E08DC10E94421BFC
:10275A000E94471BE2EBF0E00E94E61A11F00C948B
:10276A0005140E944C1B0E94471B0E94581B0E9482
:10277A005D1D50F00E943D1BA430E0E0BE07E0E082
:10278A008E07E0E09E0708F038C0EC85FD856E856F
:10279A007F850E94551D01F1E130A0E0FA07A0E013
:1027AA006A07A0E07A0719F450E041E017C0E23066
:1027BA00A0E0FA07A0E06A07A0E07A0711F451E066
:1027CA000CC0E330A0E0FA07A0E06A07A0E07A07AD
:1027DA0019F451E041E002C050E040E0EEECF0E0D4
:1027EA008F01EFE4F3E00E94151BAEEBB3E0E22F9A
:1027FA000E94AC18AC85A08303C0E2EEF0E033C1BE
:10280A002A930E94621BEA934A935A930E94691B75
:10281A00EA930E94870B30E050E040E0A6E0B0E087
:10282A00E22F0E94AC180F010E94621BD0010E9485
:10283A00441DA8E0B0E0E22F0E94AC180F01AEEBF5
:10284A00B3E0EE27A20FBE1FEC91D0010E94441DF7
:10285A00AAE0B0E0E22F0E94AC180F010E94691BA7
:10286A00D0010E94441DEAE5F3E00E94151B0E9474
:10287A00DF1AEAEBF0E00E94E61A11F00C94EB146E
:10288A00E5E6F3E00E94EC1AA23010F40C94EB1483
:10289A000E94F21AE6E9F0E00E94E61A19F5AA89FE
:1028AA00A33000F10E94F91A0E94581B0E940D1BC6
:1028BA0020F42C85EEECF0E002C0E4EDF0E08F01AC
:1028CA00AA89A43078F0EEE3F6E12A930E94701BFD
:1028DA000E948109E3E3F6E1E9E6F3E00E94151BB1
:1028EA000E94771B0E94F21AE8EAF0E00E94E61AB8
:1028FA0061F5AA89A33048F10E94F91A0E94581B6F
:10290A000E940D1B20F42C85EEECF0E002C0E4EDF1
:10291A00F0E08F01AA89A430C0F0E3E7F3E00E9457
:10292A00151B0E94771BEAE0EA930E94701BE7EBF3
:10293A00FEE0FA93EA930E949D0BEDE7F3E00E9412
:10294A00151BE7EBFEE00E94151B0E94F21AE6EB4C
:10295A00F0E00E94E61AD1F5AA89A330B8F10E94E4
:10296A00F91A0E94581B0E940D1B20F42C85EEECCC
:10297A00F0E002C0E4EDF0E08F01AA89A43030F162
:10298A00E7E8F3E00E94151BE889F989A681B78177
:10299A00BA93AA930E94310B662777270E94BF1C1D
:1029AA00FE013A96FA93EA930E940918E0E0EA9344
:1029BA00FE0137960E948018E3E9F3E00E94151B96
:1029CA00E0E0EA93E7EBFEE00E9480180E94DF1A3B
:1029DA00ECE8F0E00E94E61A21F419DAEEECF0E0F5
:1029EA008F010E94DF1AE0ECF0E00E94E61A29F457
:1029FA000E94001EEEECF0E08F010E94DF1AECEB61
:102A0A00F0E00E94E61A29F40C940000EEECF0E0E3
:102A1A008F010E94DF1AE6ECF0E00E94E61A59F4F0
:102A2A000E943E1684DA0E94350FECDAEEECF0E0F2
:102A3A008F010E9433160E94DF1AEBE0FBE00E942E
:102A4A00E61A21F4DFDAEEECF0E08F010E94DF1AD9
:102A5A00EDE0FBE00E94E61A39F4E5E1F1E10E94BB
:102A6A003E19EEECF0E08F01E0E0EA931A930A9344
:102A7A000E9491090E946E1D639608952797D9DCDA
:102A8A00E9DCE1E0EA93E0EFF0E00E94191AE0EFF6
:102A9A00F0E00E94201AEAE2F0E10E943E19E0EC1E
:102AAA00F0E1FA93EA93E9E1F0E00E9484180E94C7
:102ABA00C01A0E94991A0E948418E1E4F0E10E9467
:102ACA003E19E6E8F0E10E943E19E8EEF3E00E94C2
:102ADA00A31874D0FECFFFCF0E944D199CD0AAEA4A
:102AEA00B3E00E941119E991EFBFF991E991B99107
:102AFA00A9919991899179916991F990199009907F
:102B0A0018951A9310E0103171F00E948C1B0E94E4
:102B1A00931B0E948C1BAE0FBF1FE0E0F0E0ED9309
:102B2A00FC931F5FF0CF98C00895E881F981FA936A
:102B3A00EA93E0E0F0E00E948418229608951A933E
:102B4A000A9310E000E0EFB7E7FF02C0F89401E053
:102B5A0010E0103199F00E948C1B0E949B1BDF0130
:102B6A00EC81FD81EA17FB0739F40E948C1B0E9455
:102B7A00A11B09F078941EC01F5FEBCF10E0103143
:102B8A00C9F00E948C1B0E949B1B0E94A91B81F406
:102B9A000E948C1BEA0FFB1F3296AC81BD81A08379
:102BAA00B1830E948C1B0E94A11B09F0789402C079
:102BBA001F5FE5CF19810881269608950E94691D35
:102BCA0010E010E0103109F10E948C1B0E949B1B3F
:102BDA000E94A91B41F00E948C1BAE0FBF1F0E94CE
:102BEA00AD1C309709F00FC00E948C1BAE0FBF1F9F
:102BFA0012962D913C910E948C1B0E94931B7894F3
:102C0A00F901099504C01F5FDDCF78948DDF0E941A
:102C1A00701D249608951A9310E01031E9F00E946D
:102C2A008C1B0E949B1B0E94A91B51F00E948C1BAB
:102C3A00AE0FBF1F0E94AD1CDF010E94591D08F094
:102C4A0009C00E948C1BAE0FBF1FED91FD913197F9
:102C5A00FE93EE931F5FE1CF19910895F894ECE08B
:102C6A00E5BDE0E0E4BDEEE3E3BDE0E8E7BF78946C
:102C7A000895E5E0E5BD08951A930A93AA81BB81F8
:102C8A0012960E94AD1C309729F1AA81BB81149635
:102C9A000E94AD1C8F01309761F00230E0E01E0700
:102CAA00C0F0F80131978F01AA81BB811496ED9388
:102CBA00FC93AA81BB8112960E941A193197AC81A2
:102CCA00A083AA81BB810E94AD1CFF2312F00E943F
:102CDA001A1906C0AA81BB81EFEFFFEFED93FC93AF
:102CEA00198108812596089526970E94671D10E08C
:102CFA00AC85BD85E0E0F0E0ED93FC93EA89FB89C1
:102D0A003196EA8BFB8B3197E4912E2FE03011F448
:102D1A000C94A617E12FE03039F4253211F411E0B2
:102D2A0002C00E94AF1B0CC1E130A9F4253219F48C
:102D3A000E94AF1B04C112E040E000E02D3211F402
:102D4A0001E0FEC02B3211F44BE2FAC0203211F43A
:102D5A0040E2F6C002C0E23039F450E013E020331A
:102D6A0011F40068EDC004C0E33011F00C94A5170B
:102D7A00203310F02A3308F007C0AAE05A9F502DDA
:102D8A00E22FE0535E0FDCC0E22FE33649F40E94E3
:102D9A00B81BE889F989A481AA930E94BE1BCFC0F7
:102DAA00E33741F40E94B81B0E94C61B0E94F41725
:102DBA001E2F0AC0E03761F40E94B81B0E94C61B8E
:102DCA000E94FE171E2F086002600F7730E035C0A0
:102DDA00E43611F0E93611F4046002C0E53731F443
:102DEA00EEE7F9E0EE83FF8315E00DC0E83511F454
:102DFA00086004C0E83711F00C94A417E8E8F9E079
:102E0A00EE83FF8314E002FF14C00E94B81B0E94E5
:102E1A00D01BAB85AA233AF4EA85FB850E94FF1BE7
:102E2A00EA87FB874DE2403011F01F5F01C00B7F3C
:102E3A0004C00E94B81B0E94D01B00FD11C01517C8
:102E4A0078F407FF08C002FF04C00B7F242F11503B
:102E5A0001C020E301C020E20E94AF1B5150EFCF16
:102E6A00312F01FF17C03030A1F003FF06C0EE81F9
:102E7A00FF812591EE83FF8305C0AE81BF812D912D
:102E8A00AE83BF830E94AF1B503009F051503150BE
:102E9A00EACF4BC020E3EE81FF810E94BB1CE8878A
:102EAA00F987EE81FF813296EE83FF83E885F98503
:102EBA00AA85BB85AE17BF0750F02F5FA885B985D5
:102ECA00EA85FB85EA1BFB0BEA87FB87EFCF2A33F0
:102EDA0028F003FF02C0295F01C0295D04FD1AC062
:102EEA00213320F4A885B985119709F409C053172D
:102EFA0010F000FF01C013C020E207FF0BC020E35F
:102F0A00006102FF07C00B7F4A930E94BE1B50302C
:102F1A0009F051500E94AF1B503009F05150315006
:102F2A00A885B985129708F0B5CF00FF08C05030C0
:102F3A0031F05150E0E2EA930E94BE1BF8CF10E054
:102F4A00DDCEAC85BD850E94AD1C0E946E1D6496C7
:102F5A000895FF92F82E26970E94691D0E94D81B99
:102F6A00309719F4EFEFFFEF23C0DE0116960E94A7
:102F7A00FB1B8D010E94D81BEE83FF83E0E0E887EC
:102F8A00E987DE011A960E94FB1B0E94471B1A93CF
:102F9A000A93E1E4F6E1FA93EA93FE013A96FA9388
:102FAA00EA93A2DE9F01AE81BF81E0E0EC93F901D2
:102FBA000E94701D2A96FF900895E991F991A991AE
:102FCA00B9911D900590011421F40020D1F7EE2744
:102FDA0008951018E1F3E1E008F4E2500895A99188
:102FEA00B991EE27FF276D91662311F03196FBCF39
:102FFA000895AA27BB27E991F9910590002011F0BD
:10300A001196FBCFFD01089524971A930A93E0E0E5
:10301A00FAEC6AE97BE3EA83FB836C837D8300E055
:10302A00AB85AA2372F4E885F9856A857B850E94B7
:10303A00031CE887F9876A877B870E94DF1BEDE21A
:10304A00EC930E94E61B0E94761C1E2F103071F42E
:10305A00003061F4AA81BB818C819D81A130E0E0BE
:10306A00BE07E0E08E07E0E09E0731F40E94DF1B16
:10307A00E12FE05DEC9301E00E94E61B0E949B1C9D
:10308A00E887F9876A877B87AA81BB818C819D81C2
:10309A00EAE0F0E060E070E00E94761CEA83FB83DD
:1030AA006C837D830E94551D61F6AE81BF81E0E08D
:1030BA00EC93198108812C960895A091C205B091CC
:1030CA00C305A030E2E0BE070895E091C205F09181
:1030DA00C305EE53FC4F0895A083A2ECB5E0ED9131
:1030EA00FD913196FE93EE930895EFB7A091A80350
:1030FA00EA2BEFBF0895FA93EA930C948109FA93A5
:10310A00EA930C94A4151A930A93E0E8EA93E0E090
:10311A00EA930E94A306E0E4EA93E0E0EA930E94BD
:10312A00A30600E010E00895A3EDB5E0A00FB11FDB
:10313A0008951A930A9300E010E00895FA93EA9327
:10314A000C94EF1BEA93E0E0EA930C94A306F0E0F8
:10315A00EA0FFB1F0895E32FA1E00E940B1C0895BC
:10316A00E989EA93E889EA93EC85EA930C943207B1
:10317A00E885F985AF85B889EA0FFB1FEF87F88BD9
:10318A000895FA01A989BA89EA0FFB1FE98BFA8B1C
:10319A000895AE81BF81EA0FFB1FEE83FF83E0CF64
:1031AA00E12FF0E0EC53FA4F0895E72DF82D319610
:1031BA007E2E8F2E3197ED52FA4F0895F0E0FA9352
:1031CA00EA930895EA81FB81662777270895A8E0A4
:1031DA00B0E080E090E00E94331C0895E0E0E093C4
:1031EA00CB09E093CC09E093CD09E093CE09089589
:1031FA00E0E0E093CF0BE093D00BE093D10BE093A8
:10320A00D20B08956A937A93AA93BA93EA93FA939C
:10321A00EFB7EA931A9308950E94B11CEF5FFF4F2C
:10322A006F4F7F4F0E94B61C0895ED91FD91319624
:10323A00FE93EE930895ED91FD913197FE93EE93EF
:10324A00EFB7E02BEFBFE12F198108810895EFED69
:10325A00FDE0E0935F0EF093600E0895F0E0EE0F4C
:10326A00FF1FAE0FBF1F0895E92DF0E0E152F24FA4
:10327A000895FA93EA930C949A15E0E0E0936200B9
:10328A00E09361000895A091FB0EB091FC0E0895A1
:10329A000A921A92FA926A937A938A939A93AA93BF
:1032AA00BA93EA93FA93EFB7EA930895EFE3F0E05B
:1032BA0060E070E00E94001DEC33A0E0FA07A0E095
:1032CA006A07A0E07A070895EFE1F0E060E070E0B5
:1032DA000E94001D0895E091090FF0910A0FF695DA
:1032EA00E795EF710895A091090FB0910A0FE6E0F2
:1032FA000E94131CEF700895A7E0BFE086E1EFE09B
:10330A00F0E060E070E00E94121DE091090FE17C9C
:10331A00E260E093090F0895E0910A0FE695E695B9
:10332A00EF73F07060707070DF01CB010895E09365
:10333A00110FE5EDE0937400E0910F0FF091100F7B
:10334A0009950895E0911A0FE0937300E5ECE09374
:10335A0074000895E091110FEC70E8300895E0913F
:10336A00180FF0E0EB5EF04FE081E0937300E0911C
:10337A00180FEF5FE093180FE5ECE09374000895DF
:10338A00E0911D0FF0E0E55EF04FE081E0937300FD
:10339A00E0911D0FEF5FE0931D0FE5EC0895E5ED59
:1033AA00E0937400E0910B0FF0910C0F09950895CA
:1033BA00E093110FE0E0E093180FE0931D0F0895DA
:1033CA00A091180FAF5FE091190FEA170895A09125
:1033DA00180FB0E0AB5EB04FE0917300EC93089524
:1033EA00E091110FE064E093110F0895A091140F7A
:1033FA00B0E0AE5EB04FE0917300EC930895E091B7
:10340A00140FEF5FE093140F0895F0E0ED5EF04FB4
:10341A00E081E09373000895E0930F0FF093100F8B
:10342A00E5EAE0937400DCCFFA93EA930E949109EB
:10343A00E0E0EA930895FA93EA930E9491090C94C2
:10344A003316E12FFF27662777270E94BF1CFE014C
:10345A003596FA93EA930E940918E0E0EA93FE018E
:10346A00329649CEEE27A10FBE1FEC91FF276627A1
:10347A0077270E94BF1CFE013596FA93EA930E94B1
:10348A000918E0E0EA93FE01329635CEA6EBB3E0E6
:10349A00E5CE662777270E94BF1CFE013596FA9370
:1034AA00EA930E940918E0E0EA93FE01329623CEDD
:1034BA00A4E0B0E0EE27A10FBE1F0E94301D0895C0
:1034CA00FF27662777270E94BF1CFE013596FA93CD
:1034DA00EA930E940918E0E0EA93FE0132960BCEC5
:1034EA00A6E0B0E0EE27A10FBE1F0E94301D08958E
:1034FA00AAE0B0E0EE27A10FBE1F0E94301D08957A
:10350A000E94BF1CFE013496FA93EA930E9409189E
:10351A00E0E0EA93FE013196EECDEEE2F0E1FA93B5
:10352A00EA93E2E3F0E00895EEE3F0E1FA93EA9336
:10353A00E8E8F3E10895EFECF6E0FA93EA93E0EDB8
:10354A00F7E00895E0E0F0E0FA93EA930895E4ECF6
:10355A00F5E0FA93EA930895662777270E94BF1C3D
:10356A0084E00E94AE172896E1E0EA930895EA9370
:10357A000E945108ECCFECEDF0E1FA93EA93E2E312
:10358A00F0E0BDCDE091110FEF7BE093110FE171F7
:10359A000895FA93EA93E4E1F0E0B1CDA6EBB3E043
:1035AA00F0E0EE0FFF1FEA0FFB1F0895FA93EA936C
:1035BA000C947708A889B9890E94AD1CFA93EA93FA
:1035CA000895FA93EA930E94E217E0300895FA9375
:1035DA00EA930E947A06AA890895E889F989A2815C
:1035EA00B381BA93AA930895E889F989A481B58128
:1035FA00BA93AA9308950E94310B66277727EC871E
:10360A00FD876E877F87AC85BD858E859F850895EA
:10361A00A330E0E0BE07E0E08E07E0E09E070895F1
:10362A00FA93EA930C947A06E889F989A681B78114
:10363A00BA93AA93ECE9F0E0C4CFE889F989A085A6
:10364A00B185BA93AA930E94170BFF27662777279B
:10365A00EC87FD876E877F87AC85BD858E859F85C4
:10366A00A130E0E0BE07E0E08E07E0E09E070895A3
:10367A00AC85BD858E859F850895E32FED5FA8896A
:10368A00B989ECCD0E94AD1CFA93EA930895E32F11
:10369A00EC5FA889B989E2CDAAEBB3E0EE27A20FC5
:1036AA00BE1FEC9108950E94170BFF276627772704
:1036BA00EC87FD876E877F87DBCFACEBB3E0EE2725
:1036CA00A20FBE1FEC910895A0ECB3E0EE27A20F63
:1036DA00BE1FEC910895E989FA89A681B781BA9348
:1036EA00AA930895E889F989A681B781BA93AA931A
:1036FA000E94310B662777270E94BF1CFE013A966B
:10370A00FA93EA930E940918FE01369689CFE12FAF
:10371A00AFE1BFE0F0E00E941C1C0895AE0FBF1F8E
:10372A001296E9E9F5E1ED93FC930895AE0FBF1FF8
:10373A0012960E94AD1C0895EA0FFB1FAA81BB8155
:10374A00A083B18300300895DF01E9E9F5E1EA17C2
:10375A00FB0708952A93ED85FE85FA93EA93E98992
:10376A00FA8909950895E889F9893497E88BF98BDC
:10377A000895ED85FE85FA93EA93E989FA89099510
:10378A000895A889B98914960E94AD1CEE83FF8317
:10379A00FA93EA930895A889B98914960E94AD1CF0
:1037AA00EA87FB870895DE011C960E94FB1B0E9494
:1037BA00AD1C0895AE81BF811196AE83BF83119768
:1037CA000895EA81FB816C817D81A885B9858A8506
:1037DA009B850895E991F991309639F080EA9FE046
:1037EA000197F1F7A8953197C9F708950024AF0D0D
:1037FA00B01D0895F195E195F0400895F095609512
:10380A007095E195FF4F6F4F7F4F0895EE230E2E6F
:10381A00EA2F19F0EE0F0A94E9F70895EE230E2E17
:10382A00FD0121F0F695E7950A94E1F70895EE0F68
:10383A00FF1FEE0FFF1F0895F695E795F695E7959A
:10384A000895EE0FFF1F661F771F0895FA9FF02D48
:10385A00EB9FF00DEA9FE02DF10D08957A9F702DF0
:10386A006B9F700DF89F700DE99F700D6A9F602D18
:10387A00710DFB9F600D711DE89F600D711D8827FA
:10388A00FA9FF02D610D781FEB9FF00D611D781FD7
:10389A00EA9FE02DF10D681F781F08956E2F6A9F29
:1038AA00F0016B9FF00D089545D0D0DF0EF4A2DF32
:1038BA0008950024112490E1AA0FBB1F001C111CBB
:1038CA000E1A1F0A18F40E0E1F1E01C0A1609A9547
:1038DA0099F7FD01D00108952DD0EBDF0EF48ADFB0
:1038EA0008953F934F935F9300241124442755274B
:1038FA0030E2AA0FBB1F881F991F001C111C441F0E
:10390A00551F0E1A1F0A460B570B28F40E0E1F1EC0
:10391A00461F571F01C0A1603A9559F7FD01BC0126
:10392A00D001CA015F914F913F910895DADFFD01FD
:10393A00BC010895E894F7FF02C05CDF6894B7FF02
:10394A0006C0A095B095119600F8039400FA089560
:10395A00ED91FC9111970895ED91FD916D917D91F5
:10396A0008957E936E93FE93EE9308950590F491D5
:10397A00E02D08957A936A93FA93EA930895082EAC
:10398A008F019B01ED91FD916D917C91102C11207D
:10399A0031F076956795F795E7951A94D1F7E02374
:1039AA00F123622373230895E023F123622373230F
:1039BA00AF01CB01002051F0000F111F221F331F4E
:1039CA00440F551F881F991F0A94B1F70095109547
:1039DA00209530951C900E90022213223E912E9132
:1039EA0020233123242B352B082A192A2D933D9382
:1039FA000D921C9208950F931F932F933F934F9309
:103A0A005F93BDDF3196611D711DCEDF5F914F91CE
:103A1A003F912F911F910F9108950F931F932F9309
:103A2A003F934F935F93ABDFEF93FF936F937F9334
:103A3A003196611D711DB8DF7F916F91FF91EF91F2
:103A4A005F914F913F912F911F910F910895119678
:103A5A0002D0FE2F1197E199FECFFF93FFB7F8949A
:103A6A00AEBBBFBBE09AEDB3FFBFFF91089507D08D
:103A7A001196EF93EF2F03D0EF9111970895E19BE1
:103A8A0002C0A895FCCF9FB7F894AEBBBFBBE09A23
:103A9A008DB3E81719F0EDBBE29AE19A9FBF08953A
:103AAA00309760407040089500240A160B06089566
:103ABA00109780409040089500240A160B060806C5
:103ACA00090608955A934A933A932A931A930A93A2
:103ADA0008955D814C813B812A811981088108956D
:00000001FF
