:060000000C94B1050C9404
:1000060000000C9400000C9400000C9400000C946A
:1000160000000C9400000C9400000C9400000C945A
:100026003E0E0C9400000C9400000C9400000C94FE
:1000360000000C94540E0C9400000C945C0A0C9472
:1000460068090C948D080C9436080C9400000C94E6
:1000560083090C9400000C9400000C9400000C948E
:1000660000000C9400000C9400000C9400000C940A
:1000760000000C94C2080C945F080C9400000C94C9
:10008600170B0C94000048656C70000053657400F3
:100096005561727400004D6F6465000053706565AC
:1000A60064005370690050726573630070700000DD
:1000B60049326300570072737400626F6F740000F8
:1000C6006462670020450D00206F6B0D0000204C18
:1000D600617267655F76616C75650D002057726F9A
:1000E6006E675F76616C75650D00205300000D3EEE
:1000F6003E3E2048454C50203C3C3C0D20436F6D15
:100106006D616E64733A0D000D20536574202D49A0
:100116006E746572666163655F6E616D652D202D17
:100126006E756D6265722D204D6F6465202D76614A
:100136006C7565286F7074696F6E616C292D20531C
:1001460070656564202D76616C7565286F707469BD
:100156006F6E616C292D00000D20572020202D493F
:100166006E746572666163655F6E616D652D202DC7
:100176006E756D6265722D202D646174612D0000AF
:100186000D20476574202D656E746974792D000005
:100196000D2020496E746572666163657320617611
:1001A60061696C61626C653A0D202020556172743C
:1001B60028302C31290D20202053706928302D48F5
:1001C6006172642C20312D536F6674290D000D3E2B
:1001D6003E3E20554152545F48454C50203C3C3CE5
:1001E6000D204D6F64653A20302D204E4F524D4103
:1001F6004C3B20312D20444F55424C4544207370D2
:10020600656564000D2053706565643A206261750A
:10021600642F313030202845783A2035373620692A
:1002260073203537363030290D000D3E3E3E2053C3
:1002360050495F48454C50203C3C3C0D204D6F6476
:10024600653A20302D20534C4156453B20312D2018
:100256004D41535445520A000D2050726573636137
:100266006C6C65723A20706F77206F66203220289A
:1002760045783A205072657363203136290D0000A7
:10028600000000000000005F0000000700070014E7
:100296007F147F14242A7F2A1223130864623649A6
:1002A6005522500005030000001C22410000412297
:1002B6001C0014083E081408083E080800503000C8
:1002C6000008080808080060600000201008040202
:1002D600000000000000005F000000070007001497
:1002E6007F147F14242A7F2A122313086462364956
:1002F6005522500005030000001C22410000412247
:100306001C0014083E081408083E08080050300077
:1003160000080808080800606000002010080402B1
:10032600000000000000005F000000070007001446
:100336007F147F14242A7F2A122313086462364905
:100346005522500005030000001C224100004122F6
:100356001C0014083E081408083E08080050300027
:100366000008080808080060600000201008040261
:100376003E5149453E00427F400042615149462177
:1003860041454B311814127F1027454545393C4AE3
:100396004949300171090503364949493606494933
:1003A600291E003636000000563600000814224189
:1003B60000141414141400412214080201510906F1
:1003C600324979413E7E1111117E7F494949363EB7
:1003D600414141227F4141221C7F494949417F09D0
:1003E6000909013E4149497A7F0808087F00417F93
:1003F60041002040413F017F081422417F40404098
:10040600407F020C027F7F0408107F3E4141413E3F
:100416007F090909063E4151215E7F091929464691
:100426004949493101017F01013F4040403F1F20BA
:1004360040201F3F4038403F63140814630708708C
:1004460008076151494543007F41410002040810F5
:10045600200041417F000402010204404040404028
:10046600000102040020545454787F48444438382C
:1004760044444420384444487F3854545418087E31
:100486000901020C5252523E7F0804047800447D52
:1004960040002040443D007F1028440000417F403A
:1004A600007C041804787C080404783844444438F2
:1004B6007C14141408081414187C7C0804040848D6
:1004C60054545420043F4440203C4040207C1C208F
:1004D60040201C3C4030403C44281028440C5050DE
:1004E600503C4464544C44000836410000007F00F0
:1004F6000000413608001008081008784641467882
:10050600000000000000005F000000070007001464
:100516007F147F14242A7F2A122313086462364923
:100526005522500005030000001C22410000412214
:100536001C0014083E081408083E08080050300045
:10054600000808080808006060000020100804027F
:10055600000000000000005F000000070007001414
:100566007F147F14242A7F2A1223130864623649D3
:100576005522500005030000001C224100004122C4
:100586001C0014083E081408083E080800503000F5
:10059600000808080808006060000020100804022F
:1005A600000000000000005F0000000700070014C4
:1005B6007F147F14242A7F2A122313086462364983
:1005C6005522500005030000001C22410000412274
:1005D6001C0014083E081408083E080800503000A5
:1005E60000080808080800606000002010080402DF
:1005F6003E5149453E00427F4000426151494621F5
:1006060041454B311814127F1027454545393C4A60
:1006160049493001710905033649494936064949B0
:10062600291E003636000000563600000814224106
:10063600001414141414004122140802015109066E
:100646007E1111117E7F494949317F494949367FDB
:1006560001010103702927217F7F49494941770814
:100666007F087741414149767F1008047F7F100952
:10067600047F7F0814224120413F017F7F020C0244
:100686007F7F0808087F3E4141413E7F0101017F8F
:100696007F090909063E4141412201017F010147C7
:1006A600281008071E217F211E63140814633F20AB
:1006B60020205F070808087F7F407F407F3F203F5C
:1006C600205F017F4848307F4830007F007F4848E0
:1006D60030414141493E7F083E413E462919097F46
:1006E60020545454783C4A4A49317C545428007C5E
:1006F6000404040C722A26227E38545454186C10B2
:100706007C106C44445454387C2010087C7C2112A4
:10071600097C7C1028440020443C047C7C0810089A
:100726007C7C1010107C38444444387C0404047CDF
:100736007C14141408384444442004047C040444FF
:100746002810080408147E140844281028443C4045
:10075600407C400C1010107C7C407C407C3C203C53
:10076600207C047C5050207C5020007C007C505023
:100776002028444454387C10384438485434147C77
:100786001027E80364000A000100001000011000B1
:100796000100000044535441434B454E4400485326
:1007A6005441434B454E4400FF00030003004600FE
:1007B6000200C8006A0C6A0C6A0C706F72660065EB
:1007C6007874726600626F72660077647266004AB9
:1007D600545246000D3C52414D3E000D5541525477
:1007E6005F53455454494E47530D005541525420CA
:1007F600000D204D6F646520000D20537065656403
:1008060020000D2D2D2D2D2D2D2D2D0D000D535090
:10081600495F53455454494E47530D0053504920A0
:10082600000D205072657363616C6C657220000D5B
:100836003C454550524F4D3E000D42757465735F01
:10084600525820000D42757465735F545820005449
:1008560061736B335F3530306D730D0A00545F4C36
:100866005F540D0A005469636B3D25690A004F6C9D
:100876006F6C6F3D29002020496E74657266616356
:100886006520202000204D6F6E69746F72207632CD
:100896002E31200020D5ECE5EBE5E2F1FCEAEEE9AD
:1008A6002020002020C2EBE0E4E8F1EBE0E220208B
:1008B60020002020C0C5202D2031303420202020CB
:1008C600000D20536574000D2055617274000D20D3
:1008D6004E756D000D204D6F6465000D4D20455819
:1008E6004954000D20000D20556172745F696E69D0
:1008F60074000D20537069000D53204E756D000D68
:1009060053204D6F64652D000D532050726573633F
:100916002D000D5320506861506F6C2D000D532033
:10092600537069496E6974000D20493263000D20C9
:100936004932635F696E6974000D2057000D2055BA
:1009460020443E545820000D205320443E54582045
:10095600000D205320443C525820000D20493243BC
:1009660020443E545820000D2049324320443C5236
:1009760058200079006E00610073004500000F00EA
:1009860001002D4E414E00494E4600000100020076
:100996009807090000019A070900B510A40701008D
:1009A6008906B00701008A06B20701008B06B40764
:1009B60001008C06B6070100C00FB8070200CA0F77
:1009C600BA070200CC0FBC070200CE0FBE07050017
:1009D6000002C00706000502C50705000B02CB078B
:1009E60005001002D00705001502D50707001A02F8
:1009F600DA0710002102E10706003102F1070800BC
:100A06003702F70709003F02FF070B0048020808F4
:100A16000F0053021308050062022208080067024D
:100A2600F7070E006F0227080B007D0208080A0070
:100A36008802350810009202E1070600A202F107BB
:100A46000800A802F7070900B002FF070B00B90269
:100A560008080F00C40213080500D3022208080084
:100A6600D802F7070E00E00227080B00EE0208087E
:100A76000B00F9023F080B0004034A080E000F039F
:100A8600550808001D0363080800250374080F00B5
:100A96002D037C080F003C038B080F004B039A08BC
:100AA6000F005A03A9080F006903B8080600780367
:100AB600C70807007E03CD0806008503D408070093
:100AC6008B03DA0808009203E10803009A03E90899
:100AD60008009D03E1080C00A503EC080600B1031D
:100AE600F8080700B703FE080900BE0305090A0057
:100AF600C7030E090B00D10318090B00DC032309F9
:100B06000600E7032E090600ED03D4080700F303E9
:100B1600DA080800FA03E10803000204E9080800FD
:100B26000504E1080B000D043409040018043F090C
:100B36000A001C0443090A0026044D090A00300471
:100B460057090C003A0461090C0046046D090100BE
:100B5600AE1084090100B11086090000F894EE2752
:100B6600ECBBF1E0F5BFE5BFE0936C00F8E1F1BD49
:100B7600E1BD8DE0A2E0BB27ED938A95E9F780E021
:100B860090E1A0E0B1E0ED930197E9F7E2E9F9E041
:100B960085919591009761F0A591B5910590159075
:100BA600BF01F00105900D920197E1F7FB01F0CF2F
:100BB6008BBFEFEFEDBFE0E1EEBFC0E0D2E00C94FB
:100BC600210EEFB7E0935B04F8940E94011128F41C
:100BD6000E940911A8810E9410110E9419112196E4
:100BE6000895A881B981EC91E03031F0ED91A883A8
:100BF600B983EA93E6DFF5CFC8C00E94320F0E94A0
:100C06000911ABE20E941011E0E0EA93E8E7F4E094
:100C1600FA93EA9306D20E94270FE1E0FDE0FA93E9
:100C2600EA93E9E1F0E00E941F11E0E0E093780624
:100C3600E093790608951A930A9300E8D998EA8111
:100C4600E03011F0D89A01C0D89810E0183060F45E
:100C5600E02FAB81EA2311F0DB9A01C0DB98069501
:100C6600DC9ADC981F5FF2CFD99A19810881249605
:100C760008951A930A93E0E80E942311E0E40E9483
:100C8600231100E010E0083FE1E01E0764F4ADE840
:100C9600B6E0A00FB11FEC91EA93E1E0EA93CBDF57
:100CA6000F5F1F4FF0CF10C00E942811083FE1E0F0
:100CB6001E074CF4ADE8B6E0A00FB11FE0E0EC93E0
:100CC6000F5F1F4FF3CFD5DF099119910895DA9A77
:100CD600D49AD39AD19AD09AD29ADC98E1E0F0E0ED
:100CE6000E942D11DA98E4E1F0E00E942D11DA9AC3
:100CF600D99AE1E20E942311E0918906EC5F0E94F5
:100D06002311E0918A06E05F0E942311E0918B0691
:100D1600E0580E942311A0E020FCA1E0EA2FEE0F8C
:100D2600EE0FEE0FE0620E2EA0E021FCA1E0EA2F0E
:100D3600EE0FEE0FE0290E942311E0918C06EE0FD4
:100D4600A0918C06EA2BE570E8600E942311ACDFC7
:100D56000895A981AF3018F4A881A73008F015C00E
:100D6600E881F0E03197A4E5B0E00E942213BF01CC
:100D7600E981F0E03197A6E0B0E00E942213E60F89
:100D8600F71FE0938508F0938608229608951A9334
:100D960010E01E3040F40E943111E658F94FA0E0F1
:100DA600A0831F5FF6CF199108951A9310E01530AE
:100DB600A8F40E943411BF01E981FA81A5E0B0E0F0
:100DC6000E942213DF010E943111EA0FFB1FEA572E
:100DD600FD4FE491DB01EC931F5FE9CF0E943411D4
:100DE600A0E0A083188152C21A93AA81AF3018F4EA
:100DF600A981A73010F0188149C2EA81EA93EA81F5
:100E0600EA93A7DF10E0AA81EFE0EA1B1E1790F431
:100E16000E943111E658F94FE081E03049F00E9416
:100E26003111E658F94FE081F0E0FA93EA93BDDF1D
:100E36001F5FE9CFACDF188129C2979A08951A93EC
:100E46000A93EFB7E0935B04F894AA81BB81E4E6CA
:100E56000E941C13EA83FB83EC81E030C9F40E94F4
:100E66003F110E944411E050FC4D6B407F4F7F9331
:100E76006F93FF93EF930E943F11A0E1B0E080E0F3
:100E860090E00E94FC12AF91BF918F919F9118C084
:100E96000E943F110F01CB010E94EA120E94EA1242
:100EA600E050FC4D6B407F4F7F936F93FF93EF9322
:100EB600F001BC010E944411AF91BF918F919F91A7
:100EC6000E943A13E150F040604070408F01ED817E
:100ED600E03031F5E0E0E093870AE093880A0E946B
:100EE6004B11E0938F0DE093900DE0E0E093910DB0
:100EF600E093920DE093930DE093940DEBB9EAB96C
:100F0600E0939500EC81E03011F0E2E0EBB910934C
:100F1600900009B9E8E9EAB9E6E0E09395002AC04D
:100F2600E0E0E0938B0CE0938C0C0E945111E0936F
:100F3600950EE093960EE0E0E093970EE093980E00
:100F4600E093990EE0939A0EE0939B00E0939A004B
:100F5600E0939D00EC81E03019F0E2E0E0939B0025
:100F66001093980000939900E8E9E0939A00E6E070
:100F7600E0939D000E9419111981088150C00E94BA
:100F86000F140091890A10918A0A20918D0C3091D4
:100F96008E0CED81E030E1F4A091870AB091880AC9
:100FA600F8010E94571190F4F801F170E957F74FD4
:100FB600AC81A0830F5F1F4FEFB7E0935B04F894FB
:100FC6000093890A10938A0A559A01C036DF23C016
:100FD600E13001F5A0918B0CB0918C0CF9010E94C7
:100FE6005711B0F4F901F170E557F54FAC81A083C4
:100FF6002F5F3F4FEFB7E0935B04F89420938D0C7F
:1010060030938E0CE0919A00E062E0939A0001C062
:1010160014DF01C0C1CF0E9419110E941614269632
:101026000895A881B981EC91E03051F0EA81EA9304
:10103600A981BA81ED91A983BA83EA93A0DFF1CFA2
:1010460025C1E881F981E491E03061F0EA81EA9313
:10105600E981FA813196E983FA833197E491EA933B
:101066008EDFEFCF13C10E945D110A930091870AAC
:101076001091880AE091890AF0918A0AE017F1072F
:1010860069F0F801F170E957F74FE081ECB90F5FAD
:101096001F4F0093870A1093880A07C00E944B11BE
:1010A600E093870AE093880A5598A2E6B4E00E9486
:1010B6006711099119915AC0EA93FA93EFB7EA9327
:1010C6001A930A9300918B0C10918C0CF801F17015
:1010D600E557F54FE081E0939C000F5F1F4F0093AB
:1010E6008B0C10938C0C0E947011E017F10759F4C9
:1010F6000E945111E0938B0CE0938C0CE0919A00C6
:10110600EF7DE0939A0009911991E991EFBFF9916A
:10111600E99118950E945D111CB1A091930DB091B3
:10112600940DA030E1E0BE07E0F4E0918F0DF09160
:10113600900DE157F34F1083AFE8BDE00E947511A3
:10114600A3E9BDE00E947511A0918F0DB091900D9D
:10115600A030E1E0BE0729F4E0E0E0938F0DE093D4
:10116600900DA6E6B4E00E9467111991E991EFBFD0
:10117600F991E991B991A9917991699118950E948E
:101186007B111A9310919C00E0915C04E03029F5E4
:10119600A091990EB0919A0EA030E1E0BE07E0F45E
:1011A600E091950EF091960EEB56F24F1083A5E95D
:1011B600BEE00E947511A9E9BEE00E947511A091DA
:1011C600950EB091960EA030E1E0BE0729F4E0E05E
:1011D600E093950EE093960E13C0A0918B0CB09100
:1011E6008C0C0E9470110E94571150F40E947011CD
:1011F600F170E957F74F1083A9E8BAE00E9475111C
:1012060019910E9482111895E0E0E0932F0FEBE907
:10121600FEE0E0931B0FF0931C0FE0E0E093310F2C
:10122600E093300F0895E0E0EDB9E7E0E7BBEFE0CB
:10123600E8BBE1E548C0E0E0EDB9E7E0E7BBBB9815
:10124600E8BBEA81EE0FEE0FAE2FE981EE0FEE0F4F
:10125600EE0FEA2BEDB9E881E23019F4E1E0EEB9E0
:1012660013C0E43011F4E0E00EC0E83019F4709ACF
:10127600689A0AC0E03131F0E03221F4E1E0EEB9DB
:10128600E2E001C0E1E0EDB9E0E5EDB923960895AD
:10129600EC81E03081F4E0E0EDB9EEB9AB81A1304C
:1012A60041F4EA81EA93EA81EA93EA81EA93C3DFA9
:1012B60001C004D001C0B7DF25960895E0E0EDB97E
:1012C600E8E0E7BBE0E4EDB90895AA93EA93EFB747
:1012D600EA931A930A930091720FE0E1EDB9A0E048
:1012E6009799A1E0E1E0EA2711F4979801C0979A4F
:1012F6001FB109911991E991EFBFE991A99118954B
:101306000A921A926A937A939A93AA93BA93EA9351
:10131600FA93EFB7EA93E4B1F5B1A3E0B0E00E9427
:10132600F412BF01E4B1F5B1DF01E7E0F0E00E949D
:101336002713DB01AE1BBF0BA093B60FB093B70FFD
:10134600E0E0E6B9E991EFBFF991E991B991A99188
:101356009991799169911990099018950E9489112E
:10136600E0ECE7B9ECE8E6B90895E7B1EE75E7B960
:10137600E7B1EE64E7B9E6B1EC7DE6B9E6B1E46C57
:10138600E6B9E0E0E093BA0FE093BB0FE4E6F0E0E5
:10139600E093C40FF093C50FA091C40FB091C50F91
:1013A6000E940914C0F4369A3699FECFE4B10E9421
:1013B6008F11F0E00E949411E5B1FE2FE0E00E944B
:1013C6008F110E949411A4ECBFE0ED91FD9131972D
:1013D600FE93EE93E1CFEEE8F2E1E093C20FF093D5
:1013E600C30FA091C20FB091C30FA238E4E1BE07AC
:1013F60010F00C94490AE091C20FF091C30F0E94BD
:101406008F110E94F4120E94E512EF2FF0E0E09394
:10141600BE0FF093BF0FA091BE0FB091BF0FA331C7
:10142600E5E0BE0738F0E091BE0FF091BF0FE25144
:10143600F54008C0A091BE0FB091BF0FE2E1F5E004
:10144600EA1BFB0BE093BC0FF093BD0FE091C00FBE
:10145600F091C10FA091BC0FB091BD0FAE17BF07A1
:1014660080F4E091BC0FF091BD0FE093C00FF093B4
:10147600C10FE091C20FF091C30FE093B80FF09344
:10148600B90FA2ECBFE00E947511ABCF0895E7B784
:10149600EC7FE7BFE0B7E860E0BFE0E0E2BFE5E091
:1014A600E3BFE0B7E770E9F7E7B7E160E7BF789435
:1014B60008950E949B11A6ECBFE080E00E94A9114E
:1014C60011F00C94F80AE091C60FE07CE093C60F89
:1014D600A6ECBFE086E00E94A91111F00C94F80A70
:1014E600E091C60FF091C70FEF73F07FE093C60F40
:1014F600F093C70FA6ECBFE08CE00E94B711E8316D
:10150600A0E0FA07A0E06A07A0E07A0711F00C94C1
:10151600F80AA6ECBFE00E947513EF7FFF706E7F9E
:101526007F7F0E947A13A6ECBFE081E10E94B7118B
:10153600E032A0E0FA07A0E06A07A0E07A0771F1BE
:101546000E94BE11EF3199F40E94C611E43061F099
:101556000E94C611E63041F00E94C611E93021F022
:101566000E94C611EB3011F40E94CF1126C00E94D2
:10157600BE11EE3139F40E94C611E23011F40E9418
:10158600CF111BC00E94BE11ED31B9F40E94C611E5
:10159600E23019F42BD0E03009F40FC0A6ECBFE01E
:1015A60086E1EFE0F0E060E070E00E94DB13E0919E
:1015B600C80FE17CE260E093C80F0E94C611ED30CF
:1015C600A1F4E091C80FF091C90FEF73FC7FE064BE
:1015D600E093C80FF093C90FA6ECBFE08AE1EFE3F2
:1015E600F0E060E070E00E94DB1363C10E94DF114F
:1015F600E4E6F0E060E070E00E945F130E940514EC
:1016060049F40E94DF11E0E9F1E060E070E00E9439
:101616005F130895E091C90FE695E695E370F070C3
:1016260060707070089508950E949B110E940111C8
:10163600B0F4E0917100E03051F0A0917806B091DD
:101646007906A858BB4FE0917100EC9304C00E9444
:101656000911AFEFA083A8E7B6E00E947511E091EB
:101666007100E87FE03031F4E091D00FE1600E9434
:10167600EA111FC1E83081F4E091D00FEC7021F43B
:10168600E091D90FE16003C0E091D90FEE7FE093BE
:10169600D90F0E94F5110DC1E03179F40E94FD11B8
:1016A60021F4E091D90FE16003C0E091D90FEE7FFC
:1016B600E093D90F0E94F511FCC0E83179F4E0916E
:1016C600D00FEC70E43011F40E9402120E94FD115A
:1016D60021F40E941312E0937400EBC0E03231F45F
:1016E600E091D00FE0610E94EA11E3C0E83201F513
:1016F600E091D00FEC70E43059F4E091D80FA0914E
:10170600D70FEA1719F40E94221202C00E94021291
:101716000E94FD1161F4E091DD0FA091DC0FEA1744
:1017260011F4E5EE02C00E941312E0937400C1C0EA
:10173600E03341F4E091D00FE260E093D00F0E94D5
:101746002212B7C0E83349F4E091D00FE0620E945C
:101756002B12E5EEE0937400ACC0E03449F40E942D
:10176600331211F4E5E801C0E5ECE0937400A1C082
:10177600E83431F4E091D00FE0610E94EA1199C09B
:10178600E03581F40E943A12E091D70FEF5FE093C3
:10179600D70F0E94331211F4E5E801C0E5ECE0939F
:1017A600740087C0E83529F40E943A120E9422127A
:1017B60080C0E83611F0E83731F4E091D00FE06AE6
:1017C6000E942B1202C0E03609F402C0E03761F431
:1017D600E091D00FE064E093D00FE0E0E093D30F08
:1017E600E5E8E093740065C0E03811F0E03961F493
:1017F6000E9443120E944C12E03011F4E5E801C049
:10180600E5ECE093740055C0E83811F0E83989F446
:101816000E944312E091D00FE07811F0E5EE01C08E
:10182600E5ECE0937400E091CC0FF091CD0F0995B3
:1018360040C0E03A21F4E5ECE09374003AC0E03BA6
:1018460031F4E091D00FE06A0E942B1202C0E83A10
:1018560049F4E0E0E093D30F0E945212E5E8E093EA
:10186600740027C0E83B71F40E944C120E94521289
:10187600E091D30FE03011F4E5E801C0E1ECE0932C
:10188600740017C0E03C11F0E83C99F4E091D00FE9
:10189600E07839F0E091D00FEF77E093D00FE5EEE6
:1018A60001C0E5ECE0937400E091CC0FF091CD0F10
:1018B6000995E991EFBFF991E991B991A9919991AA
:1018C600899179916991F9901990099018950895DF
:1018D600E2B3E360E2BBE1B3EC7FE1BBEFEFE093A1
:1018E6007000E3E0E09371000895E2E3E093720094
:1018F600E881F981E093CC0FF093CD0FE5E4E09316
:1019060074000C947B0EE6EBFCE0FA93EA930E94DB
:10191600730E0E9459120E9460120E941F11E5EA7E
:10192600FCE0FA93EA93E4E8F3E018C0A0E09799A4
:10193600A1E0E1E0EA2711F4979801C0979A0E9486
:1019460060120CC0EFE0F3E0FA93EA930E94F4050C
:10195600E5EAFCE0FA93EA93E4EFF1E0FA93EA931E
:101966000E947D0E08950E94281100915E04109138
:101976005F04EDE1F3E0FA93EA930E94F405EAE7E7
:10198600F6E0FA93EA93EBE6F8E0FA93EA93F801C5
:101996000E94EF120E94881384E00E94A2102896EB
:1019A600E1E0EA93E2E0EA930E94F706EAE7F6E06E
:1019B600FA93EA93E5E2F3E0FA93EA93EFE0EA9327
:1019C6000E94ED10E1E0EA93E4E0EA930E94F70654
:1019D6000E943C06E6EBFCE0FA93EA93E8EEF3E0BD
:1019E6000E941F111AC00E945912E0917806F091C8
:1019F6007906309711F00E94000608950E9428117A
:101A06000030E2E01E0748F4A8E7B4E0A00FB11FDB
:101A1600E0E0EC930F5F1F4FF3CF09911991089502
:101A2600E091D00FEF7BE093D00FE091D10FECB9AE
:101A36000895E0E0EBBBEABBE8BBE7E0E7BBE0E02C
:101A4600E5BBE4BBE2BBE1BBE3B9E2B90E948911A5
:101A5600E0E0E0936500E09364000895E0E0E0BF15
:101A6600E3BFE2BFE1BF0895E0E0EFBDEEBDEDBD2F
:101A7600ECBDE7BDE6BDEBBDEABDE9BDE8BDE09363
:101A86007900E09378000895E0E0E5BDE4BDE3BDAC
:101A96000895E0E0E0938B00E0938A00E0938900EC
:101AA600E0938800E0938100E0938000E093870054
:101AB600E0938600E0938500E0938400E093830042
:101AC600E09382000895E0E0E0936A00EABFE9BF90
:101AD600E7BFE0937D000895E0E0EBB9E8EDEAB9F1
:101AE600E6E0E0939500E0E0E0939000E3E3E9B9F7
:101AF6000895E2E0E0939B00E8EDE0939A00E6E0CB
:101B0600E0939D00E0E0E0939800E8E0E093990020
:101B160008951A9310E010E0123018F5A0E7B4E02B
:101B26000E943111EA0FFB1F0F01A4E0B0E00E94F2
:101B36006712E12FACE6B4E0F0E0EE0FFF1FEA0F0C
:101B4600FB1F0F01E12FA0E0B0E0F0E0EE0FFF1F5A
:101B5600AE0FBF1F0E94F513D001ED93FC931F5FDC
:101B6600DBCF10E01230C0F4A2E7B4E00E943111DE
:101B7600EA0FFB1F0F01A6E0B0E00E946712A6E77E
:101B8600B4E00E943111EA0FFB1F0F01AAE0B0E09A
:101B96000E9467121F5FE6CF0C94250F4ADFDEDB3B
:101BA600E4DB5CDF61DF70DF74DF8DDF95DFA1DFF3
:101BB6000E9416096CDC0895ACDFE0E0EA93E09140
:101BC6007004EA93E0916C04F0916D040E946F1228
:101BD600E1E0EA93E0917104EA93E0916E04F091FA
:101BE6006F040E946F12E0E0EA93E1E0EA93E0E41A
:101BF600F2E00E946F12E0E0EA93E1E0EA93EA93F2
:101C0600E0E0EA93E0E1EA930E944B090E946A064B
:101C16000E9407094FD05CDEE3E1FDE0FA93EA9308
:101C260064DEEEB1EFB1E0E0E0937806E09379068A
:101C36000E940911A1E00E94101108958F9A979AA7
:101C4600E3E2F0E00E942D118F989798A7DFB4DFAA
:101C56008F9A8E9A8D9AE1E00E947312E0E00E94BC
:101C66007312E6E8FCE0FA93EA933AD00E94270F53
:101C760089D0FECFFFCF0E949B11AEE5B4E00E9453
:101C860067110E94020FE991EFBFF991E991B991AD
:101C9600A9919991899179916991F99019900990F1
:101CA60018950E947B11AAE6B4E00E9475110E9465
:101CB600821118951A9310E0103179F00E947A1269
:101CC600DF01E1E7FEE0ED93FC930E948012A0E0C5
:101CD600B0E0A083B1831F5FEFCFB4C0969808959C
:101CE600E881F981FA93EA93E0E0F0E00E941F119F
:101CF600229608951A930A9310E000E0EFB7E7FFE3
:101D060002C0F89401E010E0E091AE10E117B1F1E5
:101D16000E947A12DF010E947113DF01EC81FD81BE
:101D2600EA17FB0741F40E9480120E9486120030D7
:101D360009F0789423C00E947A12DF010E94711381
:101D4600DF01E1E7FEE0EA17FB07B1F40E947A1231
:101D5600AC81BD81A083B1830E9480120E9486124D
:101D6600E091AF10EF5FE093AF10EF5FE093AE103E
:101D7600003009F0789402C01F5FC6CF1981088130
:101D8600269608950E940F1410E010E0E091AE1020
:101D9600E11779F10E949212A081A13041F5969A3D
:101DA6000E947A1220813181F8942093B010ADE020
:101DB6001A9FF001E651F04FA091B010A083ADE05C
:101DC6001A9FF001ED51F04FA0915E04B0915F04AF
:101DD60080916004909161040E94831378940E941C
:101DE6009212A2E0A0837894F901099504C01F5FBE
:101DF600CDCF789473DF0E941614249608951A9313
:101E060010E0E091AE10E117E9F00E949212E08135
:101E1600E030B1F40E948012DF010E947113DF01ED
:101E26000E94091448F40E948012DF01ED91FD9191
:101E36003197FE93EE9304C00E949212A1E0A08314
:101E46001F5FDFCF19910895F894ECE0E5BDE0E05F
:101E5600E4BDEEE3E3BDE0E8E7BF78940895E5E08E
:101E6600E5BD08951A930A93AA81BB8112960E9432
:101E76007113309729F1AA81BB8114960E947113C0
:101E86008F01309761F00230E0E01E07C0F0F801E4
:101E960031978F01AA81BB811496ED93FC93AA8199
:101EA600BB8112960E9475113197AC81A083AA81DD
:101EB600BB810E947113FF2312F00E94751106C0A8
:101EC600AA81BB81EFEFFFEFED93FC9319810881A7
:101ED6002596089526970E940D1410E0AC85BD85C1
:101EE600E0E0F0E0ED93FC93EA89FB893196EA8B1A
:101EF600FB8B3197E4912E2FE03011F40C949A105D
:101F0600E12FE03039F4253211F411E002C00E94CD
:101F160098120CC1E130A9F4253219F40E949812E6
:101F260004C112E040E000E02D3211F401E0FEC0F1
:101F36002B3211F44BE2FAC0203211F440E2F6C023
:101F460002C0E23039F450E013E0203311F40068A7
:101F5600EDC004C0E33011F00C949910203310F05A
:101F66002A3308F007C0AAE05A9F502DE22FE0530B
:101F76005E0FDCC0E22FE33649F40E94A112E88925
:101F8600F989A481AA930E94A712CFC0E33741F42E
:101F96000E94A1120E94AF120E94D8101E2F0AC0E2
:101FA600E03761F40E94A1120E94AF120E94E21073
:101FB6001E2F086002600F7730E035C0E43611F05E
:101FC600E93611F4046002C0E53731F4E6E8F7E0DB
:101FD600EE83FF8315E00DC0E83511F4086004C0F8
:101FE600E83711F00C949810E0E9F7E0EE83FF83F0
:101FF60014E002FF14C00E94A1120E94B912AB8520
:10200600AA233AF4EA85FB850E94D812EA87FB8761
:102016004DE2403011F01F5F01C00B7F04C00E94EB
:10202600A1120E94B91200FD11C0151778F407FF1E
:1020360008C002FF04C00B7F242F115001C020E30B
:1020460001C020E20E9498125150EFCF312F01FFBC
:1020560017C03030A1F003FF06C0EE81FF81259145
:10206600EE83FF8305C0AE81BF812D91AE83BF8312
:102076000E949812503009F051503150EACF4BC0AF
:1020860020E3EE81FF810E947F13E887F987EE81C6
:10209600FF813296EE83FF83E885F985AA85BB85A5
:1020A600AE17BF0750F02F5FA885B985EA85FB8577
:1020B600EA1BFB0BEA87FB87EFCF2A3328F003FFE7
:1020C60002C0295F01C0295D04FD1AC0213320F436
:1020D600A885B985119709F409C0531710F000FFB8
:1020E60001C013C020E207FF0BC020E3006102FF1E
:1020F60007C00B7F4A930E94A712503009F0515037
:102106000E949812503009F051503150A885B98577
:10211600129708F0B5CF00FF08C0503031F051508B
:10212600E0E2EA930E94A712F8CF10E0DDCEAC857C
:10213600BD850E9471130E94141464960895FF923F
:10214600F82E26970E940F140E94C112309719F498
:10215600EFEFFFEF25C0DE0116960E94D4128D0127
:102166000E94C112EE83FF83E0E0E887E987DE0183
:102176001A960E94D4120E947113FA93EA931A9344
:102186000A93E5E3FFE0FA93EA93FE013A96FA939F
:10219600EA93A0DE9F01AE81BF81E0E0EC93F901F6
:1021A6000E9416142A96FF900895A991B991EE27D8
:1021B600FF276D91662311F03196FBCF0895AA276C
:1021C600BB27E991F9910590002011F01196FBCFFC
:1021D600FD0108957991E991F991A991B991CD01FE
:1021E600772351F07A9561916D936623C9F777232A
:1021F60019F07A956D93FBCFFC010895A0917806AE
:10220600B0917906A030E2E0BE070895E091780625
:10221600F0917906E858FB4F0895A083A8E7B6E049
:10222600ED91FD913196FE93EE930895EFB7A0914F
:102236005B04EA2BEFBF0895FA93EA930C947D0EA4
:10224600EA93E0E0EA930C941E061A930A9300E0E0
:1022560010E00895FA93EA930C94C812E12FF0E087
:102266000895A5E8B8E0ED91FD913196FE93EE93C1
:102276003197E357F94F0895EA81FB81662777275F
:102286000895A8E0B0E080E090E00E94FC12089576
:10229600E0E0E093890AE0938A0A0895E0E0E0939B
:1022A6008D0CE0938E0C0895EA1BFB0BE130A2E047
:1022B600FA0708956A937A93AA93BA93EA93FA93DC
:1022C600EFB7EA931A9308950E947513EF5FFF4FD5
:1022D6006F4F7F4F0E947A130895E0918D0CF09115
:1022E6008E0C0895ED91FD913196FE93EE9308952F
:1022F600AA93BA93EA93FA93EFB7EA930895E9910A
:10230600EFBFF991E991B991A9910895E0E0E093C1
:102316006200E09361000895A091BA0FB091BB0FDF
:102326000895EA0FFB1FE093BA0FF093BB0F0895D1
:102336000A921A92FA926A937A938A939A93AA9332
:10234600BA93EA93FA93EFB7EA930895EFE3F0E0CE
:1023560060E070E00E94C913EC33A0E0FA07A0E049
:102366006A07A0E07A070895EFE1F0E060E070E028
:102376000E94C9130895E091C80FF091C90FF69510
:10238600E795EF710895A091C80FB091C90FE6E0E7
:102396000E94DC12EF700895A6ECBFE086E1EFE044
:1023A600F0E060E070E00E94DB13E091C80FE17C92
:1023B600E260E093C80F0895E091C90FE695E695AF
:1023C600EF73F07060707070DF01CB010895E093D9
:1023D600D00FE5EDE0937400E091CE0FF091CF0FB2
:1023E60009950895E091D90FE0937300E5ECE09329
:1023F60074000895E091D00FEC70E8300895E091F4
:10240600D70FF0E0EC52F04FE081E0937300E091DB
:10241600D70FEF5FE093D70FE5ECE09374000895D4
:10242600E091DC0FF0E0E652F04FE081E0937300BC
:10243600E091DC0FEF5FE093DC0FE5EC0895E5ED4E
:10244600E0937400E091CA0FF091CB0F09950895BF
:10245600E093D00FE0E0E093D70FE093DC0F089510
:10246600A091D70FAF5FE091D80FEA170895A0911A
:10247600D70FB0E0AC52B04FE0917300EC930895E3
:10248600A091D30FB0E0AF52B04FE0917300EC9340
:102496000895E091D30FEF5FE093D30F0895F0E036
:1024A600EE52F04FE081E09373000895E6EFFCE012
:1024B600FA93EA93E2E3F0E0BFCEE9E9FCE0FA93AF
:1024C600EA93E7E3F0E00895EE27A10FBE1F0E940E
:1024D600F913D001EC930895FA93EA930C9422072A
:1024E600EA93E0EFF0E0FA93EA930C942408ADE067
:1024F6001A9FF001E252F04F0895ADE01A9FF001E5
:10250600E052F04F0895AA81BB81A083B183ADE06C
:102516001A9FF001EE51F04FA0E0A0830895ADE0C0
:102526001A9FF001EE51F04F08952A93ED85FE852E
:10253600FA93EA93E989FA8909950895E889F98968
:102546003497E88BF98B0895ED85FE85FA93EA9327
:10255600E989FA8909950895A889B98914960E9486
:102566007113EE83FF83FA93EA930895A889B989D4
:1025760014960E947113EA87FB870895DE011C9664
:102586000E94D4120E9471130895E991F991309630
:1025960039F080EA9FE00197F1F7A8953197C9F7DE
:1025A60008950024AF0DB01D0895F195E195F04012
:1025B6000895EE230E2EFD0121F0F695E7950A9477
:1025C600E1F70895F695E795F695E7950895EE0FE8
:1025D600FF1F661F771F08956F2F660F660B762FF6
:1025E6000895FA9FF02DEB9FF00DEA9FE02DF10D77
:1025F60008957A9F702D6B9F700DF89F700DE99F5F
:10260600700D6A9F602D710DFB9F600D711DE89F17
:10261600600D711D8827FA9FF02D610D781FEB9FC5
:10262600F00D611D781FEA9FE02DF10D681F781FE0
:1026360008956E2F6A9FF0016B9FF00D089540D0AC
:10264600D0DF0EF4B2DF08950024112490E1AA0F22
:10265600BB1F001C111C0E1A1F0A18F40E0E1F1E9B
:1026660001C0A1609A9599F7FD01D00108953F93A5
:102676004F935F93002411244427552730E2AA0F75
:10268600BB1F881F991F001C111C441F551F0E1AC3
:102696001F0A460B570B28F40E0E1F1E461F571F08
:1026A60001C0A1603A9559F7FD01BC01D001CA01EC
:1026B6005F914F913F910895DADFFD01BC010895C6
:1026C600E894F7FF02C071DF6894B7FF06C0A095D3
:1026D600B095119600F8039400FA0895ED91FC91D7
:1026E60011970895ED91FD916D917D9108957E93D9
:1026F6006E93FE93EE9308950590F491E02D089560
:10270600A083B1838283938308957A936A93FA931D
:10271600EA930895082E8F019B01ED91FD916D912D
:102726007C91102C112031F076956795F795E795F9
:102736001A94D1F7E023F123622373230895E0234B
:10274600F12362237323AF01CB01002051F0000F68
:10275600111F221F331F440F551F881F991F0A94EC
:10276600B1F700951095209530951C900E90022299
:1027760013223E912E9120233123242B352B082A18
:10278600192A2D933D930D921C9208950F931F9332
:102796002F933F934F935F93BDDF3196611D711D5C
:1027A600CEDF5F914F913F912F911F910F91089529
:1027B6000F931F932F933F934F935F93ABDFEF934B
:1027C600FF936F937F933196611D711DB8DF7F91E3
:1027D6006F91FF91EF915F914F913F912F911F91D3
:1027E6000F910895119602D0FE2F1197E199FECF11
:1027F600FF93FFB7F894AEBBBFBBE09AEDB3FFBF44
:10280600FF910895309760407040089500240A169D
:102816000B0608955A934A933A932A931A930A9366
:1028260008955D814C813B812A8119810881089533
:00000001FF
