:020000000C945E
:1000020027060C9400000C9400000C9400000C9441
:1000120000000C9400000C9400000C9400000C945E
:1000220000000C94EF140C9400000C9400000C944B
:1000320000000C9400000C9400000C9400000C943E
:100042004C0C0C947F0B0C94F0090C942F090C941B
:1000520000000C944B0E0C9400000C9400000C94C5
:1000620000000C9400000C9400000C9400000C940E
:1000720000000C9400000C94250A0C945B090C946B
:1000820000000C94D20C0C94000000000000000050
:10009200005F00000007000700147F147F14242A69
:1000A2007F2A122313086462364955225000050341
:1000B2000000001C2241000041221C0014083E08DE
:1000C2001408083E08080050300000080808080814
:1000D2000060600000201008040200000000000020
:1000E200005F00000007000700147F147F14242A19
:1000F2007F2A1223130864623649552250000503F1
:100102000000001C2241000041221C0014083E088D
:100112001408083E080800503000000808080808C3
:1001220000606000002010080402000000000000CF
:10013200005F00000007000700147F147F14242AC8
:100142007F2A1223130864623649552250000503A0
:100152000000001C2241000041221C0014083E083D
:100162001408083E08080050300000080808080873
:10017200006060000020100804023E5149453E0024
:10018200427F400042615149462141454B3118149A
:10019200127F1027454545393C4A494930017109CA
:1001A20005033649494936064949291E00363600B3
:1001B20000005636000008142241001414141414CE
:1001C20000412214080201510906324979413E7E5A
:1001D2001111117E7F494949363E414141227F41F9
:1001E20041221C7F494949417F090909013E414990
:1001F200497A7F0808087F00417F41002040413F43
:10020200017F081422417F404040407F020C027F60
:100212007F0408107F3E4141413E7F090909063EA5
:100222004151215E7F091929464649494931010157
:100232007F01013F4040403F1F2040201F3F403888
:10024200403F631408146307087008076151494569
:1002520043007F41410002040810200041417F0019
:100262000402010204404040404000010204002018
:10027200545454787F4844443838444444203844E1
:1002820044487F3854545418087E0901020C5252D3
:10029200523E7F0804047800447D40002040443DE3
:1002A200007F1028440000417F40007C041804783D
:1002B2007C0804047838444444387C141414080834
:1002C2001414187C7C080404084854545420043F35
:1002D2004440203C4040207C1C2040201C3C4030BC
:1002E200403C44281028440C5050503C4464544C28
:1002F20044000836410000007F000000413608003B
:1003020010080810087846414678000000000000F6
:10031200005F00000007000700147F147F14242AE6
:100322007F2A1223130864623649552250000503BE
:100332000000001C2241000041221C0014083E085B
:100342001408083E08080050300000080808080891
:10035200006060000020100804020000000000009D
:10036200005F00000007000700147F147F14242A96
:100372007F2A12231308646236495522500005036E
:100382000000001C2241000041221C0014083E080B
:100392001408083E08080050300000080808080841
:1003A200006060000020100804020000000000004D
:1003B200005F00000007000700147F147F14242A46
:1003C2007F2A12231308646236495522500005031E
:1003D2000000001C2241000041221C0014083E08BB
:1003E2001408083E080800503000000808080808F1
:1003F200006060000020100804023E5149453E00A2
:10040200427F400042615149462141454B31181417
:10041200127F1027454545393C4A49493001710947
:1004220005033649494936064949291E0036360030
:10043200000056360000081422410014141414144B
:10044200004122140802015109067E1111117E7F1A
:10045200494949317F494949367F010101037029E0
:1004620027217F7F4949494177087F0877414141E8
:1004720049767F1008047F7F1009047F7F081422C9
:100482004120413F017F7F020C027F7F0808087FE5
:100492003E4141413E7F0101017F7F090909063E3C
:1004A2004141412201017F010147281008071E2115
:1004B2007F211E63140814633F2020205F07080871
:1004C200087F7F407F407F3F203F205F017F484879
:1004D200307F4830007F007F484830414141493EEB
:1004E2007F083E413E462919097F20545454783CE6
:1004F2004A4A49317C545428007C0404040C722A70
:1005020026227E38545454186C107C106C44445487
:1005120054387C2010087C7C2112097C7C102844F1
:100522000020443C047C7C0810087C7C1010107C69
:1005320038444444387C0404047C7C141414083881
:100542004444442004047C0404442810080408148D
:100552007E140844281028443C40407C400C101073
:10056200107C7C407C407C3C203C207C047C5050B5
:10057200207C5020007C007C505020284444543879
:100582007C10384438485434147C000000000000C9
:1005920000000000000080C0E0F0F8F8FCFCFEFE65
:1005A200FFFFFEFCF8F0E0C0800000000000000049
:1005B20000000000000000000000000000000080B9
:1005C200C0E0F0F8FCFEFFFFFEFEFEFCF8F8F0E0F3
:1005D200C0800000000000000000000000000000D9
:1005E200000000000000E0F8FEFFFFFFFFFFFFFF3A
:1005F200FFFFFFFFFFFFFFFFFFFFFFFFFFFFFEFC0D
:10060200F8F0E040000000000000000040E0F0F8D8
:10061200FCFEFFFFFFFFFFFFFFFFFFFFFFFFFFFFEC
:10062200FFFFFFFFFFFFFFFEF8E0000000000000F9
:100632000000000000000000787F7F7F7F7F7F7FC7
:100642007F7F7F7F7F7F7F7F7F7F7F7F7F7F7F7FB8
:100652007F7F0F0301F0F8FCFCFEFEFEFEFEFEFCB7
:10066200FCF8F001030F7F7F7F7F7F7F7F7F7F7F9B
:100672007F7F7F7F7F7F7F7F7F7F7F7F7F7F7F788F
:100682000000000000000000000000000000000068
:100692000000000000000000000000000000000058
:1006A2000000000000000080C0E1E3E7C7CF8F8FA9
:1006B2008F8FCFC7E7E3E1C0800000000000000099
:1006C2000000000000000000000000000000000028
:1006D2000000000000000000000000000000000018
:1006E2000000000000000000000000000000000008
:1006F20000000080C0E0F0F8FCFEFFFFFFFFFFFFFC
:10070200FFFFFFFFFFFFFFFFFFFFFFFFFFFFFEFCFB
:10071200F8F0E0C0800000000000000000000000CF
:1007220000000000000000000000000000000000C7
:1007320000000000000000000000000000000000B7
:10074200000000000C0E1F1F1F3F3F3F3F7F7F7FB7
:10075200FFFFFFFFFFFFFFFFFFFFFFFFFFFFFFFFA7
:100762007F7F7F3F3F3F3F1F1F1F0E0C0000000097
:100772000000000000000000000000000000000077
:10078200000048656C700000536574005561727416
:1007920000004D6F6465000053706565640053701E
:1007A2006900507265736300707000004932630023
:1007B200570072737400626F6F74000064626700A6
:1007C20020450D00206F6B0D0000204C61726765A3
:1007D2005F76616C75650D002057726F6E675F768C
:1007E200616C75650D00205300000D3E3E3E2048B1
:1007F200454C50203C3C3C0D20436F6D6D616E6456
:10080200733A0D000D20536574202D496E74657284
:10081200666163655F6E616D652D202D6E756D621B
:1008220065722D204D6F6465202D76616C7565288B
:100832006F7074696F6E616C292D205370656564E9
:10084200202D76616C7565286F7074696F6E616CAE
:10085200292D00000D20572020202D496E7465722D
:10086200666163655F6E616D652D202D6E756D62CB
:1008720065722D202D646174612D00000D20476585
:1008820074202D656E746974792D00000D20204945
:100892006E746572666163657320617661696C610D
:1008A200626C653A0D2020205561727428302C311B
:1008B200290D20202053706928302D486172642C44
:1008C20020312D536F6674290D000D3E3E3E20559A
:1008D2004152545F48454C50203C3C3C0D204D6FEA
:1008E20064653A20302D204E4F524D414C3B203111
:1008F2002D20444F55424C45442073706565640079
:100902000D2053706565643A20626175642F313041
:1009120030202845783A203537362069732035371C
:10092200363030290D000D3E3E3E205350495F487F
:10093200454C50203C3C3C0D204D6F64653A2030C4
:100942002D20534C4156453B20312D204D415354CF
:1009520045520A000D205072657363616C6C6572BA
:100962003A20706F77206F662032202845783A202F
:100972005072657363203136290D00001027E80399
:1009820064000A00010000100001100001000000D4
:10099200FF00C800090E090E090E030302460000FB
:1009A20000000000706F72660D0A0065787472664E
:1009B2000D0A00626F72660D0A00776472660D0A94
:1009C200004A5452460D0A000D3C52414D3E000D64
:1009D200554152545F53455454494E47530D0055A7
:1009E20041525420000D204D6F646520000D2053AC
:1009F2007065656420000D2D2D2D2D2D2D2D2D0DB5
:100A0200000D5350495F53455454494E47530D000E
:100A120053504920000D205072657363616C6C6500
:100A22007220000D3C454550524F4D3E000D42751F
:100A32007465735F525820000D42757465735F547C
:100A4200582000767265663D25642000643D256469
:100A5200200064656C74613D25642000766F6C74BF
:100A62003D256420000D20536574000D20556172F0
:100A720074000D204E756D000D204D6F6465000DE4
:100A82004D2045584954000D20000D2055736172C8
:100A9200745F696E6974000D20537069000D5320F4
:100AA2004E756D000D53204D6F64652D000D532062
:100AB20050726573632D000D5320506861506F6C46
:100AC2002D000D5320537069496E6974000D205733
:100AD200000D205520443E545820000D2053204440
:100AE2003E545820000D205320443C525820000D03
:100AF2002049324320443E545820000D20493243BD
:100B020020443C52582000730045000001002D4E45
:100B1200414E00494E4600000100020090090100CA
:100B2200010F940902000D0F960902000F0F980998
:100B32000200110F9A0907000002CA0910000702F9
:100B4200D10906001702E10908001D02E7090900A0
:100B52002502EF090B002E02F8090F003902030AE1
:100B620005004802120A08004D02E7090E0055026C
:100B7200170A0B006302F8090A006E02250A100028
:100B82007802D10906008802E10908008E02E7090D
:100B920009009602EF090B009F02F8090F00AA0252
:100BA200030A0500B902120A0800BE02E7090E0094
:100BB200C602170A0B00D402F8090B00DF022F0A43
:100BC2000B00EA023A0A0600F502670A0700FB0276
:100BD2006D0A06000203740A070008037A0A080075
:100BE2000F03810A03001703890A08001A03810A06
:100BF2000D0022038C0A06002F03990A0700350311
:100C02009F0A09003C03A60A0A004503AF0A0B002B
:100C12004F03B90A0B005A03C40A04006503CF0A42
:100C22000A006903D30A0A007303DD0A0A007D037E
:100C3200E70A0C008703F10A0C009303FD0A0A007D
:100C420004009C090100610F0E0B0000F894EE27CE
:100C5200ECBBF1E0F5BFE5BFE0936C00F8E1F1BD5C
:100C6200E1BD8DE0A2E0BB27ED938A95E9F780E034
:100C720090E1A0E0B1E0ED930197E9F7EAE1FBE052
:100C820085919591009761F0A591B5910590159088
:100C9200BF01F00105900D920197E1F7FB01F0CF42
:100CA2008BBFEFEFEDBFE0E1EEBFC0E0D2E00C940E
:100CB200C5141A930A9300E8D998EA81E03011F03A
:100CC200D89A01C0D89810E0183060F4E02FAB81B8
:100CD200EA2311F0DB9A01C0DB980695DC9ADC98D6
:100CE2001F5FF2CFD99A95C40E94E217083FE1E054
:100CF2001E0754F40E94F317EC91EA93E1E0EA93A1
:100D0200D8DF0F5F1F4FF2CF0EC00E94F817083FC7
:100D1200E1E01E073CF40E94F317E0E0EC930F5F62
:100D22001F4FF5CFE1DF099119910895DA9AD49A0C
:100D3200D39AD19AD09AD29ADC98E1E0F0E00E945C
:100D4200FD17DA98E4E1F0E00E94FD17DA9AD99AE9
:100D5200E1E20E940118E52DEC5F0E940118E42DEA
:100D6200E05F0E940118E72DE0580E940118A0E000
:100D720020FCA1E0EA2FEE0FEE0FEE0FE0620E2E46
:100D8200A0E021FCA1E0EA2FEE0FEE0FE0290E9485
:100D92000118E62DEE0FE629E570E8600E940118C1
:100DA200B4DF08950E94E217083FE1E01E0778F4DD
:100DB200F801E954FC4F0F01F801AA81BB81EA0F47
:100DC200FB1FE491D001EC930F5F1F4FEDCF21C4C5
:100DD2000E94651CAE81A535B8F5AD81A133A0F5A1
:100DE200B0E0E8E0F0E00E94CF1BA4E5B0E00E9492
:100DF200A91BDF01EE810E9406188F01ED81E695A5
:100E0200E695E695EE0FEE0FEE0FAD81AE1B3A2F93
:100E12000E94F3172C91EC81E03029F40E940A1809
:100E2200E0952E230DC0AC81A13021F40E940A1856
:100E32002E2B06C0AC81A23019F40E940A182E276C
:100E4200F801E954FC4F20830E946C1C27960895F8
:100E52002497E0E0E883E983EA83EB830E94631C42
:100E620000E010E020E030E040E050E0A989BA89DB
:100E7200A535E0E0BE0774F4AD85BE85A535E0E09A
:100E8200BE0744F4AF85B889D19724F4AB85BC85FD
:100E9200D1970CF072C0AF85B889EB85FC85EA1B4F
:100EA200FB0B8F01A989BA89ED85FE85EA1BFB0B35
:100EB2009F0111233AF4F8010E945D1B8F01EFEFAD
:100EC200FFEF02C0E1E0F0E0E887F98733233AF46C
:100ED200F9010E945D1B9F014FEF5FEF02C041E0ED
:100EE20050E0000F111F220F331F0E940F1802172C
:100EF200130714F5F901F595E795DF01F801EA1BEF
:100F0200FB0BEE83FF83ED85FE85A989BA89EA177B
:100F1200FB0789F0AF81AA2342F00E941718EE81E5
:100F2200FF81E21BF30BEE83FF830E942018F8017E
:100F32000E942818E8CF21C0F801F595E795DF0156
:100F4200F901EA1BFB0BEE83FF83EB85FC85AF8582
:100F5200B889EA17FB0789F0AF81AA2342F00E9401
:100F62002018EE81FF81E01BF10BEE83FF830E94CC
:100F72001718F9010E942818E8CF0E946A1C63968C
:100F82000895A981AF3018F4A881A73008F012C0E3
:100F9200E881F0E03197A4E5B0E00E94A91BBF010F
:100FA200E981F0E03197A6E0B0E00E94A91BE60FCC
:100FB200F71F4F01229608951A9310E01E3030F465
:100FC2000E942F18A0E0A0831F5FF8CF1991089507
:100FD2001A9310E01530A0F40E943418BF01E98181
:100FE200FA81A5E0B0E00E94A91BDF01E12F0E9477
:100FF2000618E457FF4FE491DB01EC931F5FEACF41
:101002000E943418A0E0A08318813AC31A93AA81DF
:10101200AF3018F4A981A73010F0188131C3EA81EA
:10102200EA93EA81EA93ADDF10E0AA81EFE0EA1BDE
:101032001E1768F40E942F18E081E03031F00E9400
:101042002F18E0810E943B18C3DF1F5FEECFB4DF91
:10105200188116C3969A08951A930A93EFB7E093EC
:10106200AF05F894AA81BB81E4E60E94A31BEA8340
:10107200FB83ED81E03049F50E943F18E0E0E09308
:10108200D10AE093D20AE093D30AE093D40AE09320
:10109200D50AE093D60AEBB9EAB9E0939500EC8160
:1010A200E03029F40E9449180E944E1805C00E949F
:1010B20049180E946018EBB91093900009B9E8E949
:1010C200EAB9E6E0E09395002DC00E947318E0E0D3
:1010D200E093D70BE093D80BE093D90BE093DA0BB4
:1010E200E093DB0BE093DC0BE0939B00E0939A0030
:1010F200E0939D00EC81E03029F40E9449180E949F
:101102004E1806C00E9449180E946018E0939B0086
:101112001093980000939900E8E9E0939A00E6E0C2
:10112200E0939D000E947D181981088126960895FA
:10113200EFB7E093AF05F894E0E0E093B505E093F4
:10114200B605E093B705E093B805E881E03019F4FD
:101152000E943F1806C0E13019F40E94731801C0C2
:10116200F7CF0E947D181CC20E94651C0091CB071C
:101172001091CC072091CF093091D009ED81E03058
:10118200F9F4A091C907B091CA07F801EA1BFB0B59
:10119200E130A2E0FA0790F4F801F170E753FA4F58
:1011A200AC81A0830F5F1F4FEFB7E093AF05F894B8
:1011B2000093CB071093CC07559A01C04BDF26C092
:1011C200E13019F5A091CD09B091CE09F901EA1BE0
:1011D200FB0BE130A2E0FA07B0F4F901F170E3533E
:1011E200F84FAC81A0832F5F3F4FEFB7E093AF057D
:1011F200F8942093CF093093D009E0919A00E062ED
:10120200E0939A0001C026DF01C0BBCF0E947D1887
:101212000E946C1C0C94490EA881B981EC91E030BB
:1012220051F0EA81EA93A981BA81ED91A983BA8347
:10123200EA939ADFF1CF24C2E881F981E491E030A8
:1012420061F0EA81EA93E981FA813196E983FA83CE
:101252003197E491EA9388DFEFCF12C20E9483189C
:101262000A930091C9071091CA07E091CB07F09148
:10127200CC07E017F10769F0F801F170E753FA4F74
:10128200E081ECB90F5F1F4F0093C9071093CA07A3
:101292000AC0E0E0E093CB07E093CC07E093C907F4
:1012A200E093CA075598A5EBB5E00E948D18099105
:1012B2001991C1C0EA93FA93EFB7EA931A930A938A
:1012C2000091CD091091CE09F801F170E353F84F66
:1012D200E081E0939C000F5F1F4F0093CD091093B4
:1012E200CE09E091CF09F091D009E017F10771F42E
:1012F200E0E0E093CF09E093D009E093CD09E093D9
:10130200CE09E0919A00EF7DE0939A00099119913C
:10131200E991EFBFF991E9911895E881E03019F070
:10132200E091DB0B02C0E091D50A3AC11A930A930D
:10133200EA81E03051F5A091D50AB091D60A0E9417
:10134200551CF8F4E091D30AF091D40AEF52F64F0B
:101352001081A3EDBAE00E949618A091D30AB09131
:10136200D40AA030E1E0BE0729F4E0E0E093D30A1A
:10137200E093D40A0FB7F894A5EDBAE00E949C1846
:101382007FC1E0E0198108817BC1A091DB0BB091A4
:10139200DC0B0E94551CF8F4E091D90BF091DA0BAA
:1013A200E952F54F1081A9EDBBE00E949618A09179
:1013B200D90BB091DA0BA030E1E0BE0729F4E0E0EE
:1013C200E093D90BE093DA0B0FB7F894ABEDBBE0E7
:1013D2000E949C1855C1E0E01981088151C10E9408
:1013E20083181CB1A091D50AB091D60AA030E1E0D1
:1013F200BE07E0F4E091D10AF091D20AEF52F64F23
:101402001083A1EDBAE00E949618A5EDBAE00E9401
:101412009618A091D10AB091D20AA030E1E0BE079D
:1014220029F4E0E0E093D10AE093D20AA9EBB5E017
:101432000E948D181991E991EFBFF991E991B99143
:10144200A991799169911895AA93BA93EA93FA931B
:10145200EFB7EA931A9310919C00A091DB0BB09125
:10146200DC0BA030E1E0BE07E0F4E091D70BF09195
:10147200D80BE952F54F1083A7EDBBE00E949618F6
:10148200ABEDBBE00E949618A091D70BB091D80BA0
:10149200A030E1E0BE0729F4E0E0E093D70BE0934F
:1014A200D80B1991E991EFBFF991E991B991A991FD
:1014B2001895EFB7E093AF05F894A091DD0DB091C8
:1014C200DE0DAF3FE3E0BE0728F40E94A818A88112
:1014D2000E94AF180E947D1863C0E881F981E491EF
:1014E200E03051F0E881F9813196E883F983319750
:1014F200E491EA93DEDFF1CFA5C3A881B981EC9133
:10150200E03031F0ED91A883B983EA93D2DFF5CFD1
:1015120099C3BB240E94B318DD24AA240895A8818C
:10152200AD3071F1EFE7AE1630F5A032D9F0BB2045
:1015320019F40E94B318B394DD2071F0EAE0BE16EC
:1015420050F4EB2DAFE5BEE00E94BA180E94C0181D
:10155200ED93FC93B394DD240E94C018A881A0836C
:10156200A39409C0DD2039F40E94C018A0E0A08332
:10157200A394E1E0DE2E0E94C018A0E0A08310C078
:101582000E94C018A0E0A083BB2039F0BA92EFE518
:10159200FEE0FA93EA930E94EC11BB24DD24AA2414
:1015A200219608951A9310E0A981BA81EC91E03056
:1015B20081F0E0531E0FE981FA813196E983FA83C3
:1015C200A981BA81EC91E03019F0AAE01A9F102D9E
:1015D200EBCFE12F188154C00E94F817AA81BB817A
:1015E200EC91E030A9F0E053F0E00E0F1F1FEA810A
:1015F200FB813196EA83FB83AA81BB81EC91E030C7
:1016020031F0AAE0A09FF001A19FF00D8F01E6CF7B
:10161200F8011981088124960895E0E0EDB9E7E028
:10162200E7BBEFE0E8BBE1E567C0E0E0EDB9E7E08A
:10163200E7BBBB98E8BBEA81EE0FEE0FAE2FE98164
:10164200EE0FEE0FEE0FEA2BEDB9E881E23019F45E
:10165200E1E0EEB913C0E43011F4E0E00EC0E8308E
:1016620019F4709A689A0AC0E03131F0E03221F43C
:10167200E1E0EEB9E2E001C0E1E0EDB9E0E5EDB9AB
:1016820023960895EC81E03081F4E0E0EDB9EEB903
:10169200AB81A13041F4EA81EA93EA81EA93EA81DB
:1016A200EA93C3DF01C023D001C0B7DF3DC41A9360
:1016B20010E0C098AB81BC81EC91E03089F0ED91F3
:1016C200AB83BC83EFB9779BFECF103438F4A9818A
:1016D200BA81EE27A10FBE1FEFB1EC931F5FEACFD5
:1016E200C09AE7E8F0E10E94C5181881D1C2E0E093
:1016F200EDB9E8E0E7BBE0E4EDB90895AA93EA9317
:10170200EFB7EA931A930A930091B30EE0E1EDB9B1
:10171200A0E09699A1E0E1E0EA2711F4969801C0D1
:10172200969A1FB109911991E991EFBFE991A99197
:1017320018950E94C918E0ECE7B9ECE8E6B90895FB
:10174200E7B1EE75E7B9E7B1EE64E7B9E6B1EC7D72
:10175200E6B9E6B1E46CE6B9E0E0E093FB0EE093B3
:10176200FC0EE4E6F0E0E093050FF093060FA09183
:10177200050FB091060F0E94551CF8F4369A36995F
:10178200FECFE4B10E94CF180E940618E093FB0E30
:10179200F093FC0EE5B1FE2FE0E00E94CF18EA0FB5
:1017A200FB1FE093FB0EF093FC0EA5E0BFE0ED9172
:1017B200FD913197FE93EE93DACFEEE8F2E1E093FA
:1017C200030FF093040FA091030FB091040FA238FE
:1017D200E4E1BE0710F00C94390CE091030FF09194
:1017E200040F0E94CF180E947B1B0E94761BEF2FD2
:1017F200F0E0E093FF0EF093000FA091FF0EB09186
:10180200000FA331E5E0BE0738F0E091FF0EF09142
:10181200000FE251F54008C0A091FF0EB091000FF9
:10182200E2E1F5E0EA1BFB0BE093FD0EF093FE0E06
:10183200E091010FF091020FA091FD0EB091FE0E0A
:10184200AE17BF0780F4E091FD0EF091FE0EE0931B
:10185200010FF093020FE091030FF091040FE09358
:10186200F90EF093FA0EA3E0BFE00E949618ABCFF8
:101872000895E7B7EC7FE7BFE0B7E860E0BFE0E0DC
:10188200E2BFE5E0E3BFE0B7E770E9F7E7B7E160A1
:10189200E7BF789408950E94D418A091070FAF5F14
:1018A200A093070FAC3311F00C94BD0CE0E0E09371
:1018B200070FE091080FEF5FE093080FEC3311F090
:1018C2000C94BD0CE0E0E093080FE091090FEF5F8C
:1018D200E093090FE83111F00C94BD0CE0E0E093C5
:1018E200090FE0910A0FEF5FE0930A0FE03271F106
:1018F200A0910A0FAF3199F4A0910B0FA43061F0BF
:10190200A0910B0FA63041F0A0910B0FA93021F04E
:10191200A0910B0FAB3011F40E94E21820C0A091ED
:101922000A0FAE3139F4A0910B0FA23011F40E94CC
:10193200E21815C0A0910A0FAD3189F4A0910B0FE6
:10194200A23019F41AD0E03009F409C0E0910B0F6B
:10195200EF5FE0930B0FE150E1E0E0930A0FA091FB
:101962000B0FAD3049F4E1E0E0930B0FE0910C0F67
:10197200EF5FE0930C0FE1503DC1A0910C0FE4E644
:101982000E94F91BE03041F4A0910C0FBB27E0E963
:10199200F1E00E94FC1B0895E0910C0FE3700895A2
:1019A20008950E94D418E0917100E87FE03031F48C
:1019B200E091130FE1600E94EC181CC1E83081F441
:1019C200E091130FEC7021F4E0911C0FE16003C071
:1019D200E0911C0FEE7FE0931C0F0E94F7180AC1E2
:1019E200E03179F40E94FF1821F4E0911C0FE160CC
:1019F20003C0E0911C0FEE7FE0931C0F0E94F718CA
:101A0200F9C0E83179F4E091130FEC70E43011F48D
:101A12000E9404190E94FF1821F40E941519E093F4
:101A22007400E8C0E03231F4E091130FE0610E94EB
:101A3200EC18E0C0E83201F5E091130FEC70E430ED
:101A420059F4E0911B0FA0911A0FEA1719F40E94A2
:101A5200241902C00E9404190E94FF1861F4E09147
:101A6200200FA0911F0FEA1711F4E5EE02C00E94A9
:101A72001519E0937400BEC0E03341F4E091130FF6
:101A8200E260E093130F0E942419B4C0E83349F4D2
:101A9200E091130FE0620E942D19E5EEE0937400CD
:101AA200A9C0E03449F40E94351911F4E5E801C0F7
:101AB200E5ECE09374009EC0E83431F4E091130F3A
:101AC200E0610E94EC1896C0E03581F40E943C1956
:101AD200E0911A0FEF5FE0931A0F0E94351911F48B
:101AE200E5E801C0E5ECE093740084C0E83529F430
:101AF2000E943C190E9424197DC0E83611F0E83793
:101B020031F4E091130FE06A0E942D1902C0E03611
:101B120009F402C0E03749F40E944519E0E0E0937D
:101B2200160FE5E8E093740065C0E03811F0E03983
:101B320061F40E944B190E945419E03011F4E5E857
:101B420001C0E5ECE093740055C0E83811F0E839C3
:101B520089F40E944B19E091130FE07811F0E5EE41
:101B620001C0E5ECE0937400E0910F0FF091100FCB
:101B7200099540C0E03A21F4E5ECE09374003AC0E4
:101B8200E03B31F4E091130FE06A0E942D1902C08C
:101B9200E83A49F4E0E0E093160F0E945A19E5E8AA
:101BA200E093740027C0E83B71F40E9454190E942C
:101BB2005A19E091160FE03011F4E5E801C0E1ECAA
:101BC200E093740017C0E03C11F0E83C99F4E09116
:101BD200130FE07839F0E091130FEF77E093130FD2
:101BE200E5EE01C0E5ECE0937400E0910F0FF09197
:101BF200100F0995E991EFBFF991E991B991A99176
:101C02009991899179916991F99019900990189512
:101C12000895E2B3E360E2BBE1B3EC7FE1BBEFEF37
:101C2200E0937000E3E0E09371000895E2E3E09353
:101C32007200E881F981E0930F0FF093100FE5E451
:101C4200E093740022960895E091130FE07411F06E
:101C5200E0E01EC0E0E0E0931A0FE3E0E0931B0F28
:101C6200ED81E0931C0FEC81E093170FEB81E09381
:101C7200180FEA81E093190FE4E0E093130FE88173
:101C8200F981E0930D0FF0930E0F0E946119E1E0CC
:101C9200269608950A921A926A937A939A93AA932D
:101CA200BA93EA93FA93EFB7EA93E4B1F5B1A3E0FA
:101CB200B0E00E947B1BBF01E4B1F5B1DF01E7E0B8
:101CC200F0E00E94BC1BDB01AE1BBF0BA093F70E22
:101CD200B093F80EE0E0E6B9E991EFBFF991E9912E
:101CE200B991A99199917991699119900990189551
:101CF2000E94BE15E0E0EA93ECEEF7E00E9469195B
:101D0200E6E0F8E00E946919E6E5F8E00E94691948
:101D1200EEE7F8E00E946919EEE8F8E00E9469191E
:101D2200ECECF8E00E946919E2E0F9E00E9469191E
:101D3200E8E2F9E00E946919E6E5F9E00E9470190B
:101D420008952A971A9310E0E0E0EA93E0E0F2E0C7
:101D52000E947619E0E0EA93E7E0F2E00E94761949
:101D620010E0123038F5E0E0EA93E7E1F2E00E9499
:101D720076190E947A19E0E0EA93EDE1F2E00E941E
:101D82007619A1ECB5E00E948B19E0E0EA93E5E256
:101D9200F2E00E947619E12F0E949F190E94111C05
:101DA2000E94A219E0E0EA93EEE2F2E00E947619C4
:101DB2001F5FD7CFE0E0EA93E9E3F2E00E947619F1
:101DC20010E0123020F5E0E0EA93E8E4F2E00E944D
:101DD20076190E947A19E0E0EA93EDE4F2E00E94BB
:101DE2007619A3ECB5E00E948B19E0E0EA93E5E5F1
:101DF200F2E00E947619A7ECB5E00E948B19E0E0B0
:101E0200EA93E3E6F2E00E9476191F5FDACF68C038
:101E12002A971A9310E0E0E0EA93EEE6F2E00E94DD
:101E22007619E0E0EA93E8E7F2E00E94761910E022
:101E3200123048F5E0E0EA93E8E8F2E00E94761911
:101E42000E947A19E0E0EA93EEE8F2E00E94761945
:101E52000E94B1190E94B919E0E0EA93E6E9F2E0C2
:101E62000E947619E12FA0E0B0E00E94BA180E9409
:101E7200281C0E94A219E0E0EA93EFE9F2E00E9436
:101E820076191F5FD5CFE0E0EA93EAEAF2E00E941A
:101E9200761910E0123020F5E0E0EA93E9EBF2E087
:101EA2000E9476190E947A19E0E0EA93EEEBF2E0E2
:101EB2000E9476190E94C9190E94B919E0E0EA93BA
:101EC200E6ECF2E00E9476190E94D1190E94B9193B
:101ED200E0E0EA93E4EDF2E00E9476191F5FDACFC8
:101EE20018812B9608952597E0E0EA93EFEDF2E052
:101EF2000E947619E091B905F091BA056091BB058F
:101F02007091BC050E94D919E0E0EA93EAEEF2E092
:101F12000E947619E091B505F091B6056091B7057A
:101F22007091B8050E94D919259608950E94BE1590
:101F32000E94A818AFEF0E94AF18E0E0EA93EDED1F
:101F4200FBE00E9476190E94B415ECE6F0E1FA93E8
:101F5200EA93EAE0F0E00E94E619E0E0E093DD0DAA
:101F6200E093DE0D0895969A0E94EA19A5C0E2EC6C
:101F7200FFE0FA93EA93E4EFF1E00E94E619969803
:101F820008950E94EA190E94E619969A08950E94FD
:101F9200F11992C0E6E8F6E00E94C518ECE8F5E017
:101FA200FA93EA930E94D306E5E7F6E00E94C51889
:101FB2000E94F8190E94E619E4EEFFE0FA93EA9310
:101FC200E8EBFBE079C0AA24E4E5AE1628F50E940E
:101FD200FF19EFE2F0E0FA93EA93EA2D0E943B1830
:101FE2000E94FF19E1E0EA930E942907E4E5F0E08C
:101FF200FA93EA93EFE2F0E0FA93EA93E4E5EA195E
:102002000E943B180E94FF19E1E0EA930E9429070F
:102012000E947506A394D8CF0E94F8194DC00E9461
:10202200041AE5E4FAE0FA93EA93E091F90EF091EA
:10203200FA0E0E94091AE1E00E94141AEEE4FAE094
:10204200FA93EA93E091010FF091020F0E94091AAC
:10205200E2E00E94141AE4E5FAE0FA93EA93E091CE
:10206200FD0EF091FE0E0E94091AE3E00E94141A7E
:10207200EEE5FAE0FA93EA93E091FB0EF091FC0EA2
:102082000E94091AE4E0EA930E9407080E9475067A
:102092000895E0E0EA930E948E09E13058F0E0E012
:1020A200EA930E949709E093B005E091B005EA93A4
:1020B2000E94900A0E94181AFA93EA930E9423152A
:1020C20008950E941F1AE091DD0DF091DE0D309708
:1020D20009F02CDF08950E94F8170030E2E01E0795
:1020E20048F4ADEDBBE0A00FB11FE0E0EC930F5F51
:1020F2001F4FF3CFA0E09799A1E0E1E0EA2711F4A6
:10210200979801C0979A0991199108951A9310E02E
:10211200103468F4E12FF0E0E954F14FA0E0A0831D
:10212200E12FF0E0ED58F14FA0831F5FF1CF19913D
:102132000895E0EAEA93EFEFF0E0FA93EA93E9E038
:10214200EA93E2EBF0E1FA93EA937EDDE03041F4C8
:10215200EAE9F0E1FA93EA93E2E3F0E00E94E61999
:1021620008950E94261A29F0EAE9F0E10E942D1A48
:1021720004C0EFEBF0E10E94C5180895E091130F3F
:10218200E07441F0EFEBF0E1FA93EA93E4E6F0E079
:102192000E94E619E0E0E0931A0FE2E0E0931B0FE1
:1021A200E0EBE0931C0FE0E0E093170FEFEFE0931A
:1021B200180FE4E0E093130FE8EEF0E1E0930D0F67
:1021C200F0930E0FE8EEF0E10E94611908950E946B
:1021D200261A21F0EFEBF0E10E942D1A0895E0910A
:1021E200130FEF7BE093130FE091140FECB90895F6
:1021F200E0E0EBBBEABBE8BBE7E0E7BBE0E0E5BB66
:10220200E4BBE2BBE1BBE3B9E2B90E94C918E0E07A
:10221200E0936500E09364000895E0E0E0BFE3BF6F
:10222200E2BFE1BF0895E0E0EFBDEEBDEDBDECBD64
:10223200E7BDE6BDEBBDEABDE9BDE8BDE0937900CF
:10224200E09378000895E0E0E5BDE4BDE3BD0895C4
:10225200E0E0E0938B00E0938A00E0938900E09352
:102262008800E0938100E0938000E0938700E09390
:102272008600E0938500E0938400E0938300E0937E
:1022820082000895E0E0E0936A00EABFE9BFE7BF99
:10229200E0937D000895E0E0EBB9E8EDEAB9E6E00D
:1022A200E0939500E0E0E0939000E3E3E9B908955C
:1022B200E2E0E0939B00E8EDE0939A00E6E0E09331
:1022C2009D00E0E0E0939800E8E0E0939900089533
:1022D2001A9310E010E01230D0F4A1ECB5E0E12F37
:1022E2000E9406180F010E94B119D001EC93E12F50
:1022F2000E94321A0F01E12FA0E0B0E00E94BA184A
:102302000E94281CD001ED93FC931F5FE4CF10E0E4
:102312001230B0F4A3ECB5E0E12F0E9406180F01D1
:102322000E94C919D001EC93A7ECB5E0E12F0E94FD
:1023320006180F010E94D119D001EC931F5FE8CF5C
:102342000C94B21555DFF5D9FBD967DF6CDF7BDF63
:102352007FDF98DFA0DFACDF0E940E0B8ADA0895E0
:10236200B7DFE0E0EA93E091C105EA93E091BD05B1
:10237200F091BE050E943A1AE1E0EA93E091C205AB
:10238200EA93E091BF05F091C0050E943A1AE0E09D
:10239200EA93E1E0EA93EA93E0E0EA93E0E1EA9388
:1023A2000E94430B0E9497060E948A0A0E9404150B
:1023B20030DCE0EFF0E1FA93EA9338DCEEB1EFB112
:1023C200E0E0E093DD0DE093DE0D0E94A818A1E0AD
:1023D2000E94AF1808952A97E0E0EE83EF83E88722
:1023E200E9870E94631C02EC17E030E020E050E035
:1023F20040E00E943E1AEAE8F7E00E94451A11F016
:102402000C94BE13E5EFF2E00E944B1AA23010F4D6
:102412000C94BE130E94511AEEE8F7E00E94451A8E
:1024220011F00C94BC12EBEFF2E00E944B1AA330B5
:1024320010F40C94B8120E94581A0E945F1A0E945B
:102442006C1A48F42C85E6ECF7E08F01E2E0F3E049
:102452000E94741A03C0ECECF7E08BC2AA89A43084
:1024620010F40C94B8120E94781A01F50E94811A95
:1024720029F00E949C1A0E945D1C81F4A1ECB5E037
:10248200E22F0E940618AC85A083E6ECF7E08F01EC
:10249200E8E0F3E00E94741A32E008C0ECECF7E0E6
:1024A2008F01EFE0F3E00E94741A64C20E94A11A45
:1024B2000E94A61AEAE9F7E00E94451A61F50E9415
:1024C200AB1A0E94A61A0E945F1AA138E4E0BE0766
:1024D200E0E08E07E0E09E07B0F4E22F0E94321A9D
:1024E200AC85BD85A083B183E6ECF7E08F0130E0D7
:1024F200E7E1F3E00E94741AEAE9F7E0FA93EA935B
:102502000E946E0A08C0ECECF7E08F01EAE1F3E00A
:102512000E94741A2FC22A930E94B01AEA93E22FE1
:102522000E949F190E94111C0E943A1A20E0A4E006
:10253200B0E0E22F0E9406180F010E94B01AD001EB
:102542000E94401CE22FA0E0B0E0F0E0EE0FFF1F7F
:10255200EA0FFB1F0F01E22F0E949F190E94111C1C
:10256200D0010E94381CE2E2F3E00E94741AE0E01B
:10257200EA930E9499080E94511AE0EAF7E00E9449
:10258200451A11F00C94BE13EFE2F3E00E944B1ACD
:10259200A33010F40C94BE13E5E3F3E00E94741A26
:1025A2000E94581A0E94B71A0E946C1A28F42C85AD
:1025B200E6ECF7E08F0103C0ECECF7E0DAC1AA89A0
:1025C200A43010F40C94BE130E94781AD9F40E941D
:1025D200811A29F00E949C1A0E945D1C81F4A3ECCE
:1025E200B5E0E22F0E940618AC85A08332E0E6EC4B
:1025F200F7E08F01ECE3F3E00E94741A03C0ECEC05
:10260200F7E0B7C10E94A11A0E94A61AE4EAF7E015
:102612000E94451A09F50E94AB1A0E94A61A0E944E
:10262200B71AA138E0E0BE07E0E08E07E0E09E07BF
:1026320080F4A7ECB5E0E22F0E940618AC85A083D7
:102642003E5FE6ECF7E08F01E5E4F3E00E94741AE6
:1026520003C0ECECF7E08DC10E94A11A0E94A61AF9
:10266200EAEAF7E00E94451A11F00C9487130E94DF
:10267200AB1A0E94A61A0E94B71A0E94591C50F067
:102682000E949C1AA430E0E0BE07E0E08E07E0E082
:102692009E0708F038C0EC85FD856E857F850E9417
:1026A200511C01F1E130A0E0FA07A0E06A07A0E0C6
:1026B2007A0719F450E041E017C0E230A0E0FA07CF
:1026C200A0E06A07A0E07A0711F451E00CC0E33001
:1026D200A0E0FA07A0E06A07A0E07A0719F451E047
:1026E20041E002C050E040E0E6ECF7E08F01EFE4A9
:1026F200F3E00E94741AA5ECB5E0E22F0E940618DE
:10270200AC85A08303C0EAEDF7E033C12A930E94AF
:10271200C11AEA934A935A930E94C81AEA930E94F2
:10272200430B30E050E040E0A6E0B0E0E22F0E9430
:1027320006180F010E94C11AD0010E94401CA8E095
:10274200B0E0E22F0E9406180F01A5ECB5E0EE27DB
:10275200A20FBE1FEC91D0010E94401CAAE0B0E083
:10276200E22F0E9406180F010E94C81AD0010E948F
:10277200401CEAE5F3E00E94741A0E943E1AE2EB62
:10278200F7E00E94451A11F00C946D14E5E6F3E0AF
:102792000E944B1AA23010F40C946D140E94511A2C
:1027A200EEE8F7E00E94451A19F5AA89A33000F174
:1027B2000E94581A0E94B71A0E946C1A20F42C85A3
:1027C200E6ECF7E002C0ECECF7E08F01AA89A43056
:1027D20078F0EEEBF5E12A930E94CF1A0E940D09E0
:1027E200E4EBF5E1E9E6F3E00E94741A0E94D61ADE
:1027F2000E94511AE0EAF7E00E94451A61F5AA899F
:10280200A33048F10E94581A0E94B71A0E946C1A0B
:1028120020F42C85E6ECF7E002C0ECECF7E08F0147
:10282200AA89A430C0F0E3E7F3E00E94741A0E9480
:10283200D61AEAE0EA930E94CF1AE7EBFEE0FA9397
:10284200EA930E94580BEDE7F3E00E94741AE7EB5B
:10285200FEE00E94741A0E94511AEEEAF7E00E940A
:10286200451AD1F5AA89A330B8F10E94581A0E94DC
:10287200B71A0E946C1A20F42C85E6ECF7E002C02D
:10288200ECECF7E08F01AA89A43030F1E7E8F3E03D
:102892000E94741AE889F989A681B781BA93AA932A
:1028A2000E94ED0A662777270E94231CFE013A96B2
:1028B200FA93EA930E948917E0E0EA93FE013796C1
:1028C2000E947619E3E9F3E00E94741AE0E0EA93C9
:1028D200E7EBFEE00E9476190E943E1AE4E8F7E078
:1028E2000E94451A21F404DAE6ECF7E08F010E9417
:1028F2003E1AE8EBF7E00E94451A29F40E94001EF6
:10290200E6ECF7E08F010E943E1AE4EBF7E00E944A
:10291200451A29F40C940000E6ECF7E08F010E94BE
:102922003E1AEEEBF7E00E94451A59F40E94BE15DA
:102932006FDA0E94A20ED7DAE6ECF7E08F010E946E
:10294200B4150E943E1AE9E0FBE00E94451A21F408
:10295200CADAE6ECF7E08F010E943E1AEBE0FBE0F8
:102962000E94451A39F4EAE9F0E10E94C518E6EC42
:10297200F7E08F01E0E0EA931A930A930E941D099F
:102982000E946A1C639608952797DCDCE9DCE1E08B
:10299200EA93E8EEF7E00E946919E8EEF7E00E9498
:1029A2007019E4EBFFE00E94C5180E94181A0E94F9
:1029B200E6190E941F1A0E94F1190E94E619EBEC17
:1029C200FFE00E94C518E0E1F0E10E94C518E8EEC0
:1029D200F3E00E94FD1774D0FECFFFCF0E94D418FF
:1029E2009DD0A1EBB5E00E948D18E991EFBFF9915E
:1029F200E991B991A9919991899179916991F99006
:102A02001990099018951A9310E0103179F00E94EC
:102A1200EB1A0E94F21A0E94EB1AAE0FBF1F129617
:102A2200E0E0F0E0ED93FC931F5FEFCF9AC00895D2
:102A3200E881F981FA93EA93E0E0F0E00E94E61976
:102A4200229608951A930A9310E000E0EFB7E7FF89
:102A520002C0F89401E010E0103199F00E94EB1AE4
:102A62000E94F91ADF01EC81FD81EA17FB0739F4B4
:102A72000E94EB1A0E94FE1A09F078941DC01F5F93
:102A8200EBCF10E01031C1F00E94EB1A0E94F91A4C
:102A92000E94071B79F40E94EB1AEA0FFB1FAC811C
:102AA200BD81A083B1830E94EB1A0E94FE1A09F035
:102AB200789402C01F5FE6CF198108812696089597
:102AC2000E94651C10E0F89410E0103109F10E9498
:102AD200EB1A0E94F91A0E94071B49F00E94EB1A96
:102AE200AE0FBF1F12960E94111C309709F00EC044
:102AF2000E94EB1AAE0FBF1F2D913C910E94EB1A60
:102B02000E94F21A7894F901099504C01F5FDDCF83
:102B120078948DDF0E946C1C249608951A9310E01D
:102B22001031F9F00E94EB1A0E94F91A0E94071B59
:102B320059F00E94EB1AAE0FBF1F12960E94111C91
:102B4200DF010E94551C08F00AC00E94EB1AAE0F6A
:102B5200BF1F1296ED91FD913197FE93EE931F5F89
:102B6200DFCF19910895ECE0E5BDE0E0E4BDEEE3CE
:102B7200E3BDE0E8E7BF78940895E5E0E5BD089598
:102B82001A930A93AA81BB8112960E94111C309754
:102B920029F1AA81BB8114960E94111C8F013097E2
:102BA20061F00230E0E01E07C0F0F80131978F01BA
:102BB200AA81BB811496ED93FC93AA81BB811296E4
:102BC2000E9496183197AC81A083AA81BB810E9492
:102BD200111CFF2312F00E94961806C0AA81BB8125
:102BE200EFEFFFEFED93FC9319810881259608958D
:102BF20026970E94631C10E0AC85BD85E0E0F0E002
:102C0200ED93FC93EA89FB893196EA8BFB8B319732
:102C1200E4912E2FE03011F40C942617E12FE030CE
:102C220039F4253211F411E002C00E940D1B0CC1CF
:102C3200E130A9F4253219F40E940D1B04C112E0FF
:102C420040E000E02D3211F401E0FEC02B3211F41D
:102C52004BE2FAC0203211F440E2F6C002C0E23088
:102C620039F450E013E0203311F40068EDC004C0E1
:102C7200E33011F00C942517203310F02A3308F0BA
:102C820007C0AAE05A9F502DE22FE0535E0FDCC02E
:102C9200E22FE33649F40E94161BE889F989A481E0
:102CA200AA930E941C1BCFC0E33741F40E94161B5B
:102CB2000E94241B0E9474171E2F0AC0E03761F481
:102CC2000E94161B0E94241B0E947E171E2F086062
:102CD20002600F7730E035C0E43611F0E93611F4C6
:102CE200046002C0E53731F4EEE7F9E0EE83FF83DA
:102CF20015E00DC0E83511F4086004C0E83711F0A2
:102D02000C942417E8E8F9E0EE83FF8314E002FF55
:102D120014C00E94161B0E942E1BAB85AA233AF4F4
:102D2200EA85FB850E945D1BEA87FB874DE2403006
:102D320011F01F5F01C00B7F04C00E94161B0E948E
:102D42002E1B00FD11C0151778F407FF08C002FF03
:102D520004C00B7F242F115001C020E301C020E2E8
:102D62000E940D1B5150EFCF312F01FF17C03030A1
:102D7200A1F003FF06C0EE81FF812591EE83FF8360
:102D820005C0AE81BF812D91AE83BF830E940D1B12
:102D9200503009F051503150EACF4BC020E3EE8160
:102DA200FF810E941F1CE887F987EE81FF8132961E
:102DB200EE83FF83E885F985AA85BB85AE17BF0739
:102DC20050F02F5FA885B985EA85FB85EA1BFB0BCE
:102DD200EA87FB87EFCF2A3328F003FF02C0295F7F
:102DE20001C0295D04FD1AC0213320F4A885B985EC
:102DF200119709F409C0531710F000FF01C013C066
:102E020020E207FF0BC020E3006102FF07C00B7F37
:102E12004A930E941C1B503009F051500E940D1B16
:102E2200503009F051503150A885B985129708F0F9
:102E3200B5CF00FF08C0503031F05150E0E2EA93C4
:102E42000E941C1BF8CF10E0DDCEAC85BD850E9430
:102E5200111C0E946A1C64960895FF92F82E269710
:102E62000E94651C0E94361B309719F4EFEFFFEFAA
:102E720023C0DE0116960E94591B8D010E94361B4B
:102E8200EE83FF83E0E0E887E987DE011A960E947D
:102E9200591B0E94A61A1A930A93E1ECF5E1FA93E0
:102EA200EA93FE013A96FA93EA93A2DE9F01AE817B
:102EB200BF81E0E0EC93F9010E946C1C2A96FF901E
:102EC2000895E991F991A991B9911D900590011484
:102ED20021F40020D1F7EE2708951018E1F3E1E084
:102EE20008F4E2500895A991B991EE27FF276D9158
:102EF200662311F03196FBCF0895AA27BB27E991EB
:102F0200F9910590002011F01196FBCFFD01089573
:102F120024971A930A93E0E0FAEC6AE97BE3EA83E6
:102F2200FB836C837D8300E0AB85AA2372F4E88582
:102F3200F9856A857B850E94611BE887F9876A8724
:102F42007B870E943D1BEDE2EC930E94441B0E9492
:102F5200D41B1E2F103071F4003061F4AA81BB81A2
:102F62008C819D81A130E0E0BE07E0E08E07E0E0C9
:102F72009E0731F40E943D1BE12FE05DEC9301E0DE
:102F82000E94441B0E94FF1BE887F9876A877B87A0
:102F9200AA81BB818C819D81EAE0F0E060E070E073
:102FA2000E94D41BEA83FB836C837D830E94511CA5
:102FB20061F6AE81BF81E0E0EC93198108812C9625
:102FC20008951A930A93E0E8EA93E0E0EA930E94F4
:102FD2005A06E0E4EA93E0E0EA930E945A0600E02F
:102FE20010E00895A7EBB3E0A00FB11F08951A9364
:102FF2000A9300E010E00895FA93EA930C944D1BB3
:10300200EA93E0E0EA930C945A06F0E0EA0FFB1F21
:103012000895E32FA1E00E94691B0895E989EA93CC
:10302200E889EA93EC85EA930C94E906E885F98548
:10303200AF85B889EA0FFB1FEF87F88B0895FA0175
:10304200A989BA89EA0FFB1FE98BFA8B0895AE8131
:10305200BF81EA0FFB1FEE83FF83E0CFE12FF0E099
:10306200E855FC4F0895F40131964F013197E95428
:10307200FC4F0895F0E0FA93EA930895E0E0E093BC
:10308200C907E093CA07E093CB07E093CC07089502
:10309200EA81FB81662777270895A0E1B0E080E00E
:1030A20090E00E94831BA0E0B4E284EF90E00E94D3
:1030B200D41BE150F040604070408F010895A8E0B9
:1030C200B0E080E090E00E94831BA0E0B4E284EFD5
:1030D20090E00E94D41BE150F040604070408F01AC
:1030E200E2E00895E0E0E093CD09E093CE09E093B9
:1030F200CF09E093D0090895EFB7A091AF05EA2B6D
:10310200EFBF08956A937A93AA93BA93EA93FA93D4
:10311200EFB7EA931A9308950E94151CEF5FFF4FD1
:103122006F4F7F4F0E941A1C0895ED91FD913196C9
:10313200FE93EE930895ED91FD913197FE93EE93F8
:10314200EFB7E02BEFBFE12F198108810895E091DD
:10315200DD0DF091DE0DE352F44F0895A083ADED45
:10316200BDE0E3CFEFEDFDE0E0935F0EF093600E84
:103172000895F0E0EE0FFF1FAE0FBF1F0895EA2D76
:10318200F0E0E152F24F0895FA93EA930C94191584
:10319200E0E0E0936200E09361000895A091FB0EED
:1031A200B091FC0E08950A921A92FA926A937A9357
:1031B2008A939A93AA93BA93EA93FA93EFB7EA930C
:1031C2000895E0910B0FEF5FE0930B0FE150E1E008
:1031D200E0930A0F0895E093130FE5EDE093740076
:1031E200E091110FF091120F09950895E0911C0FD3
:1031F200E0937300E5ECE09374000895E091130FFF
:10320200EC70E8300895E0911A0FF0E0E95EF04FBB
:10321200E081E0937300E0911A0FEF5FE0931A0FE1
:10322200E5ECE09374000895E0911F0FF0E0E35E97
:10323200F04FE081E0937300E0911F0FEF5FE093A6
:103242001F0FE5EC0895E5EDE0937400E0910D0F9A
:10325200F0910E0F09950895E093130FE0E0E093CB
:103262001A0FE0931F0F0895A0911A0FAF5FE0911C
:103272001B0FEA170895A0911A0FB0E0A95EB04F94
:10328200E0917300EC930895E091130FE064E093F2
:10329200130F0895A091160FB0E0AC5EB04FE0910D
:1032A2007300EC930895E091160FEF5FE093160F11
:1032B2000895F0E0EB5EF04FE081E0937300089533
:1032C200E093110FF093120FE5EAE0937400DCCF64
:1032D200FA93EA930E941D09E0E0EA930895FA93B3
:1032E200EA930E941D090C94B415FA93EA930C9484
:1032F2000D09E12FFF27662777270E94231CFE0175
:103302003596FA93EA930E948917E0E0EA93FE0168
:103312003296EBCFEE27A10FBE1FEC91FF27662757
:1033220077270E94231CFE013596FA93EA930E94A6
:103332008917E0E0EA93FE013296D7CFADEBB5E014
:1033420018CF662777270E94231CFE013596FA9331
:10335200EA930E948917E0E0EA93FE013296C5CF14
:10336200A4E0B0E0EE27A10FBE1F0E942C1C08951E
:10337200FF27662777270E94231CFE013596FA93C2
:10338200EA930E948917E0E0EA93FE013296ADCFFC
:10339200A6E0B0E0EE27A10FBE1F0E942C1C0895EC
:1033A200AAE0B0E0EE27A10FBE1F0E942C1C0895D8
:1033B2000E94231CFE013496FA93EA930E94891715
:1033C200E0E0EA93FE01319690CFFA93EA930C94EF
:1033D2002315E8EBFFE0FA93EA93E2E3F0E00895C5
:1033E200E8ECFFE0FA93EA93E8E8F3E10895E6E80F
:1033F200F6E0FA93EA93E0EDF7E00895E0E0F0E01A
:10340200FA93EA930895E8EAF3E0FA93EA930895C7
:10341200662777270E94231C84E00E942E17289695
:10342200E1E0EA930895EA930E940708ECCFEAE408
:10343200F0E1FA93EA93E9E1F0E00895E2E6F0E1DF
:10344200FA93EA93E2E3F0E0C0CFE091130FEF7B4F
:10345200E093130FE1710895FA93EA93E4E1F0E047
:10346200B4CFADEBB5E0F0E0EE0FFF1FEA0FFB1FAC
:103472000895FA93EA930C942D08A889B9890E94B9
:10348200111CFA93EA930895FA93EA930E94621741
:10349200E0300895FA93EA930E947E0AAA89089579
:1034A200E889F989A281B381BA93AA930895E88938
:1034B200F989A481B581BA93AA9308950E94ED0A6D
:1034C20066277727EC87FD876E877F87AC85BD856A
:1034D2008E859F850895A330E0E0BE07E0E08E0769
:1034E200E0E09E070895FA93EA930C947E0AE88935
:1034F200F989A681B781BA93AA93E4E9F7E0C4CF28
:10350200E889F989A085B185BA93AA930E94D30A62
:10351200FF2766277727EC87FD876E877F87AC8535
:10352200BD858E859F85A130E0E0BE07E0E08E0775
:10353200E0E09E070895AC85BD858E859F85089540
:10354200E32FED5FA889B98914CE0E94111CFA936A
:10355200EA930895E32FEC5FA889B9890ACEA1EC1A
:10356200B5E0EE27A20FBE1FEC9108950E94D30A88
:10357200FF2766277727EC87FD876E877F87DBCF5C
:10358200A3ECB5E0EE27A20FBE1FEC910895A7ECC5
:10359200B5E0EE27A20FBE1FEC910895E989FA89E2
:1035A200A681B781BA93AA930895E889F989A68179
:1035B200B781BA93AA930E94ED0A662777270E94E1
:1035C200231CFE013A96FA93EA930E948917FE01A0
:1035D200369689CFE12FA1E2BFE0F0E00E94711B95
:1035E2000895AE0FBF1FE8E1F5E1ED93FC93089556
:1035F200AE0FBF1F0E94111C0895EA0FFB1F3296E7
:10360200AA81BB81A083B18300300895DF01E8E184
:10361200F5E1EA17FB0708952A93ED85FE85FA93F3
:10362200EA93E989FA8909950895E889F98934972D
:10363200E88BF98B0895ED85FE85FA93EA93E98983
:10364200FA8909950895A889B98914960E94111CCE
:10365200EE83FF83FA93EA930895A889B9891496B1
:103662000E94111CEA87FB870895DE011C960E94C6
:10367200591B0E94111C0895AE81BF811196AE8321
:10368200BF8311970895EA81FB816C817D81A885B2
:10369200B9858A859B850895E991F991309639F02B
:1036A20080EA9FE00197F1F7A8953197C9F708954D
:1036B2000024AF0DB01D0895F195E195F0400895F5
:1036C200F09560957095E195FF4F6F4F7F4F08958C
:1036D200EE230E2EEA2F19F0EE0F0A94E9F7089561
:1036E200EE0FFF1FEE0FFF1F0895F695E795F69573
:1036F200E7950895FA9FF02DEB9FF00DEA9FE02DDC
:10370200F10D08957A9F702D6B9F700DF89F700DCB
:10371200E99F700D6A9F602D710DFB9F600D711DF9
:10372200E89F600D711D8827FA9FF02D610D781FAB
:10373200EB9FF00D611D781FEA9FE02DF10D681FD0
:10374200781F08956E2F6A9FF0016B9FF00D089508
:1037520059D0D0DF0EF4B0DF0895002498E0AA0F0C
:10376200001C0E1A10F40E0E01C0A1609A95B9F752
:10377200EA2FA02D08950024112490E1AA0FBB1F67
:10378200001C111C0E1A1F0A18F40E0E1F1E01C077
:10379200A1609A9599F7FD01D001089533D0EBDF2E
:1037A2000EF48ADF08953F934F935F930024112410
:1037B2004427552730E2AA0FBB1F881F991F001C00
:1037C200111C441F551F0E1A1F0A460B570B28F4D3
:1037D2000E0E1F1E461F571F01C0A1603A9559F7D2
:1037E200FD01BC01D001CA015F914F913F91089543
:1037F200B4DFEA2F0895BFDFFD010895D4DFFD0194
:10380200BC010895E894F7FF02C056DF6894B7FF41
:1038120006C0A095B095119600F8039400FA089599
:10382200ED91FC9111970895ED91FD916D917D912E
:1038320008957E936E93FE93EE9308950590F4910E
:10384200E02D08957A936A93FA93EA930895119674
:1038520002D0FE2F1197E199FECFFF93FFB7F894A4
:10386200AEBBBFBBE09AEDB3FFBFFF91089507D097
:103872001196EF93EF2F03D0EF9111970895E19BEB
:1038820002C0A895FCCF9FB7F894AEBBBFBBE09A2D
:103892008DB3E81719F0EDBBE29AE19A9FBF089544
:1038A200309760407040089500240A160B06089570
:1038B200109780409040089500240A160B060806CF
:1038C200090608955A934A933A932A931A930A93AC
:1038D20008955D814C813B812A8119810881089577
:00000001FF
