:020000000C945E
:1000020080050C9400000C9400000C9400000C94E9
:1000120000000C9400000C9400000C9400000C945E
:1000220000000C9461140C9400000C9400000C94D9
:1000320000000C9400000C9400000C9400000C943E
:100042005C0B0C945E0A0C94E6080C9427080C9442
:1000520000000C94790A0C9400000C9400000C949B
:1000620000000C9400000C9400000C9400000C940E
:1000720000000C9400000C941B090C9453080C947F
:1000820000000C94170C0C94000048656C70000082
:10009200536574005561727400004D6F6465000011
:1000A2005370656564005370690050726573630034
:1000B2007070000049326300570072737400626FFF
:1000C2006F7400006462670020450D00206F6B0DA5
:1000D2000000204C617267655F76616C75650D008A
:1000E2002057726F6E675F76616C75650D002053E5
:1000F20000000D3E3E3E2048454C50203C3C3C0D0D
:1001020020436F6D6D616E64733A0D000D2053656F
:1001120074202D496E746572666163655F6E616DF0
:10012200652D202D6E756D6265722D204D6F646593
:10013200202D76616C7565286F7074696F6E616CC5
:10014200292D205370656564202D76616C756528B4
:100152006F7074696F6E616C292D00000D2057203D
:1001620020202D496E746572666163655F6E616DF4
:10017200652D202D6E756D6265722D202D64617462
:10018200612D00000D20476574202D656E74697421
:10019200792D00000D2020496E74657266616365D9
:1001A2007320617661696C61626C653A0D20202072
:1001B2005561727428302C31290D2020205370692A
:1001C20028302D486172642C20312D536F667429BA
:1001D2000D000D3E3E3E20554152545F48454C5065
:1001E200203C3C3C0D204D6F64653A20302D204E62
:1001F2004F524D414C3B20312D20444F55424C45EE
:1002020044207370656564000D2053706565643A1F
:1002120020626175642F313030202845783A2035CC
:100222003736206973203537363030290D000D3EC0
:100232003E3E205350495F48454C50203C3C3C0DCB
:10024200204D6F64653A20302D20534C4156453B7A
:1002520020312D204D41535445520A000D20507239
:10026200657363616C6C65723A20706F77206F669C
:100272002032202845783A20507265736320313647
:10028200290D0000000000000000005F00000007D0
:10029200000700147F147F14242A7F2A12231308D4
:1002A200646236495522500005030000001C2241B9
:1002B200000041221C0014083E081408083E0808E9
:1002C20000503000000808080808006060000020A4
:1002D20010080402000000000000005F0000000798
:1002E200000700147F147F14242A7F2A1223130884
:1002F200646236495522500005030000001C224169
:10030200000041221C0014083E081408083E080898
:100312000050300000080808080800606000002053
:1003220010080402000000000000005F0000000747
:10033200000700147F147F14242A7F2A1223130833
:10034200646236495522500005030000001C224118
:10035200000041221C0014083E081408083E080848
:100362000050300000080808080800606000002003
:10037200100804023E5149453E00427F400042615E
:100382005149462141454B311814127F10274545EA
:1003920045393C4A49493001710905033649494901
:1003A20036064949291E003636000000563600003E
:1003B20008142241001414141414004122140802D7
:1003C20001510906324979413E7E1111117E7F4960
:1003D2004949363E414141227F4141221C7F4949E0
:1003E20049417F090909013E4149497A7F080808C4
:1003F2007F00417F41002040413F017F081422419C
:100402007F404040407F020C027F7F0408107F3E05
:100412004141413E7F090909063E4151215E7F0962
:10042200192946464949493101017F01013F4040AE
:10043200403F1F2040201F3F4038403F63140814B4
:100442006307087008076151494543007F41410035
:1004520002040810200041417F000402010204400E
:1004620040404040000102040020545454787F4828
:100472004444383844444420384444487F3854542F
:100482005418087E0901020C5252523E7F0804049D
:100492007800447D40002040443D007F1028440005
:1004A20000417F40007C041804787C0804047838FA
:1004B200444444387C14141408081414187C7C082E
:1004C2000404084854545420043F4440203C404013
:1004D200207C1C2040201C3C4030403C44281028FA
:1004E200440C5050503C4464544C44000836410083
:1004F20000007F000000413608001008081008784C
:1005020046414678000000000000005F000000073E
:10051200000700147F147F14242A7F2A1223130851
:10052200646236495522500005030000001C224136
:10053200000041221C0014083E081408083E080866
:100542000050300000080808080800606000002021
:1005520010080402000000000000005F0000000715
:10056200000700147F147F14242A7F2A1223130801
:10057200646236495522500005030000001C2241E6
:10058200000041221C0014083E081408083E080816
:1005920000503000000808080808006060000020D1
:1005A20010080402000000000000005F00000007C5
:1005B200000700147F147F14242A7F2A12231308B1
:1005C200646236495522500005030000001C224196
:1005D200000041221C0014083E081408083E0808C6
:1005E2000050300000080808080800606000002081
:1005F200100804023E5149453E00427F40004261DC
:100602005149462141454B311814127F1027454567
:1006120045393C4A4949300171090503364949497E
:1006220036064949291E00363600000056360000BB
:100632000814224100141414141400412214080254
:10064200015109067E1111117E7F494949317F49C5
:100652004949367F01010103702927217F7F4949DA
:10066200494177087F087741414149767F10080464
:100672007F7F1009047F7F0814224120413F017FC0
:100682007F020C027F7F0808087F3E4141413E7F86
:100692000101017F7F090909063E41414122010111
:1006A2007F010147281008071E217F211E631408BD
:1006B20014633F2020205F070808087F7F407F40A7
:1006C2007F3F203F205F017F4848307F4830007FD6
:1006D200007F484830414141493E7F083E413E4605
:1006E2002919097F20545454783C4A4A49317C5490
:1006F2005428007C0404040C722A26227E385454A6
:1007020054186C107C106C44445454387C201008EB
:100712007C7C2112097C7C1028440020443C047C0F
:100722007C0810087C7C1010107C38444444387CCF
:100732000404047C7C141414083844444420040443
:100742007C0404442810080408147E140844281069
:1007520028443C40407C400C1010107C7C407C4083
:100762007C3C203C207C047C5050207C5020007C2F
:10077200007C50502028444454387C103844384877
:100782005434147C1027E80364000A0001000010AE
:100792000001100001000000FF00C800670D670D96
:1007A200670D0303024600000000000000000D0A6E
:1007B20000706F726600657874726600626F7266AE
:1007C2000077647266004A545246000D3C52414D15
:1007D2003E000D554152545F53455454494E4753C0
:1007E2000D005541525420000D204D6F64652000CC
:1007F2000D20537065656420000D2D2D2D2D2D2D9E
:100802002D2D0D000D5350495F53455454494E4709
:10081200530D0053504920000D20507265736361DF
:100822006C6C657220000D3C454550524F4D3E00A8
:100832000D42757465735F525820000D42757465E0
:10084200735F54582000543D2569002020496E747E
:1008520065726661636520202000204D6F6E6974A9
:100862006F722076322E31200020D5ECE5EBE5E2E6
:10087200F1FCEAEEE92020002020C2EBE0E4E8F1FE
:10088200EBE0E2202020002020C0C5202D203130C6
:100892003420202020000D20536574000D20556166
:1008A2007274000D204E756D000D204D6F64650051
:1008B2000D4D2045584954000D20000D2055617200
:1008C200745F696E6974000D20537069000D5320C6
:1008D2004E756D000D53204D6F64652D000D532034
:1008E20050726573632D000D5320506861506F6C18
:1008F2002D000D5320537069496E6974000D204913
:100902003263000D204932635F696E6974000D2005
:1009120057000D205520443E545820000D205320EE
:10092200443E545820000D205320443C525820008D
:100932000D2049324320443E545820000D204932B4
:100942004320443C5258200079006E00610073003D
:10095200450001002D4E414E00494E460000010067
:100962000200980703000002B00701009A0F9C07DB
:100972000200A40F9E070200A60FA0070200A80F04
:10098200A20705000302B30706000802B807050024
:100992000E02BE0705001302C30705001802C807AE
:1009A20007001D02CD0710002402D40706003402FE
:1009B200E40708003A02EA0709004202F2070B00C4
:1009C2004B02FB070F0056020608050065021508D8
:1009D20008006A02EA070E0072021A080B0080027F
:1009E200FB070A008B02280810009502D4070600B4
:1009F200A502E4070800AB02EA070900B302F20706
:100A02000B00BC02FB070F00C70206080500D60256
:100A120015080800DB02EA070E00E3021A080B00C1
:100A2200F102FB070B00FC0232080B0007033D0832
:100A32000F0012034D080F0021035C080F00300362
:100A42006B080F003F037A080F004E038908060067
:100A52005D039808070063039E0806006A03A50861
:100A620007007003AB0808007703B20803007F0396
:100A7200BA0808008203B2080C008A03BD08060007
:100A82009603C90807009C03CF080900A303D608F0
:100A92000A00AC03DF080B00B603E9080B00C10330
:100AA200F4080600CC03FF080600D203A5080700DD
:100AB200D803AB080800DF03B2080300E703BA0853
:100AC2000800EA03B2080B00F20305090400FD0363
:100AD20010090A00010414090A000B041E090A0085
:100AE200150428090C001F0432090C002B043E09CE
:100AF2000C000300A4070100341054090000F8940C
:100B0200EE27ECBBF1E0F5BFE5BFE0936C00F8E146
:100B1200F1BDE1BD8DE0A2E0BB27ED938A95E9F737
:100B220080E090E1A0E0B1E0ED930197E9F7E0E623
:100B3200F9E085919591009761F0A591B5910590A5
:100B42001590BF01F00105900D920197E1F7FB01AD
:100B5200F0CF8BBFEFEFEDBFE0E1EEBFC0E0D2E040
:100B62000C943D14EFB7E0934004F8940E945B1795
:100B720028F40E946317A8810E946A170E947317C3
:100B8200EDC3E881F981E491E03051F0E881F98127
:100B92003196E883F9833197E491EA93E3DFF1CF69
:100BA200D6C0E881F981FA93EA93E0E0F2E0FA93A1
:100BB200EA930E94F916A881B981EC91E03031F0F4
:100BC200ED91A883B983EA93CDDFF5CFC0C00E942F
:100BD20055150E946317AFEF0E946A17E0E0EA938F
:100BE200EBE5F4E00E9479170E944A15EDE4FFE07C
:100BF200FA93EA93EAE0F0E00E947D17E0E0E093E6
:100C02005B06E0935C0608951A930A9300E8D9986C
:100C1200EA81E03011F0D89A01C0D89810E018307B
:100C220060F4E02FAB81EA2311F0DB9A01C0DB987C
:100C32000695DC9ADC981F5FF2CFD99AC8C31A9343
:100C42000A93E0E80E948117E0E40E94811700E025
:100C520010E0083FE1E01E0764F4ACE6B6E0A00F46
:100C6200B11FEC91EA93E1E0EA93CEDF0F5F1F4FF1
:100C7200F0CF10C00E948617083FE1E01E074CF437
:100C8200ACE6B6E0A00FB11FE0E0EC930F5F1F4FA0
:100C9200F3CFD5DF099119910895DA9AD49AD39AAC
:100CA200D19AD09AD29ADC98E1E0F0E0FA93EA93F2
:100CB2000E94981ADA98E4E1F0E0FA93EA930E942B
:100CC200981ADA9AD99AE1E20E948117E42DEC5F30
:100CD2000E948117E32DE05F0E948117E62DE05804
:100CE2000E948117A0E020FCA1E0EA2FEE0FEE0F98
:100CF200EE0FE0620E2EA0E021FCA1E0EA2FEE0F43
:100D0200EE0FE0290E948117E52DEE0FE529E5702F
:100D1200E8600E948117AEDF0895A981AF3018F410
:100D2200A881A73008F013C0E881F0E03197A4E56C
:100D3200B0E00E94F21ABF01E981F0E03197A6E02B
:100D4200B0E00E94F21AE60FF71F7E2E8F2E229637
:100D520008951A9310E01E3040F40E948B17E35A54
:100D6200F94FA0E0A0831F5FF6CF199108951A935F
:100D720010E01530A8F40E948E17BF01E981FA81B4
:100D8200A5E0B0E00E94F21ADF010E948B17EA0F81
:100D9200FB1FEA57FD4FE491DB01EC931F5FE9CFA4
:100DA2000E948E17A0E0A083188148C31A93AA81DB
:100DB200AF3018F4A981A73010F018813FC3EA813F
:100DC200EA93EA81EA93A9DF10E0AA81EFE0EA1B45
:100DD2001E1788F40E948B17E35AF94FE081E03026
:100DE20041F00E948B17E35AF94FE0810E94971756
:100DF200BEDF1F5FEACFADDF188120C3979A089547
:100E02001A930A93EFB7E0934004F894AA81BB8146
:100E1200E4E60E94EC1AEA83FB83EC81E030C9F439
:100E22000E949B170E94A017E050FC4D6B407F4F21
:100E32007F936F93FF93EF930E949B17A0E1B0E023
:100E420080E090E00E94CC1AAF91BF918F919F9168
:100E520018C00E949B170F01CB010E94BF1A0E946B
:100E6200BF1AE050FC4D6B407F4F7F936F93FF930F
:100E7200EF93F001BC010E94A017AF91BF918F9137
:100E82009F910E940A1BE150F040604070408F0128
:100E9200ED81E03009F50E94A717E0E0E0936C0DC8
:100EA200E0936D0DE0936E0DE0936F0DE093700D86
:100EB200E093710DEBB9EAB9E0939500EC81E03073
:100EC20011F0E2E0EBB91093900009B9E8E9EAB950
:100ED200E6E0E093950025C00E94B117E0E0E093C0
:100EE200720EE093730EE093740EE093750EE0932E
:100EF200760EE093770EE0939B00E0939A00E093E6
:100F02009D00EC81E03019F0E2E0E0939B00109349
:100F1200980000939900E8E9E0939A00E6E0E093F4
:100F22009D000E947317198108816CC0EFB7E0938E
:100F32004004F894E0E0E0934704E0934804E0932F
:100F42004904E0934A04E881E03019F40E94A717AB
:100F520006C0E13019F40E94B11701C0F7CF0E9418
:100F62007317FCC10E94FD1B0091660A1091670A6B
:100F720020916A0C30916B0CED81E030E1F4A0918C
:100F8200640AB091650AF8010E94BB1790F4F80157
:100F9200F170EC59F74FAC81A0830F5F1F4FEFB791
:100FA200E0934004F8940093660A1093670A559AF6
:100FB20001C024DF23C0E13001F5A091680CB0919B
:100FC200690CF9010E94BB17B0F4F901F170E859FC
:100FD200F54FAC81A0832F5F3F4FEFB7E093400402
:100FE200F89420936A0C30936B0CE0919A00E062C3
:100FF200E0939A0001C002DF01C0C1CF0E947317C3
:101002000E94041C26960895A881B981EC91E030D3
:1010120051F0EA81EA93A981BA81ED91A983BA8359
:10102200EA93A0DFF1CF0AC2E881F981E491E030CE
:1010320061F0EA81EA93E981FA813196E983FA83E0
:101042003197E491EA938EDFEFCFF8C10E94C11786
:101052000A930091640A1091650AE091660AF09180
:10106200670AE017F10769F0F801F170EC59F74FE0
:10107200E081ECB90F5F1F4F0093640A1093650A79
:101082000AC0E0E0E093660AE093670AE093640A2C
:10109200E093650A5598A7E4B4E00E94CB17099142
:1010A2001991BFC0EA93FA93EFB7EA931A930A939E
:1010B2000091680C1091690CF801F170E859F54F34
:1010C200E081E0939C000F5F1F4F0093680C109328
:1010D200690C0E94D417E017F10771F4E0E0E09385
:1010E2006A0CE0936B0CE093680CE093690CE0915E
:1010F2009A00EF7DE0939A0009911991E991EFBF6F
:10110200F991E9911895E881E03019F0E091760EB5
:1011120002C0E091700D22C11A930A93EA81E03075
:1011220051F5A091700DB091710D0E94ED1BF8F474
:10113200E0916E0DF0916F0DE459F34F1081AEE620
:10114200BDE00E94D917A0916E0DB0916F0DA03035
:10115200E1E0BE0729F4E0E0E0936E0DE0936F0D4D
:101162000FB7F894A0E7BDE00E94DF1767C1E0E087
:101172001981088163C1A091760EB091770E0E9409
:10118200ED1BF8F4E091740EF091750EEE58F24FEB
:101192001081A4E7BEE00E94D917A091740EB0910D
:1011A200750EA030E1E0BE0729F4E0E0E093740E92
:1011B200E093750E0FB7F894A6E7BEE00E94DF1722
:1011C2003DC1E0E01981088139C10E94C1171CB1FB
:1011D200A091700DB091710DA030E1E0BE07E0F476
:1011E200E0916C0DF0916D0DE459F34F1083ACE674
:1011F200BDE00E94D917A0E7BDE00E94D917A091D7
:101202006C0DB0916D0DA030E1E0BE0729F4E0E075
:10121200E0936C0DE0936D0DABE4B4E00E94CB174C
:101222001991E991EFBFF991E991B991A991799158
:1012320069911895AA93BA93EA93FA93EFB7EA934E
:101242001A9310919C00E0914104E03029F5A0919D
:10125200760EB091770EA030E1E0BE07E0F4E091A7
:10126200720EF091730EEE58F24F1083A2E7BEE0B9
:101272000E94D917A6E7BEE00E94D917A091720E6C
:10128200B091730EA030E1E0BE0729F4E0E0E093F4
:10129200720EE093730E13C0A091680CB091690CAA
:1012A2000E94D4170E94BB1750F40E94D417F17009
:1012B200EC59F74F1083A6E6BAE00E94D9171991AC
:1012C200E991EFBFF991E991B991A9911895AA24F1
:1012D2000E94EB17CC2499240895A881AD3071F1B6
:1012E200EFE79E1630F5A032D9F0AA2019F40E9439
:1012F200EB17A394CC2071F0EAE0AE1650F4EA2D7D
:10130200A8EFBEE00E94F2170E94F817ED93FC933B
:10131200A394CC240E94F817A881A083939409C0B7
:10132200CC2039F40E94F817A0E0A0839394E1E066
:10133200CE2E0E94F817A0E0A08310C00E94F817DA
:10134200A0E0A083AA2039F0AA92E8EFFEE0FA9387
:10135200EA930E94CD10AA24CC24992421960895C0
:101362001A9310E0A981BA81EC91E03081F0E05348
:101372001E0FE981FA813196E983FA83A981BA8144
:10138200EC91E03019F0AAE01A9F102DEBCFE12F7B
:10139200188154C00E948617AA81BB81EC91E0306B
:1013A200A9F0E053F0E00E0F1F1FEA81FB81319696
:1013B200EA83FB83AA81BB81EC91E03031F0AAE0A1
:1013C200A09FF001A19FF00D8F01E6CFF8011981D6
:1013D200088124960895E0E0EDB9E7E0E7BBEFE08D
:1013E200E8BBE1E568C0E0E0EDB9E7E0E7BBBB9848
:1013F200E8BBEA81EE0FEE0FAE2FE981EE0FEE0FA2
:10140200EE0FEA2BEDB9E881E23019F4E1E0EEB932
:1014120013C0E43011F4E0E00EC0E83019F4709A21
:10142200689A0AC0E03131F0E03221F4E1E0EEB92D
:10143200E2E001C0E1E0EDB9E0E5EDB923960895FF
:10144200EC81E03081F4E0E0EDB9EEB9AB81A1309E
:1014520041F4EA81EA93EA81EA93EA81EA93C3DFFB
:1014620001C024D001C0B7DF259608951A9310E079
:10147200C098AB81BC81EC91E03089F0ED91AB83F7
:10148200BC83EFB9779BFECF103438F4A981BA81BF
:10149200EE27A10FBE1FEFB1EC931F5FEACFC09AF8
:1014A200E1E6FFE00E94FD17188150C3E0E0EDB9CC
:1014B200E8E0E7BBE0E4EDB90895AA93EA93EFB759
:1014C200EA931A930A9300914C0FE0E1EDB9A0E080
:1014D2009799A1E0E1E0EA2711F4979801C0979A61
:1014E2001FB109911991E991EFBFE991A99118955D
:1014F2000A921A926A937A939A93AA93BA93EA9364
:10150200FA93EFB7EA93E4B1F5B1A3E0B0E00E9439
:10151200C41ABF01E4B1F5B1DF01E7E0F0E00E94D7
:10152200F71ADB01AE1BBF0BA093900FB093910F84
:10153200E0E0E6B9E991EFBFF991E991B991A9919A
:101542009991799169911990099018950E940118C1
:10155200E0ECE7B9ECE802C0389AEFEDE6B908959D
:10156200E7B1EE75E7B9E7B1EE64E7B9E6B1EC7D54
:10157200E6B9E6B1E46CE6B9E0E0E093940FE093FB
:10158200950FE4E6F0E0E0939E0FF0939F0FA09199
:101592009E0FB0919F0F0E94ED1BF8F4369A369978
:1015A200FECFE4B10E9407180E940C18E093940F3A
:1015B200F093950FE5B1FE2FE0E00E940718EA0FC5
:1015C200FB1FE093940FF093950FAEE9BFE0ED910E
:1015D200FD913197FE93EE93DACFEEE8F2E1E093DC
:1015E2009C0FF0939D0FA0919C0FB0919D0FA2387C
:1015F200E4E1BE0710F00C94490BE0919C0FF091CE
:101602009D0F0E9407180E94C41A0E94BA1AEF2F57
:10161200F0E0E093980FF093990FA091980FB0919A
:10162200990FA331E5E0BE0738F0E091980FF091F1
:10163200990FE251F54008C0A091980FB091990F0F
:10164200E2E1F5E0EA1BFB0BE093960FF093970FB4
:10165200E0919A0FF0919B0FA091960FB091970F86
:10166200AE17BF0780F4E091960FF091970FE093C9
:101672009A0FF0939B0FE0919C0FF0919D0FE093D6
:10168200920FF093930FACE9BFE00E94D917ABCF52
:101692000895E7B7EC7FE7BFE0B7E860E0BFE0E0BE
:1016A200E2BFE5E0E3BFE0B7E770E9F7E7B7E16083
:1016B200E7BF789408950E941018A0EABFE080E086
:1016C2000E941E1811F00C94F80BE091A00FE07C20
:1016D200E093A00FA0EABFE086E00E941E1811F07E
:1016E2000C94F80BE091A00FF091A10FEF73F07F33
:1016F200E093A00FF093A10FA0EABFE08CE00E945C
:101702002C18E831A0E0FA07A0E06A07A0E07A0707
:1017120011F00C94F80BA0EABFE00E94451BEF7F8A
:10172200FF706E7F7F7F0E944A1BA0EABFE081E1CB
:101732000E942C18E032A0E0FA07A0E06A07A0E0BD
:101742007A0771F10E943318EF3199F40E943B1825
:10175200E43061F00E943B18E63041F00E943B18F1
:10176200E93021F00E943B18EB3011F40E9444183A
:1017720026C00E943318EE3139F40E943B18E23041
:1017820011F40E9444181BC00E943318ED31B9F4C1
:101792000E943B18E23019F42BD0E03009F40FC05C
:1017A200A0EABFE086E1EFE0F0E060E070E00E94D6
:1017B200A61BE091A20FE17CE260E093A20F0E94DF
:1017C2003B18ED30A1F4E091A20FF091A30FEF735B
:1017D200FC7FE064E093A20FF093A30FA0EABFE0C6
:1017E2008AE1EFE3F0E060E070E00E94A61B60C1D6
:1017F2000E945418E4E6F0E060E070E00E942F1BC3
:101802000E94E91B49F40E945418E0E9F1E060E00B
:1018120070E00E942F1B0895E091A30FE695E695D4
:10182200E370F07060707070089508950E9410184F
:101832000E945B17B0F4E0917100E03051F0A0918A
:101842005B06B0915C06A55ABB4FE0917100EC9328
:1018520004C00E946317AFEFA083ABE5B6E00E941D
:10186200D917E0917100E87FE03031F4E091AA0FDE
:10187200E1600E945F181CC1E83081F4E091AA0F78
:10188200EC7021F4E091B30FE16003C0E091B30F7B
:10189200EE7FE093B30F0E946A180AC1E03179F437
:1018A2000E94721821F4E091B30FE16003C0E0914D
:1018B200B30FEE7FE093B30F0E946A18F9C0E831CC
:1018C20079F4E091AA0FEC70E43011F40E947718D9
:1018D2000E94721821F40E948818E0937400E8C0F4
:1018E200E03231F4E091AA0FE0610E945F18E0C09B
:1018F200E83201F5E091AA0FEC70E43059F4E0917E
:10190200B20FA091B10FEA1719F40E94971802C002
:101912000E9477180E94721861F4E091B70FA091AB
:10192200B60FEA1711F4E5EE02C00E948818E093A0
:101932007400BEC0E03341F4E091AA0FE260E0938C
:10194200AA0F0E949718B4C0E83349F4E091AA0F95
:10195200E0620E94A018E5EEE0937400A9C0E034B2
:1019620049F40E94A81811F4E5E801C0E5ECE093FF
:1019720074009EC0E83431F4E091AA0FE0610E9445
:101982005F1896C0E03581F40E94AF18E091B10F64
:10199200EF5FE093B10F0E94A81811F4E5E801C0CF
:1019A200E5ECE093740084C0E83529F40E94AF1896
:1019B2000E9497187DC0E83611F0E83731F4E091C3
:1019C200AA0FE06A0E94A01802C0E03609F402C021
:1019D200E03749F40E94B818E0E0E093AD0FE5E883
:1019E200E093740065C0E03811F0E03961F40E94C0
:1019F200BE180E94C718E03011F4E5E801C0E5EC1A
:101A0200E093740055C0E83811F0E83989F40E9477
:101A1200BE18E091AA0FE07811F0E5EE01C0E5EC06
:101A2200E0937400E091A60FF091A70F099540C0D2
:101A3200E03A21F4E5ECE09374003AC0E03B31F483
:101A4200E091AA0FE06A0E94A01802C0E83A49F4A5
:101A5200E0E0E093AD0F0E94CD18E5E8E09374005A
:101A620027C0E83B71F40E94C7180E94CD18E0918C
:101A7200AD0FE03011F4E5E801C0E1ECE093740051
:101A820017C0E03C11F0E83C99F4E091AA0FE0782D
:101A920039F0E091AA0FEF77E093AA0FE5EE01C0CB
:101AA200E5ECE0937400E091A60FF091A70F099581
:101AB200E991EFBFF991E991B991A9919991899130
:101AC20079916991F9901990099018950895E2B366
:101AD200E360E2BBE1B3EC7FE1BBEFEFE0937000C8
:101AE200E3E0E09371000895E2E3E0937200E8819D
:101AF200F981E093A60FF093A70FE5E4E093740059
:101B020022960895E091AA0FE07411F0E0E01EC061
:101B1200E0E0E093B10FE3E0E093B20FED81E093F8
:101B2200B30FEC81E093AE0FEB81E093AF0FEA814C
:101B3200E093B00FE4E0E093AA0FE881F981E0932B
:101B4200A40FF093A50F0E94D418E1E02696089501
:101B52000E945515E0E0EA93E4EFF0E00E94DC1801
:101B6200EEE0F1E00E94DC18EEE5F1E00E94DC1804
:101B7200E6E8F1E00E94DC18E6E9F1E00E94DC18F8
:101B8200E4EDF1E00E94DC18EAE0F2E00E94DC18E9
:101B9200E0E3F2E00E94DC18EEE5F2E00E94E318D6
:101BA20008952A971A9310E0E0E0EA93EDE1F2E05B
:101BB2000E947917E0E0EA93E4E2F2E00E947917EA
:101BC20010E0123058F5E0E0EA93E4E3F2E00E941C
:101BD20079170E948B170E94E918E0E0EA93EAE382
:101BE200F2E00E947917A3E5B4E00E94F6180E9481
:101BF200FB18E0E0EA93E2E4F2E00E947917E12FB9
:101C02000E9406190E94411B0E94E918E0E0EA9333
:101C1200EBE4F2E00E9479171F5FD3CFE0E0EA9392
:101C2200E6E5F2E00E94791710E0123050F5E0E0AC
:101C3200EA93E5E6F2E00E9479170E948B170E9470
:101C4200E918E0E0EA93EAE6F2E00E947917A5E5F6
:101C5200B4E00E94F6180E94FB18E0E0EA93E2E783
:101C6200F2E00E947917A9E5B4E00E94F6180E94FA
:101C7200FB18E0E0EA93E0E8F2E00E9479171F5FC8
:101C8200D4CF72C02A971A9310E0E0E0EA93EBE80F
:101C9200F2E00E947917E0E0EA93E5E9F2E00E94BF
:101CA200791710E0123068F5E0E0EA93E5EAF2E035
:101CB2000E9479170E948B170E94E918E0E0EA93CC
:101CC200EBEAF2E00E9479170E9409190E94971725
:101CD2000E94FB18E0E0EA93E3EBF2E00E9479173E
:101CE200E12FA0E0B0E00E94F2170E94C01B0E9408
:101CF200E918E0E0EA93ECEBF2E00E9479171F5F4B
:101D0200D1CFE0E0EA93E7ECF2E00E94791710E02D
:101D1200123050F5E0E0EA93E6EDF2E00E94791726
:101D22000E948B170E94E918E0E0EA93EBEDF2E0E3
:101D32000E9479170E9411190E9497170E94FB189E
:101D4200E0E0EA93E3EEF2E00E9479170E941919AB
:101D52000E9497170E94FB18E0E0EA93E1EFF2E09D
:101D62000E9479171F5FD4CF18812B96089525976B
:101D7200E0E0EA93ECEFF2E00E947917E0914B0485
:101D8200F0914C040E942119E0E0EA93E7E0F3E0CD
:101D92000E947917E0914704F09148040E942119AA
:101DA20025960895559A08950E943B06EDE5F6E0C2
:101DB200FA93EA93E8E4F8E0FA93EA93E0914304B1
:101DC200F091440460914504709146040E94531BB3
:101DD20084E00E94C51628960E942E190E942006B1
:101DE200E5EDFEE0FA93EA93E0EDF7E002C00E942F
:101DF2003419FA93EA930E9491140895E9E0FFE0FE
:101E0200FA93EA93E4E8F3E00E947D179798089525
:101E12000E9434190E947D17979A08950E943B06EA
:101E22009BDB0E942E19E1E0EA93E3E0EA930E9431
:101E3200D706E1E0EA93E4E0EA930E94D7060E9423
:101E4200200608951A9314E6E0E0EA930E948408BB
:101E5200E13068F0E0E0EA930E948D08E0934204EA
:101E6200E0914204EA930E946E091AE001C014E66E
:101E7200E3E2FFE0FA93EA930E948B170E947D1738
:101E82003EC10E943B19E0915B06F0915C063097DF
:101E920011F00E94E80508950E948617969A003074
:101EA200E2E01E0748F4ABE5B4E0A00FB11FE0E0AA
:101EB200EC930F5F1F4FF3CF9798099119910895F3
:101EC2001A9310E0103470F40E948B17E05BF04F0D
:101ED200A0E0A0830E948B17E45FF04FA0E0A083F4
:101EE2001F5FF0CF0CC1E4E7FFE00E9442195ADF06
:101EF2000895E0EAEA93EFEFF0E0FA93EA93E9E07B
:101F0200EA93EEE8FFE0FA93EA93FCDDE03021F495
:101F1200EAE7FFE00E94421908950E94471929F05A
:101F2200EAE7FFE00E944E1904C0EBE9FFE00E94DD
:101F3200FD170895E091AA0FE07441F0EBE9FFE08C
:101F4200FA93EA93E4E6F0E00E947D17E0E0E09382
:101F5200B10FE2E0E093B20FE0EBE093B30FE0E009
:101F6200E093AE0FEFEFE093AF0FE4E0E093AA0F40
:101F7200E4ECFFE0E093A40FF093A50FE4ECFFE0A4
:101F82000E94D41808950E94471921F0EBE9FFE05E
:101F92000E944E190895E091AA0FEF7BE093AA0FD9
:101FA200E091AB0FECB90895E0E0EBBBEABBE8BB14
:101FB200E7E0E7BBE0E0E5BBE4BBE2BBE1BBE3B9E2
:101FC200E2B90E940118E0E0E0936500E09364004A
:101FD2000895E0E0E0BFE3BFE2BFE1BF0895E0E0C3
:101FE200EFBDEEBDEDBDECBDE7BDE6BDEBBDEABDAF
:101FF200E9BDE8BDE0937900E09378000895E0E060
:10200200E5BDE4BDE3BD0895E0E0E0938B00E0931D
:102012008A00E0938900E0938800E0938100E093D6
:102022008000E0938700E0938600E0938500E093D0
:102032008400E0938300E09382000895E0E0E0935F
:102042006A00EABFE9BFE7BFE0937D000895E0E0E0
:10205200EBB9E8EDEAB9E6E0E0939500E0E0E09361
:102062009000E3E3E9B90895E2E0E0939B00E8ED34
:10207200E0939A00E6E0E0939D00E0E0E0939800B0
:10208200E8E0E093990008951A9310E010E012300E
:10209200D8F4A3E5B4E00E948B17EA0FFB1F0F01EF
:1020A2000E940919D001EC93E12F0E9453190F01EC
:1020B200E12FA0E0B0E00E94F2170E94C01BD00105
:1020C200ED93FC931F5FE3CF10E01230C0F4A5E55F
:1020D200B4E00E948B17EA0FFB1F0F010E94111937
:1020E200D001EC93A9E5B4E00E948B17EA0FFB1F25
:1020F2000F010E941919D001EC931F5FE6CF1991CD
:10210200089552DF0E94A70A0E94B10A62DF67DFC8
:1021120076DF7ADF93DF9BDFA7DF0E94EC09B9DA73
:102122000895B2DFE0E0EA93E0915304EA93E0918C
:102132004F04F09150040E945B19E1E0EA93E091B0
:102142005404EA93E0915104F09152040E945B1905
:10215200E0E0EA93E1E0EA93EA93E0E0EA93E0E187
:10216200EA930E94210A0E944E060E9468090E9478
:102172007614ADDCECECFFE0FA93EA93B5DCEEB159
:10218200EFB1E0E0E0935B06E0935C060E94631728
:10219200A1E00E946A1708952A97E0E0EE83EF8398
:1021A200E887E9870E94FB1B0AEC10E030E020E0A0
:1021B20050E040E00E945F19E2E9F0E00E946619F7
:1021C20011F00C940613EDE5F3E00E946C19A230B5
:1021D20010F40C9406130E947219E6E9F0E00E94D2
:1021E200661911F00C947B11E3E6F3E00E946C197E
:1021F200A33010F40C9477110E9479190E9480196F
:102202000E948D1938F40E949519EAE6F3E00E94C3
:102212009A1903C0E4EDF0E024C3AA89A43010F4B3
:102222000C9477110E949E1901F50E94A71929F0BA
:102232000E94C2190E94F51B81F4A3E5B4E0E22FCB
:102242000E940C18AC85A083EEECF0E08F01E0E771
:10225200F3E00E949A1932E008C0E4EDF0E08F0149
:10226200E7E7F3E00E949A19FDC20E94C7190E9493
:10227200CC19E2EAF0E00E946619E9F40E94D11951
:102282000E94CC190E9480190E94D61960F4E22F94
:102292000E9453190E94DE19EFE7F3E00E949A1997
:1022A2000E94E71908C0E4EDF0E08F01E2E8F3E0F4
:1022B2000E949A19D7C20E94ED190E94411B0E94E6
:1022C2005B1920E00E945515A4E0B0E0E22F0E94C5
:1022D2000C180E94F7190E94411BD0010E94D01BCA
:1022E2000E944A15EAE8F3E00E949A19E0E0EA93B4
:1022F2000E9497070E947219E8EAF0E00E946619AC
:1023020011F00C947B12E6E9F3E00E946C19A33001
:1023120010F40C947B12ECE9F3E00E949A190E94EB
:1023220079190E940C1A0E948D1918F40E949519AD
:1023320003C0E4EDF0E095C2AA89A43010F40C9435
:102342007B120E949E19D9F40E94A71929F00E94BB
:10235200C2190E94F51B81F4A5E5B4E0E22F0E94A8
:102362000C18AC85A08332E0EEECF0E08F01E3EADA
:10237200F3E00E949A1903C0E4EDF0E072C20E94F9
:10238200C7190E94CC19ECEAF0E00E94661909F51F
:102392000E94D1190E94CC190E940C1AA138E0E0C7
:1023A200BE07E0E08E07E0E09E0780F4A9E5B4E016
:1023B200E22F0E940C18AC85A0833E5FEEECF0E0A9
:1023C2008F01ECEAF3E00E949A1903C0E4EDF0E019
:1023D20048C20E94C7190E94CC19E2EBF0E00E94A9
:1023E200661911F00C9444120E94D1190E94CC1962
:1023F2000E940C1A0E94F11B50F00E94C219A430D4
:10240200E0E0BE07E0E08E07E0E09E0708F038C09B
:10241200EC85FD856E857F850E94E91B01F1E13027
:10242200A0E0FA07A0E06A07A0E07A0719F450E0FA
:1024320041E017C0E230A0E0FA07A0E06A07A0E09E
:102442007A0711F451E00CC0E330A0E0FA07A0E0F3
:102452006A07A0E07A0719F451E041E002C050E0B7
:1024620040E0EEECF0E08F01E6EBF3E00E949A1917
:10247200A7E5B4E0E22F0E940C18AC85A08303C04C
:10248200E2EEF0E0EEC12A930E94161AEA934A9312
:102492005A930E941D1AEA930E94210A30E050E0EA
:1024A20040E0A6E0B0E0E22F0E940C180F010E946B
:1024B200161AD0010E94D81BA8E0B0E0E22F0E94B9
:1024C2000C180F01A7E5B4E0EE27A20FBE1FEC9196
:1024D200D0010E94D81BAAE0B0E0E22F0E940C18A3
:1024E2000F010E941D1AD0010E94D81BE1ECF3E0FB
:1024F2000E949A190E947219E6EBF0E00E94661996
:1025020011F00C940613ECECF3E00E946C19A3306A
:1025120010F40C9402130E9479190E9480190E94EF
:102522008D1938F40E949519E2EDF3E00E949A1990
:1025320003C0E4EDF0E095C1AA89A43010F40C9434
:1025420002130E949E1901F50E94A71929F00E9408
:10255200C2190E94F51B81F4A3E5B4E0E22F0E94A8
:102562000C18AC85A083EEECF0E08F01E8EDF3E00F
:102572000E949A1932E008C0E4EDF0E08F01EFED1D
:10258200F3E00E949A196EC10E94C7190E94CC19E9
:10259200E2EAF0E00E946619E9F40E94D1190E9471
:1025A200CC190E9480190E94D61960F4E22F0E9471
:1025B20053190E94DE19E7EEF3E00E949A190E9475
:1025C200E71908C0E4EDF0E08F01EAEEF3E00E94C3
:1025D2009A1948C10E94ED190E94411B0E945B1981
:1025E20020E0A4E0B0E0E22F0E940C180E94F7194C
:1025F2000E94411BD0010E94D01BE2EFF3E00E9437
:102602009A19E0E0EA930E9497070E945F19EAEBA9
:10261200F0E00E94661911F00C94B313EDEFF3E0B1
:102622000E946C19A23010F40C94B3130E94721918
:10263200E6E9F0E00E94661919F5AA89A33000F1D3
:102642000E9479190E940C1A0E948D1920F42C857F
:10265200EEECF0E002C0E4EDF0E08F01AA89A430D4
:1026620078F0E5E5F5E12A930E94241A0E94050814
:10267200EAE4F5E1E1E0F4E00E949A190E942B1AE3
:102682000E947219E8EAF0E00E94661961F5AA89CF
:10269200A33048F10E9479190E940C1A0E948D19E8
:1026A20020F42C85EEECF0E002C0E4EDF0E08F01C6
:1026B200AA89A430C0F0EBE0F4E00E949A190E94CB
:1026C2002B1AEAE0EA930E94241AE0E5FFE0FA936B
:1026D200EA930E94370AE5E1F4E00E949A19E0E5E4
:1026E200FFE00E949A190E947219E6EBF0E00E9444
:1026F2006619C1F5AA89A330A8F10E9479190E942E
:102702000C1A0E948D1920F42C85EEECF0E002C028
:10271200E4EDF0E08F01AA89A43020F1EFE1F4E0CA
:102722000E949A19E889F989A681B781BA93AA9376
:102732000E94CB09FA93EA93FE013896FA93EA9340
:102742000E942F17E0E0EA93FE0137960E94791764
:10275200EBE2F4E00E949A19E0E0EA93E0E5FFE0A0
:102762000E9479170E945F19EAE4F9E00E94661953
:1027720051F4E4E7FFE00E94FD17E1E0E093410439
:10278200EEECF0E08F010E945F19ECE4F9E00E94A8
:10279200661961F4E4E7FFE0FA93EA930E942215D6
:1027A200E0E0E0934104EEECF0E08F010E945F195B
:1027B200EEE4F9E00E94661939F4EFE0FFE00E94CE
:1027C200FD17EEECF0E08F010E945F19ECE8F0E0FB
:1027D2000E94661921F4BCD9EEECF0E08F010E9450
:1027E2005F19E0ECF0E00E94661929F4EEECF0E0EB
:1027F2008F010E94001E0E945F19ECEBF0E00E9424
:10280200661929F4EEECF0E08F010C9400000E94AE
:102812005F19E6ECF0E00E94661959F40E94551522
:1028220031DA0E94D20DA3DAEEECF0E08F010E94C1
:102832004A150E945F19E0E5F9E00E94661921F449
:1028420096DAEEECF0E08F010E945F19E2E5F9E022
:102852000E94661939F4EAE7FFE00E94FD17EEECE8
:10286200F0E08F01E0E0EA931A930A930E941508C0
:102872000E94021C63960895279743DC52DC8F9ACC
:102882008E9AE1E0EA93E0EFF0E00E94DC18E0EFDC
:10289200F0E00E94E318E8EFFEE00E94FD17E5ED8C
:1028A200FEE00E94FD17E3E2FFE0FA93EA93E9E11A
:1028B200F0E00E947D170E943B1971D0FECFFFCF3E
:1028C2000E941018A3E4B4E00E94CB1797D0E991BC
:1028D200EFBFF991E991B991A99199918991799172
:1028E2006991F9901990099018951A9310E01F3187
:1028F20051F00E943E1A0E94451A0E943E1A0E94FE
:102902004D1A1F5FF4CF9BC096980895E881F98114
:10291200FA93EA93E0E0F0E00E947D172296089590
:102922001A930A9310E000E0EFB7E7FF02C0F894B1
:1029320001E010E01F3199F00E943E1A0E94541AE1
:10294200DF01EC81FD81EA17FB0739F40E943E1A90
:102952000E945A1A09F078941EC01F5FEBCF10E054
:102962001F31C9F00E943E1A0E94541A0E94621A34
:1029720081F40E943E1AEA0FFB1F3296AC81BD81A0
:10298200A083B1830E943E1A0E945A1A09F07894D9
:1029920002C01F5FE5CF19810881269608950E9423
:1029A200FD1B10E010E01F3121F10E943E1A0E942F
:1029B200541A0E94621A41F00E943E1AAE0FBF1FC3
:1029C2000E94411B309709F012C0969A0E943E1A4B
:1029D200AE0FBF1F12962D913C910E943E1A0E948B
:1029E200451A7894F90109950E94041C50C01F5F92
:1029F200DACF789489DF0E94041C49C01A9310E050
:102A02001F31E9F00E943E1A0E94541A0E94621A73
:102A120051F00E943E1AAE0FBF1F0E94411BDF0100
:102A22000E94ED1B08F009C00E943E1AAE0FBF1FA4
:102A3200ED91FD913197FE93EE931F5FE1CF1991D6
:102A420008951A930A9310E000E0EFB7E7FF02C07F
:102A5200F89401E010E01F31C1F00E943E1A0E947A
:102A6200541ADF01EA81FB81EA17FB0761F40E9435
:102A72003E1A0E94451A0E943E1A0E944D1A0030C8
:102A820009F0789402C01F5FE6CF1981088124966D
:102A92000895F894ECE0E5BDE0E0E4BDEEE3E3BDCB
:102AA200E0E8E7BF78940895E5E0E5BD08951A935C
:102AB2000A93AA81BB8112960E94411B309729F189
:102AC200AA81BB8114960E94411B8F01309761F04D
:102AD2000230E0E01E07C0F0F80131978F01AA81B1
:102AE200BB811496ED93FC93AA81BB8112960E943E
:102AF200D9173197AC81A083AA81BB810E94411B67
:102B0200FF2312F00E94D91706C0AA81BB81EFEF02
:102B1200FFEFED93FC93198108812596089526977E
:102B22000E94FB1B10E0AC85BD85E0E0F0E0ED9378
:102B3200FC93EA89FB893196EA8BFB8B3197E4910E
:102B42002E2FE03011F40C94BD16E12FE03039F451
:102B5200253211F411E002C00E94681A0CC1E13062
:102B6200A9F4253219F40E94681A04C112E040E067
:102B720000E02D3211F401E0FEC02B3211F44BE2E1
:102B8200FAC0203211F440E2F6C002C0E23039F459
:102B920050E013E0203311F40068EDC004C0E330CC
:102BA20011F00C94BC16203310F02A3308F007C041
:102BB200AAE05A9F502DE22FE0535E0FDCC0E22FB5
:102BC200E33649F40E94711AE889F989A481AA932B
:102BD2000E94771ACFC0E33741F40E94711A0E9413
:102BE2007F1A0E941A171E2F0AC0E03761F40E9452
:102BF200711A0E947F1A0E9424171E2F0860026019
:102C02000F7730E035C0E43611F0E93611F4046094
:102C120002C0E53731F4E6E8F7E0EE83FF8315E022
:102C22000DC0E83511F4086004C0E83711F00C94C7
:102C3200BB16E0E9F7E0EE83FF8314E002FF14C065
:102C42000E94711A0E94891AAB85AA233AF4EA8576
:102C5200FB850E94A81AEA87FB874DE2403011F0FB
:102C62001F5F01C00B7F04C00E94711A0E94891A63
:102C720000FD11C0151778F407FF08C002FF04C059
:102C82000B7F242F115001C020E301C020E20E94DB
:102C9200681A5150EFCF312F01FF17C03030A1F029
:102CA20003FF06C0EE81FF812591EE83FF8305C0FD
:102CB200AE81BF812D91AE83BF830E94681A5030CE
:102CC20009F051503150EACF4BC020E3EE81FF8131
:102CD2000E944F1BE887F987EE81FF813296EE83CF
:102CE200FF83E885F985AA85BB85AE17BF0750F03B
:102CF2002F5FA885B985EA85FB85EA1BFB0BEA876E
:102D0200FB87EFCF2A3328F003FF02C0295F01C0FF
:102D1200295D04FD1AC0213320F4A885B9851197D5
:102D220009F409C0531710F000FF01C013C020E2DC
:102D320007FF0BC020E3006102FF07C00B7F4A932D
:102D42000E94771A503009F051500E94681A503090
:102D520009F051503150A885B985129708F0B5CFC6
:102D620000FF08C0503031F05150E0E2EA930E9477
:102D7200771AF8CF10E0DDCEAC85BD850E94411BED
:102D82000E94021C64960895FF92F82E26970E94D4
:102D9200FD1B0E94911A309719F4EFEFFFEF23C049
:102DA200DE0116960E94A41A8D010E94911AEE83EA
:102DB200FF83E0E0E887E987DE011A960E94A41A01
:102DC2000E94CC191A930A93E8E5F5E1FA93EA9383
:102DD200FE013A96FA93EA93A2DE9F01AE81BF8189
:102DE200E0E0EC93F9010E94041C2A96FF900895FA
:102DF200E991F991A991B991CD016D916623E9F714
:102E0200119761916D936623E1F7FC010895E991B1
:102E1200F991A991B9911D900590011421F4002016
:102E2200D1F7EE2708951018E1F3E1E008F4E2503B
:102E32000895A991B991EE27FF276D91662311F0AC
:102E42003196FBCF0895AA27BB27E991F991059006
:102E5200002011F01196FBCFFD010895A991B991BF
:102E6200E991F99130962AF4E095F09531966DE268
:102E72006D93E89480E197E20DD088EE93E00AD05A
:102E820084E6992707D08AE005D06E2F10D06627F6
:102E92006C9308956627E817F90720F06395E81BFD
:102EA200F90BC9F7662311F416F008956894605D72
:102EB2006D930895A0915B06B0915C06A030E2E0AC
:102EC200BE070895E0915B06F0915C06E55AFB4F60
:102ED2000895A083ABE5B6E0ED91FD913196FE93A6
:102EE200EE930895EFB7A0914004EA2BEFBF089547
:102EF200FA93EA930C940508FA93EA930C949114CA
:102F0200EA93E0E0EA930C9405061A930A9300E030
:102F120010E00895E12FF0E00895E72DF82D3196A5
:102F22007E2E8F2E3197E459F94F0895F0E0FA93EF
:102F3200EA930895EA81FB81662777270895A8E03E
:102F4200B0E080E090E00E94CC1A0895E0E0E093C7
:102F5200640AE093650AE093660AE093670A0895BB
:102F6200E0E0E093680CE093690CE0936A0CE09374
:102F72006B0C0895EA1BFB0BE130A2E0FA070895FF
:102F82006A937A93AA93BA93EA93FA93EFB7EA937E
:102F92001A9308950E94451BEF5FFF4F6F4F7F4FBB
:102FA2000E944A1B0895E0916A0CF0916B0C0895FF
:102FB200ED91FD913196FE93EE930895ED91FD9181
:102FC2003197FE93EE93EFB7E02BEFBFE12F19811C
:102FD20008810895E8E7FEE0E093F80EF093F90E19
:102FE2000895F0E0EE0FFF1FAE0FBF1F0895E92D09
:102FF200F0E0E858F14F0895FA93EA930C9487149D
:10300200E0E0E0936200E09361000895A091940FE4
:10301200B091950F0895F0E0EA0FFB1F08950A9210
:103022001A92FA926A937A938A939A93AA93BA9388
:10303200EA93FA93EFB7EA930895EFE3F0E060E0E2
:1030420070E00E94941BEC33A0E0FA07A0E06A074C
:10305200A0E07A070895EFE1F0E060E070E00E94FE
:10306200941B0895E091A20FF091A30FF695E795B6
:10307200EF710895A091A20FB091A30FE6E00E9414
:10308200AC1AEF700895A0EABFE086E1EFE0F0E04D
:1030920060E070E00E94A61BE091A20FE17CE2607A
:1030A200E093A20F0895E091A30FE695E695EF73E2
:1030B200F07060707070DF01CB010895E093AA0F89
:1030C200E5EDE0937400E091A80FF091A90F099546
:1030D2000895E091B30FE0937300E5ECE093740080
:1030E2000895E091AA0FEC70E8300895E091B10FD5
:1030F200F0E0E255F04FE081E0937300E091B10F10
:10310200EF5FE093B10FE5ECE09374000895E09176
:10311200B60FF0E0EC54F04FE081E0937300E091E1
:10312200B60FEF5FE093B60FE5EC0895E5EDE0939F
:103132007400E091A40FF091A50F09950895E09312
:10314200AA0FE0E0E093B10FE093B60F0895A091CB
:10315200B10FAF5FE091B20FEA170895A091B10FDE
:10316200B0E0A255B04FE0917300EC930895E09166
:10317200AA0FE064E093AA0F0895A091AD0FB0E00A
:10318200A555B04FE0917300EC930895E091AD0F17
:10319200EF5FE093AD0F0895F0E0E455F04FE0816A
:1031A200E09373000895E093A80FF093A90FE5EA66
:1031B200E0937400DCCFFA93EA930E941508E0E0F2
:1031C200EA930895FA93EA930E9415080C944A151B
:1031D200FA93EA93FE013396FA93EA930E942F1729
:1031E200E0E0EA93FE01329683CEEE27A10FBE1FE6
:1031F200EC919CCEFE013396FA93EA930E942F172C
:10320200E0E0EA93FE01329673CEAFE4B4E0E9CE99
:10321200A4E0B0E0EE27A10FBE1F0E94C41B0895D8
:10322200A6E0B0E0EE27A10FBE1F0E94C41B0895C6
:10323200AAE0B0E0EE27A10FBE1F0E94C41B0895B2
:10324200FA93EA93FE013296FA93EA930E942F17B9
:10325200E0E0EA93FE0131964BCEE1E0EA93E2E050
:10326200EA930C94D706EFEFFEE0FA93EA93E4E6D2
:10327200F0E00895E2E4FFE0FA93EA93E2E3F0E09B
:103282003BCEFA93EA93E2E3F0E036CEE091AA0F66
:10329200EF7BE093AA0FE1710895FA93EA93E4E1D8
:1032A200F0E02ACEAFE4B4E0F0E0EE0FFF1FEA0F49
:1032B200FB1F0895FA93EA930C940107A889B98930
:1032C2000E94411BFA93EA930895FA93EA930E94AB
:1032D2000817E0300895FA93EA930E94D205AA896A
:1032E2000895E889F989A281B381BA93AA930895CE
:1032F200E889F989A481B581BA93AA9308950E94B5
:10330200CB0966277727EC87FD876E877F87AC8599
:10331200BD858E859F850895A330E0E0BE07E0E07D
:103322008E07E0E09E0708952C85EEECF0E08F0119
:103332000895FA93EA930C94D205E889F989A68153
:10334200B781BA93AA93ECE9F0E0BFCFE889F98993
:10335200A085B185BA93AA930E94B109FF27662777
:103362007727EC87FD876E877F87AC85BD858E8545
:103372009F85A130E0E0BE07E0E08E07E0E09E0717
:103382000895AC85BD858E859F850895E32FED5FF9
:10339200A889B98926CE0E94411BFA93EA9308951F
:1033A200E32FEC5FA889B9891CCEA138E4E0BE07FF
:1033B200E0E08E07E0E09E070895AC85BD85A0831E
:1033C200B183EEECF0E08F0130E00895E2EAF0E044
:1033D200FA93EA930C94C2052A93A3E5B4E0EE278C
:1033E200A20FBE1FEC91EA93E22F0FCF0F01A3E5CC
:1033F200B4E0EE27A20FBE1FEC91D0010E94D81BB1
:10340200E22FA0E0B0E0F0E0EE0FFF1FEA0FFB1F9B
:103412000F01E22FFACE0E94B109FF276627772714
:10342200EC87FD876E877F87ACCFA5E5B4E0EE27FA
:10343200A20FBE1FEC910895A9E5B4E0EE27A20FFA
:10344200BE1FEC910895E989FA89A681B781BA93E2
:10345200AA930895E889F989A681B781BA93AA93B4
:103462000E94CB09FA93EA93FE013896FA93EA9303
:103472000E942F17FE0136965CCFE12FA8EBBFE02A
:10348200F0E00E94B51A0895AE0FBF1F1296E5E84C
:10349200F4E1ED93FC930895AE0FBF1FE0E0F0E07E
:1034A200ED93FC930895AE0FBF1F12960E94411B2D
:1034B2000895EA0FFB1FAA81BB81A083B18300306C
:1034C2000895DF01E5E8F4E1EA17FB0708952A937E
:1034D200ED85FE85FA93EA93E989FA8909950895BB
:1034E200E889F9893497E88BF98B0895ED85FE8593
:1034F200FA93EA93E989FA8909950895A889B9891D
:1035020014960E94411BEE83FF83FA93EA93089577
:10351200A889B98914960E94411BEA87FB870895FE
:10352200DE011C960E94A41A0E94411B0895E99193
:10353200F991309639F080EA9FE00197F1F7A8956A
:103542003197C9F708950024AF0DB01D0895F19584
:10355200E195F0400895EE230E2EFD0121F0F6953F
:10356200E7950A94E1F70895EE0FFF1FEE0FFF1F94
:103572000895F695E795F695E7950895EE0FFF1FE6
:10358200661F771F0895FA9FF02DEB9FF00DEA9FBB
:10359200E02DF10D08957A9F702D6B9F700DF89FAD
:1035A200700DE99F700D6A9F602D710DFB9F600D7C
:1035B200711DE89F600D711D8827FA9FF02D610D26
:1035C200781FEB9FF00D611D781FEA9FE02DF10D32
:1035D200681F781F08956E2F6A9FF0016B9FF00D90
:1035E200089540D0D0DF0EF4B2DF089500241124F4
:1035F20090E1AA0FBB1F001C111C0E1A1F0A18F41F
:103602000E0E1F1E01C0A1609A9599F7FD01D0010F
:1036120008953F934F935F93002411244427552725
:1036220030E2AA0FBB1F881F991F001C111C441FE8
:10363200551F0E1A1F0A460B570B28F40E0E1F1E9B
:10364200461F571F01C0A1603A9559F7FD01BC0101
:10365200D001CA015F914F913F910895DADFFD01D8
:10366200BC010895E894F7FF02C071DF6894B7FFC8
:1036720006C0A095B095119600F8039400FA08953B
:10368200ED91FC9111970895ED91FD916D917D91D0
:1036920008957E936E93FE93EE9308950590F491B0
:1036A200E02D08957A936A93FA93EA930895082E87
:1036B2008F019B01ED91FD916D917C91102C112058
:1036C20031F076956795F795E7951A94D1F7E0234F
:1036D200F123622373230895E023F12362237323EA
:1036E200AF01CB01002051F0000F111F221F331F29
:1036F200440F551F881F991F0A94B1F70095109522
:10370200209530951C900E90022213223E912E910C
:1037120020233123242B352B082A192A2D933D935C
:103722000D921C9208950F931F932F933F934F93E3
:103732005F93BDDF3196611D711DCEDF5F914F91A9
:103742003F912F911F910F9108950F931F932F93E4
:103752003F934F935F93ABDFEF93FF936F937F930F
:103762003196611D711DB8DF7F916F91FF91EF91CD
:103772005F914F913F912F911F910F910895119653
:1037820002D0FE2F1197E199FECFFF93FFB7F89475
:10379200AEBBBFBBE09AEDB3FFBFFF91089507D068
:1037A2001196EF93EF2F03D0EF9111970895E19BBC
:1037B20002C0A895FCCF9FB7F894AEBBBFBBE09AFE
:1037C2008DB3E81719F0EDBBE29AE19A9FBF089515
:1037D200309760407040089500240A160B06089541
:1037E200109780409040089500240A160B060806A0
:1037F200090608955A934A933A932A931A930A937D
:1038020008955D814C813B812A8119810881089547
:00000001FF
