:0E0000000C9427060C9400000C9400000C9445
:10000E0000000C9400000C9400000C9400000C9462
:10001E0000000C9400000C9428150C9400000C9415
:10002E0000000C9400000C9400000C9400000C9442
:10003E0000000C944B0C0C947E0B0C94EF090C945A
:10004E002E090C9400000C94830E0C9400000C945A
:10005E0000000C9400000C9400000C9400000C9412
:10006E0000000C9400000C9400000C94240A0C94D4
:10007E005A090C9400000C940A0D0C940000000018
:10008E0000000000005F00000007000700147F144E
:10009E007F14242A7F2A12231308646236495522BC
:1000AE00500005030000001C2241000041221C00EC
:1000BE0014083E081408083E0808005030000008D6
:1000CE000808080800606000002010080402000004
:1000DE0000000000005F00000007000700147F14FE
:1000EE007F14242A7F2A122313086462364955226C
:1000FE00500005030000001C2241000041221C009C
:10010E0014083E081408083E080800503000000885
:10011E0008080808006060000020100804020000B3
:10012E0000000000005F00000007000700147F14AD
:10013E007F14242A7F2A122313086462364955221B
:10014E00500005030000001C2241000041221C004B
:10015E0014083E081408083E080800503000000835
:10016E0008080808006060000020100804023E51D4
:10017E0049453E00427F400042615149462141457A
:10018E004B311814127F1027454545393C4A4949D1
:10019E003001710905033649494936064949291E78
:1001AE0000363600000056360000081422410014B6
:1001BE001414141400412214080201510906324984
:1001CE0079413E7E1111117E7F494949363E4141AA
:1001DE0041227F4141221C7F494949417F0909093A
:1001EE00013E4149497A7F0808087F00417F41005E
:1001FE002040413F017F081422417F404040407F14
:10020E00020C027F7F0408107F3E4141413E7F0970
:10021E000909063E4151215E7F0919294646494981
:10022E00493101017F01013F4040403F1F204020E6
:10023E001F3F4038403F63140814630708700807D7
:10024E006151494543007F414100020408102000DE
:10025E0041417F0004020102044040404040000141
:10026E0002040020545454787F484444383844449F
:10027E004420384444487F3854545418087E0901A9
:10028E00020C5252523E7F0804047800447D400016
:10029E002040443D007F1028440000417F40007CF8
:1002AE00041804787C0804047838444444387C14D8
:1002BE00141408081414187C7C08040408485454B8
:1002CE005420043F4440203C4040207C1C204020D1
:1002DE001C3C4030403C44281028440C5050503CAC
:1002EE004464544C44000836410000007F00000076
:1002FE00413608001008081008784641467800007C
:10030E0000000000005F00000007000700147F14CB
:10031E007F14242A7F2A1223130864623649552239
:10032E00500005030000001C2241000041221C0069
:10033E0014083E081408083E080800503000000853
:10034E000808080800606000002010080402000081
:10035E0000000000005F00000007000700147F147B
:10036E007F14242A7F2A12231308646236495522E9
:10037E00500005030000001C2241000041221C0019
:10038E0014083E081408083E080800503000000803
:10039E000808080800606000002010080402000031
:1003AE0000000000005F00000007000700147F142B
:1003BE007F14242A7F2A1223130864623649552299
:1003CE00500005030000001C2241000041221C00C9
:1003DE0014083E081408083E0808005030000008B3
:1003EE0008080808006060000020100804023E5152
:1003FE0049453E00427F40004261514946214145F8
:10040E004B311814127F1027454545393C4A49494E
:10041E003001710905033649494936064949291EF5
:10042E000036360000005636000008142241001433
:10043E0014141414004122140802015109067E11ED
:10044E0011117E7F494949317F494949367F010162
:10045E000103702927217F7F4949494177087F0889
:10046E007741414149767F1008047F7F1009047F50
:10047E007F0814224120413F017F7F020C027F7FC3
:10048E000808087F3E4141413E7F0101017F7F09FF
:10049E000909063E4141412201017F010147281011
:1004AE0008071E217F211E63140814633F2020209D
:1004BE005F070808087F7F407F407F3F203F205F17
:1004CE00017F4848307F4830007F007F48483041E8
:1004DE004141493E7F083E413E462919097F20543D
:1004EE005454783C4A4A49317C545428007C0404C4
:1004FE00040C722A26227E38545454186C107C1028
:10050E006C44445454387C2010087C7C2112097CA5
:10051E007C1028440020443C047C7C0810087C7C21
:10052E001010107C38444444387C0404047C7C1441
:10053E00141408384444442004047C040444281051
:10054E00080408147E140844281028443C40407CBB
:10055E00400C1010107C7C407C407C3C203C207C6D
:10056E00047C5050207C5020007C007C5050202871
:10057E00444454387C10384438485434147C0000B9
:10058E000000000000000000000080C0E0F0F8F85D
:10059E00FCFCFEFEFFFFFEFCF8F0E0C08000000059
:1005AE00000000000000000000000000000000003D
:1005BE0000000080C0E0F0F8FCFEFFFFFEFEFEFC37
:1005CE00F8F8F0E0C080000000000000000000001D
:1005DE0000000000000000000000E0F8FEFFFFFF3A
:1005EE00FFFFFFFFFFFFFFFFFFFFFFFFFFFFFFFF0D
:1005FE00FFFFFEFCF8F0E0400000000000000000ED
:10060E0040E0F0F8FCFEFFFFFFFFFFFFFFFFFFFFE4
:10061E00FFFFFFFFFFFFFFFFFFFFFFFEF8E0000001
:10062E00000000000000000000000000787F7F7FC7
:10063E007F7F7F7F7F7F7F7F7F7F7F7F7F7F7F7FBC
:10064E007F7F7F7F7F7F0F0301F0F8FCFCFEFEFEB5
:10065E00FEFEFEFCFCF8F001030F7F7F7F7F7F7FA5
:10066E007F7F7F7F7F7F7F7F7F7F7F7F7F7F7F7F8C
:10067E007F7F7F7800000000000000000000000077
:10068E00000000000000000000000000000000005C
:10069E00000000000000000000000080C0E1E3E761
:1006AE00C7CF8F8F8F8FCFC7E7E3E1C080000000E9
:1006BE00000000000000000000000000000000002C
:1006CE00000000000000000000000000000000001C
:1006DE00000000000000000000000000000000000C
:1006EE000000000000000080C0E0F0F8FCFEFFFFFC
:1006FE00FFFFFFFFFFFFFFFFFFFFFFFFFFFFFFFFFC
:10070E00FFFFFEFCF8F0E0C08000000000000000DB
:10071E0000000000000000000000000000000000CB
:10072E0000000000000000000000000000000000BB
:10073E0000000000000000000C0E1F1F1F3F3F3F77
:10074E003F7F7F7FFFFFFFFFFFFFFFFFFFFFFFFFEB
:10075E00FFFFFFFF7F7F7F3F3F3F3F1F1F1F0E0C9F
:10076E00000000000000000000000000000000007B
:10077E0000000000000048656C70000053657400B6
:10078E005561727400004D6F6465000053706565AD
:10079E0064005370690050726573630070700000DE
:1007AE0049326300570072737400626F6F740000F9
:1007BE006462670020450D00206F6B0D0000204C19
:1007CE00617267655F76616C75650D002057726F9B
:1007DE006E675F76616C75650D00205300000D3EEF
:1007EE003E3E2048454C50203C3C3C0D20436F6D16
:1007FE006D616E64733A0D000D20536574202D49A2
:10080E006E746572666163655F6E616D652D202D18
:10081E006E756D6265722D204D6F6465202D76614B
:10082E006C7565286F7074696F6E616C292D20531D
:10083E0070656564202D76616C7565286F707469BE
:10084E006F6E616C292D00000D20572020202D4940
:10085E006E746572666163655F6E616D652D202DC8
:10086E006E756D6265722D202D646174612D0000B0
:10087E000D20476574202D656E746974792D000006
:10088E000D2020496E746572666163657320617612
:10089E0061696C61626C653A0D202020556172743D
:1008AE0028302C31290D20202053706928302D48F6
:1008BE006172642C20312D536F6674290D000D3E2C
:1008CE003E3E20554152545F48454C50203C3C3CE6
:1008DE000D204D6F64653A20302D204E4F524D4104
:1008EE004C3B20312D20444F55424C4544207370D3
:1008FE00656564000D2053706565643A206261750C
:10090E00642F313030202845783A2035373620692B
:10091E0073203537363030290D000D3E3E3E2053C4
:10092E0050495F48454C50203C3C3C0D204D6F6477
:10093E00653A20302D20534C4156453B20312D2019
:10094E004D41535445520A000D2050726573636138
:10095E006C6C65723A20706F77206F66203220289B
:10096E0045783A205072657363203136290D0000A8
:10097E001027E80364000A000100001000011000B7
:10098E0001000000FF00C800410E410E410E03039E
:10099E000246000000000000706F72660D0A0065CE
:1009AE00787472660D0A00626F72660D0A007764C3
:1009BE0072660D0A004A5452460D0A000D3C524111
:1009CE004D3E000D554152545F53455454494E47C8
:1009DE00530D005541525420000D204D6F6465207B
:1009EE00000D20537065656420000D2D2D2D2D2DCD
:1009FE002D2D2D0D000D5350495F53455454494E26
:100A0E0047530D0053504920000D205072657363FB
:100A1E00616C6C657220000D3C454550524F4D3E49
:100A2E00000D42757465735F525820000D42757447
:100A3E0065735F54582000767265663D256420000C
:100A4E00643D2564200064656C74613D256420005E
:100A5E00766F6C743D256420000D20536574000D77
:100A6E002055617274000D204E756D000D204D6F76
:100A7E006465000D4D2045584954000D20000D2091
:100A8E0055736172745F696E6974000D20537069DD
:100A9E00000D53204E756D000D53204D6F64652D66
:100AAE00000D532050726573632D000D5320506856
:100ABE0061506F6C2D000D5320537069496E69742F
:100ACE00000D2057000D205520443E545820000D97
:100ADE00205320443E545820000D205320443C52B5
:100AEE005820000D2049324320443E545820000D1A
:100AFE002049324320443C525820007300450000E8
:100B0E0001002D4E414E00494E46000001000200EC
:100B1E0090090100010F940902000B0F96090200C3
:100B2E000D0F980902000F0F9A0907000002CA095B
:100B3E0010000702D10906001702E10908001D0284
:100B4E00E70909002502EF090B002E02F8090F0034
:100B5E003902030A05004802120A08004D02E7098D
:100B6E000E005502170A0B006302F8090A006E0206
:100B7E00250A10007802D10906008802E109080052
:100B8E008E02E70909009602EF090B009F02F80991
:100B9E000F00AA02030A0500B902120A0800BE02DB
:100BAE00E7090E00C602170A0B00D402F8090B0063
:100BBE00DF022F0A0B00EA023A0A0600F502670A64
:100BCE000700FB026D0A06000203740A0700080301
:100BDE007A0A08000F03810A03001703890A080026
:100BEE001A03810A0D0022038C0A06002F03990AAC
:100BFE00070035039F0A09003C03A60A0A004503B5
:100C0E00AF0A0B004F03B90A0B005A03C40A0400C3
:100C1E006503CF0A0A006903D30A0A007303DD0ACB
:100C2E000A007D03E70A0C008703F10A0C00930308
:100C3E00FD0A0A0004009C0901005F0F0E0B000064
:100C4E00F894EE27ECBBF1E0F5BFE5BFE0936C0046
:100C5E00F8E1F1BDE1BD8DE0A2E0BB27ED938A95F1
:100C6E00E9F780E090E1A0E0B1E0ED930197E9F7BC
:100C7E00EAE1FBE085919591009761F0A591B59120
:100C8E0005901590BF01F00105900D920197E1F7C7
:100C9E00FB01F0CF8BBFEFEFEDBFE0E1EEBFC0E0A9
:100CAE00D2E00C94FE141A930A9300E8D998EA81C4
:100CBE00E03011F0D89A01C0D89810E0183060F4E6
:100CCE00E02FAB81EA2311F0DB9A01C0DB98069589
:100CDE00DC9ADC981F5FF2CFD99A94C40E941B183D
:100CEE00083FE1E01E0754F40E942C18EC91EA93A1
:100CFE00E1E0EA93D8DF0F5F1F4FF2CF0EC00E94E4
:100D0E003118083FE1E01E073CF40E942C18E0E089
:100D1E00EC930F5F1F4FF5CFE1DF09911991089505
:100D2E00DA9AD49AD39AD19AD09AD29ADC98E1E0F0
:100D3E00F0E00E943618DA98E4E1F0E00E943618EE
:100D4E00DA9AD99AE1E20E943A18E52DEC5F0E94F8
:100D5E003A18E42DE05F0E943A18E72DE0580E9401
:100D6E003A18A0E020FCA1E0EA2FEE0FEE0FEE0FF6
:100D7E00E0620E2EA0E021FCA1E0EA2FEE0FEE0FB6
:100D8E00E0290E943A18E62DEE0FE629E570E8609C
:100D9E000E943A18B4DF08950E941B18083FE1E044
:100DAE001E0778F4F801E954FC4F0F01F801AA81EF
:100DBE00BB81EA0FFB1FE491D001EC930F5F1F4F35
:100DCE00EDCF20C40E942B1DAE81A535B8F5AD81A7
:100DDE00A133A0F5B0E0E8E0F0E00E94331CA4E5FA
:100DEE00B0E00E941B1CDF01EE810E943F188F01B4
:100DFE00ED81E695E695E695EE0FEE0FEE0FAD81E1
:100E0E00AE1B3A2F0E942C182C91EC81E03029F465
:100E1E000E944318E0952E230DC0AC81A13021F421
:100E2E000E9443182E2B06C0AC81A23019F40E94EA
:100E3E0043182E27F801E954FC4F20830E94321DDF
:100E4E00279608952497E0E0E883E983EA83EB830D
:100E5E000E94291D00E010E020E030E040E050E06C
:100E6E00A989BA89A535E0E0BE0774F4AD85BE85C3
:100E7E00A535E0E0BE0744F4AF85B889D19724F4D8
:100E8E00AB85BC85D1970CF072C0AF85B889EB8568
:100E9E00FC85EA1BFB0B8F01A989BA89ED85FE85BE
:100EAE00EA1BFB0B9F0111233AF4F8010E94CB1BA6
:100EBE008F01EFEFFFEF02C0E1E0F0E0E887F98786
:100ECE0033233AF4F9010E94CB1B9F014FEF5FEFE2
:100EDE0002C041E050E0000F111F220F331F0E948D
:100EEE0048180217130714F5F901F595E795DF0178
:100EFE00F801EA1BFB0BEE83FF83ED85FE85A989C6
:100F0E00BA89EA17FB0789F0AF81AA2342F00E9443
:100F1E005018EE81FF81E21BF30BEE83FF830E94DC
:100F2E005918F8010E946118E8CF21C0F801F59513
:100F3E00E795DF01F901EA1BFB0BEE83FF83EB85DF
:100F4E00FC85AF85B889EA17FB0789F0AF81AA2324
:100F5E0042F00E945918EE81FF81E01BF10BEE83E7
:100F6E00FF830E945018F9010E946118E8CF0E9479
:100F7E00301D63960895A981AF3018F4A881A7306B
:100F8E0008F012C0E881F0E03197A4E5B0E00E94CD
:100F9E001B1CBF01E981F0E03197A6E0B0E00E9492
:100FAE001B1CE60FF71F4F01229608951A9310E0AF
:100FBE001E3030F40E946818A0E0A0831F5FF8CFA7
:100FCE00199108951A9310E01530A0F40E946D182F
:100FDE00BF01E981FA81A5E0B0E00E941B1CDF0190
:100FEE00E12F0E943F18E457FF4FE491DB01EC9391
:100FFE001F5FEACF0E946D18A0E0A083188139C34D
:10100E001A93AA81AF3018F4A981A73010F0188175
:10101E0030C3EA81EA93EA81EA93ADDF10E0AA8158
:10102E00EFE0EA1B1E1768F40E946818E081E030BA
:10103E0031F00E946818E0810E947418C3DF1F5FB0
:10104E00EECFB4DF188115C3969A08951A930A93BA
:10105E00EFB7E093AF05F894AA81BB81E4E60E9456
:10106E00151CEA83FB83ED81E03049F50E94781868
:10107E00E0E0E093D10AE093D20AE093D30AE09342
:10108E00D40AE093D50AE093D60AEBB9EAB9E09315
:10109E009500EC81E03029F40E9482180E94871896
:1010AE0005C00E9482180E949918EBB91093900007
:1010BE0009B9E8E9EAB9E6E0E09395002DC00E948F
:1010CE00AC18E0E0E093D70BE093D80BE093D90B8C
:1010DE00E093DA0BE093DB0BE093DC0BE0939B00E9
:1010EE00E0939A00E0939D00EC81E03029F40E9499
:1010FE0082180E94871806C00E9482180E949918B2
:10110E00E0939B001093980000939900E8E9E09318
:10111E009A00E6E0E0939D000E94B61819810881BE
:10112E0072C0EFB7E093AF05F894E0E0E093B50539
:10113E00E093B605E093B705E093B805E881E0309B
:10114E0019F40E94781806C0E13019F40E94AC1808
:10115E0001C0F7CF0E94B6181CC20E942B1D009131
:10116E00CB071091CC072091CF093091D009ED819A
:10117E00E030F9F4A091C907B091CA07F801EA1B53
:10118E00FB0BE130A2E0FA0790F4F801F170E7539F
:10119E00FA4FAC81A0830F5F1F4FEFB7E093AF05FF
:1011AE00F8940093CB071093CC07559A01C04CDFEF
:1011BE0026C0E13019F5A091CD09B091CE09F90103
:1011CE00EA1BFB0BE130A2E0FA07B0F4F901F17073
:1011DE00E353F84FAC81A0832F5F3F4FEFB7E093FF
:1011EE00AF05F8942093CF093093D009E0919A007F
:1011FE00E062E0939A0001C027DF01C0BBCF0E94DE
:10120E00B6180E94321D26960895A881B981EC91D8
:10121E00E03051F0EA81EA93A981BA81ED91A98378
:10122E00BA83EA939ADFF1CF24C2E881F981E4917F
:10123E00E03061F0EA81EA93E981FA813196E9833F
:10124E00FA833197E491EA9388DFEFCF12C20E94BE
:10125E00BC180A930091C9071091CA07E091CB07F9
:10126E00F091CC07E017F10769F0F801F170E75340
:10127E00FA4FE081ECB90F5F1F4F0093C90710932F
:10128E00CA070AC0E0E0E093CB07E093CC07E093F7
:10129E00C907E093CA075598A5EBB5E00E94C6189A
:1012AE0009911991C1C0EA93FA93EFB7EA931A9391
:1012BE000A930091CD091091CE09F801F170E35314
:1012CE00F84FE081E0939C000F5F1F4F0093CD0914
:1012DE001093CE09E091CF09F091D009E017F107F4
:1012EE0071F4E0E0E093CF09E093D009E093CD09EB
:1012FE00E093CE09E0919A00EF7DE0939A00099178
:10130E001991E991EFBFF991E9911895E881E030D3
:10131E0019F0E091DB0B02C0E091D50A3AC11A93A5
:10132E000A93EA81E03051F5A091D50AB091D60A20
:10133E000E941B1DF8F4E091D30AF091D40AEF52EB
:10134E00F64F1081A3EDBAE00E94CF18A091D30AF8
:10135E00B091D40AA030E1E0BE0729F4E0E0E093BA
:10136E00D30AE093D40A0FB7F894A5EDBAE00E9421
:10137E00D5187FC1E0E0198108817BC1A091DB0BFC
:10138E00B091DC0B0E941B1DF8F4E091D90BF0918B
:10139E00DA0BE952F54F1081A9EDBBE00E94CF1890
:1013AE00A091D90BB091DA0BA030E1E0BE0729F481
:1013BE00E0E0E093D90BE093DA0B0FB7F894ABEDC6
:1013CE00BBE00E94D51855C1E0E01981088151C1DA
:1013DE000E94BC181CB1A091D50AB091D60AA030BB
:1013EE00E1E0BE07E0F4E091D10AF091D20AEF52AB
:1013FE00F64F1083A1EDBAE00E94CF18A5EDBAE02A
:10140E000E94CF18A091D10AB091D20AA030E1E08B
:10141E00BE0729F4E0E0E093D10AE093D20AA9EBEB
:10142E00B5E00E94C6181991E991EFBFF991E991C3
:10143E00B991A991799169911895AA93BA93EA9362
:10144E00FA93EFB7EA931A9310919C00A091DB0BDD
:10145E00B091DC0BA030E1E0BE07E0F4E091D70BD9
:10146E00F091D80BE952F54F1083A7EDBBE00E9427
:10147E00CF18ABEDBBE00E94CF18A091D70BB09167
:10148E00D80BA030E1E0BE0729F4E0E0E093D70BE3
:10149E00E093D80B1991E991EFBFF991E991B991C8
:1014AE00A9911895EFB7E093AF05F894A091DD0DD3
:1014BE00B091DE0DAF3FE3E0BE0728F40E94E118C5
:1014CE00A8810E94E8180E94B61863C0E881F981CD
:1014DE00E491E03051F0E881F9813196E883F983A7
:1014EE003197E491EA93DEDFF1CFDEC3A881B981B3
:1014FE00EC91E03031F0ED91A883B983EA93D2DF1D
:10150E00F5CFD2C3BB240E94EC18DD24AA24089583
:10151E00A881AD3071F1EFE7AE1630F5A032D9F0FB
:10152E00BB2019F40E94EC18B394DD2071F0EAE0B0
:10153E00BE1650F4EB2DAFE5BEE00E94F3180E94EC
:10154E00F918ED93FC93B394DD240E94F918A88149
:10155E00A083A39409C0DD2039F40E94F918A0E0FD
:10156E00A083A394E1E0DE2E0E94F918A0E0A083F0
:10157E0010C00E94F918A0E0A083BB2039F0BA92E7
:10158E00EFE5FEE0FA93EA930E942512BB24DD24D8
:10159E00AA24219608951A9310E0A981BA81EC919C
:1015AE00E03081F0E0531E0FE981FA813196E98334
:1015BE00FA83A981BA81EC91E03019F0AAE01A9F62
:1015CE00102DEBCFE12F188154C00E943118AA8143
:1015DE00BB81EC91E030A9F0E053F0E00E0F1F1F3D
:1015EE00EA81FB813196EA83FB83AA81BB81EC9170
:1015FE00E03031F0AAE0A09FF001A19FF00D8F0125
:10160E00E6CFF8011981088124960895E0E0EDB93E
:10161E00E7E0E7BBEFE0E8BBE1E567C0E0E0EDB98E
:10162E00E7E0E7BBBB98E8BBEA81EE0FEE0FAE2F0B
:10163E00E981EE0FEE0FEE0FEA2BEDB9E881E23005
:10164E0019F4E1E0EEB913C0E43011F4E0E00EC09D
:10165E00E83019F4709A689A0AC0E03131F0E0323D
:10166E0021F4E1E0EEB9E2E001C0E1E0EDB9E0E540
:10167E00EDB923960895EC81E03081F4E0E0EDB908
:10168E00EEB9AB81A13041F4EA81EA93EA81EA93A3
:10169E00EA81EA93C3DF01C023D001C0B7DF76C46D
:1016AE001A9310E0C098AB81BC81EC91E03089F0C8
:1016BE00ED91AB83BC83EFB9779BFECF103438F43A
:1016CE00A981BA81EE27A10FBE1FEFB1EC931F5F68
:1016DE00EACFC09AEFEBF0E10E94FE1818810AC320
:1016EE00E0E0EDB9E8E0E7BBE0E4EDB90895AA93D8
:1016FE00EA93EFB7EA931A930A930091B30EE0E1DF
:10170E00EDB9A0E09699A1E0E1E0EA2711F49698F0
:10171E0001C0969A1FB109911991E991EFBFE99114
:10172E00A99118950E940219E0ECE7B9ECE8E6B928
:10173E000895E7B1EE75E7B9E7B1EE64E7B9E6B142
:10174E00EC7DE6B9E6B1E46CE6B9E0E0E093FB0EC1
:10175E00E093FC0EE4E6F0E0E093050FF093060F45
:10176E00A091050FB091060F0E941B1DF8F4369A3A
:10177E003699FECFE4B10E9408190E943F18E093FB
:10178E00FB0EF093FC0EE5B1FE2FE0E00E9408196F
:10179E00EA0FFB1FE093FB0EF093FC0EA5E0BFE0FB
:1017AE00ED91FD913197FE93EE93DACFEEE8F2E1F3
:1017BE00E093030FF093040FA091030FB091040F69
:1017CE00A238E4E1BE0710F00C94380CE091030F40
:1017DE00F091040F0E9408190E94ED1B0E94E81B55
:1017EE00EF2FF0E0E093FF0EF093000FA091FF0EAD
:1017FE00B091000FA331E5E0BE0738F0E091FF0E87
:10180E00F091000FE251F54008C0A091FF0EB0918B
:10181E00000FE2E1F5E0EA1BFB0BE093FD0EF09307
:10182E00FE0EE091010FF091020FA091FD0EB0910E
:10183E00FE0EAE17BF0780F4E091FD0EF091FE0E86
:10184E00E093010FF093020FE091030FF091040F5C
:10185E00E093F90EF093FA0EA3E0BFE00E94CF18CA
:10186E00ABCF0895E7B7EC7FE7BFE0B7E860E0BF26
:10187E00E0E0E2BFE5E0E3BFE0B7E770E9F7E7B726
:10188E00E160E7BF789408950E940D19A7E0BFE0CC
:10189E0080E00E941B1911F00C94E90CE091070FE7
:1018AE00E078E093070FA7E0BFE087E00E941B19E6
:1018BE0011F00C94E90CE091070FF091080FEF77FF
:1018CE00F07CE093070FF093080FA7E0BFE08EE0E7
:1018DE000E942919E831A0E0FA07A0E06A07A0E00B
:1018EE007A0711F00C94E90CA7E0BFE00E94731C7C
:1018FE00EF7FFF73607F7F7F0E94781CA7E0BFE0C1
:10190E0084E10E942919E032A0E0FA07A0E06A07FC
:10191E00A0E07A0759F10E943019EF3171F4E0918D
:10192E000A0FEC73E03131F0E83121F0E43211F0BE
:10193E00EC3211F40E9438192DC00E943019EE318C
:10194E0041F4E0910A0FEC73E83011F40E9438195B
:10195E0021C00E943019ED31E9F4E0910A0FEC73C9
:10196E00E83019F430D0E03009F414C0A7E0BFE03D
:10197E008AE1EFE0F0E060E070E00E94D41CE091BC
:10198E00090FF0910A0FEF70FC7FE061E093090FF1
:10199E00F0930A0FE0910A0FEC73E43399F4E0919F
:1019AE00090FF0910A0FF37CF460E093090FF093A6
:1019BE000A0FA7E0BFE08EE1E3E0F0E060E070E048
:1019CE000E94D41C49C10E944D19E4E6F0E060E08B
:1019DE0070E00E945D1C0E94171D49F40E944D1973
:1019EE00E0E9F1E060E070E00E945D1C0895E09196
:1019FE000A0FE295EF70E695E695E370F070607071
:101A0E007070089508950E940D19E0917100E87F9D
:101A1E00E03031F4E091110FE1600E945A191CC1BF
:101A2E00E83081F4E091110FEC7021F4E0911A0F7F
:101A3E00E16003C0E0911A0FEE7FE0931A0F0E944F
:101A4E0065190AC1E03179F40E946D1921F4E09113
:101A5E001A0FE16003C0E0911A0FEE7FE0931A0FA8
:101A6E000E946519F9C0E83179F4E091110FEC701C
:101A7E00E43011F40E9472190E946D1921F40E9433
:101A8E008319E0937400E8C0E03231F4E091110F55
:101A9E00E0610E945A19E0C0E83201F5E091110FA1
:101AAE00EC70E43059F4E091190FA091180FEA1779
:101ABE0019F40E94921902C00E9472190E946D19A7
:101ACE0061F4E0911E0FA0911D0FEA1711F4E5EEDF
:101ADE0002C00E948319E0937400BEC0E03341F44B
:101AEE00E091110FE260E093110F0E949219B4C0C1
:101AFE00E83349F4E091110FE0620E949B19E5EE84
:101B0E00E0937400A9C0E03449F40E94A31911F4C3
:101B1E00E5E801C0E5ECE09374009EC0E83431F4D2
:101B2E00E091110FE0610E945A1996C0E03581F4E0
:101B3E000E94AA19E091180FEF5FE093180F0E9410
:101B4E00A31911F4E5E801C0E5ECE093740084C03C
:101B5E00E83529F40E94AA190E9492197DC0E83630
:101B6E0011F0E83731F4E091110FE06A0E949B19F1
:101B7E0002C0E03609F402C0E03749F40E94B319FE
:101B8E00E0E0E093140FE5E8E093740065C0E03800
:101B9E0011F0E03961F40E94B9190E94C219E030C7
:101BAE0011F4E5E801C0E5ECE093740055C0E838A7
:101BBE0011F0E83989F40E94B919E091110FE0781B
:101BCE0011F0E5EE01C0E5ECE0937400E0910D0F2D
:101BDE00F0910E0F099540C0E03A21F4E5ECE09348
:101BEE0074003AC0E03B31F4E091110FE06A0E94BC
:101BFE009B1902C0E83A49F4E0E0E093140F0E940A
:101C0E00C819E5E8E093740027C0E83B71F40E9420
:101C1E00C2190E94C819E091140FE03011F4E5E8E2
:101C2E0001C0E1ECE093740017C0E03C11F0E83C19
:101C3E0099F4E091110FE07839F0E091110FEF7700
:101C4E00E093110FE5EE01C0E5ECE0937400E09136
:101C5E000D0FF0910E0F0995E991EFBFF991E991F2
:101C6E00B991A9919991899179916991F990199068
:101C7E00099018950895E2B3E360E2BBE1B3EC7FFF
:101C8E00E1BBEFEFE0937000E3E0E09371000895A5
:101C9E00E2E3E0937200E881F981E0930D0FF09397
:101CAE000E0FE5E4E093740022960895E091110F73
:101CBE00E07411F0E0E01EC0E0E0E093180FE3E006
:101CCE00E093190FED81E0931A0FEC81E093150F5D
:101CDE00EB81E093160FEA81E093170FE4E0E093B7
:101CEE00110FE881F981E0930B0FF0930C0F0E9416
:101CFE00CF19E1E0269608950A921A926A937A9382
:101D0E009A93AA93BA93EA93FA93EFB7EA93E4B14C
:101D1E00F5B1A3E0B0E00E94ED1BBF01E4B1F5B157
:101D2E00DF01E7E0F0E00E94201CDB01AE1BBF0BE1
:101D3E00A093F70EB093F80EE0E0E6B9E991EFBF8D
:101D4E00F991E991B991A991999179916991199026
:101D5E00099018950E94F715E0E0EA93ECEEF7E093
:101D6E000E94D719E6E0F8E00E94D719E6E5F8E000
:101D7E000E94D719EEE7F8E00E94D719EEE8F8E0D6
:101D8E000E94D719ECECF8E00E94D719E2E0F9E0D6
:101D9E000E94D719E8E2F9E00E94D719E6E5F9E0CA
:101DAE000E94DE1908952A971A9310E0E0E0EA9354
:101DBE00E0E0F2E00E94E419E0E0EA93E7E0F2E00E
:101DCE000E94E41910E0123038F5E0E0EA93E7E102
:101DDE00F2E00E94E4190E94E819E0E0EA93EDE1D6
:101DEE00F2E00E94E419A1ECB5E00E94F919E0E0DE
:101DFE00EA93E5E2F2E00E94E419E12F0E940D1A47
:101E0E000E946F1C0E94101AE0E0EA93EEE2F2E0EC
:101E1E000E94E4191F5FD7CFE0E0EA93E9E3F2E016
:101E2E000E94E41910E0123020F5E0E0EA93E8E4B5
:101E3E00F2E00E94E4190E94E819E0E0EA93EDE472
:101E4E00F2E00E94E419A3ECB5E00E94F919E0E07B
:101E5E00EA93E5E5F2E00E94E419A7ECB5E00E94F2
:101E6E00F919E0E0EA93E3E6F2E00E94E4191F5F5D
:101E7E00DACF68C02A971A9310E0E0E0EA93EEE614
:101E8E00F2E00E94E419E0E0EA93E8E7F2E00E9453
:101E9E00E41910E0123048F5E0E0EA93E8E8F2E0E9
:101EAE000E94E4190E94E819E0E0EA93EEE8F2E0FD
:101EBE000E94E4190E941F1A0E94271AE0E0EA937A
:101ECE00E6E9F2E00E94E419E12FA0E0B0E00E9402
:101EDE00F3180E94EE1C0E94101AE0E0EA93EFE95C
:101EEE00F2E00E94E4191F5FD5CFE0E0EA93EAEA40
:101EFE00F2E00E94E41910E0123020F5E0E0EA93DF
:101F0E00E9EBF2E00E94E4190E94E819E0E0EA939E
:101F1E00EEEBF2E00E94E4190E94371A0E94271A93
:101F2E00E0E0EA93E6ECF2E00E94E4190E943F1A28
:101F3E000E94271AE0E0EA93E4EDF2E00E94E41931
:101F4E001F5FDACF18812B9608952597E0E0EA936C
:101F5E00EFEDF2E00E94E419E091B905F091BA05B7
:101F6E006091BB057091BC050E94471AE0E0EA93B0
:101F7E00EAEEF2E00E94E419E091B505F091B605A3
:101F8E006091B7057091B8050E94471A259608957D
:101F9E000E94F7150E94E118AFEF0E94E818E0E0EA
:101FAE00EA93EDEDFBE00E94E4190E94ED15E4EAE0
:101FBE00F0E1FA93EA93EAE0F0E00E94541AE0E0CE
:101FCE00E093DD0DE093DE0D0895969A0E94581A67
:101FDE00A5C0EAEFFFE0FA93EA93E4EFF1E00E9486
:101FEE00541A969808950E94581A0E94541A969A56
:101FFE0008950E945F1A92C0E6E8F6E00E94FE186D
:10200E00ECE8F5E0FA93EA930E94D306E5E7F6E0F2
:10201E000E94FE180E94661A0E94541AECE1F0E12A
:10202E00FA93EA93E8EBFBE079C0AA24E4E5AE1656
:10203E0028F50E946D1AEFE2F0E0FA93EA93EA2D8A
:10204E000E9474180E946D1AE1E0EA930E9429071B
:10205E00E4E5F0E0FA93EA93EFE2F0E0FA93EA9324
:10206E00E4E5EA190E9474180E946D1AE1E0EA9301
:10207E000E9429070E947506A394D8CF0E94661A63
:10208E004DC00E94721AE5E4FAE0FA93EA93E091E9
:10209E00F90EF091FA0E0E94771AE1E00E94821A70
:1020AE00EEE4FAE0FA93EA93E091010FF091020F59
:1020BE000E94771AE2E00E94821AE4E5FAE0FA93AF
:1020CE00EA93E091FD0EF091FE0E0E94771AE3E086
:1020DE000E94821AEEE5FAE0FA93EA93E091FB0E83
:1020EE00F091FC0E0E94771AE4E0EA930E94070832
:1020FE000E9475060895E0E0EA930E948D09E13092
:10210E0058F0E0E0EA930E949609E093B005E09162
:10211E00B005EA930E948F0A0E94861AFA93EA93F8
:10212E000E945C1508950E948D1AE091DD0DF091CC
:10213E00DE0D309709F02CDF08950E943118003023
:10214E00E2E01E0748F4ADEDBBE0A00FB11FE0E0EA
:10215E00EC930F5F1F4FF3CFA0E09799A1E0E1E062
:10216E00EA2711F4979801C0979A09911991089549
:10217E001A9310E0103468F4E12FF0E0E954F14FB7
:10218E00A0E0A083E12FF0E0ED58F14FA0831F5F98
:10219E00F1CF19910895E0EAEA93EFEFF0E0FA93A8
:1021AE00EA93E9E0EA93EAEEF0E1FA93EA937EDD50
:1021BE00E03041F4E2EDF0E1FA93EA93E2E3F0E08D
:1021CE000E94541A08950E94941A29F0E2EDF0E14B
:1021DE000E949B1A04C0E7EFF0E10E94FE180895DA
:1021EE00E091110FE07441F0E7EFF0E1FA93EA931A
:1021FE00E4E6F0E00E94541AE0E0E093180FE2E00B
:10220E00E093190FE0EBE0931A0FE0E0E093150F67
:10221E00EFEFE093160FE4E0E093110FE0E2F1E14F
:10222E00E0930B0FF0930C0FE0E2F1E10E94CF1957
:10223E0008950E94941A21F0E7EFF0E10E949B1A94
:10224E000895E091110FEF7BE093110FE091120FC3
:10225E00ECB90895E0E0EBBBEABBE8BBE7E0E7BB17
:10226E00E0E0E5BBE4BBE2BBE1BBE3B9E2B90E944F
:10227E000219E0E0E0936500E09364000895E0E069
:10228E00E0BFE3BFE2BFE1BF0895E0E0EFBDEEBD0A
:10229E00EDBDECBDE7BDE6BDEBBDEABDE9BDE8BDFC
:1022AE00E0937900E09378000895E0E0E5BDE4BDA9
:1022BE00E3BD0895E0E0E0938B00E0938A00E093A5
:1022CE008900E0938800E0938100E0938000E09322
:1022DE008700E0938600E0938500E0938400E0930E
:1022EE008300E09382000895E0E0E0936A00EABF85
:1022FE00E9BFE7BFE0937D000895E0E0EBB9E8EDBC
:10230E00EAB9E6E0E0939500E0E0E0939000E3E3C5
:10231E00E9B90895E2E0E0939B00E8EDE0939A00BE
:10232E00E6E0E0939D00E0E0E0939800E8E0E093C3
:10233E00990008951A9310E010E01230D0F4A1EC39
:10234E00B5E0E12F0E943F180F010E941F1AD00125
:10235E00EC93E12F0E94A01A0F01E12FA0E0B0E054
:10236E000E94F3180E94EE1CD001ED93FC931F5FA8
:10237E00E4CF10E01230B0F4A3ECB5E0E12F0E94F0
:10238E003F180F010E94371AD001EC93A7ECB5E06D
:10239E00E12F0E943F180F010E943F1AD001EC93CB
:1023AE001F5FE8CF0C94EB1555DF0E94990BC1D936
:1023BE0066DF6BDF7ADF7EDF97DF9FDFABDF0E94AA
:1023CE000D0B50DA0895B6DFE0E0EA93E091C10517
:1023DE00EA93E091BD05F091BE050E94A81AE1E0D6
:1023EE00EA93E091C205EA93E091BF05F091C00532
:1023FE000E94A81AE0E0EA93E1E0EA93EA93E0E0B3
:10240E00EA93E0E1EA930E94420B0E9497060E9433
:10241E00890A0E943D152FDCE8E2F1E1FA93EA9376
:10242E0037DCEEB1EFB1E0E0E093DD0DE093DE0DD1
:10243E000E94E118A1E00E94E81808952A97E0E0B2
:10244E00EE83EF83E887E9870E94291D02EC17E0EF
:10245E0030E020E050E040E00E94AC1AEAE8F7E0FD
:10246E000E94B31A11F00C94F713E5EFF2E00E94FC
:10247E00B91AA23010F40C94F7130E94BF1AEEE8AA
:10248E00F7E00E94B31A11F00C94F512EBEFF2E0A4
:10249E000E94B91AA33010F40C94F1120E94C61ABD
:1024AE000E94CD1A0E94DA1A48F42C85E6ECF7E069
:1024BE008F01E2E0F3E00E94E21A03C0ECECF7E0D9
:1024CE008BC2AA89A43010F40C94F1120E94E61A61
:1024DE0001F50E94EF1A29F00E940A1B0E94231D8B
:1024EE0081F4A1ECB5E0E22F0E943F18AC85A083E9
:1024FE00E6ECF7E08F01E8E0F3E00E94E21A32E04A
:10250E0008C0ECECF7E08F01EFE0F3E00E94E21A76
:10251E0064C20E940F1B0E94141BEAE9F7E00E949E
:10252E00B31A61F50E94191B0E94141B0E94CD1A4A
:10253E00A138E4E0BE07E0E08E07E0E09E07B0F4CD
:10254E00E22F0E94A01AAC85BD85A083B183E6EC74
:10255E00F7E08F0130E0E7E1F3E00E94E21AEAE9EA
:10256E00F7E0FA93EA930E946D0A08C0ECECF7E0EC
:10257E008F01EAE1F3E00E94E21A2FC22A930E9431
:10258E001E1BEA93E22F0E940D1A0E946F1C0E94DE
:10259E00A81A20E0A4E0B0E0E22F0E943F180F013D
:1025AE000E941E1BD0010E94061DE22FA0E0B0E08B
:1025BE00F0E0EE0FFF1FEA0FFB1F0F01E22F0E944C
:1025CE000D1A0E946F1CD0010E94FE1CE2E2F3E085
:1025DE000E94E21AE0E0EA930E9498080E94BF1A55
:1025EE00E0EAF7E00E94B31A11F00C94F713EFE251
:1025FE00F3E00E94B91AA33010F40C94F713E5E33C
:10260E00F3E00E94E21A0E94C61A0E94251B0E9445
:10261E00DA1A28F42C85E6ECF7E08F0103C0ECEC17
:10262E00F7E0DAC1AA89A43010F40C94F7130E94D3
:10263E00E61AD9F40E94EF1A29F00E940A1B0E9492
:10264E00231D81F4A3ECB5E0E22F0E943F18AC8568
:10265E00A08332E0E6ECF7E08F01ECE3F3E00E94BA
:10266E00E21A03C0ECECF7E0B7C10E940F1B0E9408
:10267E00141BE4EAF7E00E94B31A09F50E94191B35
:10268E000E94141B0E94251BA138E0E0BE07E0E06B
:10269E008E07E0E09E0780F4A7ECB5E0E22F0E94E3
:1026AE003F18AC85A0833E5FE6ECF7E08F01E5E4D2
:1026BE00F3E00E94E21A03C0ECECF7E08DC10E9439
:1026CE000F1B0E94141BEAEAF7E00E94B31A11F0E6
:1026DE000C94C0130E94191B0E94141B0E94251BF0
:1026EE000E941F1D50F00E940A1BA430E0E0BE079E
:1026FE00E0E08E07E0E09E0708F038C0EC85FD852F
:10270E006E857F850E94171D01F1E130A0E0FA076A
:10271E00A0E06A07A0E07A0719F450E041E017C084
:10272E00E230A0E0FA07A0E06A07A0E07A0711F411
:10273E0051E00CC0E330A0E0FA07A0E06A07A0E089
:10274E007A0719F451E041E002C050E040E0E6ECB7
:10275E00F7E08F01EFE4F3E00E94E21AA5ECB5E09A
:10276E00E22F0E943F18AC85A08303C0EAEDF7E08C
:10277E0033C12A930E942F1BEA934A935A930E94C5
:10278E00361BEA930E94420B30E050E040E0A6E098
:10279E00B0E0E22F0E943F180F010E942F1BD001C4
:1027AE000E94061DA8E0B0E0E22F0E943F180F0124
:1027BE00A5ECB5E0EE27A20FBE1FEC91D0010E9452
:1027CE00061DAAE0B0E0E22F0E943F180F010E9402
:1027DE00361BD0010E94061DEAE5F3E00E94E21AC4
:1027EE000E94AC1AE2EBF7E00E94B31A11F00C94BF
:1027FE00A614E5E6F3E00E94B91AA23010F40C9488
:10280E00A6140E94BF1AEEE8F7E00E94B31A19F55B
:10281E00AA89A33000F10E94C61A0E94251B0E94AD
:10282E00DA1A20F42C85E6ECF7E002C0ECECF7E0C7
:10283E008F01AA89A43078F0E7EFF5E12A930E9480
:10284E003D1B0E940C09EDEEF5E1E9E6F3E00E9476
:10285E00E21A0E94441B0E94BF1AE0EAF7E00E94AF
:10286E00B31A61F5AA89A33048F10E94C61A0E94D4
:10287E00251B0E94DA1A20F42C85E6ECF7E002C044
:10288E00ECECF7E08F01AA89A430C0F0E3E7F3E0A7
:10289E000E94E21A0E94441BEAE0EA930E943D1B4A
:1028AE00E7EBFEE0FA93EA930E94570BEDE7F3E0B5
:1028BE000E94E21AE7EBFEE00E94E21A0E94BF1AA3
:1028CE00EEEAF7E00E94B31AD1F5AA89A330B8F167
:1028DE000E94C61A0E94251B0E94DA1A20F42C852B
:1028EE00E6ECF7E002C0ECECF7E08F01AA89A43029
:1028FE0030F1E7E8F3E00E94E21AE889F989A6814F
:10290E00B781BA93AA930E94EC0A662777270E9492
:10291E00811CFE013A96FA93EA930E94C217E0E0F8
:10292E00EA93FE0137960E94E419E3E9F3E00E9470
:10293E00E21AE0E0EA93E7EBFEE00E94E4190E945F
:10294E00AC1AE4E8F7E00E94B31A21F403DAE6ECDD
:10295E00F7E08F010E94AC1AE8EBF7E00E94B31A81
:10296E0029F40E94001EE6ECF7E08F010E94AC1ADB
:10297E00E4EBF7E00E94B31A29F40C940000E6ECA5
:10298E00F7E08F010E94AC1AEEEBF7E00E94B31A4B
:10299E0059F40E94F7156EDA0E94DA0ED6DAE6ECDA
:1029AE00F7E08F010E94ED150E94AC1AE9E0FBE002
:1029BE000E94B31A21F4C9DAE6ECF7E08F010E9407
:1029CE00AC1AEBE0FBE00E94B31A39F4E2EDF0E151
:1029DE000E94FE18E6ECF7E08F01E0E0EA931A930E
:1029EE000A930E941C090E94301D63960895279732
:1029FE00DBDCE9DCE1E0EA93E8EEF7E00E94D719D0
:102A0E00E8EEF7E00E94DE19ECEEFFE00E94FE1801
:102A1E000E94861A0E94541A0E948D1A0E945F1AF2
:102A2E000E94541AE3E0F0E10E94FE18E8E4F0E19F
:102A3E000E94FE18E8EEF3E00E94361874D0FECF26
:102A4E00FFCF0E940D199DD0A1EBB5E00E94C618D4
:102A5E00E991EFBFF991E991B991A9919991899174
:102A6E0079916991F9901990099018951A9310E03F
:102A7E00103179F00E94591B0E94601B0E94591B55
:102A8E00AE0FBF1F1296E0E0F0E0ED93FC931F5FD8
:102A9E00EFCF9AC00895E881F981FA93EA93E0E0C6
:102AAE00F0E00E94541A229608951A930A9310E0A9
:102ABE0000E0EFB7E7FF02C0F89401E010E010313C
:102ACE0099F00E94591B0E94671BDF01EC81FD816A
:102ADE00EA17FB0739F40E94591B0E946C1B09F080
:102AEE0078941DC01F5FEBCF10E01031C1F00E9433
:102AFE00591B0E94671B0E94751B79F40E94591B7B
:102B0E00EA0FFB1FAC81BD81A083B1830E94591BCC
:102B1E000E946C1B09F0789402C01F5FE6CF1981EA
:102B2E000881269608950E942B1D10E0F89410E05F
:102B3E00103109F10E94591B0E94671B0E94751BE0
:102B4E0049F00E94591BAE0FBF1F12960E946F1CB8
:102B5E00309709F00EC00E94591BAE0FBF1F2D916A
:102B6E003C910E94591B0E94601B7894F9010995B3
:102B7E0004C01F5FDDCF78948DDF0E94321D249636
:102B8E0008951A9310E01031F9F00E94591B0E941B
:102B9E00671B0E94751B59F00E94591BAE0FBF1F79
:102BAE0012960E946F1CDF010E941B1D08F00AC0C6
:102BBE000E94591BAE0FBF1F1296ED91FD913197DA
:102BCE00FE93EE931F5FDFCF19910895ECE0E5BD04
:102BDE00E0E0E4BDEEE3E3BDE0E8E7BF78940895FE
:102BEE00E5E0E5BD08951A930A93AA81BB8112967A
:102BFE000E946F1C309729F1AA81BB8114960E9406
:102C0E006F1C8F01309761F00230E0E01E07C0F0BC
:102C1E00F80131978F01AA81BB811496ED93FC9335
:102C2E00AA81BB8112960E94CF183197AC81A083E6
:102C3E00AA81BB810E946F1CFF2312F00E94CF1845
:102C4E0006C0AA81BB81EFEFFFEFED93FC931981D4
:102C5E0008812596089526970E94291D10E0AC85BF
:102C6E00BD85E0E0F0E0ED93FC93EA89FB893196B7
:102C7E00EA8BFB8B3197E4912E2FE03011F40C94FC
:102C8E005F17E12FE03039F4253211F411E002C064
:102C9E000E947B1B0CC1E130A9F4253219F40E946D
:102CAE007B1B04C112E040E000E02D3211F401E084
:102CBE00FEC02B3211F44BE2FAC0203211F440E286
:102CCE00F6C002C0E23039F450E013E0203311F4C4
:102CDE000068EDC004C0E33011F00C945E17203391
:102CEE0010F02A3308F007C0AAE05A9F502DE22FA9
:102CFE00E0535E0FDCC0E22FE33649F40E94841BE2
:102D0E00E889F989A481AA930E948A1BCFC0E33770
:102D1E0041F40E94841B0E94921B0E94AD171E2F2D
:102D2E000AC0E03761F40E94841B0E94921B0E942D
:102D3E00B7171E2F086002600F7730E035C0E436FB
:102D4E0011F0E93611F4046002C0E53731F4EEE714
:102D5E00F9E0EE83FF8315E00DC0E83511F408604D
:102D6E0004C0E83711F00C945D17E8E8F9E0EE8343
:102D7E00FF8314E002FF14C00E94841B0E949C1B60
:102D8E00AB85AA233AF4EA85FB850E94CB1BEA8722
:102D9E00FB874DE2403011F01F5F01C00B7F04C076
:102DAE000E94841B0E949C1B00FD11C0151778F415
:102DBE0007FF08C002FF04C00B7F242F115001C073
:102DCE0020E301C020E20E947B1B5150EFCF312F38
:102DDE0001FF17C03030A1F003FF06C0EE81FF8166
:102DEE002591EE83FF8305C0AE81BF812D91AE8309
:102DFE00BF830E947B1B503009F051503150EACFF7
:102E0E004BC020E3EE81FF810E947D1CE887F9878D
:102E1E00EE81FF813296EE83FF83E885F985AA85E0
:102E2E00BB85AE17BF0750F02F5FA885B985EA8521
:102E3E00FB85EA1BFB0BEA87FB87EFCF2A3328F0D3
:102E4E0003FF02C0295F01C0295D04FD1AC02133B2
:102E5E0020F4A885B985119709F409C0531710F00D
:102E6E0000FF01C013C020E207FF0BC020E300618A
:102E7E0002FF07C00B7F4A930E948A1B503009F055
:102E8E0051500E947B1B503009F051503150A88593
:102E9E00B985129708F0B5CF00FF08C0503031F059
:102EAE005150E0E2EA930E948A1BF8CF10E0DDCE8B
:102EBE00AC85BD850E946F1C0E94301D64960895DE
:102ECE00FF92F82E26970E942B1D0E94A41B30976E
:102EDE0019F4EFEFFFEF23C0DE0116960E94C71B19
:102EEE008D010E94A41BEE83FF83E0E0E887E98753
:102EFE00DE011A960E94C71B0E94141B1A930A9396
:102F0E00EAEFF5E1FA93EA93FE013A96FA93EA9321
:102F1E00A2DE9F01AE81BF81E0E0EC93F9010E9439
:102F2E00321D2A96FF900895E991F991A991B991D0
:102F3E001D900590011421F40020D1F7EE2708957D
:102F4E001018E1F3E1E008F4E2500895A991B99167
:102F5E00EE27FF276D91662311F03196FBCF089572
:102F6E00AA27BB27E991F9910590002011F011963F
:102F7E00FBCFFD01089524971A930A93E0E0FAEC33
:102F8E006AE97BE3EA83FB836C837D8300E0AB8598
:102F9E00AA2372F4E885F9856A857B850E94CF1B8A
:102FAE00E887F9876A877B870E94AB1BEDE2EC937B
:102FBE000E94B21B0E94381C1E2F103071F400307C
:102FCE0061F4AA81BB818C819D81A130E0E0BE07B6
:102FDE00E0E08E07E0E09E0731F40E94AB1BE12F8C
:102FEE00E05DEC9301E00E94B21B0E945D1CE8873D
:102FFE00F9876A877B87AA81BB818C819D81EAE0F4
:10300E00F0E060E070E00E94381CEA83FB836C8382
:10301E007D830E94171D61F6AE81BF81E0E0EC93C7
:10302E00198108812C9608951A930A93E0E8EA9381
:10303E00E0E0EA930E945A06E0E4EA93E0E0EA93C5
:10304E000E945A0600E010E00895A7EBB3E0A00F2F
:10305E00B11F08951A930A9300E010E00895FA93B1
:10306E00EA930C94BB1BEA93E0E0EA930C945A06A5
:10307E00F0E0EA0FFB1F0895E32FA1E00E94D71B9B
:10308E000895E989EA93E889EA93EC85EA930C942A
:10309E00E906E885F985AF85B889EA0FFB1FEF874A
:1030AE00F88B0895FA01A989BA89EA0FFB1FE98BFB
:1030BE00FA8B0895AE81BF81EA0FFB1FEE83FF836B
:1030CE00E0CFE12FF0E0E855FC4F0895F401319682
:1030DE004F013197E954FC4F0895F0E0FA93EA93CB
:1030EE000895E0E0E093C907E093CA07E093CB07A9
:1030FE00E093CC070895EA81FB8166277727089530
:10310E00A0E1B0E080E090E00E94F51BA0E0B4E208
:10311E0084EF90E00E94381CE150F0406040704017
:10312E008F010895A8E0B0E080E090E00E94F51BCA
:10313E00A0E0B4E284EF90E00E94381CE150F04031
:10314E00604070408F01E2E00895E0E0E093CD0929
:10315E00E093CE09E093CF09E093D0090895EFB73D
:10316E00A091AF05EA2BEFBF08956A937A93AA93C5
:10317E00BA93EA93FA93EFB7EA931A9308950E94DB
:10318E00731CEF5FFF4F6F4F7F4F0E94781C0895A7
:10319E00ED91FD913196FE93EE930895ED91FD9193
:1031AE003197FE93EE93EFB7E02BEFBFE12F19812E
:1031BE0008810895E091DD0DF091DE0DE352F44F9C
:1031CE000895A083ADEDBDE0E3CFEFEDFDE0E0931C
:1031DE005F0EF093600E0895F0E0EE0FFF1FAE0F3E
:1031EE00BF1F0895EA2DF0E0E152F24F0895FA93D1
:1031FE00EA930C945215E0E0E0936200E0936100D4
:10320E000895A091FB0EB091FC0E08950A921A92A9
:10321E00FA926A937A938A939A93AA93BA93EA93B9
:10322E00FA93EFB7EA930895EFE7F0E060E070E00D
:10323E000E94C21CEC33A0E0FA07A0E06A07A0E0EF
:10324E007A070895EFE3F0E060E070E00E94C21CA0
:10325E000895E091090FF0910A0F0E94E41BEF739D
:10326E000895A7E0BFE08AE1EFE0F0E060E070E0F3
:10327E000E94D41CE091090FF0910A0FEF70FC7FB1
:10328E00E061E093090FF0930A0F0895E0910A0FA1
:10329E00E295EF70E695E695E370F07060707070F1
:1032AE00DF01CB010895E093110FE5EDE09374007B
:1032BE00E0910F0FF091100F09950895E0911A0FFC
:1032CE00E0937300E5ECE09374000895E091110F24
:1032DE00EC70E8300895E091180FF0E0EB5EF04FDF
:1032EE00E081E0937300E091180FEF5FE093180F09
:1032FE00E5ECE09374000895E0911D0FF0E0E55EBB
:10330E00F04FE081E0937300E0911D0FEF5FE093CB
:10331E001D0FE5EC0895E5EDE0937400E0910B0FC1
:10332E00F0910C0F09950895E093110FE0E0E093F2
:10333E00180FE0931D0F0895A091180FAF5FE09145
:10334E00190FEA170895A091180FB0E0AB5EB04FB9
:10335E00E0917300EC930895E091110FE064E09317
:10336E00110F0895A091140FB0E0AE5EB04FE09132
:10337E007300EC930895E091140FEF5FE093140F38
:10338E000895F0E0ED5EF04FE081E0937300089554
:10339E00E0930F0FF093100FE5EAE0937400DCCF8B
:1033AE00FA93EA930E941C09E0E0EA930895FA93D7
:1033BE00EA930E941C090C94ED15FA93EA930C946F
:1033CE000C09E12FFF27662777270E94811CFE013B
:1033DE003596FA93EA930E94C217E0E0EA93FE0153
:1033EE003296EBCFEE27A10FBE1FEC91FF2766277B
:1033FE0077270E94811CFE013596FA93EA930E946C
:10340E00C217E0E0EA93FE013296D7CFADEBB5E0FE
:10341E00E3CE662777270E94811CFE013596FA932C
:10342E00EA930E94C217E0E0EA93FE013296C5CFFE
:10343E00A4E0B0E0EE27A10FBE1F0E94F21C08957B
:10344E00FF27662777270E94811CFE013596FA9387
:10345E00EA930E94C217E0E0EA93FE013296ADCFE6
:10346E00A6E0B0E0EE27A10FBE1F0E94F21C089549
:10347E00AAE0B0E0EE27A10FBE1F0E94F21C089535
:10348E000E94811CFE013496FA93EA930E94C217A1
:10349E00E0E0EA93FE01319690CFFA93EA930C9412
:1034AE005C15E0EFFFE0FA93EA93E2E3F0E00895B3
:1034BE00E0E0F0E1FA93EA93E8E8F3E10895E6E854
:1034CE00F6E0FA93EA93E0EDF7E00895E0E0F0E03D
:1034DE00FA93EA930895E8EAF3E0FA93EA930895EB
:1034EE00662777270E94811C84E00E946717289622
:1034FE00E1E0EA930895EA930E940708ECCFE2E830
:10350E00F0E1FA93EA93E9E1F0E00895EAE9F0E1F7
:10351E00FA93EA93E2E3F0E0C0CFE091110FEF7B74
:10352E00E093110FE1710895FA93EA93E4E1F0E06C
:10353E00B4CFADEBB5E0F0E0EE0FFF1FEA0FFB1FCF
:10354E000895FA93EA930C942D08A889B9890E94DC
:10355E006F1CFA93EA930895FA93EA930E949B17CD
:10356E00E0300895FA93EA930E947D0AAA8908959D
:10357E00E889F989A281B381BA93AA930895E8895B
:10358E00F989A481B581BA93AA9308950E94EC0A91
:10359E0066277727EC87FD876E877F87AC85BD858D
:1035AE008E859F850895A330E0E0BE07E0E08E078C
:1035BE00E0E09E070895FA93EA930C947D0AE88959
:1035CE00F989A681B781BA93AA93E4E9F7E0C4CF4B
:1035DE00E889F989A085B185BA93AA930E94D20A87
:1035EE00FF2766277727EC87FD876E877F87AC8559
:1035FE00BD858E859F85A130E0E0BE07E0E08E0799
:10360E00E0E09E070895AC85BD858E859F85089563
:10361E00E32FED5FA889B989DFCD0E946F1CFA9365
:10362E00EA930895E32FEC5FA889B989D5CDA1EC73
:10363E00B5E0EE27A20FBE1FEC9108950E94D20AAC
:10364E00FF2766277727EC87FD876E877F87DBCF7F
:10365E00A3ECB5E0EE27A20FBE1FEC910895A7ECE8
:10366E00B5E0EE27A20FBE1FEC910895E989FA8905
:10367E00A681B781BA93AA930895E889F989A6819C
:10368E00B781BA93AA930E94EC0A662777270E9405
:10369E00811CFE013A96FA93EA930E94C217FE012C
:1036AE00369689CFE12FAFE1BFE0F0E00E94DF1B3D
:1036BE000895AE0FBF1FE1E5F5E1ED93FC9308957C
:1036CE00AE0FBF1F0E946F1C0895EA0FFB1F3296AC
:1036DE00AA81BB81A083B18300300895DF01E1E5AB
:1036EE00F5E1EA17FB0708952A93ED85FE85FA9317
:1036FE00EA93E989FA8909950895E889F989349751
:10370E00E88BF98B0895ED85FE85FA93EA93E989A6
:10371E00FA8909950895A889B98914960E946F1C93
:10372E00EE83FF83FA93EA930895A889B9891496D4
:10373E000E946F1CEA87FB870895DE011C960E948B
:10374E00C71B0E946F1C0895AE81BF811196AE8378
:10375E00BF8311970895EA81FB816C817D81A885D5
:10376E00B9858A859B850895E991F991309639F04E
:10377E0080EA9FE00197F1F7A8953197C9F7089570
:10378E000024AF0DB01D0895F195E195F040089518
:10379E00F09560957095E195FF4F6F4F7F4F0895AF
:1037AE00EE230E2EEA2F19F0EE0F0A94E9F7089584
:1037BE00EE0FFF1FEE0FFF1F0895F695E795F69596
:1037CE00E795F695E795F695E7950895FA9FF02D0E
:1037DE00EB9FF00DEA9FE02DF10D08957A9F702D6D
:1037EE006B9F700DF89F700DE99F700D6A9F602D95
:1037FE00710DFB9F600D711DE89F600D711D882777
:10380E00FA9FF02D610D781FEB9FF00D611D781F53
:10381E00EA9FE02DF10D681F781F08956E2F6A9FA5
:10382E00F0016B9FF00D089545D0D0DF0EF4ACDFA4
:10383E0008950024112490E1AA0FBB1F001C111C37
:10384E000E1A1F0A18F40E0E1F1E01C0A1609A95C3
:10385E0099F7FD01D00108952DD0EBDF0EF494DF22
:10386E0008953F934F935F930024112444275527C7
:10387E0030E2AA0FBB1F881F991F001C111C441F8A
:10388E00551F0E1A1F0A460B570B28F40E0E1F1E3D
:10389E00461F571F01C0A1603A9559F7FD01BC01A3
:1038AE00D001CA015F914F913F910895DADFFD017A
:1038BE00BC010895E894F7FF02C066DF6894B7FF75
:1038CE0006C0A095B095119600F8039400FA0895DD
:1038DE00ED91FC9111970895ED91FD916D917D9172
:1038EE0008957E936E93FE93EE9308950590F49152
:1038FE00E02D08957A936A93FA93EA930895082E29
:10390E008F019B01ED91FD916D917C91102C1120F9
:10391E0031F076956795F795E7951A94D1F7E023F0
:10392E00F123622373230895E023F123622373238B
:10393E00AF01CB01002051F0000F111F221F331FCA
:10394E00440F551F881F991F0A94B1F700951095C3
:10395E00209530951C900E90022213223E912E91AE
:10396E0020233123242B352B082A192A2D933D93FE
:10397E000D921C9208950F931F932F933F934F9385
:10398E005F93BDDF3196611D711DCEDF5F914F914B
:10399E003F912F911F910F9108950F931F932F9386
:1039AE003F934F935F93ABDFEF93FF936F937F93B1
:1039BE003196611D711DB8DF7F916F91FF91EF916F
:1039CE005F914F913F912F911F910F9108951196F5
:1039DE0002D0FE2F1197E199FECFFF93FFB7F89417
:1039EE00AEBBBFBBE09AEDB3FFBFFF91089507D00A
:1039FE001196EF93EF2F03D0EF9111970895E19B5E
:103A0E0002C0A895FCCF9FB7F894AEBBBFBBE09A9F
:103A1E008DB3E81719F0EDBBE29AE19A9FBF0895B6
:103A2E00309760407040089500240A160B060895E2
:103A3E00109780409040089500240A160B06080641
:103A4E00090608955A934A933A932A931A930A931E
:103A5E0008955D814C813B812A81198108810895E9
:00000001FF
