:060000000C9414070C949F
:1000060000000C9400000C9400000C9400000C946A
:1000160000000C9400000C9400000C9400000C945A
:100026007A100C9400000C9400000C9400000C94C0
:1000360000000C94A3100C9491100C94C40B0C9417
:10004600D00A0C94F5090C949E090C9400000C94AB
:10005600EB0A0C9400000C9400000C9400000C9425
:1000660000000C9400000C9400000C9400000C940A
:1000760000000C942A0A0C94C7090C9400000C94F6
:10008600790C0C94000048656C7000005365740090
:100096005561727400004D6F6465000053706565AC
:1000A60064005370690050726573630070700000DD
:1000B60049326300570072737400626F6F740000F8
:1000C6006462670020450D00206F6B0D0000204C18
:1000D600617267655F76616C75650D002057726F9A
:1000E6006E675F76616C75650D00205300000D3EEE
:1000F6003E3E2048454C50203C3C3C0D20436F6D15
:100106006D616E64733A0D000D20536574202D49A0
:100116006E746572666163655F6E616D652D202D17
:100126006E756D6265722D204D6F6465202D76614A
:100136006C7565286F7074696F6E616C292D20531C
:1001460070656564202D76616C7565286F707469BD
:100156006F6E616C292D00000D20572020202D493F
:100166006E746572666163655F6E616D652D202DC7
:100176006E756D6265722D202D646174612D0000AF
:100186000D20476574202D656E746974792D000005
:100196000D2020496E746572666163657320617611
:1001A60061696C61626C653A0D202020556172743C
:1001B60028302C31290D20202053706928302D48F5
:1001C6006172642C20312D536F6674290D000D3E2B
:1001D6003E3E20554152545F48454C50203C3C3CE5
:1001E6000D204D6F64653A20302D204E4F524D4103
:1001F6004C3B20312D20444F55424C4544207370D2
:10020600656564000D2053706565643A206261750A
:10021600642F313030202845783A2035373620692A
:1002260073203537363030290D000D3E3E3E2053C3
:1002360050495F48454C50203C3C3C0D204D6F6476
:10024600653A20302D20534C4156453B20312D2018
:100256004D41535445520A000D2050726573636137
:100266006C6C65723A20706F77206F66203220289A
:1002760045783A205072657363203136290D0000A7
:10028600000000000000005F0000000700070014E7
:100296007F147F14242A7F2A1223130864623649A6
:1002A6005522500005030000001C22410000412297
:1002B6001C0014083E081408083E080800503000C8
:1002C6000008080808080060600000201008040202
:1002D600000000000000005F000000070007001497
:1002E6007F147F14242A7F2A122313086462364956
:1002F6005522500005030000001C22410000412247
:100306001C0014083E081408083E08080050300077
:1003160000080808080800606000002010080402B1
:10032600000000000000005F000000070007001446
:100336007F147F14242A7F2A122313086462364905
:100346005522500005030000001C224100004122F6
:100356001C0014083E081408083E08080050300027
:100366000008080808080060600000201008040261
:100376003E5149453E00427F400042615149462177
:1003860041454B311814127F1027454545393C4AE3
:100396004949300171090503364949493606494933
:1003A600291E003636000000563600000814224189
:1003B60000141414141400412214080201510906F1
:1003C600324979413E7E1111117E7F494949363EB7
:1003D600414141227F4141221C7F494949417F09D0
:1003E6000909013E4149497A7F0808087F00417F93
:1003F60041002040413F017F081422417F40404098
:10040600407F020C027F7F0408107F3E4141413E3F
:100416007F090909063E4151215E7F091929464691
:100426004949493101017F01013F4040403F1F20BA
:1004360040201F3F4038403F63140814630708708C
:1004460008076151494543007F41410002040810F5
:10045600200041417F000402010204404040404028
:10046600000102040020545454787F48444438382C
:1004760044444420384444487F3854545418087E31
:100486000901020C5252523E7F0804047800447D52
:1004960040002040443D007F1028440000417F403A
:1004A600007C041804787C080404783844444438F2
:1004B6007C14141408081414187C7C0804040848D6
:1004C60054545420043F4440203C4040207C1C208F
:1004D60040201C3C4030403C44281028440C5050DE
:1004E600503C4464544C44000836410000007F00F0
:1004F6000000413608001008081008784641467882
:10050600000000000000005F000000070007001464
:100516007F147F14242A7F2A122313086462364923
:100526005522500005030000001C22410000412214
:100536001C0014083E081408083E08080050300045
:10054600000808080808006060000020100804027F
:10055600000000000000005F000000070007001414
:100566007F147F14242A7F2A1223130864623649D3
:100576005522500005030000001C224100004122C4
:100586001C0014083E081408083E080800503000F5
:10059600000808080808006060000020100804022F
:1005A600000000000000005F0000000700070014C4
:1005B6007F147F14242A7F2A122313086462364983
:1005C6005522500005030000001C22410000412274
:1005D6001C0014083E081408083E080800503000A5
:1005E60000080808080800606000002010080402DF
:1005F6003E5149453E00427F4000426151494621F5
:1006060041454B311814127F1027454545393C4A60
:1006160049493001710905033649494936064949B0
:10062600291E003636000000563600000814224106
:10063600001414141414004122140802015109066E
:100646007E1111117E7F494949317F494949367FDB
:1006560001010103702927217F7F49494941770814
:100666007F087741414149767F1008047F7F100952
:10067600047F7F0814224120413F017F7F020C0244
:100686007F7F0808087F3E4141413E7F0101017F8F
:100696007F090909063E4141412201017F010147C7
:1006A600281008071E217F211E63140814633F20AB
:1006B60020205F070808087F7F407F407F3F203F5C
:1006C600205F017F4848307F4830007F007F4848E0
:1006D60030414141493E7F083E413E462919097F46
:1006E60020545454783C4A4A49317C545428007C5E
:1006F6000404040C722A26227E38545454186C10B2
:100706007C106C44445454387C2010087C7C2112A4
:10071600097C7C1028440020443C047C7C0810089A
:100726007C7C1010107C38444444387C0404047CDF
:100736007C14141408384444442004047C040444FF
:100746002810080408147E140844281028443C4045
:10075600407C400C1010107C7C407C407C3C203C53
:10076600207C047C5050207C5020007C007C505023
:100776002028444454387C10384438485434147C77
:1007860000000000000000000000000080C0E0F053
:10079600F8F8FCFCFEFEFFFFFEFCF8F0E0C080006F
:1007A6000000000000000000000000000000000043
:1007B600000000000080C0E0F0F8FCFEFFFFFEFE37
:1007C600FCFCF8F8F0E0C08000000000000000002B
:1007D600000000000000000000000000E0F8FEFF3E
:1007E600FFFFFFFFFFFFFFFFFFFFFFFFFFFFFFFF13
:1007F600FFFFFFFFFEFCF8F0E040000000000000F5
:10080600000040E0F0F8FCFEFFFFFFFFFFFFFFFFE8
:10081600FFFFFFFFFFFFFFFFFFFFFFFFFFFEF8E009
:100826000000000000000000000000000000787FCB
:100836007F7F7F7F7F7F7F7F7F7F7F7F7F7F7F7FC2
:100846007F7F7F7F7F7F7F7F0F0301F0F8FCFCFEB9
:10085600FEFEFEFEFEFCFCF8F001030F7F7F7F7FAD
:100866007F7F7F7F7F7F7F7F7F7F7F7F7F7F7F7F92
:100876007F7F7F7F7F78000000000000000000007F
:100886000000000000000000000000000000000062
:100896000000000000000000000000000080C0E131
:1008A600E3E7C7CF8F8F8F8FCFC7E7E3E1C0800025
:1008B6000000000000000000000000000000000032
:1008C6000000000000000000000000000000000022
:1008D6000000000000000000000000000000000012
:1008E60000000000000000000080C0E0F0F8FCFE00
:1008F600FFFFFFFFFFFFFFFFFFFFFFFFFFFFFFFF02
:10090600FFFFFFFFFEFCF8F0E0C0800000000000E3
:1009160000000000000000000000000000000000D1
:100926000000000070887050887000C8A8900070A1
:1009360088700010F800708870000C0E1F1F1F3F93
:100946003F3F3F7F7F7FFFFFFFFFFFFFFFFFFFFF71
:10095600FFFFFFFFFFFF7F7F7F3F3F3F3F1F1F1FC1
:100966000E0C000000F028F000F820F800F8A88827
:100976000088F88800F848B01027E80364000A00E9
:100986000100001000011000010001000300030037
:10099600460002000C00018001C001E001F002F8EF
:1009A60002FC02FE02FF01FE01FC01F801F001E07B
:1009B60001C001801600018001C001E001F001F8CC
:1009C60001FC01FE02FF03FE01FC02F801F001E05A
:1009D60001C00180140001E001F801FE15FF01FECF
:1009E60001FC01F801F001E001400800014001E0CE
:1009F60001F001F801FC01FE15FF01FE01F801E01E
:100A06000E000178197F010F0103010101F001F8C1
:100A160002FC06FE02FC01F801F001010103010FD0
:100A2600197F01782700018001C001E101E301E798
:100A360001C701CF048F01CF01C701E701E301E13F
:100A460001C001803A00018001C001E001F001F817
:100A560001FC01FE14FF01FE01FC01F801F001E0BA
:100A660001C001802F00010C010E031F043F037F0C
:100A760010FF037F043F031F010E010C1600C80080
:100A8600CC0DCC0DCC0D706F7266006578747266F5
:100A960000626F72660077647266004A54524600BE
:100AA6000D3C52414D3E000D554152545F53455445
:100AB60054494E47530D005541525420000D204DC8
:100AC6006F646520000D20537065656420000D2D50
:100AD6002D2D2D2D2D2D2D0D000D5350495F5345D8
:100AE6005454494E47530D0053504920000D205091
:100AF60072657363616C6C657220000D3C454550F0
:100B0600524F4D3E000D42757465735F525820007A
:100B16000D42757465735F545820005469636B3DCC
:100B260025690A004F6C6F6C6F3D290020455252B3
:100B36005F554E4445465F464C41470D000D2053D8
:100B46006574000D2055617274000D204E756D00A0
:100B56000D204D6F6465000D4D2045584954000D1C
:100B660020000D20556172745F696E6974000D2056
:100B7600537069000D53204E756D000D53204D6F57
:100B860064652D000D532050726573632D000D535F
:100B960020506861506F6C2D000D532053706949C9
:100BA6006E6974000D20493263000D204932635F7F
:100BB600696E6974000D2057000D205520443E547F
:100BC6005820000D205320443E545820000D205339
:100BD60020443C525820000D2049324320443E54C4
:100BE6005820000D2049324320443C5258200079B9
:100BF600006E00610073004500000A000100250D2B
:100C0600000D0A3C002C003E000D0A003E0D0A00B5
:100C160001002D4E414E00494E46000001000200E3
:100C2600900901006706920901006806940901000F
:100C36006906960901006A06980901009E0D840A54
:100C46000200A80D860A0200AA0D880A0200AC0D51
:100C56008A0A050000028C0A06000502910A0500B0
:100C66000B02970A050010029C0A05001502A10A4C
:100C760007001A02A60A10002102AD0A0600310278
:100C8600BD0A08003702C30A09003F02CB0A0B005F
:100C96004802D40A0F005302DF0A05006202EE0A78
:100CA60008006702C30A0E006F02F30A0B007D02FA
:100CB600D40A0A008802010B10009202AD0A06004F
:100CC600A202BD0A0800A802C30A0900B002CB0AA4
:100CD6000B00B902D40A0F00C402DF0A0500D302D2
:100CE600EE0A0800D802C30A0E00E002F30A0B005F
:100CF600EE02D40A0B00F9020B0B0B000403160BD1
:100D060008000F032A0B11001703320B06002803F5
:100D1600430B07002E03490B06003503500B070053
:100D26003B03560B080042035D0B03004A03650BA9
:100D360008004D035D0B0C005503680B06006103AC
:100D4600740B070067037A0B09006E03810B0A0018
:100D560077038A0B0B008103940B0B008C039F0B0C
:100D660006009703AA0B06009D03500B0700A3037A
:100D7600560B0800AA035D0B0300B203650B0800BF
:100D8600B5035D0B0B00BD03B00B0400C803BB0B22
:100D96000A00CC03BF0B0A00D603C90B0A00E00306
:100DA600D30B0C00EA03DD0B0C00F603E90B010084
:100DB6005304000C01005504020C03000204040C49
:100DC60004000504070C020009040B0C02000B04C6
:100DD6000B0C02000D040B0C02000F040B0C02009E
:100DE60011040B0C020013040D0C030015040F0C68
:100DF60004001804070C02001C040B0C02001E045D
:100E06000B0C020020040B0C020022040B0C020047
:100E160024040B0C04002604120C0100BF0E160C51
:100E26000000F894EE27ECBBF1E0F5BFE5BFE093D8
:100E36006C00F8E1F1BDE1BD8DE0A2E0BB27ED93CA
:100E46008A95E9F780E090E1A0E0B1E0ED930197A3
:100E5600E9F7E2E2FCE085919591009761F0A591B2
:100E6600B59105901590BF01F00105900D9201977F
:100E7600E1F7FB01F0CF8BBFEFEFEDBFE0E1EEBF97
:100E8600C0E0D2E00C945A10EFB7E0933304F89424
:100E96000E94591528F40E946115A8810E946815C0
:100EA6000E94711521960895A881B981EC91E030D0
:100EB60031F0ED91A883B983EA93E6DFF5CFCFC091
:100EC6000E946115ABE20E946815E0E0EA93E6E550
:100ED600F4E0FA93EA930DD20E947715E4600E943B
:100EE6007C15E0E0E0935606E093570608951A93C2
:100EF6000A9300E8D998EA81E03011F0D89A01C047
:100F0600D89810E0183060F4E02FAB81EA2311F096
:100F1600DB9A01C0DB980695DC9ADC981F5FF2CF5E
:100F2600D99A7DC00E948115083FE1E01E0764F44E
:100F3600ABE6B6E0A00FB11FEC91EA93E1E0EA93CD
:100F4600D6DF0F5F1F4FF0CF10C00E949215083FEB
:100F5600E1E01E074CF4ABE6B6E0A00FB11FE0E0FF
:100F6600EC930F5F1F4FF3CFDDDF099119910895C1
:100F7600DA9AD49AD39AD19AD09AD29ADC98E1E0A6
:100F8600F0E00E949715DA98E4E1F0E00E949715E8
:100F9600DA9AD99AE1E20E949B15E0916706EC5F26
:100FA6000E949B15E0916806E05F0E949B15E09108
:100FB6006906E0580E949B15A0E021FCA1E0EA2FFB
:100FC600EE0FEE0FEE0FE0620E2EA0E022FCA1E087
:100FD600EA2FEE0FEE0FE0290E949B15E0916A06BC
:100FE600EE0FA0916A06EA2BE570E8600E949B1559
:100FF600ACDF08950E948115083FE1E01E0778F4F2
:10100600F801E559F94F0F01F801AA81BB81EA0FF2
:10101600FB1FE491D001EC930F5F1F4FEDCF1981B9
:10102600088124960895A981AF3018F4A881A730C5
:1010360008F015C0E881F0E03197A4E5B0E00E9421
:101046004A18BF01E981F0E03197A6E0B0E00E94BE
:101056004A18E60FF71FE0936308F0936408229698
:1010660008951A9310E01E3040F40E94A015E85A25
:10107600F94FA0E0A0831F5FF6CF199108951A9348
:1010860010E01530A8F40E94A315BF01E981FA818A
:10109600A5E0B0E00E944A18DF010E94A015EA0F01
:1010A600FB1FEA57FD4FE491DB01EC931F5FE9CF8D
:1010B6000E94A315A0E0A083188150C21A93AA81AA
:1010C600AF3018F4A981A73010F0188147C2EA8121
:1010D600EA93EA81EA93A7DF10E0AA81EFE0EA1B30
:1010E6001E1780F40E94A015E85AF94FE081E030FF
:1010F60039F00E94A015E85AF94F0E94AE15BFDFDD
:101106001F5FEBCFAEDF188129C2979A08951A9315
:101116000A93EFB7E0933304F894AA81BB81E4E61F
:101126000E944418EA83FB83EC81E030C9F40E94F4
:10113600B3150E94B815E050FC4D6B407F4F7F936E
:101146006F93FF93EF930E94B315A0E1B0E080E0A8
:1011560090E00E942418AF91BF918F919F9118C083
:101166000E94B3150F01CB010E9412180E9412189B
:10117600E050FC4D6B407F4F7F936F93FF93EF934F
:10118600F001BC010E94B815AF91BF918F919F915C
:101196000E946218E150F040604070408F01ED817E
:1011A600E03031F5E0E0E0936509E09366090E94DE
:1011B600BF15E0936D0BE0936E0BE0E0E0936F0BD1
:1011C600E093700BE093710BE093720BEBB9EAB905
:1011D600E0939500EC81E03011F0E2E0EBB910937A
:1011E600900009B9E8E9EAB9E6E0E09395002AC07B
:1011F600E0E0E093690AE0936A0A0E94C515E0936D
:10120600730CE093740CE0E0E093750CE093760CBD
:10121600E093770CE093780CE0939B00E0939A00C0
:10122600E0939D00EC81E03019F0E2E0E0939B0052
:101236001093980000939900E8E9E0939A00E6E09D
:10124600E0939D000E9471151981088150C00E948B
:101256005F19009167091091680920916B0A309116
:101266006C0AED81E030E1F4A0916509B091660960
:10127600F8010E94CB1590F4F801F070EB59F74F86
:10128600AC81A0830F5F1F4FEFB7E0933304F89450
:101296000093670910936809559A01C036DF23C089
:1012A600E13001F5A091690AB0916A0AF9010E943C
:1012B600CB15B0F4F901F070E759F64FAC81A08375
:1012C6002F5F3F4FEFB7E0933304F89420936B0AF8
:1012D60030936C0AE0919A00E062E0939A0001C0B4
:1012E60014DF01C0C1CF0E9471150E9466192696AF
:1012F6000895A881B981EC91E03051F0EA81EA9332
:10130600A981BA81ED91A983BA83EA93A0DFF1CFCF
:1013160025C1E881F981E491E03061F0EA81EA9340
:10132600E981FA813196E983FA833197E491EA9368
:101336008EDFEFCF13C10E94D1150A930091650984
:1013460010916609E0916709F0916809E017F107C5
:1013560069F0F801F070EB59F74FE081ECB90F5FD7
:101366001F4F009365091093660907C00E94BF15B9
:10137600E0936509E09366095598ADE3B4E00E94F1
:10138600DB15099119915AC0EA93FA93EFB7EA93DC
:101396001A930A930091690A10916A0AF801F0708B
:1013A600E759F64FE081E0939C000F5F1F4F0093D3
:1013B600690A10936A0A0E94E415E017F10759F4C6
:1013C6000E94C515E093690AE0936A0AE0919A00C3
:1013D600EF7DE0939A0009911991E991EFBFF99198
:1013E600E99118950E94D1151CB1A091710BB0918D
:1013F600720BA030E1E0BE07E0F4E0916D0BF091D6
:101406006E0BE359F54F1083ADE6BBE00E94E9157C
:10141600A1E7BBE00E94E915A0916D0BB0916E0BA0
:10142600A030E1E0BE0729F4E0E0E0936D0BE09325
:101436006E0BA1E4B4E00E94DB151991E991EFBFB0
:10144600F991E991B991A9917991699118950E94BB
:10145600EF151A9310919C00E0913604E03029F5BF
:10146600A091770CB091780CA030E1E0BE07E0F4D3
:10147600E091730CF091740CED58F44F1083A3E7D0
:10148600BCE00E94E915A7E7BCE00E94E915A0911F
:10149600730CB091740CA030E1E0BE0729F4E0E0D3
:1014A600E093730CE093740C13C0A091690AB09199
:1014B6006A0A0E94E4150E94CB1550F40E94E415B6
:1014C600F070EB59F74F1083A7E6B9E00E94E915D3
:1014D60019910E94F6151895E0E0E0930D0DE9E7E5
:1014E600FCE0E093F90CF093FA0CE0E0E0930F0DCA
:1014F600E0930E0D0895E0E0EDB9E7E0E7BBEFE01D
:10150600E8BBE1E548C0E0E0EDB9E7E0E7BBBB9842
:10151600E8BBEA81EE0FEE0FAE2FE981EE0FEE0F7C
:10152600EE0FEA2BEDB9E881E23019F4E1E0EEB90D
:1015360013C0E43011F4E0E00EC0E83019F4709AFC
:10154600689A0AC0E03131F0E03221F4E1E0EEB908
:10155600E2E001C0E1E0EDB9E0E5EDB923960895DA
:10156600EC81E03081F4E0E0EDB9EEB9AB81A13079
:1015760041F4EA81EA93EA81EA93EA81EA93C3DFD6
:1015860001C004D001C0B7DF25960895E0E0EDB9AB
:10159600E8E0E7BBE0E4EDB90895AA93EA93EFB774
:1015A600EA931A930A930091500DE0E1EDB9A0E099
:1015B6009799A1E0E1E0EA2711F4979801C0979A7C
:1015C6001FB109911991E991EFBFE991A991189578
:1015D6000A921A926A937A939A93AA93BA93EA937F
:1015E600FA93EFB7EA93E4B1F5B1A3E0B0E00E9455
:1015F6001C18BF01E4B1F5B1DF01E7E0F0E00E949D
:101606004F18DB01AE1BBF0BA093940DB093950D45
:10161600E0E0E6B9E991EFBFF991E991B991A991B5
:101626009991799169911990099018950E94FD15E3
:10163600E0ECE7B9ECE8E6B90895E7B1EE75E7B98D
:10164600E7B1EE64E7B9E6B1EC7DE6B9E6B1E46C84
:10165600E6B9E0E0E093980DE093990DE4E6F0E05A
:10166600E093A20DF093A30DA091A20DB091A30D4E
:101676000E945419C0F4369A3699FECFE4B10E94FE
:101686000316F0E00E940816E5B1FE2FE0E00E9486
:1016960003160E940816A2EABDE0ED91FD9131976E
:1016A600FE93EE93E1CFEEE8F2E1E093A00DF09326
:1016B600A10DA091A00DB091A10DA238E4E1BE0745
:1016C60010F00C94B10BE091A00DF091A10D0E94C9
:1016D60003160E941C180E940D18EF2FF0E0E093ED
:1016E6009C0DF0939D0DA0919C0DB0919D0DA33185
:1016F600E5E0BE0738F0E0919C0DF0919D0DE251BA
:10170600F54008C0A0919C0DB0919D0DE2E1F5E079
:10171600EA1BFB0BE0939A0DF0939B0DE0919E0D57
:10172600F0919F0DA0919A0DB0919B0DAE17BF073A
:1017360080F4E0919A0DF0919B0DE0939E0DF0934D
:101746009F0DE091A00DF091A10DE093960DF09301
:10175600970DA0EABDE00E94E915ABCF0895E7B763
:10176600EC7FE7BFE0B7E860E0BFE0E0E2BFE5E0BE
:10177600E3BFE0B7E770E9F7E7B7E160E7BF789462
:1017860008950E940F16A4EABDE080E00E941D168F
:1017960011F00C94600CE091A40DE07CE093A40D94
:1017A600A4EABDE086E00E941D1611F00C94600CC0
:1017B600E091A40DF091A50DEF73F07FE093A40DD9
:1017C600F093A50DA4EABDE08CE00E942B16E8314B
:1017D600A0E0FA07A0E06A07A0E07A0711F00C94EF
:1017E600600CA4EABDE00E949D18EF7FFF706E7F3B
:1017F6007F7F0E94A218A4EABDE081E10E942B1619
:10180600E032A0E0FA07A0E06A07A0E07A0771F1EB
:101816000E943216EF3199F40E943A16E43061F0D4
:101826000E943A16E63041F00E943A16E93021F05D
:101836000E943A16EB3011F40E94431626C00E940D
:101846003216EE3139F40E943A16E23011F40E9453
:1018560043161BC00E943216ED31B9F40E943A16A7
:10186600E23019F42BD0E03009F40FC0A4EABDE051
:1018760086E1EFE0F0E060E070E00E940319E0919D
:10188600A60DE17CE260E093A60D0E943A16ED30CB
:10189600A1F4E091A60DF091A70DEF73FC7FE06433
:1018A600E093A60DF093A70DA4EABDE08AE1EFE36D
:1018B600F0E060E070E00E9403195DC10E945316DB
:1018C6000E945E1649F40E945316E0E9F1E060E0DA
:1018D60070E00E9487180895E091A70DE695E695B9
:1018E600E370F07060707070089508950E940F168E
:1018F6000E945915B0F4E0917100E03051F0A091CA
:101906005606B0915706AA5ABB4FE0917100EC9368
:1019160004C00E946115AFEFA083A6E5B6E00E9461
:10192600E915E0917100E87FE03031F4E091AE0D09
:10193600E1600E9467161FC1E83081F4E091AE0DA8
:10194600EC7021F4E091B70DE16003C0E091B70DB2
:10195600EE7FE093B70D0E9472160DC1E03179F467
:101966000E947A1621F4E091B70DE16003C0E09180
:10197600B70DEE7FE093B70D0E947216FCC0E831FA
:1019860079F4E091AE0DEC70E43011F40E947F160C
:101996000E947A1621F40E949016E0937400EBC020
:1019A600E03231F4E091AE0DE0610E946716E3C0CB
:1019B600E83201F5E091AE0DEC70E43059F4E091B7
:1019C600B60DA091B50DEA1719F40E949F1602C034
:1019D6000E947F160E947A1661F4E091BB0DA091D9
:1019E600BA0DEA1711F4E5EE02C00E949016E093D4
:1019F6007400C1C0E03341F4E091AE0DE260E093C3
:101A0600AE0D0E949F16B7C0E83349F4E091AE0DC3
:101A1600E0620E94A816E5EEE0937400ACC0E034E4
:101A260049F40E94B01611F4E5E801C0E5ECE09334
:101A36007400A1C0E83431F4E091AE0DE0610E947B
:101A4600671699C0E03581F40E94B716E091B50D8E
:101A5600EF5FE093B50D0E94B01611F4E5E801C002
:101A6600E5ECE093740087C0E83529F40E94B716C8
:101A76000E949F1680C0E83611F0E83731F4E091F5
:101A8600AE0DE06A0E94A81602C0E03609F402C054
:101A9600E03761F4E091AE0DE064E093AE0DE0E076
:101AA600E093B10DE5E8E093740065C0E03811F00D
:101AB600E03961F40E94C0160E94C916E03011F4A4
:101AC600E5E801C0E5ECE093740055C0E83811F094
:101AD600E83989F40E94C016E091AE0DE07811F065
:101AE600E5EE01C0E5ECE0937400E091AA0DF091FB
:101AF600AB0D099540C0E03A21F4E5ECE0937400A3
:101B06003AC0E03B31F4E091AE0DE06A0E94A816BF
:101B160002C0E83A49F4E0E0E093B10D0E94CF1626
:101B2600E5E8E093740027C0E83B71F40E94C9160B
:101B36000E94CF16E091B10DE03011F4E5E801C046
:101B4600E1ECE093740017C0E03C11F0E83C99F436
:101B5600E091AE0DE07839F0E091AE0DEF77E093CD
:101B6600AE0DE5EE01C0E5ECE0937400E091AA0D40
:101B7600F091AB0D0995E991EFBFF991E991B99112
:101B8600A9919991899179916991F9901990099002
:101B960018950895E2B3E360E2BBE1B3EC7FE1BBE5
:101BA600EFEFE0937000E3E0E09371000895E2E365
:101BB600E0937200E881F981E093AA0DF093AB0DF2
:101BC600E5E4E09374000C94CD10559A0895E5E78A
:101BD600FEE0FA93EA93ECEBF2E00E94D616E3E419
:101BE600FEE0FA93EA93E4E8F3E0FA93EA93E4EF8B
:101BF600F1E00E94DE16ECEDFEE0FA93EA93E2E3F2
:101C0600F0E0FA93EA930E94DE16E7E8FEE00E940F
:101C1600E216EDE3FEE0FA93EA93E7E3F0E00E94D2
:101C2600D616E2E4FEE0FA93EA93EAEFF0E0FA93DE
:101C3600EA930E94DE16EFE7FEE0FA93EA93E8ECF9
:101C4600F0E0FA93EA93E8EBF1E00E94DE16EBE0AF
:101C5600FFE0FA93EA93E4EBF0E0FA93EA93EDE41B
:101C6600F1E00E94DE16EAEEF2E10E94E616EAE2F2
:101C7600F0E062C0E4E1F0E00E949715089508954F
:101C86000E9492150091380410913904E8E5F6E0B7
:101C9600FA93EA93E1E2FBE0FA93EA93F8010E94F1
:101CA60017180E94B01884E00E94CE142896E1E02E
:101CB600EA93E2E0EA930E946108E8E5F6E0FA9327
:101CC600EA93EFE0F3E0FA93EA93EFE0EA930E94F7
:101CD6001915E1E0EA93E4E0EA930E9461080E94A4
:101CE60095077FC0A0E09799A1E0E1E0EA2711F40B
:101CF600979801C0979A0895E1E0EA93EA930E94C3
:101D060061080E9495070895E6E8F7E0FA93EA93DA
:101D16000E94FD07E8EAF7E00E94E616E0E0F0E040
:101D26000E94DE160E949507E8EAF7E0FA93EA9326
:101D3600E0EDF7E00E94ED16FA93EA930E94CF10C9
:101D4600089525970E947715309789F4E7E1F3E027
:101D56000E94F216FA93EA93FE0132960E94F71653
:101D6600FE010E94F216EE7F0E947C1504C0E1304F
:101D7600A0E0FA0751F4E7EFFEE00E94E2160E94A7
:101D86007715ED7F0E947C1504C0E230A0E0FA07CB
:101D960049F4E5EEFEE00E94E2160E947715EB7F1D
:101DA6000E947C150E947715E1600E947C150C94B8
:101DB6009713E0915606F0915706309711F00E945E
:101DC600630708950E9492150030E2E01E0748F46A
:101DD600A6E5B4E0A00FB11FE0E0EC930F5F1F4F44
:101DE600F3CF0991199108951A9310E0103470F405
:101DF6000E94A015EC5AF24FA0E0A0830E94A01505
:101E0600E05FF24FA0E0A0831F5FF0CF0C94561165
:101E1600DCDE0895E091AE0DEF7BE093AE0DE09130
:101E2600AF0DECB90895E0E0EBBBEABBE8BBE7E039
:101E3600E7BBE0E0E5BBE4BBE2BBE1BBE3B9E2B98B
:101E46000E94FD15E0E0E0936500E09364000895CC
:101E5600E0E0E0BFE3BFE2BFE1BF0895E0E0EFBD31
:101E6600EEBDEDBDECBDE7BDE6BDEBBDEABDE9BD32
:101E7600E8BDE0937900E09378000895E0E0E5BDE1
:101E8600E4BDE3BD0895E0E0E0938B00E0938A00B3
:101E9600E0938900E0938800E0938100E09380005E
:101EA600E0938700E0938600E0938500E09384004A
:101EB600E0938300E09382000895E0E0E0936A00F7
:101EC600EABFE9BFE7BFE0937D000895E0E0EBB924
:101ED600E8EDEAB9E6E0E0939500E0E0E0939000F3
:101EE600E3E3E9B90895E2E0E0939B00E8EDE093CF
:101EF6009A00E6E0E0939D00E0E0E0939800E8E0D9
:101F0600E093990008951A9310E010E0123018F546
:101F1600ABE4B4E00E94A015EA0FFB1F0F010E947C
:101F2600FB160E940017E12FA7E4B4E0F0E0EE0FE5
:101F3600FF1FEA0FFB1F0F01A3E0B0E00E94A015F0
:101F4600EE0FFF1FAE0FBF1F0E941D19D001ED93AC
:101F5600FC931F5FDBCF10E01230F0F4ADE4B4E089
:101F66000E94A015EA0FFB1F0F01A7E0B0E0EE27C5
:101F7600A10FBE1F0E940017A1E5B4E00E94A015A4
:101F8600EA0FFB1F0F01ABE0B0E0EE27A10FBE1F6B
:101F96000E9400171F5FE0CF0C9456111A9310E0B1
:101FA60010E0123038F40E94FB16E0E00E9435196A
:101FB6001F5FF7CFA3E0B0E0E0E4F2E00E942D1946
:101FC600A5E0B0E0E0E2F1E00E942D1910E0123049
:101FD60088F4A7E0B0E0EE27A10FBE1F0E943519D6
:101FE600ABE0B0E0EE27A10FBE1FE0E10E9435197D
:101FF6001F5FEDCF0C94561116DF18DB1EDB28DFB2
:102006002DDF3CDF40DF59DF61DF6DDF0E947E0A96
:10201600A6DB0895A0E0B0E00E942119E23431F079
:10202600BDDFA0E0B0E0E2E40E9435196CDFE0E03D
:10203600EA93E0914B04EA93E0914704F091480457
:102046000E940517E1E0EA93E0914C04EA93E091DF
:102056004904F0914A040E940517E0E0EA93E1E0A2
:10206600EA93E0E4F2E00E940517E0E0EA93E1E09B
:10207600EA93EA93E0E0EA93E0E1EA930E94B30A86
:102086000E94BB0787DDEDE0FFE0FA93EA938FDD60
:10209600EEB1EFB10E946F0AE0E0E0935606E093DE
:1020A60057060E946115A1E00E94681508958F9A4F
:1020B600979AEFE0F0E00E9497158F9897989CDF2B
:1020C600A9DF4FD08F9A8E9A8D9AE1E00E94091768
:1020D600E0E00E940917EAEEFDE00E94E2160E9487
:1020E6005613E3D002D0FDCFFFCF2BDE08950E941A
:1020F6000F16A8E3B4E00E94DB15B0D00E947C1254
:10210600E991EFBFF991E991B991A99199918991D5
:1021160079916991F990199009901895AA93EA9383
:10212600EFB7EA93A0E09599A1E0E1E0EA2711F480
:10213600959801C0959AE991EFBFE991A9911895F3
:102146000E94EF15A5E4B4E00E94E9150E94F61579
:10215600189596980E9410170E945E1609F486D16B
:1021660008951A930E944F1310E0153151F00E9402
:1021760019170E941F170E9425170E942B171F5F11
:10218600F4CF91C0E881F9810E94ED160E94ED1608
:102196000E94DE1622960895FF921A930A93FF2450
:1021A60010E000E0EFB7E7FF03C0F8946894F0F89A
:1021B60010E0E0915504E11731F10E941917DF0193
:1021C6000E949918DF01EE81FF81EA17FB07C9F427
:1021D6000E943017A081A43091F00E942517AC818F
:1021E600BD81A083B1830E943617AA81BB81A083DB
:1021F600B1830E943017A0E0A08301E026C003E06F
:1022060024C01F5FD6CFA0915504A431F0F40E94DC
:102216003C17E454F24FAE81BF810E944217E2544C
:10222600F24FAC81BD810E944217E054F24FAA8161
:10223600BB810E944217EE53F24FA0E0A083E091CB
:102246005504EF5FE093550402E0F0FE01C0789478
:10225600E02F198108812896FF9008951A9310E0BF
:10226600E0915504E117F9F00E943017A081A030E3
:1022760011F0A330B1F40E942517DF010E949918CE
:10228600DF010E94541948F40E942517DF01ED91E1
:10229600FD913197FE93EE9304C00E943017A1E0A2
:1022A600A0831F5FDDCF19910895FF922A970E94A0
:1022B6005F19E1E0FE2E10E010E0E0915504E11711
:1022C60011F40C94D5110E943017A081A13011F0A1
:1022D6000C94D311969A0E941917208131810E947D
:1022E6003617DF010E949918309731F43A932A93F2
:1022F60060D0E894F0F81BC0ACE01A9FF001DF0153
:10230600E254F24FBF01A054B24F0E949918DB016C
:10231600ED93FC930E943017A2E0A083ACE01A9FD5
:10232600F001ED53F24F0E9410170E94AB18E09196
:102336003804E0933C047894F9010995E89420F870
:10234600F0FE2DC00E943017A081A43021F00E941B
:102356003017A3E0A083A0913C04E0913804EA1B67
:10236600E0933C04ACE01A9FF001E953F24FA091D0
:102376003C04A083E0913C04E03089F0E0913C0409
:10238600F0E0FA93EA93FE0136960E94F716FE01F4
:1023960034960E944517E2E0F4E00E94451704C017
:1023A6001F5F8BCF7894D5DE0E9466192E96FF901C
:1023B6000895FF921A93FF2410E0EFB7E7FF03C0DA
:1023C600F8946894F0F810E0E09155041E1710F0A8
:1023D6000C9435120E941917DF010E949918DF012B
:1023E600E981FA81EA17FB07D9F5E0915504E15036
:1023F600E117D1F00E941917BF010E9449170E94E8
:1024060052170E9449170E941F170E945717E2543D
:10241600F24F0E942B170E945717E054F24F0E946A
:102426002B170E9457170FC00E9419170E941F17DB
:102436000E9425170E942B170E9436170E942B1701
:10244600ACE01A9FF001EE53F24FA3E0A083E091B7
:102456005504E150E0935504F0FE01C0789402C0A3
:102466001F5FB2CF18812396FF900895FF922C9795
:102476000E945F19FF24EFB7E7FF03C0F894689442
:10248600F0F8E0E01E2F3E2FE0915504E2500E2FAB
:1024960001173CF1212F02176CF00E945E1740F4E1
:1024A6000E9471170E9477170E947D170E94861757
:1024B6002F5FF1CFE32FE1500E2F202F21176CF065
:1024C6000E945E1740F40E9471170E9477170E94BF
:1024D6007D170E9486172150F1CFE32FEF5F1E2F45
:1024E600D7CFF0FE01C078940E9466196096FF90DF
:1024F6000895FF921A93FF2410E020FE5EC0EFB706
:10250600E7FF03C0F8946894F0F810E0E0915504F2
:102516001E1710F00C94E4120E943017A081A2300E
:1025260011F00C94E21223FC12C00E941917DF016D
:102536000E9499180E949517689423F8E091380430
:10254600F0913904E093BC0EF093BD0E3DC00E949D
:102556001917DF010E9499180E949A17E091B80E88
:10256600F091B90EA091BA0EB091BB0EEA17FB0717
:1025760021F5E091BE0EEF5FE093BE0EE091BC0E3A
:10258600F091BD0E0E941017662777270E94FB1751
:10259600E0915304F0915404662777270E94581956
:1025A60020F0A091BE0EA43008F406C00E94301799
:1025B600A4E0A0830E949F1702C00E949F171F5F7E
:1025C600A5CFF0FE01C078941991FF9008952A973F
:1025D6001A9310E06DD010E0E0915504E11711F464
:1025E6000C944513E5E0F4E00E9445170E94191784
:1025F6000E94B0170E94B817E9E0F4E00E94451760
:102606000E9425170E94B0170E94B817EBE0F4E06D
:102616000E9445170E9436170E94B0170E94B817ED
:10262600EDE0F4E00E944517ACE01A9FF001ED538F
:10263600F24F0E94B0170E94B817EFE0F4E00E9434
:102646004517ACE01A9FF001E953F24F0E94AE1510
:10265600FE0133960E94F7160E94B817E1E1F4E0F6
:102666000E9445170E9430170E94AE15FE01339650
:102676000E94F7160E94B817E3E1F4E00E9445179E
:102686001F5FAACFE5E1F4E00E94451778940E9407
:10269600DC0E18812B960895E0E0E4BDEEE3E3BD81
:1026A600E0E8E7BF0895F894ECE0E5BD7894089576
:1026B600F894E0E0E5BDE7BF789408951A930A938D
:1026C600AA81BB8112960E949918309729F1AA8196
:1026D600BB8114960E9499188F01309761F00230E1
:1026E600E0E01E07C0F0F80131978F01AA81BB8197
:1026F6001496ED93FC93AA81BB8112960E94E9156C
:102706003197AC81A083AA81BB810E949918FF23CF
:1027160012F00E94E91506C0AA81BB81EFEFFFEF18
:10272600ED93FC93198108812596089526970E94BA
:102736005D1910E0AC85BD85E0E0F0E0ED93FC931B
:10274600EA89FB893196EA8BFB8B3197E4912E2F30
:10275600E03011F40C94C614E12FE03039F4253240
:1027660011F411E002C00E94BB170CC1E130A9F4BC
:10277600253219F40E94BB1704C112E040E000E0C4
:102786002D3211F401E0FEC02B3211F44BE2FAC0F7
:10279600203211F440E2F6C002C0E23039F450E0D3
:1027A60013E0203311F40068EDC004C0E33011F0EB
:1027B6000C94C514203310F02A3308F007C0AAE0A1
:1027C6005A9F502DE22FE0535E0FDCC0E22FE33616
:1027D60049F40E94C417E889F989A481AA930E9442
:1027E600CA17CFC0E33741F40E94C4170E94D2171C
:1027F6000E9404151E2F0AC0E03761F40E94C41718
:102806000E94D2170E940E151E2F086002600F77D5
:1028160030E035C0E43611F0E93611F4046002C048
:10282600E53731F4EEE7F9E0EE83FF8315E00DC0FE
:10283600E83511F4086004C0E83711F00C94C414AC
:10284600E8E8F9E0EE83FF8314E002FF14C00E947B
:10285600C4170E94DC17AB85AA233AF4EA85FB85E8
:102866000E940018EA87FB874DE2403011F01F5F97
:1028760001C00B7F04C00E94C4170E94DC1700FD34
:1028860011C0151778F407FF08C002FF04C00B7FBC
:10289600242F115001C020E301C020E20E94BB1783
:1028A6005150EFCF312F01FF17C03030A1F003FF99
:1028B60006C0EE81FF812591EE83FF8305C0AE81C0
:1028C600BF812D91AE83BF830E94BB17503009F0A4
:1028D60051503150EACF4BC020E3EE81FF810E9478
:1028E600A718E887F987EE81FF813296EE83FF838A
:1028F600E885F985AA85BB85AE17BF0750F02F5F1F
:10290600A885B985EA85FB85EA1BFB0BEA87FB8769
:10291600EFCF2A3328F003FF02C0295F01C0295DEB
:1029260004FD1AC0213320F4A885B985119709F44E
:1029360009C0531710F000FF01C013C020E207FFC3
:102946000BC020E3006102FF07C00B7F4A930E9481
:10295600CA17503009F051500E94BB17503009F089
:1029660051503150A885B985129708F0B5CF00FFB0
:1029760008C0503031F05150E0E2EA930E94CA1785
:10298600F8CF10E0DDCEAC85BD850E9499180E9477
:10299600641964960895FF92F82E26970E945F198F
:1029A6000E94E417309719F4EFEFFFEF25C0DE0120
:1029B60016960E94F7178D010E94E417EE83FF8397
:1029C600E0E0E887E987DE011A960E94F7170E9481
:1029D6009918FA93EA931A930A93E1E6F3E1FA93C4
:1029E600EA93FE013A96FA93EA93A0DE9F01AE813E
:1029F600BF81E0E0EC93F9010E9466192A96FF90E8
:102A06000895A991B991EE27FF276D91662311F0DC
:102A16003196FBCF0895AA27BB27E991F991059036
:102A2600002011F01196FBCFFD0108957991E991EF
:102A3600F991A991B991CD01772351F07A956191D8
:102A46006D936623C9F7772319F07A956D93FBCFBB
:102A5600FC010895A991B991E991F99130962AF46A
:102A6600E095F09531966DE26D93E89480E197E2FA
:102A76000DD088EE93E00AD084E6992707D08AE045
:102A860005D06E2F10D066276C9308956627E81739
:102A9600F90720F06395E81BF90BC9F7662311F4D3
:102AA60016F008956894605D6D930895A09156069A
:102AB600B0915706A030E2E0BE070895E0915606B1
:102AC600F0915706EA5AFB4F0895A083A6E5B6E0B3
:102AD600ED91FD913196FE93EE930895EFB7A09197
:102AE6003304EA2BEFBF0895E0913404F0913504E6
:102AF6000895E0933404F093350408951A930A93E5
:102B0600E0E8EA93E0E0EA930E947A07E0E4EA93D9
:102B1600E0E0EA930E947A0700E010E008951A9335
:102B26000A9300E010E00895FA93EA930C94EB17E9
:102B3600EA93E0E0EA930C947A07E12FF0E0089537
:102B4600A3E6B8E0ED91FD913196FE93EE933197B1
:102B5600E559F94F0895E081F0E0FA93EA93089574
:102B6600EA81FB81662777270895A8E0B0E080E038
:102B760090E00E9424180895E0E0E0936709E0934E
:102B860068090895E0E0E0936B0AE0936C0A089503
:102B9600EA1BFB0BE130A1E0FA0708956A937A93EA
:102BA600AA93BA93EA93FA93EFB7EA931A9308951E
:102BB6000E949D18EF5FFF4F6F4F7F4F0E94A21834
:102BC6000895E0916B0AF0916C0A0895ED91FD91DC
:102BD6003196FE93EE930895AA93BA93EA93FA93E5
:102BE600EFB7EA930895E991EFBFF991E991B991A9
:102BF600A9910895E0E0E0936200E09361000895F2
:102C0600A091980DB091990D0895EA0FFB1FE093DE
:102C1600980DF093990D08950A921A92FA926A9372
:102C26007A938A939A93AA93BA93EA93FA93EFB70D
:102C3600EA930895EFE3F0E060E070E00E94F11897
:102C4600EC33A0E0FA07A0E06A07A0E07A0708954F
:102C5600EFE1F0E060E070E00E94F1180895E09185
:102C6600A60DF091A70DF695E795EF710895A09141
:102C7600A60DB091A70DE6E00E940418EF70089526
:102C8600A4EABDE086E1EFE0F0E060E070E00E94DB
:102C96000319E091A60DE17CE260E093A60D08958C
:102CA600E091A70DE695E695EF73F0706070707091
:102CB600DF01CB010895E4E6F0E060E070E00E94F9
:102CC60087180E9450190895E093AE0DE5EDE09344
:102CD6007400E091AC0DF091AD0D09950895E09169
:102CE600B70DE0937300E5ECE09374000895E0916E
:102CF600AE0DEC70E8300895E091B50DF0E0EE54BD
:102D0600F24FE081E0937300E091B50DEF5FE09341
:102D1600B50DE5ECE09374000895E091BA0DF0E08E
:102D2600E854F24FE081E0937300E091BA0DEF5F53
:102D3600E093BA0DE5EC0895E5EDE0937400E091BB
:102D4600A80DF091A90D09950895E093AE0DE0E068
:102D5600E093B50DE093BA0D0895A091B50DAF5F60
:102D6600E091B60DEA170895A091B50DB0E0AE5406
:102D7600B24FE0917300EC930895A091B10DB0E0CD
:102D8600A155B24FE0917300EC930895E091B10D17
:102D9600EF5FE093B10D0895F0E0E055F24FE0816A
:102DA600E09373000895FA93EA93EAE0F0E0FA9369
:102DB600EA930C94CF10FA93EA930C94CF10FA93FB
:102DC600EA930C94C510FA93EA93E8EEF3E0FA93CB
:102DD600EA930895FA93EA93E0E0F0E00895FA930F
:102DE600EA930E94570780CEFA93EA930C942D1526
:102DF600A12FB0E0AF5FBF4F08950E942119D00107
:102E0600EC930895FA93EA930C948A08EA93E0EF18
:102E1600F0E0FA93EA930C948C09A0913804B091EF
:102E2600390480913A0490913B040895ACE01A9FCE
:102E3600F001E454F24F0895DF01ECEAF0E1ED937E
:102E4600FC930895ACE01A9FF001E254F24F089506
:102E5600A0E0B0E0A083B1830895ACE01A9FF00132
:102E6600EE53F24F0895ACE01A9FF001E054F24F92
:102E76000895E0915504ACE0EA9FF0010895A0831F
:102E8600B183F7CFFA93EA930C945707E091550470
:102E9600E150ACE0EA9FF001E454F24F0895DB0103
:102EA6008CE00E9446190895E0915504E150ACE08B
:102EB600EA9FF0010895ACE02A9FF001E054F24F3A
:102EC60060817181E22FEF5FEA9FF001E054F24FDB
:102ED600DF010E949918E617F7070895ACE02A9FCC
:102EE600F001E454F24F0895DE0114968CE00E943E
:102EF6004619F4CFBF01E22FEF5FACE0EA9FF00185
:102F0600E454F24FCCCFE22FEF5FACE0EA9FF00142
:102F1600E454F24FDF01FE0134968CE00E9446191C
:102F2600322F0895E093B80EF093B90E0895E0930A
:102F3600BA0EF093BB0E0895689420F8E89423F82F
:102F4600E0E0E093BC0EE093BD0EE0E0F0E0EADFE7
:102F5600EEDFE0E0E093BE0E0895DF010E949918CF
:102F6600FA93EA93FE0133963FCFFE0131968ACF5C
:102F76002A93ED85FE85FA93EA93E989FA890995FC
:102F86000895E889F9893497E88BF98B0895ED85DA
:102F9600FE85FA93EA93E989FA8909950895A8893D
:102FA600B98914960E949918EE83FF83FA93EA93DF
:102FB6000895A889B98914960E949918EA87FB870B
:102FC6000895DE011C960E94F7170E94991808952D
:102FD600E991F991309639F080EA9FE00197F1F78F
:102FE600A8953197C9F708950024AF0DB01D08952F
:102FF600AE1BBF0B860B970B0895F195E195F0403C
:103006000895EE230E2EFD0121F0F695E7950A941C
:10301600E1F70895F695E795F695E7950895EE0F8D
:10302600FF1F661F771F08956F2F660F660B762F9B
:103036000895FA9FF02DEB9FF00DEA9FE02DF10D1C
:1030460008957A9F702D6B9F700DF89F700DE99F04
:10305600700D6A9F602D710DFB9F600D711DE89FBD
:10306600600D711D8827FA9FF02D610D781FEB9F6B
:10307600F00D611D781FEA9FE02DF10D681F781F86
:1030860008956E2F6A9FF0016B9FF00D089540D052
:10309600D0DF0EF4B2DF08950024112490E1AA0FC8
:1030A600BB1F001C111C0E1A1F0A18F40E0E1F1E41
:1030B60001C0A1609A9599F7FD01D00108953F934B
:1030C6004F935F93002411244427552730E2AA0F1B
:1030D600BB1F881F991F001C111C441F551F0E1A69
:1030E6001F0A460B570B28F40E0E1F1E461F571FAE
:1030F60001C0A1603A9559F7FD01BC01D001CA0192
:103106005F914F913F910895DADFFD01BC0108956B
:10311600E894F7FF02C071DF6894B7FF06C0A09578
:10312600B095119600F8039400FA0895ED91FC917C
:1031360011970895ED91FD916D917D9108957E937E
:103146006E93FE93EE9308950590F491E02D089505
:10315600A083B1838283938308957A936A93FA93C3
:10316600EA930895082E8F019B01ED91FD916D91D3
:103176007C91102C112031F076956795F795E7959F
:103186001A94D1F7E023F123622373230895E023F1
:10319600F12362237323AF01CB01002051F0000F0E
:1031A600111F221F331F440F551F881F991F0A9492
:1031B600B1F700951095209530951C900E9002223F
:1031C60013223E912E9120233123242B352B082ABE
:1031D600192A2D933D930D921C9208950F931F93D8
:1031E6002F933F934F935F93BDDF3196611D711D02
:1031F600CEDF5F914F913F912F911F910F910895CF
:103206000F931F932F933F934F935F93ABDFEF93F0
:10321600FF936F937F933196611D711DB8DF7F9188
:103226006F91FF91EF915F914F913F912F911F9178
:103236000F910895119602D0FE2F1197E199FECFB6
:10324600FF93FFB7F894AEBBBFBBE09AEDB3FFBFE9
:10325600FF91089507D01196EF93EF2F03D0EF91CA
:1032660011970895E19B02C0A895FCCF9FB7F894EB
:10327600AEBBBFBBE09A8DB3E81719F0EDBBE29A7F
:10328600E19A9FBF08959927EF93FF9361916D93FC
:103296000197E1F7FF91EF910895309760407040F4
:1032A600089500240A160B060895AE17BF07860771
:1032B600970708955A934A933A932A931A930A932F
:1032C60008955D814C813B812A8119810881089589
:00000001FF
