:100000000C942A000C9447000C9447000C94C600F2
:100010000C9447000C9447000C9447000C94470044
:100020000C9447000C9447000C9447000C94470034
:100030000C9447000C9447000C9447000C94470024
:100040000C9447000C94C4010C9447000C94470096
:100050000C94470011241FBECFE5D4E0DEBFCDBF16
:1000600010E0A0E6B0E0E6EAF7E002C005900D92ED
:10007000A636B107D9F711E0A6E6B0E001C01D929F
:10008000A133B107E1F70E9449000C94D1030C940D
:1000900000000E94AE010E94750385EA90E00E9474
:1000A00080030E94EA000E94BA01A8950E946B0199
:1000B000FCCF809130018F7B80933001817131F0D2
:1000C00087E690E064E170E00E9428010895809145
:1000D000300186FF06C087E690E064E670E00E948B
:1000E00028011092210181E080932C0182E380930A
:1000F0002501809120018F5F8093220189E590E0A6
:1001000090936100809360009093650080936400F9
:1001100085EA86BF84E480933001089580913001A0
:100120008F7B80933001817139F08FEA90E064E138
:1001300070E00E942801089580912201809320019F
:1001400087E690E00E9403010895809130018F7B43
:10015000809330018FEA90E00E940301089570912E
:100160002E0160E080912F0190E0682B792B80EACE
:1001700041E02EE830E00E94AC03882331F48FEA9E
:1001800090E062E370E00E94280108951F920F92B0
:100190000FB60F9211242F933F934F935F936F935A
:1001A0007F938F939F93AF93BF93EF93FF930E949F
:1001B0008801FF91EF91BF91AF919F918F917F91B6
:1001C0006F915F914F913F912F910F900FBE0F90C4
:1001D0001F901895E6E6F0E082E091E0819391931C
:1001E00020E0E43AF207D1F7E4EAF0E0282F892F83
:1001F0002083818313821282349691E0E032F907E2
:10020000B9F708950895AC010FB607FE0CC0F89435
:1002100021E00AC031961296EF31F10549F422230C
:10022000B1F07894089520E0A6E6B0E0E0E0F0E0D8
:100230008D919C9111978250914061F7EE0FFF1FB5
:10024000EA59FF4F51834083222309F0789408959F
:10025000CF93DF93AC010FB607FC02C020E002C0D1
:10026000F89421E0C4EAD0E0DE01E0E0F0E08D9116
:100270009C9111978417950761F4EE0FFF1FEE0F05
:10028000FF1FEC55FF4F73836283222309F178949B
:100290001FC031961496EF31F10549F7E0E0F0E028
:1002A000888199818250914071F4EE0FFF1FEE0F0B
:1002B000FF1FEC55FF4F51834083738362832223DA
:1002C00039F0789405C031962496EF31F10541F765
:1002D000DF91CF910895F8942091660030916700E6
:1002E00081E02230380711F478940895E6E6F0E0D2
:1002F000828193818193919380E0E23AF807C1F77C
:1003000082E091E0918380837894F90109950895C2
:100310000F931F93CF93DF93C4EAD0E002E011E084
:100320008881998121E08230920771F02A813B8196
:100330002130310529F0215030403B832A8304C00D
:100340000E94030119830883249681E0C032D807F4
:1003500039F7DF91CF911F910F91089589E189B904
:1003600010BC1BB888E18AB986E880BD1BBA8FEF44
:100370008ABB08958CE085BD14BC8DE783BD89B729
:10038000806889BF789408951F920F920FB60F92DC
:1003900011242F933F934F935F936F937F938F938A
:1003A0009F93AF93BF93EF93FF9381B190E0887FCA
:1003B00090708036910509F433C181369105CCF5F2
:1003C0008832910509F4ABC089329105B4F48031CB
:1003D000910509F481C0813191053CF4009709F43D
:1003E00068C0089709F06FC168C08831910509F4A9
:1003F0007CC0809709F067C1DAC08034910509F4A8
:10040000D3C08134910544F48033910509F4BBC015
:10041000C89709F058C1BDC08035910509F4D3C013
:100420008835910509F4E5C08834910509F04BC180
:10043000BEC08839910509F40AC189399105ECF4E7
:100440008837910509F4E3C0893791054CF4883663
:10045000910509F4DCC08037910509F034C1E0C092
:100460008838910509F4F3C08039910509F4E0C09A
:100470008038910509F027C1DBC0803B910509F464
:10048000F2C0813B910544F4803A910519F1883A14
:10049000910509F018C1F0C0803C910509F403C131
:1004A000883C910509F4FFC0883B910509F00BC118
:1004B000E8C08091300181607DC0809130018C70F6
:1004C00090912501882379F09E7F9093250180915A
:1004D000250183B985ECE5C0809130018C70909145
:1004E0002501883089F79160F0CF8091300190E04C
:1004F0008C7090708430910561F490912101E92F06
:10050000F0E0EE5DFE4F808183B99F5F9093210103
:10051000E1CF089709F0D7C090912B012AC08091B4
:1005200030018C708430C9F49091210180912C01AC
:10053000981741F485ED86BFE0916000F09161006D
:1005400009950BC0E92FF0E0EE5DFE4F808183B985
:100550009F5F9093210185EC86BF809130018C7064
:10056000883009F0B0C090912B0180912801981734
:10057000C9F0E92FF0E0E75DFE4F808183B99F5F0E
:1005800090932B01A7CF809130018260809330013E
:1005900037C0809130018062809330011092210138
:1005A00010922B0185EE7DC02091210117C0809112
:1005B000300180618093300185ED86BFE091640059
:1005C000F09165007FC02091210183B1E22FF0E01E
:1005D000EE5DFE4F80832F5F2093210130E02F5F7F
:1005E0003F4F80912C0190E02817390709F072CF16
:1005F00055C083B1E0912101F0E0EE5DFE4F8083B4
:1006000085ED86BFE0916000F09161005BC0809154
:100610003001806A809330011092210110922B01E9
:100620008091300180648093300110922D0152CF6F
:1006300080912D0193B1E82FF0E0E25DFE4F9083B1
:100640008F5F80932D01813009F044CF27C083B1A3
:10065000E0912D01F0E0E25DFE4F8083809130015A
:1006600087FF2AC027C080913001806A80933001C3
:100670001092210110922B0110922D0180912601E0
:1006800028CF80912D018F5F80932D01E82FF0E01E
:10069000EA5DFE4F908193B9813011F485E801C085
:1006A00081EC86BF10C08091300187FF05C08F7735
:1006B0008093300185EE01C085EC86BFE091620039
:1006C000F09163000995FF91EF91BF91AF919F91D8
:1006D0008F917F916F915F914F913F912F910F90EB
:1006E0000FBE0F901F901895089585B3836085BB4A
:1006F00084B38C7F84BB8FEF80B983E081B9089588
:1007000020EB22B9909363008093620085E486BF5A
:100710000895982F8091300186FF02C080E00895EF
:100720001092210183E080932C0190932501709316
:1007300022016093230140932401309361002093B0
:100740006000309365002093640085EA86BF84E4EE
:100750008093300181E00895982F8091300186FFC9
:1007600002C080E008951092210140932C019093E3
:1007700025017093290160932A0110922B0182E0D8
:1007800080932801309361002093600030936500CE
:100790002093640085EA86BF88E48093300181E07D
:0607A0000895F894FFCF5C
:0607A600740374037403E8
:00000001FF
