:0C00000022C0FECFFDCFFCCFFBCFFACF1B
:10000C00F9CFF8CFF7CFF6CFF5CF46C0F3CF74C00A
:10001C00F1CFF0CFEFCFEECFEDCF1027E803640098
:10002C000A0001000010000110000100000011D3B3
:10003C007B430100020038000000F894EE27ECBB73
:10004C00F1E0FBBFEBBFE5BFF8E1F1BDE1BD8DE039
:10005C00A2E0BB27ED938A95E9F780E094E0A0E657
:10006C00ED930197E9F7EEE3F0E085919591009718
:10007C0061F0A591B59105901590BF01F001059027
:10008C000D920197E1F7FB01F0CFEFE5EDBFE4E056
:10009C00EEBFC0E6D1E043C081D0B4D01BB10CB1EF
:1000AC00E12FEC7109F011C0E52D7DD00083539444
:1000BC00E0E2E51509F001C055247394E0E2E71580
:1000CC0009F003C07724689420F89FD070D018955D
:1000DC001A93772009F001C0FCCFE42D64D0108175
:1000EC004394E0E2E41509F001C04424F8947A94B6
:1000FC007894E12F1991089551D0882009F40DC0FE
:10010C008A94E92DF0E0E058FE4FE081ECB993942D
:10011C00E0E2E91509F001C0992449D01895E0E016
:10012C00E2BBE0E2E1BBE0E0EBB9E8EDEAB9E6E81E
:10013C00E0BDE0E0E0BDE3E0E9B97894E0E0E7158C
:10014C0008F020C0C5DFBE2E37D0E8E04FD0DF016D
:10015C00CB01EB2DFF276627772743D0E093A00137
:10016C00F093A1016093A2017093A30125D0A1315A
:10017C00E3EDBE07EBE78E07E3E49E0709F001C051
:10018C0039DDDCCFE4E6F0E0FA93EA931ED0959BE0
:10019C0002C0959801C0959AD1CFFFCFEA93FA93FC
:1001AC00EFB7EA930895F0E0E05AFE4F0895E99115
:1001BC00EFBFF991E9910895A091A001B091A1012F
:1001CC008091A2019091A3010895E991F991309643
:1001DC0039F083E397E00197F1F7A8953197C9F7C8
:1001EC000895EA2BFB2B682B792B0895EE230E2E0A
:1001FC00FD01BC0131F0EE0FFF1F661F771F0A9443
:10020C00D1F708951A930A930895099119910895B5
:00000001FF
